:100000000C9471000C9499000C94CC000C94990001
:100010000C9499000C9499000C9499000C949900FC
:100020000C9499000C9499000C9499000C949900EC
:100030000C9499000C9499000C9499000C949900DC
:100040000C94B5100C9499000C9499000C949900A0
:100050000C9499000C9499000C9499000C949900BC
:100060000C9499000C949900000000070002010014
:100070000003040600000000000000000102040864
:100080001020408001020408102001020408102002
:10009000040404040404040402020202020203032E
:1000A0000303030300000000250028002B000000CC
:1000B0000000240027002A002F2A2D2B0D2D3D5B48
:1000C0005D5C203B27602C2E2F5F2B7B7D7C7E3A56
:1000D000227E3C3E3F21402324255E262A282900FB
:1000E000211011241FBECFEFD8E0DEBFCDBF12E03C
:1000F000A0E0B1E0EEEFFAE302C005900D92A83463
:10010000B107D9F723E0A8E4B2E001C01D92A435FD
:10011000B207E1F710E0C1E7D0E004C02197FE018B
:100120000E94771DC037D107C9F70E9431120C9485
:10013000741D0C940000CF93C82F60E00E94C5117D
:1001400061E08C2FCF910C940112CF93C82F60E007
:100150000E94011261E08C2FCF910C94C51184E1B3
:1001600090E00E94561182E00E94A50084E190E098
:100170000E94561182E00E949B0084E190E00C9462
:100180005611882321F083E00E94A50003C083E07C
:100190000E949B000C94AF001F920F920FB60F921B
:1001A00011248F9381E080930001E9988F910F9043
:1001B0000FBE0F901F90189582E00E949B0083E075
:1001C0000E949B00E9E6F0E080818C608083E998E2
:1001D000E19A089584E00E94A50068E572E080E05D
:1001E00090E00E94301184E00C949B00CF93C82FC4
:1001F00083E00E949B00C6FB882780F90E94C10013
:10020000C5FB882780F90E94C100C4FB882780F9BC
:100210000E94C100C3FB882780F90E94C100C2FB75
:10022000882780F90E94C100C1FB882780F90E94BD
:10023000C1008C2F81700E94C1008C2F881F8827DD
:10024000881F0E94C10083E00E949B008AE090E02A
:100250000E9456110E94FF106093490270934A0257
:1002600080934B0290934C0210920001E99ACF9137
:1002700008950F931F9380910001811123C00E9464
:10028000FF100091490210914A0220914B023091D7
:100290004C02DC01CB01801B910BA20BB30B80390C
:1002A0009105A105B10570F00E94AF000E94FF10FA
:1002B0006093490270934A0280934B0290934C02E0
:1002C00081E00CC080910001882359F1809148029F
:1002D000813039F489EF0E94F60082E08093480271
:1002E00020C0823039F480914D020E94F6001092B5
:1002F000480217C020915F0280915E02281789F0A2
:1003000030E0F901E25BFD4F808180934D022F5F69
:100310003F4F2F70332720935F021F910F910C9452
:10032000F6001F910F91089520915E0230E0A9011F
:100330004F5F5F4F4F7055278F3F51F060915F02C5
:10034000641731F0F901E25BFD4F808340935E0258
:100350000895CF93C82F60E00E94011261E08C2FB6
:10036000CF910C94C511CF93C82F60E00E94C511A6
:1003700061E08C2FCF910C9401128530C9F4603567
:1003800031F0623541F06F3499F482E101C083E1CC
:10039000442361F006C082E1442329F00E94A901B0
:1003A00083E10C94A9010E94B30183E10C94B30191
:1003B0000895CF93C82F60E00E94011261E08C2F56
:1003C000CF910C94C511CF93C82F60E00E94C51146
:1003D00061E08C2FCF910C940112809161028130E9
:1003E00069F040F0823071F08330B1F486E00E9411
:1003F000D9010FC086E00E94E3010BC086E00E9495
:10040000E30103C086E00E94D90188E00E94D9017F
:1004100003C088E00E94E30188EC90E00C94561140
:1004200080916002813069F040F0823071F0833059
:10043000B1F487E00E94D9010FC087E00E94E30178
:100440000BC087E00E94E30103C087E00E94D9014E
:1004500085E00E94D90103C085E00E94E30188EC99
:1004600090E00C9456110E94ED010E9410028EE063
:100470000E94E3018FE00C94E301FF920F931F931E
:10048000CF93DF931F92CDB7DEB7182FF42E062F30
:10049000101664F4909161029150937090936102F0
:1004A00069830E94ED0101506981F2CF862F67FDBB
:1004B00080E0062F081B002351F0909161029F5F9E
:1004C0009370909361020E94ED010F5FF4CF0F2DA6
:1004D000101654F4909160029F5F937090936002A5
:1004E0000E9410020150F4CF8F2DF7FC80E00F2DF9
:1004F000081B002351F090916002915093709093EB
:1005000060020E9410020F5FF4CF8EE010FF03C064
:100510000E94D90102C00E94E3018FE011FF08C0D0
:100520000F90DF91CF911F910F91FF900C94D90103
:100530000F90DF91CF911F910F91FF900C94E301E9
:1005400085ED90E0089589EC90E008958DEB90E0C2
:10055000089588EB90E00895CF92DF92EF92FF929A
:100560000F93CF93DF931F92CDB7DEB7FC01928537
:10057000473499F0433551F04933B9F491FB88275A
:1005800080F98095292F80FB21F90EC0892F817079
:100590008095292F80FB20F907C092FB882780F9DE
:1005A0008095292F80FB22F922872285921799F0C6
:1005B0006115710581F0CB0129839E012F5F3F4FAB
:1005C0006901EE24E394F12C00E022E040E060E0D9
:1005D0000E94721301C080E00F90DF91CF910F91C4
:1005E000FF90EF90DF90CF9008950F931F93CF93DC
:1005F000DF9300D0CDB7DEB78C0169834A83DC017D
:100600001C968D919C911D97009721F4EA81E93306
:10061000B9F411C0DC01ED91FC910190F081E02D65
:1006200020E0AE014E5F5F4FBE016F5F7F4F0995C7
:10063000882361F315C0D8011A968C9181FD10C0F2
:10064000F0E0E75FFE4F808187FD03C080680E9475
:100650009401F8018385882319F013860E94EA002B
:100660000F900F90DF91CF911F910F9108950F93ED
:100670001F93CF93DF9300D0CDB7DEB78C01698392
:100680004A83DC011C968D919C911D97009721F463
:10069000EA81E933B9F411C0DC01ED91FC910190DC
:1006A000F081E02D21E0AE014E5F5F4FBE016F5F34
:1006B0007F4F0995882361F320C0D8011A968C9149
:1006C00081FF1BC0F0E0E75FFE4F808187FF0E9443
:1006D00094019981892F817181F0947471F08A81DC
:1006E0008C3411F0833649F488E70E94940188E73E
:1006F0000E94940181E0F80183870F900F90DF91B1
:10070000CF911F910F910895AF92BF92CF92DF9238
:10071000EF92FF920F931F93CF93DF935C01C42F4F
:1007200081E0E82E81E0F82E00E010E0CC24C394B4
:10073000D12CD62FD4279601002E01C0220F0A9467
:10074000EAF78D2F822369F02C23F7018081222381
:1007500019F087FD06C003C087FD03C080680E94B2
:1007600094010F5F1F4FFFEFEF1AFF0A08301105CA
:1007700011F7F5018385882319F013860E94EA009A
:10078000C93811F0C83949F488E70E94940188E714
:100790000E94940181E0F5018387DF91CF911F9141
:1007A0000F91FF90EF90DF90CF90BF90AF900895A2
:1007B000FC0112868DE891E0918380831386158673
:1007C00014860895FC019581DB0111968C91119797
:1007D000890F8583968112968C91890F868308955F
:1007E000FC019781916097830895FC0197819E7F1A
:1007F00097830895FC019781926097830895FC0187
:1008000097819D7F97830895FC01978194609783DA
:100810000895FC0197819B7F97830895FC0185E0F3
:10082000DF011D928A95E9F783EA91E09183808345
:100830001582168217820895CF93DF93EC014E81C3
:100840006D818F810E943D021D821E82DF91CF91BA
:10085000089580E00895089580E00895860F911D21
:10086000860F911DFC01518B408B81E00895860F0E
:10087000911D860F911DFC015687458781E00895E3
:10088000860F911D860F911DFC015687458781E0DB
:100890000895CF93DF93EC018C819D81DC01ED9174
:1008A000FC910480F581E02D6E8109951F86188AE0
:1008B00081E08A8B1E821B8A1C8A1D8A1E8A1F8ADF
:1008C00080E0DF91CF910895FC018681089581E059
:1008D000633009F080E0089581E0623009F080E043
:1008E0000895860F911D860F911DFC0185859685C3
:1008F0000895FC0187890895EF92FF92CF93DF93CB
:10090000DC01E70152968C915297823049F11F9693
:100910006C931F9750964C9350979B819370933094
:10092000F9F49A8197FF1CC09E8158962C91589794
:10093000291718F458969C935897E82FF0E09F01D8
:10094000220F331FE20FF31FEA0FFB1F9A819F70E4
:1009500097839C81908794E091878F5F52968C93C8
:10096000DF91CF91FF90EF900895EF92FF920F9358
:1009700002970E947C040F91FF90EF900895CF930F
:10098000DF93EC018C819D81DC01ED91FC91048071
:10099000F581E02D6E8109951F86188A81E08A8B8A
:1009A0001E821B8A1C8A1D8A1E8A1F8A80E0DF9194
:1009B000CF910895FC018681089581E0633009F0AC
:1009C00080E0089581E0613009F080E00895860FAD
:1009D000911D860F911DFC01858596850895FC016A
:1009E00087890895EF92FF92CF93DF93DC01E701AF
:1009F00052968C915297823049F11F966C931F97B3
:100A000050964C9350979B8193709330F9F49A8150
:100A100097FF1CC09E8158962C915897291718F45F
:100A200058969C935897E82FF0E09F01220F331FB0
:100A3000E20FF31FEA0FFB1F9A819F7097839C813F
:100A4000908794E091878F5F52968C93DF91CF913E
:100A5000FF90EF900895EF92FF920F9302970E94FC
:100A6000F2040F91FF90EF900895CF93DF93EC0184
:100A70008C819D81DC01ED91FC910480F581E02D5C
:100A80006E8109951C8A1D8A81E08F8B1E82188ECB
:100A9000198E1A8E1B8E1C8E80E0DF91CF910895E7
:100AA000FC018681089581E0633009F080E00895BB
:100AB00081E0633009F080E00895860F911D860F74
:100AC000911DFC01808991890895FC01848D089510
:100AD000EF92FF92CF93DF93DC01E70157968C9161
:100AE0005797833049F154966C93549755964C938D
:100AF00055979B8193709330F9F49A8197FF1CC0AE
:100B00009E815D962C915D97291718F45D969C93B4
:100B10005D97E82FF0E09F01220F331FE20FF31FD4
:100B2000EA0FFB1F9A819F7097839C81908794E0C6
:100B300091878F5F57968C93DF91CF91FF90EF90C5
:100B40000895EF92FF920F9302970E9468050F910C
:100B5000FF90EF9008950895FB01DA01422F6C9108
:100B600080810E94BD0180E008956F927F928F92F4
:100B70009F92AF92BF92CF92DF92EF92FF920F932C
:100B80001F93CF93DF93CDB7DEB762970FB6F8947C
:100B9000DEBF0FBECDBFDC015C962C91222309F491
:100BA00060C06C010E94FF10F601808C918CA28CB9
:100BB000B38CDC01CB0188199909AA09BB09B7FDDF
:100BC00050C05601FBE0AF0EB11C4601360181E179
:100BD000680E711CD5018C9190E09A8B898BE12C69
:100BE0008E010F5F1F4F9E012F5E3F4FF501319722
:100BF0004081F6016681848195810E94081CF82E4F
:100C0000811115C029893A892330310580F0D4013A
:100C100050968D919C915197009749F0DC01ED9190
:100C2000FC910190F081E02D40E0B6010995B3E020
:100C3000AB0EB11CE2E08E0E911CA614B70451F667
:100C40000E94FF10D6015D962C91DC01CB01820F32
:100C5000911DA11DB11DF601808F918FA28FB38FC1
:100C600001C0F12C8F2D62960FB6F894DEBF0FBE37
:100C7000CDBFDF91CF911F910F91FF90EF90DF904B
:100C8000CF90BF90AF909F908F907F906F9008957E
:100C9000CF92DF92EF92FF920F931F93CF93DF9348
:100CA000CDB7DEB762970FB6F894DEBF0FBECDBFEB
:100CB000DC0157962C91222381F06C010E94FF10D9
:100CC000F6010389148925893689DC01CB01801B53
:100CD000910BA20BB30BB7FF02C0F12C3AC0838576
:100CE00090E09A8B898BE12C8E010F5F1F4F9E0144
:100CF0002F5E3F4F42856681848195810E94081C4A
:100D0000F82E811118C029893A892330310598F0CD
:100D1000D6011D968D919C911E97009761F0DC0184
:100D2000ED91FC910190F081E02D8E010F5F1F4F3E
:100D300040E0B60109950E94FF10F601208DDC010C
:100D4000CB01820F911DA11DB11D838B948BA58BAF
:100D5000B68B8F2D62960FB6F894DEBF0FBECDBF57
:100D6000DF91CF911F910F91FF90EF90DF90CF9087
:100D70000895CF92DF92EF92FF920F931F93CF933C
:100D8000DF93CDB7DEB762970FB6F894DEBF0FBE24
:100D9000CDBFDC0157962C91222381F06C010E947B
:100DA000FF10F6010389148925893689DC01CB01FE
:100DB000801B910BA20BB30BB7FF02C0F12C3AC002
:100DC000838590E09A8B898BE12C8E010F5F1F4FFA
:100DD0009E012F5E3F4F42856681848195810E94EE
:100DE000081CF82E811118C029893A892330310551
:100DF00098F0D6011D968D919C911E97009761F0F9
:100E0000DC01ED91FC910190F081E02D8E010F5FEE
:100E10001F4F40E0B60109950E94FF10F601208D9A
:100E2000DC01CB01820F911DA11DB11D838B948B21
:100E3000A58BB68B8F2D62960FB6F894DEBF0FBED2
:100E4000CDBFDF91CF911F910F91FF90EF90DF9079
:100E5000CF9008953F924F925F926F927F928F92C0
:100E60009F92AF92BF92CF92DF92EF92FF920F9339
:100E70001F93CF93DF93CDB7DEB7EC970FB6F894FF
:100E8000DEBF0FBECDBFDC0114968D909C901597F0
:100E900016963C9131113FC1522E342E462E5C01E4
:100EA000FC01158ED401ED91FC910190F081E02DB3
:100EB00060E0C40109957C01009711F486ED30C112
:100EC000FC01608071806114710409F426C1650120
:100ED000F7E0CF0ED11CDC011196DC92CE92149675
:100EE0005C928E01065D1F4F28E030E040E060E03C
:100EF000F501848195810E94CB198CAF8111FEC0D0
:100F00001AA5D7016D927C92D401ED91FC910280DB
:100F1000F381E02D232D40E0642DC4010995F501F6
:100F20008683882309F4FBC099A99087282F40E085
:100F300060E0848195810E94761A8CAFD401ED9196
:100F4000FC91D70114961C92882359F00480F581F6
:100F5000E02DD50116966C91C4010995F501168214
:100F6000D8C00190F081E02DD50116966C91C40196
:100F70000995FC01892B09F4A1CF912F133108F0B9
:100F800092E15482992369F0292F30E08E01065DA9
:100F90001F4F40E0F5016681848195810E94CB1945
:100FA0008CAF8CAD8111ADC0EBAC87EB91E09A8337
:100FB0008983C50102969C838B831D821A861B86BA
:100FC0001E86188A1F8619A21AA21BA2CE0141965C
:100FD0009F838E83998788879D878C8781E089A7E7
:100FE000F12CFE1499F08E010F5F1F4F2F2D40E062
:100FF000D50116966C91169714968D919C91159724
:101000000E94191AF5018789833041F4D50157965A
:101010008C91833029F081ED8CAF73C0F394E1CFD4
:10102000960143E0F5016681848195810E94331524
:101030008CAF68EE73E080E090E00E943011D50143
:1010400054962C91549740E016966C9116971496EE
:101050008D919C9115970E94E31B8CAF811151C01B
:1010600068EE73E080E090E00E94301100E010E054
:1010700049ECE42E41E0F42EF501468D602FC501C8
:101080000E94CA138CAF81113CC020E040E0602F69
:10109000C5010E94A0138CAFFA82E982AE014F5FB6
:1010A0005F4FB801C5010E942F138CAF01301105AD
:1010B00019F001E010E0E0CF80E28CAF8CAD882326
:1010C000C1F090E0959587958CAFCE01CC966C01E0
:1010D000EE24E394F12C00E022E040E060E0C50162
:1010E0000E94721369E170E080E090E00E9430118C
:1010F000E5CF91E0D5015C969C9312C0F701718217
:101100006082D501ED91FC910480F581E02DC5014F
:1011100009958CAD05C089ED03C087ED01C084ED54
:10112000EC960FB6F894DEBF0FBECDBFDF91CF9126
:101130001F910F91FF90EF90DF90CF90BF90AF90F5
:101140009F908F907F906F905F904F903F90089509
:101150003F924F925F926F927F928F929F92AF9247
:10116000BF92CF92DF92EF92FF920F931F93CF9394
:10117000DF93CDB7DEB7EC970FB6F894DEBF0FBEA6
:10118000CDBFDC0114968D909C90159716963C91DE
:1011900031113AC1522E342E462E5C01FC01108EC4
:1011A000D401ED91FC910190F081E02D60E0C4014B
:1011B00009957C01009711F486ED2BC1FC0160803C
:1011C00071806114710409F421C16501F7E0CF0E4B
:1011D000D11CDC011196DC92CE9214965C928E01A9
:1011E000065D1F4F28E030E040E060E0F5018481BB
:1011F00095810E94CB198CAF8111F9C01AA5D70136
:101200006D927C92D401ED91FC910280F381E02DEE
:10121000232D40E0642DC4010995F50186838823C0
:1012200009F4F6C099A99087282F40E060E08481F6
:1012300095810E94761A8CAFD401ED91FC91D70173
:1012400014961C92882359F00480F581E02DD50175
:1012500016966C91C4010995F5011682D3C00190D0
:10126000F081E02DD50116966C91C4010995FC0121
:10127000892B09F4A1CF912F133108F092E1548208
:10128000992369F0292F30E08E01065D1F4F40E061
:10129000F5016681848195810E94CB198CAF8CAD5C
:1012A0008111A8C0EBACF12C4DEB642E41E0742E03
:1012B0002501F2E04F0E511C4E0181E1880E911C78
:1012C000FE1449F17A8269825C824B821D821A8601
:1012D0001B861E86188A1F8619A21AA21BA219A68F
:1012E0009F828E82998688869D868C868E010F5F6E
:1012F0001F4F2F2D40E0D50116966C91169714962E
:101300008D919C9115970E94191AF501828982305E
:1013100011F0F394D5CFD50152968C91823019F00B
:1013200081ED8CAF67C0960142E0F5016681848152
:1013300095810E9433158CAF68EE73E080E090E0F9
:101340000E943011D5011F962C911F9740E01696F0
:101350006C91169714968D919C9115970E94E31BA2
:101360008CAF811147C068EE73E080E090E00E948E
:101370003011F501418D60E0C5010E94CA138CAFA8
:10138000811138C020E040E060E0C5010E94A01358
:101390008CAF89EC91E09A838983AE014F5F5F4FF8
:1013A00060E070E0C5010E942F1380E28CAF8CAD2D
:1013B0008823C1F090E0959587958CAFCE01CC96AF
:1013C0006C01EE24E394F12C00E022E040E060E0C8
:1013D000C5010E94721369E170E080E090E00E9414
:1013E0003011E5CF91E0D50157969C9312C0F701DB
:1013F00071826082D501ED91FC910480F581E02D30
:10140000C50109958CAD05C089ED03C087ED01C00C
:1014100084EDEC960FB6F894DEBF0FBECDBFDF9122
:10142000CF911F910F91FF90EF90DF90CF90BF90E1
:10143000AF909F908F907F906F905F904F903F9074
:1014400008952F923F924F925F926F927F928F9268
:101450009F92AF92BF92CF92DF92EF92FF920F9343
:101460001F93CF93DF93CDB7DEB7EB970FB6F8940A
:10147000DEBF0FBECDBFDC0114968D909C901597FA
:101480001696DC90D11017C1C22E242E362E7C0168
:10149000FC01108ED401ED91FC910190F081E02DC2
:1014A00060E0C40109955C01009719F446EDD42E63
:1014B0000FC1FC01608071806114710409F4FEC0E9
:1014C0002701F7E04F0E511CDC0111965C924E9201
:1014D0001496CC928E01065D1F4F28E030E040E06C
:1014E00060E0F701848195810E94CB19182F81114A
:1014F000EBC01AA5D5016D927C92D401ED91FC91BF
:101500000280F381E02D222D40E0632DC401099576
:10151000F7018683882309F4D4C099A99087282FDE
:1015200040E060E0848195810E94761A782ED40193
:10153000ED91FC91D50114961C92882361F00480F2
:10154000F581E02DD70116966C91C4010995F7013C
:101550001682D72CBDC00190F081E02DD7011696E0
:101560006C91C4010995009709F4A0CF212F133184
:1015700008F022E1FC01C48221110FC03BACC12C58
:1015800033EC832E31E0932E3701F2E06F0E711CA5
:101590005E0181E1A80EB11C38C030E08E01065D0D
:1015A0001F4F40E0D70116966C91169714968D91B7
:1015B0009C9115970E94CB19182F811172C0DECF14
:1015C0009A8289827C826B821D821A861B861E8685
:1015D000188A1F8619A21AA21BA219A6BF82AE8260
:1015E000B986A886BD86AC868E010F5F1F4F2C2D55
:1015F00040E0F7016681848195810E94191AD70124
:1016000052968C91823019F0C394C310D9CFF70150
:101610008289823009F044C0920142E0668184816F
:1016200095810E94331568EE73E080E090E00E949F
:101630003011D7011F962C911F9740E016966C91A0
:10164000169714968D919C9115970E94E31B182F65
:10165000811127C068EE73E080E090E00E943011B5
:10166000F701418D60E0C7010E94CA13182F811154
:1016700018C020E040E060E0C7010E94A01389ECA0
:1016800091E09A838983AE014F5F5F4F60E070E025
:10169000C7010E942F1381E0D70157968C9318C081
:1016A00011EDD701ED91FC910480F581E02DC7018A
:1016B0000995D12E0DC029EDD22E0AC097EDD92E55
:1016C00007C084EDD82E04C0F50171826082E9CF95
:1016D0008D2DEB960FB6F894DEBF0FBECDBFDF9118
:1016E000CF911F910F91FF90EF90DF90CF90BF901F
:1016F000AF909F908F907F906F905F904F903F90B2
:101700002F900895DC01AA5ABF4F20E030E04D91A0
:101710005D91452B59F4255D3F4F220F331FFC018E
:10172000E20FF31F7183608380E008952F5F3F4FC6
:101730002031310561F783ED0895CF93DF93FC01EC
:10174000DA018281882319F08130D9F01FC03483F7
:10175000238381E0828315C02D913C911197232B27
:10176000A9F0019794838383EB0188819981019685
:10177000998388838D919C911197019711969C93E1
:101780008E9383819481009739F7128281E02381BF
:101790003481232B09F080E0DF91CF9108952F92BF
:1017A0003F924F925F926F927F928F929F92AF92F1
:1017B000BF92CF92DF92EF92FF920F931F93CF933E
:1017C000DF9300D000D0CDB7DEB76C017C836B8394
:1017D0005A8349834C0180E1880E911C5601A7E091
:1017E000AA0EB11C332433942601BBE04B0E511CCE
:1017F0003601E2E16E0E711C83E0282E12E08B812F
:101800009C81892B09F4D7C0D60190968C918230A7
:1018100061F128F4882341F0813079F0F0CF8330F2
:1018200041F18430D1F1EBCFF601148385819681AB
:10183000908787831287118730A2AE014D5F5F4F7B
:10184000BE016F5F7F4FC5010E94401D882309F4D0
:10185000B2C0D6011596ED91FC91169780819196B4
:101860008C939197818192968C93F6017682658212
:1018700020A2D60192968C919297843011F493967F
:101880001C92F60181A182508483258136813087A4
:1018900027838287818784E080A3D60192968C91EA
:1018A0008430B1F0853009F442C0823009F06BC059
:1018B000AE014D5F5F4FBE016F5F7F4FC5010E945C
:1018C000401D882309F477C0F601858984A36BC085
:1018D000AE014D5F5F4FBE016F5F7F4FC5010E943C
:1018E000401D882309F467C0D60155968C91559701
:1018F000833009F058C056968C915697813009F084
:1019000052C098969C91989757968C91992321F064
:10191000882309F448C003C0823009F044C0F601AE
:1019200033A2928996A3938997A385A33CC0AE0165
:101930004D5F5F4FBE016F5F7F4FC5010E94401D2D
:101940008823C9F1D60193968C919397882359F1F6
:1019500012968D919C911397009729F1DC01ED91DE
:10196000FC910190F081E02D7401D60195960C91C7
:10197000959797962C91979796964C9196979496C3
:101980006C91099510C0F60121A130E02250310977
:10199000AE014D5F5F4FBE016F5F7F4FC2010E947E
:1019A0009D0B882341F0D60116969C928E92159736
:1019B00090961C9224CF0F900F900F900F90DF9174
:1019C000CF911F910F91FF90EF90DF90CF90BF903C
:1019D000AF909F908F907F906F905F904F903F90CF
:1019E0002F9008952F923F924F925F926F927F9225
:1019F0008F929F92AF92BF92CF92DF92EF92FF921F
:101A00000F931F93CF93DF9300D000D0CDB7DEB7F5
:101A10006C017C836B835A8349834C0180E1880E7F
:101A2000911C5601A7E0AA0EB11C33243394260161
:101A3000BBE04B0E511C3601E2E16E0E711C83E0DF
:101A4000282E12E08B819C81892B09F4D7C0D60106
:101A500090968C91823061F128F4882341F0813096
:101A600079F0F0CF833041F18430D1F1EBCFF60142
:101A7000148385819681908787831287118730A28E
:101A8000AE014D5F5F4FBE016F5F7F4FC5010E948A
:101A9000401D882309F4B2C0D6011596ED91FC9142
:101AA0001697808191968C939197818192968C93D1
:101AB000F6017682658220A2D60192968C91929749
:101AC000843011F493961C92F60181A18250848394
:101AD00025813681308727838287818784E080A3B0
:101AE000D60192968C918430B1F0853009F442C0D1
:101AF000823009F06BC0AE014D5F5F4FBE016F5F7A
:101B00007F4FC5010E94401D882309F477C0F6016C
:101B1000858984A36BC0AE014D5F5F4FBE016F5FCF
:101B20007F4FC5010E94401D882309F467C0D6017C
:101B300055968C915597833009F058C056968C91E4
:101B40005697813009F052C098969C919897579675
:101B50008C91992321F0882309F448C003C0813077
:101B600009F044C0F60133A2928996A3938997A302
:101B700085A33CC0AE014D5F5F4FBE016F5F7F4FDD
:101B8000C5010E94401D8823C9F1D60193968C910E
:101B90009397882359F112968D919C9113970097F2
:101BA00029F1DC01ED91FC910190F081E02D7401AF
:101BB000D60195960C91959797962C919797969616
:101BC0004C91969794966C91099510C0F60121A1BD
:101BD00030E022503109AE014D5F5F4FBE016F5FB3
:101BE0007F4FC2010E949D0B882341F0D6011696BB
:101BF0009C928E92159790961C9224CF0F900F90E6
:101C00000F900F90DF91CF911F910F91FF90EF9068
:101C1000DF90CF90BF90AF909F908F907F906F900C
:101C20005F904F903F902F9008952F923F924F9248
:101C30005F926F927F928F929F92AF92BF92CF925C
:101C4000DF92EF92FF920F931F93CF93DF9300D019
:101C500000D0CDB7DEB76C017C836B835A83498398
:101C60004C0180E1880E911C5601A7E0AA0EB11C20
:101C7000332433942601BBE04B0E511C3601E2E1C4
:101C80006E0E711C83E0282E12E08B819C81892BC3
:101C900009F4D7C0D60190968C91823061F128F476
:101CA000882341F0813079F0F0CF833041F18430E6
:101CB000D1F1EBCFF60114838581968190878783DC
:101CC0001287118730A2AE014D5F5F4FBE016F5F7B
:101CD0007F4FC5010E94401D882309F4B2C0D60180
:101CE0001596ED91FC911697808191968C93919722
:101CF000818192968C93F6017682658220A2D6012C
:101D000092968C919297843011F493961C92F601DE
:101D100081A1825084832581368130872783828701
:101D2000818784E080A3D60192968C918430B1F0B3
:101D3000853009F442C0823009F06BC0AE014D5FBE
:101D40005F4FBE016F5F7F4FC5010E94401D88231A
:101D500009F477C0F601858984A36BC0AE014D5F9D
:101D60005F4FBE016F5F7F4FC5010E94401D8823FA
:101D700009F467C0D60155968C915597833009F0C8
:101D800058C056968C915697813009F052C098965B
:101D90009C91989757968C91992321F0882309F468
:101DA00048C003C0833009F044C0F60133A29289D1
:101DB00096A3938997A385A33CC0AE014D5F5F4F67
:101DC000BE016F5F7F4FC5010E94401D8823C9F18E
:101DD000D60193968C919397882359F112968D9101
:101DE0009C911397009729F1DC01ED91FC910190F2
:101DF000F081E02D7401D60195960C9195979796F8
:101E00002C91979796964C91969794966C910995EC
:101E100010C0F60121A130E022503109AE014D5F22
:101E20005F4FBE016F5F7F4FC2010E949D0B8823F1
:101E300041F0D60116969C928E92159790961C9220
:101E400024CF0F900F900F900F90DF91CF911F91A3
:101E50000F91FF90EF90DF90CF90BF90AF909F9049
:101E60008F907F906F905F904F903F902F9008954C
:101E70008EEC92E00E94411C85E692E00E941C04D8
:101E80000C9439012A9A08952A988EBD0DB407FE44
:101E9000FDCF1EBC0DB407FEFDCF0E94420F8EB5D4
:101EA00008952A9882608EBD0DB407FEFDCF6EBDE9
:101EB0000DB407FEFDCF0C94420F88EF0E94440F33
:101EC000807C8034A1F018F4882301F108958038D3
:101ED00019F0803CB9F0089588ED0E94440F81FD0F
:101EE0000BC069EC88ED0E94510F82E00CC088EDB8
:101EF0000E94440F81FDF5CF6BEC88ED0E94510FDD
:101F000083E001C081E080936202089561ED88ED75
:101F10000E94510F1092620208950F931F93CF9366
:101F2000DF938C01229A0E94420F259A239A2498CB
:101F3000229A80E58CBD81E08DBD219868E188E81A
:101F40000E94510F60E288E70E94510F60E088E72D
:101F50000E94510FC1E0D0E0209799F088E60E94DE
:101F6000440F219680FFF8CF61EC88ED0E94510F5D
:101F700060E680ED0E94510F64E088EE0E94510FF0
:101F800002C08FEF11C088EE0E94440F82FFFBCF8A
:101F9000C8010E945D0F60E288EC0E94510F61E071
:101FA00080E80E94510F80E0DF91CF911F910F9147
:101FB0000895CF93DF93CDE6D2E083E692E090934D
:101FC0007A02809379020E9433020E94DC008EEC38
:101FD00092E00E948D0F8F3FC9F461E08DE00E9476
:101FE000C51161E08DE00E94011264EF71E080E0B4
:101FF00090E00E94301160E08DE00E94011264EFD9
:1020000071E080E090E00E943011EBCF68EC70E06E
:1020100080E090E00E943011D093C002C093BF02D4
:1020200085E692E09093C2028093C102D093A3020E
:10203000C093A2029093890280938802DF91CF918E
:1020400008950F931F93CF93DF938EEC92E00E943D
:10205000DE14EFEAF2E00EEC12E0158304838FEC5D
:1020600091E0918380838DEE91E093838283108E43
:10207000118E128E138E148E168E1782D8E0D08792
:102080008CE38093B8021286138684E08093BB02AF
:10209000158616868093BE02C1E0C78B168A148A05
:1020A000118A108A138A128ABF01C8010E94820B0A
:1020B000E5E9F2E01583048383EF91E09183808367
:1020C00081E192E093838283138A148A158A168AA7
:1020D000178A118E1782D0878CE380939E02128616
:1020E000138684E08093A102C28B118A178616861C
:1020F0001586BF01C8010E94820BEBE7F2E0158351
:10210000048387E192E09183808385E392E0938367
:102110008283138A148A158A168A178A118E178267
:10212000D0878CE3809384021286138684E08093A8
:102130008702C28B118A178616861586BF01C801D1
:102140000E94820B8DE692E00E94D80385E692E021
:102150000E940E048BE392E09093640280936302EA
:10216000DF91CF911F910F9108951F920F920FB69B
:102170000F9211242F933F938F939F93AF93BF930D
:102180008091460390914703A0914803B091490381
:102190003091450326E0230F2D3720F40296A11D30
:1021A000B11D05C029E8230F0396A11DB11D209381
:1021B00045038093460390934703A0934803B0934D
:1021C000490380914A0390914B03A0914C03B09135
:1021D0004D030196A11DB11D80934A0390934B03BB
:1021E000A0934C03B0934D03BF91AF919F918F91FA
:1021F0003F912F910F900FBE0F901F9018952FB702
:10220000F894609146037091470380914803909140
:1022100049032FBF08953FB7F89480914A039091E6
:102220004B03A0914C03B0914D0326B5A89B05C06C
:102230002F3F19F00196A11DB11D3FBFBA2FA92F45
:10224000982F8827820F911DA11DB11DBC01CD01C2
:1022500043E0660F771F881F991F4A95D1F70895AD
:10226000CF92DF92EF92FF92CF93DF936B017C01CD
:102270000E940B11EB01C114D104E104F10479F0C7
:102280000E940B116C1B7D0B683E7340A0F381E034
:10229000C81AD108E108F108C851DC4FECCFDF9132
:1022A000CF91FF90EF90DF90CF900895813091050E
:1022B00039F0029729F0880F991F01970197F1F7DC
:1022C0000895789484B5826084BD84B5816084BDAE
:1022D00085B5826085BD85B5816085BDEEE6F0E09F
:1022E000808181608083E1E8F0E0108280818260FB
:1022F0008083808181608083E0E8F0E0808181607C
:102300008083E1EBF0E0808184608083E0EBF0E0AB
:10231000808181608083EAE7F0E08081846080834F
:1023200080818260808380818160808380818068F9
:1023300080831092C1000895833081F028F48130A9
:1023400099F08230A1F008958630A9F08730B9F075
:102350008430D1F4809180008F7D03C08091800013
:102360008F7780938000089584B58F7702C084B5FD
:102370008F7D84BD08958091B0008F7703C08091D8
:10238000B0008F7D8093B0000895CF93DF9390E0ED
:10239000FC01E458FF4F2491FC01E057FF4F84916A
:1023A000882361F190E0880F991FFC01E255FF4FEF
:1023B000C591D491FC01EC55FF4FA591B4916111E9
:1023C00009C09FB7F8948881209582238883EC9177
:1023D0002E230BC0623061F49FB7F8943881822FAE
:1023E000809583238883EC912E2B2C939FBF06C06E
:1023F0008FB7F894E8812E2B28838FBFDF91CF9180
:1024000008951F93CF93DF93282F30E0F901E85907
:10241000FF4F8491F901E458FF4FD491F901E0573F
:10242000FF4FC491CC23C9F0162F81110E949C113B
:10243000EC2FF0E0EE0FFF1FEC55FF4FA591B4918C
:102440008FB7F894111105C09C91ED2FE095E92309
:1024500002C0EC91ED2BEC938FBFDF91CF911F91D8
:1024600008950E9461110E94D90FC0E0D0E00E943F
:10247000380F2097E1F30E940000F9CF0F931F93CC
:10248000CF93DF93EC018A818170F8019081292F2D
:102490002170821771F0E881F98190FF04C00680F5
:1024A000F781E02D03C00480F581E02DB801CE0155
:1024B00009958A8186958170F801908191FB222788
:1024C00020F9821771F0E881F98191FF04C002843C
:1024D000F385E02D03C00084F185E02DB801CE0125
:1024E00009958A8182FB882780F9F801908192FB07
:1024F000222720F9821771F0E881F98192FF04C048
:102500000684F785E02D03C00484F585E02DB8012D
:10251000CE010995F8018181811103C08281882350
:1025200041F0E881F9810280F381E02DB801CE010C
:102530000995F80180818A83DF91CF911F910F91D6
:1025400008953F924F925F926F927F928F929F92E7
:10255000AF92BF92CF92DF92EF92FF920F931F93B1
:10256000CF93DF93D80112962C91213009F465C0E6
:102570002B01EC016A81F8014081641731F0E88198
:10258000F9810480F581E02D09954801F2E08F0E74
:10259000911C5E0184E0A80EB11C3E01AAE06A0E07
:1025A000711C75016401D6014C91F7019081D40131
:1025B000F501312C80E02191421303C0413009F034
:1025C00081E02D91291304C0913011F0332433940C
:1025D000E615F70581F7811113C0E881F9810280C2
:1025E000F381E02DB201CE010995E881F9810680E1
:1025F000F781E02DD6014C91D8016C91CE0109955F
:1026000031100AC0E881F9810084F185E02DD701FD
:102610004C916A81CE010995BFEFCB1ADB0AEFEF2F
:10262000EE1AFE0AE614F70409F0BDCFF80122966F
:1026300081918993C615D705D9F7DF91CF911F9165
:102640000F91FF90EF90DF90CF90BF90AF909F9051
:102650008F907F906F905F904F903F9008958F92F2
:102660009F92AF92BF92CF92EF920F93CF93DF934F
:10267000CDB7DEB7C054D1090FB6F894DEBF0FBE98
:10268000CDBF5F934F939E012F5F3F4F3F932F939B
:102690001F9220E42F9320E8822E912C5B0132E2DE
:1026A000C32EE12C06E021E840E0FC016681848134
:1026B00095810E94E2180F900F900F900F900F904D
:1026C0000F90C05CDF4F0FB6F894DEBF0FBECDBFDA
:1026D000DF91CF910F91EF90CF90BF90AF909F90EF
:1026E0008F9008958F929F92AF92BF92CF92DF9278
:1026F000EF92FF920F938E2CA42EB12C1F921F925B
:10270000DF92CF92FF92EF929F2CC22EE02E09E033
:1027100021E2462FFC016681848195810E94E218A6
:102720000F900F900F900F900F900F900F91FF90C0
:10273000EF90DF90CF90BF90AF909F908F900895D3
:102740008F929F92AF92BF92CF92EF920F93A62E4D
:10275000B12C1F921F921F921F921F921F92812CC9
:10276000912CC22EE42E0AE021E240E0FC016681B9
:10277000848195810E94E2180F900F900F900F9026
:102780000F900F900F91EF90CF90BF90AF909F90D0
:102790008F9008958F929F92AF92BF92CF92EF92B7
:1027A0000F93A62EB12C1F921F921F921F921F9261
:1027B0001F92812C912CC12CE42E0BE021E240E0F1
:1027C000FC016681848195810E94E2180F900F9030
:1027D0000F900F900F900F900F91EF90CF90BF90B0
:1027E000AF909F908F900895CF93DF93FC01862F39
:1027F000807809F051C0283008F04FC0442321F000
:102800009581973009F449C0EF012D96A0E0B0E022
:1028100011969881911103C0662331F021C025964D
:10282000AF30B105A9F739C085E08A9FE0018B9FE1
:10283000D00D1124CE0FDF1F442331F081E48887AF
:1028400085818F5F858302C081E0888725E02A9F8C
:10285000C0012B9F900D1124E80FF91F80851DC02A
:102860006770660F660F660F442341F060648581D0
:102870008F5F85838770687F682B03C02770687BB4
:10288000622B25E02A9FC0012B9F900D1124E80F99
:10289000F91F6087862F01C080E0DF91CF910895F6
:1028A000DF92EF92FF920F931F93CF93DF93EC0190
:1028B000E62EF12C85E0689FB0011124FE01E60FA1
:1028C000F71F8085182F177086FF21C001E085E073
:1028D000D82E8FEF800F8F3008F001E0FE01D09EE0
:1028E000E00DF11D1124808586958695869587706B
:1028F000811305C0602FCE010E945014EACF0F5FF4
:10290000003161F78D81811302C011501D8385E074
:102910008E9DF0018F9DF00D1124EC0FFD1F108690
:1029200081E0818712862296D783C683DF91CF917B
:102930001F910F91FF90EF90DF900895611102C0F9
:1029400006960895FC013D9621E03081361307C0BC
:1029500035E0239F800D911D1124069608952F5F69
:102960003596203191F780E090E00895FC016134C4
:10297000C1F43F969C01265A3F4F61E0AC014E5F87
:102980005F4FDF0112971C9211966C931082139780
:102990004D935C933596E217F30799F7FC01158286
:1029A00008953D9621E03081361303C0622F0C94C8
:1029B00050142F5F35962031B1F70895CF93DF93F0
:1029C000FC0181E492E0918380831582108681E08E
:1029D00081871286CF01029697838683128228E030
:1029E00023832CE32483DF011F969F01265A3F4F48
:1029F00041E0ED0122971882219648831C9223978B
:102A0000998388831596A217B30799F7EA58FF4F61
:102A1000108281E180935203DF91CF910895CF938B
:102A2000DF931F92CDB7DEB749830E949E14498180
:102A3000009789F0DC01ED91FC911197309759F0E6
:102A400013969C9180E0891731F02081241731F092
:102A500033968F5FF8CF80E090E001C0CF010F90F8
:102A6000DF91CF9108950F931F93CF93DF9321159B
:102A7000310571F0E901042F162F0E949E14FC010C
:102A8000892B41F01283D183C083038380E003C08C
:102A900088ED01C086EDDF91CF911F910F910895D0
:102AA0002A980895CF93DF931F92CDB7DEB789831D
:102AB0000E94501589818EBD0DB407FEFDCF1EBC4E
:102AC0000DB407FEFDCF0E94420F8EB50F90DF912F
:102AD000CF910895CF93DF9300D0CDB7DEB76A834F
:102AE00089830E945015898182608EBD6A810DB4F0
:102AF00007FEFDCF6EBD0DB407FEFDCF0F900F900A
:102B0000DF91CF910C94420F8F929F92AF92BF9220
:102B1000DF92EF92FF920F931F93CF93DF931F9259
:102B2000CDB7DEB74C01D62E590149830E949E14C1
:102B30007C014981009709F440C0FC0180819181AA
:102B4000892BE9F16D2DC4010E940F15F5019183C8
:102B500080830097B1F1FC0122812695269530E013
:102B60002031310514F02FE030E081E090E0A0E06A
:102B7000B0E004C0880F991FAA1FBB1F2A95D2F787
:102B80000197F801918380836D2D80EE0E946A1574
:102B900088ED0E945215682FF7018481882339F04F
:102BA000F401EA58FF4F80818260682B01C0697F81
:102BB00088ED0E946A1580E005C086ED03C087EDB0
:102BC00001C08BED0F90DF91CF911F910F91FF907E
:102BD000EF90DF90BF90AF909F908F9008958F926D
:102BE0009F92AF92BF92CF92DF92EF92FF920F939C
:102BF0001F93CF93DF93862E942E59010E94FF10CE
:102C00006B017C0128E8C20E23E1D21EE11CF11CFD
:102C100000E010E0D0E0C0E098280E94FF10DC0146
:102C2000CB018C199D09AE09BF09B7FF2DC0692DD5
:102C300080EF0E946A150E94FF10DC01CB018C1905
:102C40009D09AE09BF09B7FF09C088EC0E94521563
:102C500087FFF1CF60E888EC0E946A1588EF0E9438
:102C60005215C82FCF70C43019F0CE3051F00CC0BF
:102C70000F5F1F4FA114B10481F20A151B0569F6FD
:102C800003C0DF5FD33049F68C2FDF91CF911F91C6
:102C90000F91FF90EF90DF90CF90BF90AF909F90FB
:102CA0008F9008959F92AF92BF92CF92DF92EF9252
:102CB000FF920F931F93CF93DF937C01C42F122FAA
:102CC000992493946C01C60ED11CC60ED11C86E5C6
:102CD000C80ED11CA42EB12CABE2AA0EB11CAA0CBA
:102CE000BB1CAE0CBF1CF60180819181DC01ED9113
:102CF000FC910280F381E02D202F412F6C2F09954C
:102D0000803EC9F4C1110BC061E088EE0E946A15D3
:102D100066E670E080E090E00E94301116C0F50198
:102D200080819181DC01ED91FC910284F385E02D9D
:102D3000612F09950AC08D3031F49FEF990D9330C2
:102D400008F040C016C081113DC0F601808191811C
:102D5000DC01ED91FC910190F081E02D202F412FBD
:102D60006C2F0995D82F8D3061F48FEF890D83304A
:102D700050F464E670E080E090E00E94301193949B
:102D8000B2CF8823F1F0C1110BC061E088EE0E9440
:102D90006A1566E670E080E090E00E94301111C094
:102DA000EC2FF0E0BB96EE0FFF1FEE0DFF1D8081B4
:102DB0009181DC01ED91FC910284F385E02D612F7E
:102DC00009958D2FDF91CF911F910F91FF90EF907B
:102DD000DF90CF90BF90AF909F9008950F931F9377
:102DE000CF93DF9300D0CDB7DEB78A016A838983A2
:102DF0000E945015898182608EBDF8016A81862FFC
:102E0000882339F00DB407FEFDCF91919EBD81500E
:102E1000F7CF060F111D0DB407FEFDCF0E94420F24
:102E2000C8010F900F90DF91CF911F910F910895DE
:102E30002F923F924F925F926F927F928F929F92CA
:102E4000AF92BF92CF92DF92EF92FF920F931F93B8
:102E5000CF93DF9300D000D01F92CDB7DEB77D8334
:102E60006C835A016901FB0121808FEF820D803450
:102E700008F075C00E94FF102B013C01F8E84F0ECE
:102E8000F3E15F1E611C711CEC81FD81828180FD7C
:102E900002C060E401C060E888EE0E946A1520E08C
:102EA000312CC114D10409F44AC076012C143D041C
:102EB00008F47101EA82A8016E2D80E10E94EE16ED
:102EC0006E2D88E30E946A15EC81FD81608160624D
:102ED00080EF0E946A1588EC0E94521587FFFBCF95
:102EE00060E888EC0E946A1588EF0E945215282F2E
:102EF0002F70812C912C1982222361F02B830E9448
:102F0000FF10DC01CB0184199509A609B7092B81B3
:102F1000B7FD05C0CE18DF080E0D1F1DC2CF26302D
:102F200001F12E3009F456C0243049F4FFEF8F1A16
:102F30009F0AA114B10459F18A149B0441F588EF4A
:102F40002B830E94521585FB882780F9EC81FD8137
:102F5000928180FB90F992832B81822F41C08AED70
:102F60003FC088EF0E94521585FB882780F991E0C9
:102F70008927EC81FD81928180FB90F9928390FDFD
:102F800002C060E401C060E888EE0E946A1560E05B
:102F900088E30E946A15F801608180E10E946A1549
:102FA0006A8188E30E946A15EC81FD81608160621C
:102FB00080EF0E946A1588EC0E94521587FFFBCFB4
:102FC00060E888EC0E946A1588EF0E945215282F4D
:102FD0002F7092CF89818F5F89838330C1F6AFCF05
:102FE0000F900F900F900F900F90DF91CF911F9146
:102FF0000F91FF90EF90DF90CF90BF90AF909F9098
:103000008F907F906F905F904F903F902F9008959A
:103010002F923F924F925F926F927F928F929F92E8
:10302000AF92BF92CF92DF92EF92FF920F931F93D6
:10303000CF93DF93CDB7DEB72A970FB6F894DEBFF4
:103040000FBECDBF4C017A8769875C834B836901D2
:10305000F901A080B180FB01F181FA83F9011182AD
:103060001082FB01828181FD02C060E101C060E24B
:1030700088EE0E946A152E2C312C412C512CAD82E9
:103080002B813C81E985FA85408160E0C4010E9482
:10309000EF1589838630B1F488EF0E94521582952E
:1030A0008170F1E08F27E985FA85928180FB91F9A3
:1030B000928391FD02C060E101C060E288EE0E944F
:1030C0006A15DECF9981911163C088EC0E94521578
:1030D00082FF5CC080E30E945215F82E282F30E05A
:1030E000A216B30608F4FD80F601208131816F2C11
:1030F000712CA501421B530B57FF02C040E050E06A
:103100009301461557050CF49A012E833F832887B7
:103110000E945015F8E0FEBD88853F812E810DB4D8
:1031200007FEFDCFF801882341F01EBC81500DB48D
:1031300007FEFDCF4EB54193F6CF020F131F0E943D
:10314000420F64E088EC0E946A15F601208131810B
:10315000620E731E71826082FA81FF1618F06A1483
:103160007B0460F088EF0E94521582958170E9859A
:10317000FA85928180FB91F992830AC0EE2009F4CE
:103180007FCFC201B1010E9430117ACF90EF9983B5
:1031900089812A960FB6F894DEBF0FBECDBFDF91AE
:1031A000CF911F910F91FF90EF90DF90CF90BF9044
:1031B000AF909F908F907F906F905F904F903F90D7
:1031C0002F9008952F923F924F925F926F927F922D
:1031D0008F929F92AF92BF92CF92DF92EF92FF9227
:1031E0000F931F93CF93DF93CDB7DEB762970FB6E0
:1031F000F894DEBF0FBECDBF3C01F42E322E202E40
:103200005C2D4FA058A4C9A4DAA4188A1F861E8674
:103210001D868E01035F1F4F9E01215F3F4F598B1B
:103220000E948415598981119DC039822A82EB82BE
:103230005C83BE82AD8298868F82AE014F5F5F4F06
:1032400068E080E20E94EE162D853E854F2D60E1FC
:10325000C3010E94EF15182F811180C0232C221C5E
:103260002224221CC114D10409F46BC0EF85F88913
:103270008281222009F456C0826082835401332463
:103280003394A114B10409F44AC05C864B864D8581
:103290005E856F857889E12C86019E01255F3F4F11
:1032A000C3010E940818182F8630B1F42F85388981
:1032B00088EF298B3A8B0E94521585FB882780F96D
:1032C000832529893A89D90112969C91129780FB0E
:1032D00091F912969C93D5CF811140C0EBA5FCA526
:1032E0003097A1F00190F081E02D0190F081E02D68
:1032F000C4018A199B099A8789876B857C859E0101
:10330000275F3F4FA6018BA59CA509958B859C85C2
:10331000A81AB90A8415950508F0B3CF12C0111187
:103320001DC014C0816082834D855E858601920137
:10333000BF01C3010E941817811114C02D853E855D
:103340000FC02D853E85211003C00AC02D853E8506
:1033500060EA4F2DC3010E94EF1504C0812F02C007
:1033600060E8F7CF62960FB6F894DEBF0FBECDBF10
:10337000DF91CF911F910F91FF90EF90DF90CF9051
:10338000BF90AF909F908F907F906F905F904F9085
:103390003F902F9008958F929F92AF92BF92CF92BD
:1033A000EF920F931F931F921F921F930F933F93C0
:1033B0002F934901A12CB12CCC24C394E12C06E01D
:1033C00020E80E94E2180F900F900F900F900F903E
:1033D0000F901F910F91EF90CF90BF90AF909F9063
:1033E0008F9008958F929F92AF92BF92CF92EF925B
:1033F000FF920F931F921F92FF92EF923F932F9392
:103400004901A12CB12C22E0C22EE02E06E020E8DA
:103410000E94E2180F900F900F900F900F900F9056
:103420000F91FF90EF90CF90BF90AF909F908F90B3
:1034300008954F925F926F927F928F929F92AF9278
:10344000BF92CF92DF92EF92FF920F931F93CF9391
:10345000DF93CDB7DEB7C054D1090FB6F894DEBF05
:103460000FBECDBF3C01D62E542E422EC02ECE0113
:1034700001965C017C01022F29E030E0C3010E942B
:10348000F21981111BC08B809C801F93CF92BF9239
:10349000AF921F9280E48F93A12CB12C82E0C82EB2
:1034A000E42C06E020E8452D6D2DC3010E94E218B2
:1034B0000F900F900F900F900F900F90C05CDF4F08
:1034C0000FB6F894DEBF0FBECDBFDF91CF911F9135
:1034D0000F91FF90EF90DF90CF90BF90AF909F90B3
:1034E0008F907F906F905F904F9008958F929F92F2
:1034F000AF92BF92CF92EF920F93CF931F921F92F2
:103500001F921F921F921F92812C912CA12CB12CE3
:10351000C12CE22E05E020E00E94E218C82F6CE2E8
:1035200071E080E090E00E9430110F900F900F90BA
:103530000F900F900F908C2FCF910F91EF90CF9015
:10354000BF90AF909F908F9008950F931F93CF934C
:10355000DF938A3F3FEF930711F486ED2DC0DC0126
:103560001696ED91FC911797EF2B09F1122F242F4E
:10357000EC011A8740E00E94F413082F8823C9F059
:10358000682FCE010E949E14009739F3FC0114832A
:10359000202F40E060E0CE010E94761A182F882389
:1035A00051F0602FCE010E94B614812F05C087ED27
:1035B00003C084ED01C080E0DF91CF911F910F9196
:1035C00008952F923F924F925F926F927F928F92C7
:1035D0009F92AF92BF92CF92DF92EF92FF920F93A2
:1035E0001F93CF93DF93CDB7DEB766970FB6F894EE
:1035F000DEBF0FBECDBF1B8A38E03C8B3CE33D8B6A
:103600008A3F3FEF930709F4ADC0B22E342EA62EA9
:103610007C01DC011696CD90DC901797CE01439685
:1036200017969C938E9316971A962C938E010F5F84
:103630001F4F22E130E040E060E0C7010E94CB195B
:10364000F701D782C6828111A5C069847A844B8430
:103650005C843D813E8B2E80670186E5C80ED11CBF
:10366000460110E0D4018D919C91009789F1DC0115
:10367000ED91FC910084F185E02D0995811128C020
:10368000F40180819181DC01ED91FC910088F18948
:10369000E02D622D09958823D9F0F4018081918174
:1036A000DC01ED91FC910484F585E02DA201B301CC
:1036B0000995811159C0F40180819181DC01ED915E
:1036C000FC910684F785E02D6E89099581114CC027
:1036D0001F5FB2E08B0E911C103121F610E0F60155
:1036E00080819181009789F1DC01ED91FC9100844A
:1036F000F185E02D0995811128C0F6018081918125
:10370000DC01ED91FC910088F189E02D622D099595
:103710008823A9F1F60180819181DC01ED91FC9172
:103720000484F585E02DA201B301099581110DC036
:10373000F60180819181DC01ED91FC910684F78591
:10374000E02D6E8909958823D1F01F5FB2E0CB0E82
:10375000D11C103121F62B2D432D6A2DC7010E945B
:10376000A51A18C086ED16C00B2D232D4A2D612FEA
:10377000C7010E945216813D09F4AACF0BC00B2D40
:10378000232D4A2D612FC7010E945216982F977F33
:10379000913DD9F266960FB6F894DEBF0FBECDBF4D
:1037A000DF91CF911F910F91FF90EF90DF90CF901D
:1037B000BF90AF909F908F907F906F905F904F9051
:1037C0003F902F9008958F929F92AF92BF92CF9289
:1037D000EF920F931F921F921F921F921F921F92A0
:1037E000812C912CA12CB12CC12CE22E09E020E0DF
:1037F0000E94E2180F900F900F900F900F900F9073
:103800000F91EF90CF90BF90AF909F908F900895C1
:103810008F929F92AF92BF92CF92DF92EF920F93CF
:103820001F93CF93DF9300D000D0CDB7DEB76C01EC
:10383000590148011C821B821A8219828E010F5F76
:103840001F4F9E012D5F3F4F0E948415811109C0BB
:1038500049815A816B817C8184019501C6010E9456
:1038600008180F900F900F900F90DF91CF911F913C
:103870000F91EF90DF90CF90BF90AF909F908F907F
:103880000895AF92BF92CF92DF92EF92FF920F9383
:103890001F93CF938C0119990EC088EC0E9452158A
:1038A00085FF05C0C8010E945D0F60E201C060E0B5
:1038B00088EC0E946A1580916202813039F040F0F4
:1038C000823079F0833039F5C1E00CC083E106C065
:1038D00080915203807F8031F1F081E18093520327
:1038E0001AC0C0E080915203807F8031A9F40E9409
:1038F000FF10DC01CB0188539F4FAF4FBF4F809328
:103900004E0390934F03A0935003B093510380E272
:103910008093520301C0C0E0780186E5E80EF11CF7
:103920006801A6E7CA0ED11C5701F501819191915A
:103930005F01009739F0DC01ED91FC910680F78181
:10394000E02D0995AC14BD0481F790915203903499
:1039500009F43FC050F4903221F19033A1F191313C
:1039600009F084C0F60110820AC0913509F458C0EC
:10397000903809F46AC0903509F078C039C0D70191
:103980008D919D917D01009739F0DC01ED91FC91C5
:103990000480F581E02D0995EC14FD0481F782E1A6
:1039A00063C00E94FF1000914E0310914F032091BD
:1039B000500330915103DC01CB01801B910BA20B12
:1039C000B30BB7FD53C061E088EE0E946A1580E436
:1039D0004BC088EE0E94521580FD48C088ED0E94C1
:1039E0005215682F686088ED0E946A1580E53CC01A
:1039F00088EC0E94521586FF39C081E580935203FE
:103A00000E94FF10DC01CB014496A11DB11D8093E3
:103A10004E0390934F03A0935003B093510326C0DD
:103A20000E94FF10C0904E03D0904F03E0905003CF
:103A3000F0905103DC01CB018C199D09AE09BF093F
:103A4000B7FD14C080E8809352032C2F40E060E063
:103A5000C8010E94E11A882331F0823D39F0809339
:103A6000530380EA01C080E980935203CF911F91F4
:103A70000F91FF90EF90DF90CF90BF90AF9008959F
:103A8000CF93DF93FC01EA0180819181892B19F5A5
:103A900080E027C028813981232BD1F3DB012D91D0
:103AA0003C91D9019C91A381B0E0A81BB109208170
:103AB0003181A20FB31F9C938281815082838881C0
:103AC0009981019799838883DB018D919C9111974E
:103AD00001968D939C9382818111DCCF83818283B7
:103AE00081E0DF91CF910895F8940C947D1DEE0F45
:0E3AF000FF1F0590F491E02D0994F894FFCF8C
:103AFE00016360646663616567FFFFFFFF20353316
:103B0E002212232425172627283736181910132199
:103B1E001416341132153101020304050607080983
:103B2E000A44454142400B0C1A1BFF0D292A00384E
:103B3E00393A62505152535455565758592B30FFFB
:103B4E00FFFF5FFF5A46FF5B4E4F4D4CFF5C5D4AD9
:103B5E005E431D1E1F2D2E2F3D3E3F0F3C3067FF37
:103B6E00FFFFFFFFFFFFFFFFFFFFFFFFFFFFFFFF57
:103B7E00FFFFFFFFFFFFFFFFFF00000000A112ACE1
:103B8E000284033703F502A002A302A602A90200D3
:103B9E000000003E12E203F503F003FF03FA0309EF
:103BAE0004040400000000150E00000000F20C00DA
:103BBE00000000CF0B00000000AB05000000002A43
:103BCE000729043505B50550052B042C045305585B
:103BDE00055D052E0465056805FEFF0000A10500C4
:103BEE00000000A8082904BF044806DA042B042CA0
:103BFE0004DD04E204E7043704EF04F204FEFF00E0
:103C0E00002B0500000000210A29044904B90664AE
:103C1E00042B042C0467046C047104400479047CA6
:103C2E0004FEFF0000B50400000000AC050000001B
:083C3E00009E14F413B61400FB
:00000001FF
