:100000000C9471000C9499000C94CC000C94990001
:100010000C94FB010C9499000C9499000C94990099
:100020000C9499000C9499000C9499000C949702EC
:100030000C9499000C9499000C9499000C949900DC
:100040000C94FB110C9499000C9499000C94990059
:100050000C9499000C9499000C9499000C949900BC
:100060000C9499000C949900000000070002010014
:100070000003040600000000000000000102040864
:100080001020408001020408102001020408102002
:10009000040404040404040402020202020203032E
:1000A0000303030300000000250028002B000000CC
:1000B0000000240027002A002F2A2D2B0D2D3D5B48
:1000C0005D5C203B27602C2E2F5F2B7B7D7C7E3A56
:1000D000227E3C3E3F21402324255E262A282900FB
:1000E000671111241FBECFEFD8E0DEBFCDBF12E0F5
:1000F000A0E0B1E0EAE8FDE302C005900D92A8346B
:10010000B107D9F723E0A8E4B2E001C01D92A03600
:10011000B207E1F710E0C1E7D0E004C02197FE018B
:100120000E94BD1EC037D107C9F70E9477130C94F7
:10013000BA1E0C940000CF93C82F60E00E940B13EE
:1001400061E08C2FCF910C944713CF93C82F60E0C0
:100150000E94471361E08C2FCF910C940B1384E124
:1001600090E00E949C1282E00E94A50084E190E051
:100170000E949C1282E00E949B0084E190E00C941B
:100180009C12882321F083E00E94A50003C083E035
:100190000E949B000C94AF001F920F920FB60F921B
:1001A00011248F9381E080930001E9988F910F9043
:1001B0000FBE0F901F90189582E00E949B0083E075
:1001C0000E949B00E9E6F0E080818C608083E998E2
:1001D000E19A089582E00E94A50068E572E080E05F
:1001E00090E00E94761282E00C949B00CF93C82F7F
:1001F00083E00E949B00C6FB882780F90E94C10013
:10020000C5FB882780F90E94C100C4FB882780F9BC
:100210000E94C100C3FB882780F90E94C100C2FB75
:10022000882780F90E94C100C1FB882780F90E94BD
:10023000C1008C2F81700E94C1008C2F881F8827DD
:10024000881F0E94C10083E00E949B008AE090E02A
:100250000E949C120E9445126093490270934A02C8
:1002600080934B0290934C0210920001E99ACF9137
:1002700008950F931F9380910001811123C00E9464
:1002800045120091490210914A0220914B0230918F
:100290004C02DC01CB01801B910BA20BB30B80390C
:1002A0009105A105B10570F00E94AF000E944512B2
:1002B0006093490270934A0280934B0290934C02E0
:1002C00081E00CC080910001882359F1809148029F
:1002D000813039F489EF0E94F60082E08093480271
:1002E00020C0823039F480914D020E94F6001092B5
:1002F000480217C020915F0280915E02281789F0A2
:1003000030E0F901E25BFD4F808180934D022F5F69
:100310003F4F2F70332720935F021F910F910C9452
:10032000F6001F910F91089520915E0230E0A9011F
:100330004F5F5F4F4F7055278F3F51F060915F02C5
:10034000641731F0F901E25BFD4F808340935E0258
:100350000895CF93C82F60E00E940B1361E08C2FAB
:10036000CF910C94471360E086E00E94471361E050
:1003700086E00C940B1310926D0210926C0286E0D2
:100380000E94A9018EE00E94A9018FE00E94A901AC
:1003900080E10E94A90181E10E94A90182E10E94FD
:1003A000A90183E10E94A901ECE6F0E080818F635E
:1003B0008083E8E6F0E08081826080831092800094
:1003C000E1E8F0E01082109285001092840080E253
:1003D00090E090938900809388008081886080837A
:1003E000EFE6F0E0808182608083089590936D0253
:1003F00080936C0208951F920F920FB60F921124F2
:100400008F93EF93FF93E1E8F0E080818260808337
:10041000FF91EF918F910F900FBE0F901F90189545
:1004200086B180958F7331F024E0829FC001112442
:100430009860089580E090E00895F89420916A0211
:1004400030916B026F3F19F4215031090CC06130BB
:1004500019F42F5F3F4F07C067FD6F5F6595260F4B
:10046000311D67FD3A9530936B0220936A0220910B
:100470006802309169024F3F19F4215031090CC0D4
:10048000413019F42F5F3F4F07C047FD4F5F45953F
:10049000240F311D47FD3A9530936902209368027D
:1004A00090916702892B80936702789480918100F4
:1004B00082608093810008950F931F93FC01009147
:1004C0006A0210916B020195409168025091690295
:1004D000419580916702811107C081E0011105C03B
:1004E000411103C080E001C081E02091670297E0E4
:1004F000922750E060E070E0692B10E0102F002799
:1005000020E030E0402B512B622B732B4083518332
:100510006283738310926B0210926A0210926902D6
:1005200010926802109267021F910F9108951F9216
:100530000F920FB60F9211242F933F934F935F9317
:100540006F937F938F939F93AF93BF93CF93EF93CB
:10055000FF9380916602811141C00E941002409178
:100560006C0250916D022091640230916502411538
:10057000510531F4009729F42115310511F412C009
:10058000CA018217930711F021E001C024E32093F0
:10059000660290936502809364020E94B30188E230
:1005A00093E20DC080E692E00E945C02882381F015
:1005B00088E3809366020E94B3018CE494E09093F8
:1005C0008900809388001092850010928400ACC04E
:1005D000809181008D7F80938100A6C0883308F0D0
:1005E00051C0813031F486E00E94A90184E991E193
:1005F0007FC0823318F5CEEFC80FC0FF33C086E04E
:100600000E94A9018C2F86958C3008F08C502BE02D
:10061000281B30916602809164029091650202C0AD
:10062000969587952A95E2F73B3118F080FD1CC01E
:1006300002C080FF19C080EB94E05AC0823391F071
:10064000833331F486E00E94A90184E993E466C013
:10065000843331F486E00E94A90184E398E048C025
:10066000853329F40E94B30180E991E041C08633CB
:1006700031F486E00E94A9018AEB9EE539C08AEB3D
:100680009EE54CC0883321F486E00E94A9012EC06B
:100690008F35C0F58953982F969522E130E0291BBC
:1006A0003109409160025091610260916202709143
:1006B000630204C076956795579547952A95D2F7BA
:1006C000C42FC17080FD0AC00E94B301C11103C0D4
:1006D0008AE890E00DC084EF91E00AC086E00E94B5
:1006E000A901C11103C08FED92E002C087E791E03C
:1006F0009093890080938800809166028F5F809339
:10070000660212C08F3529F40E94B30188E590E09B
:10071000EFCF86E00E94A90180EB96E390938900D9
:100720008093880010926602FF91EF91CF91BF9164
:10073000AF919F918F917F916F915F914F913F9179
:100740002F910F900FBE0F901F901895CF93C82F29
:1007500060E00E94471361E08C2FCF910C940B1343
:10076000CF93C82F60E00E940B1361E08C2FCF91D4
:100770000C9447138530C9F4603531F0623541F08F
:100780006F3499F484E001C085E0442361F006C031
:1007900084E0442329F00E94A60385E00C94A6037C
:1007A0000E94B00385E00C94B003089585ED90E0BD
:1007B000089589EC90E008958DEB90E0089588EB22
:1007C00090E00895CF92DF92EF92FF920F93CF9334
:1007D000DF931F92CDB7DEB7FC019285473499F0C5
:1007E000433551F04933B9F491FB882780F980955E
:1007F000292F80FB21F90EC0892F81708095292F28
:1008000080FB20F907C092FB882780F98095292F6B
:1008100080FB22F922872285921799F061157105D4
:1008200081F0CB0129839E012F5F3F4F6901EE24A8
:10083000E394F12C00E022E040E060E00E94B81474
:1008400001C080E00F90DF91CF910F91FF90EF906A
:10085000DF90CF9008950F931F93CF93DF9300D035
:10086000CDB7DEB78C0169834A83DC011C968D917C
:100870009C911D97009721F4EA81E933B9F411C0E6
:10088000DC01ED91FC910190F081E02D20E0AE01C2
:100890004E5F5F4FBE016F5F7F4F0995882361F305
:1008A00015C0D8011A968C9181FD10C0F0E0E75F69
:1008B000FE4F808187FD03C080680E949401F8018B
:1008C0008385882319F013860E94EA000F900F9009
:1008D000DF91CF911F910F9108950F931F93CF93A5
:1008E000DF9300D0CDB7DEB78C0169834A83DC018A
:1008F0001C968D919C911D97009721F4EA81E93314
:10090000B9F411C0DC01ED91FC910190F081E02D72
:1009100021E0AE014E5F5F4FBE016F5F7F4F0995D3
:10092000882361F320C0D8011A968C9181FF1BC0E7
:10093000F0E0E75FFE4F808187FF0E94940199817C
:10094000892F817181F0947471F08A818C3411F057
:10095000833649F488E70E94940188E70E94940155
:1009600081E0F80183870F900F90DF91CF911F9165
:100970000F910895AF92BF92CF92DF92EF92FF92C4
:100980000F931F93CF93DF935C01C42F81E0E82E78
:1009900081E0F82E00E010E0CC24C394D12CD62FB7
:1009A000D4279601002E01C0220F0A94EAF78D2F5A
:1009B000822369F02C23F7018081222319F087FD1F
:1009C00006C003C087FD03C080680E9494010F5FCA
:1009D0001F4FFFEFEF1AFF0A0830110511F7F5015D
:1009E0008385882319F013860E94EA00C93811F024
:1009F000C83949F488E70E94940188E70E9494016D
:100A000081E0F5018387DF91CF911F910F91FF90D6
:100A1000EF90DF90CF90BF90AF900895FC011286C9
:100A20008DE891E09183808313861586148608955E
:100A3000FC019581DB0111968C911197890F8583BB
:100A4000968112968C91890F86830895FC01978177
:100A5000916097830895FC0197819E7F9783089505
:100A6000FC019781926097830895FC0197819D7F97
:100A700097830895FC019781946097830895FC0102
:100A800097819B7F97830895FC0185E0DF011D928C
:100A90008A95E9F783EA91E0918380831582168233
:100AA00017820895CF93DF93EC014E816D818F8182
:100AB0000E941D021D821E82DF91CF91089580E069
:100AC0000895089580E00895860F911D860F911D69
:100AD000FC01518B408B81E00895860F911D860F9C
:100AE000911DFC015687458781E00895860F911D71
:100AF000860F911DFC015687458781E00895CF93AD
:100B0000DF93EC018C819D81DC01ED91FC910480EF
:100B1000F581E02D6E8109951F86188A81E08A8B08
:100B20001E821B8A1C8A1D8A1E8A1F8A80E0DF9112
:100B3000CF910895FC018681089581E0633009F02A
:100B400080E0089581E0623009F080E00895860F2A
:100B5000911D860F911DFC01858596850895FC01E8
:100B600087890895EF92FF92CF93DF93DC01E7012D
:100B700052968C915297823049F11F966C931F9731
:100B800050964C9350979B8193709330F9F49A81CF
:100B900097FF1CC09E8158962C915897291718F4DE
:100BA00058969C935897E82FF0E09F01220F331F2F
:100BB000E20FF31FEA0FFB1F9A819F7097839C81BE
:100BC000908794E091878F5F52968C93DF91CF91BD
:100BD000FF90EF900895EF92FF920F9302970E947B
:100BE000B2050F91FF90EF900895CF93DF93EC0142
:100BF0008C819D81DC01ED91FC910480F581E02DDB
:100C00006E8109951F86188A81E08A8B1E821B8A55
:100C10001C8A1D8A1E8A1F8A80E0DF91CF91089569
:100C2000FC018681089581E0633009F080E0089539
:100C300081E0613009F080E00895860F911D860FF4
:100C4000911DFC01858596850895FC01878908958D
:100C5000EF92FF92CF93DF93DC01E70152968C91E4
:100C60005297823049F11F966C931F9750964C9380
:100C700050979B8193709330F9F49A8197FF1CC031
:100C80009E8158962C915897291718F458969C9342
:100C90005897E82FF0E09F01220F331FE20FF31F58
:100CA000EA0FFB1F9A819F7097839C81908794E045
:100CB00091878F5F52968C93DF91CF91FF90EF9049
:100CC0000895EF92FF920F9302970E9428060F91CA
:100CD000FF90EF900895CF93DF93EC018C819D817D
:100CE000DC01ED91FC910480F581E02D6E81099588
:100CF0001C8A1D8A81E08F8B1E82188E198E1A8E97
:100D00001B8E1C8E80E0DF91CF910895FC018681BF
:100D1000089581E0633009F080E0089581E0633058
:100D200009F080E00895860F911D860F911DFC014A
:100D3000808991890895FC01848D0895EF92FF9236
:100D4000CF93DF93DC01E70157968C91579783305F
:100D500049F154966C93549755964C9355979B81B3
:100D600093709330F9F49A8197FF1CC09E815D9631
:100D70002C915D97291718F45D969C935D97E82F49
:100D8000F0E09F01220F331FE20FF31FEA0FFB1F5A
:100D90009A819F7097839C81908794E091878F5F61
:100DA00057968C93DF91CF91FF90EF900895EF923B
:100DB000FF920F9302970E949E060F91FF90EF9073
:100DC00008950895FA01DB018C9181110EC0908184
:100DD000963459F4211103C080E090E002C082E112
:100DE00090E00E94F60181E00895422F60810E9408
:100DF000BA0380E008956F927F928F929F92AF9294
:100E0000BF92CF92DF92EF92FF920F931F93CF93F7
:100E1000DF93CDB7DEB762970FB6F894DEBF0FBE93
:100E2000CDBFDC015C962C91222309F460C06C01DB
:100E30000E944512F601808C918CA28CB38CDC014F
:100E4000CB0188199909AA09BB09B7FD50C0560101
:100E5000FBE0AF0EB11C4601360181E1680E711C4A
:100E6000D5018C9190E09A8B898BE12C8E010F5FDC
:100E70001F4F9E012F5E3F4FF50131974081F601D4
:100E80006681848195810E944E1DF82E811115C0C6
:100E900029893A892330310580F0D40150968D910B
:100EA0009C915197009749F0DC01ED91FC910190E4
:100EB000F081E02D40E0B6010995B3E0AB0EB11C26
:100EC000E2E08E0E911CA614B70451F60E94451262
:100ED000D6015D962C91DC01CB01820F911DA11DE5
:100EE000B11DF601808F918FA28FB38F01C0F12CBD
:100EF0008F2D62960FB6F894DEBF0FBECDBFDF9187
:100F0000CF911F910F91FF90EF90DF90CF90BF9006
:100F1000AF909F908F907F906F900895CF92DF92C7
:100F2000EF92FF920F931F93CF93DF93CDB7DEB76E
:100F300062970FB6F894DEBF0FBECDBFDC015796A7
:100F40002C91222381F06C010E944512F601038945
:100F5000148925893689DC01CB01801B910BA20BFA
:100F6000B30BB7FF02C0F12C3AC0838590E09A8B97
:100F7000898BE12C8E010F5F1F4F9E012F5E3F4F2B
:100F800042856681848195810E944E1DF82E8111D3
:100F900018C029893A892330310598F0D6011D9669
:100FA0008D919C911E97009761F0DC01ED91FC9171
:100FB0000190F081E02D8E010F5F1F4F40E0B601E0
:100FC00009950E944512F601208DDC01CB01820FAC
:100FD000911DA11DB11D838B948BA58BB68B8F2D7D
:100FE00062960FB6F894DEBF0FBECDBFDF91CF91F2
:100FF0001F910F91FF90EF90DF90CF900895CF92C7
:10100000DF92EF92FF920F931F93CF93DF93CDB7B1
:10101000DEB762970FB6F894DEBF0FBECDBFDC011E
:1010200057962C91222381F06C010E944512F60103
:101030000389148925893689DC01CB01801B910B3A
:10104000A20BB30BB7FF02C0F12C3AC0838590E02E
:101050009A8B898BE12C8E010F5F1F4F9E012F5EB3
:101060003F4F42856681848195810E944E1DF82EF6
:10107000811118C029893A892330310598F0D601A9
:101080001D968D919C911E97009761F0DC01ED916A
:10109000FC910190F081E02D8E010F5F1F4F40E029
:1010A000B60109950E944512F601208DDC01CB01A5
:1010B000820F911DA11DB11D838B948BA58BB68BC7
:1010C0008F2D62960FB6F894DEBF0FBECDBFDF91B5
:1010D000CF911F910F91FF90EF90DF90CF900895E7
:1010E0002F923F924F925F926F927F928F929F9238
:1010F000AF92BF92CF92DF92EF92FF920F931F9326
:10110000CF93DF93CDB7DEB7EB970FB6F894DEBF82
:101110000FBECDBFDC0114968D909C90159716964E
:10112000DC90D11017C1C22E242E362E7C01FC017A
:10113000108ED401ED91FC910190F081E02D60E0E2
:10114000C40109955C01009719F446EDD42E0FC136
:10115000FC01608071806114710409F4FEC02701F4
:10116000F7E04F0E511CDC0111965C924E921496E2
:10117000CC928E01065D1F4F28E030E040E060E039
:10118000F701848195810E94111B182F8111EBC0FA
:101190001AA5D5016D927C92D401ED91FC9102804B
:1011A000F381E02D222D40E0632DC4010995F70164
:1011B0008683882309F4D4C099A99087282F40E01A
:1011C00060E0848195810E94BC1B782ED401ED9152
:1011D000FC91D50114961C92882361F00480F5815E
:1011E000E02DD70116966C91C4010995F70116827E
:1011F000D72CBDC00190F081E02DD70116966C91DF
:10120000C4010995009709F4A0CF212F133108F0EC
:1012100022E1FC01C48221110FC03BACC12C33EC94
:10122000832E31E0932E3701F2E06F0E711C5E01C8
:1012300081E1A80EB11C38C030E08E01065D1F4F61
:1012400040E0D70116966C91169714968D919C915B
:1012500015970E94111B182F811172C0DECF9A8240
:1012600089827C826B821D821A861B861E86188A62
:101270001F8619A21AA21BA219A6BF82AE82B98626
:10128000A886BD86AC868E010F5F1F4F2C2D40E0D7
:10129000F7016681848195810E945F1BD701529678
:1012A0008C91823019F0C394C310D9CFF701828991
:1012B000823009F044C0920142E0668184819581C8
:1012C0000E94791668EE73E080E090E00E9476124A
:1012D000D7011F962C911F9740E016966C91169798
:1012E00014968D919C9115970E94291D182F81119C
:1012F00027C068EE73E080E090E00E947612F7016C
:10130000418D60E0C7010E941015182F811118C08F
:1013100020E040E060E0C7010E94E61489EC91E023
:101320009A838983AE014F5F5F4F60E070E0C70131
:101330000E94751481E0D70157968C9318C011ED67
:10134000D701ED91FC910480F581E02DC70109954D
:10135000D12E0DC029EDD22E0AC097EDD92E07C08F
:1013600084EDD82E04C0F50171826082E9CF8D2D05
:10137000EB960FB6F894DEBF0FBECDBFDF91CF91D5
:101380001F910F91FF90EF90DF90CF90BF90AF90A3
:101390009F908F907F906F905F904F903F902F9095
:1013A00008953F924F925F926F927F928F929F9299
:1013B000AF92BF92CF92DF92EF92FF920F931F9363
:1013C000CF93DF93CDB7DEB7EC970FB6F894DEBFBF
:1013D0000FBECDBFDC0114968D909C90159716968C
:1013E0003C9131113FC1522E342E462E5C01FC013E
:1013F000158ED401ED91FC910190F081E02D60E01B
:10140000C40109957C01009711F486ED30C1FC01FF
:10141000608071806114710409F426C16501F7E0F0
:10142000CF0ED11CDC011196DC92CE9214965C9208
:101430008E01065D1F4F28E030E040E060E0F501DE
:10144000848195810E94111B8CAF8111FEC01AA569
:10145000D7016D927C92D401ED91FC910280F381D1
:10146000E02D232D40E0642DC4010995F50186830C
:10147000882309F4FBC099A99087282F40E060E0F9
:10148000848195810E94BC1B8CAFD401ED91FC91AD
:10149000D70114961C92882359F00480F581E02D21
:1014A000D50116966C91C4010995F5011682D8C034
:1014B0000190F081E02DD50116966C91C40109953B
:1014C000FC01892B09F4A1CF912F133108F092E18F
:1014D0005482992369F0292F30E08E01065D1F4F59
:1014E00040E0F5016681848195810E94111B8CAFDB
:1014F0008CAD8111ADC0EBAC87EB91E09A83898311
:10150000C50102969C838B831D821A861B861E86CC
:10151000188A1F8619A21AA21BA2CE0141969F8388
:101520008E83998788879D878C8781E089A7F12C96
:10153000FE1499F08E010F5F1F4F2F2D40E0D50153
:1015400016966C91169714968D919C9115970E9402
:101550005F1BF5018789833041F4D50157968C9143
:10156000833029F081ED8CAF73C0F394E1CF960105
:1015700043E0F5016681848195810E9479168CAFE4
:1015800068EE73E080E090E00E947612D5015496F8
:101590002C91549740E016966C91169714968D9165
:1015A0009C9115970E94291D8CAF811151C068EE46
:1015B00073E080E090E00E94761200E010E049ECD9
:1015C000E42E41E0F42EF501468D602FC5010E9406
:1015D00010158CAF81113CC020E040E0602FC501A8
:1015E0000E94E6148CAFFA82E982AE014F5F5F4F32
:1015F000B801C5010E9475148CAF0130110519F0B6
:1016000001E010E0E0CF80E28CAF8CAD8823C1F028
:1016100090E0959587958CAFCE01CC966C01EE2429
:10162000E394F12C00E022E040E060E0C5010E947C
:10163000B81469E170E080E090E00E947612E5CF96
:1016400091E0D5015C969C9312C0F7017182608293
:10165000D501ED91FC910480F581E02DC50109953E
:101660008CAD05C089ED03C087ED01C084EDEC961B
:101670000FB6F894DEBF0FBECDBFDF91CF911F91A3
:101680000F91FF90EF90DF90CF90BF90AF909F9021
:101690008F907F906F905F904F903F9008953F9212
:1016A0004F925F926F927F928F929F92AF92BF9272
:1016B000CF92DF92EF92FF920F931F93CF93DF931E
:1016C000CDB7DEB7EC970FB6F894DEBF0FBECDBF37
:1016D000DC0114968D909C90159716963C913111D3
:1016E0003AC1522E342E462E5C01FC01108ED401DC
:1016F000ED91FC910190F081E02D60E0C40109952D
:101700007C01009711F486ED2BC1FC016080718093
:101710006114710409F421C16501F7E0CF0ED11CF9
:10172000DC011196DC92CE9214965C928E01065DDD
:101730001F4F28E030E040E060E0F50184819581B2
:101740000E94111B8CAF8111F9C01AA5D7016D92AF
:101750007C92D401ED91FC910280F381E02D232D48
:1017600040E0642DC4010995F5018683882309F4BE
:10177000F6C099A99087282F40E060E08481958188
:101780000E94BC1B8CAFD401ED91FC91D701149643
:101790001C92882359F00480F581E02DD50116961E
:1017A0006C91C4010995F5011682D3C00190F081B6
:1017B000E02DD50116966C91C4010995FC01892B89
:1017C00009F4A1CF912F133108F092E154829923AB
:1017D00069F0292F30E08E01065D1F4F40E0F501D2
:1017E0006681848195810E94111B8CAF8CAD811123
:1017F000A8C0EBACF12C4DEB642E41E0742E25011A
:10180000F2E04F0E511C4E0181E1880E911CFE1436
:1018100049F17A8269825C824B821D821A861B861C
:101820001E86188A1F8619A21AA21BA219A69F82B9
:101830008E82998688869D868C868E010F5F1F4FCB
:101840002F2D40E0D50116966C91169714968D9128
:101850009C9115970E945F1BF5018289823011F0DF
:10186000F394D5CFD50152968C91823019F081ED49
:101870008CAF67C0960142E0F50166818481958155
:101880000E9479168CAF68EE73E080E090E00E94D1
:101890007612D5011F962C911F9740E016966C91F9
:1018A000169714968D919C9115970E94291D8CAFC7
:1018B000811147C068EE73E080E090E00E947612EC
:1018C000F501418D60E0C5010E9410158CAF8111BA
:1018D00038C020E040E060E0C5010E94E6148CAF13
:1018E00089EC91E09A838983AE014F5F5F4F60E09E
:1018F00070E0C5010E94751480E28CAF8CAD882326
:10190000C1F090E0959587958CAFCE01CC966C0197
:10191000EE24E394F12C00E022E040E060E0C50119
:101920000E94B81469E170E080E090E00E947612B5
:10193000E5CF91E0D50157969C9312C0F7017182D3
:101940006082D501ED91FC910480F581E02DC50107
:1019500009958CAD05C089ED03C087ED01C084ED0C
:10196000EC960FB6F894DEBF0FBECDBFDF91CF91DE
:101970001F910F91FF90EF90DF90CF90BF90AF90AD
:101980009F908F907F906F905F904F903F900895C1
:10199000DC01AA5ABF4F20E030E04D915D91452B0C
:1019A00059F4255D3F4F220F331FFC01E20FF31F57
:1019B0007183608380E008952F5F3F4F20313105B0
:1019C00061F783ED0895CF93DF93FC01DA01828103
:1019D000882319F08130D9F01FC03483238381E03C
:1019E000828315C02D913C911197232BA9F001976B
:1019F00094838383EB0188819981019699838883FD
:101A00008D919C911197019711969C938E93838150
:101A10009481009739F7128281E023813481232B4E
:101A200009F080E0DF91CF9108952F923F924F927D
:101A30005F926F927F928F929F92AF92BF92CF925E
:101A4000DF92EF92FF920F931F93CF93DF9300D01B
:101A500000D0CDB7DEB76C017C836B835A8349839A
:101A60004C0180E1880E911C5601A7E0AA0EB11C22
:101A7000332433942601BBE04B0E511C3601E2E1C6
:101A80006E0E711C83E0282E12E08B819C81892BC5
:101A900009F4D7C0D60190968C91823061F128F478
:101AA000882341F0813079F0F0CF833041F18430E8
:101AB000D1F1EBCFF60114838581968190878783DE
:101AC0001287118730A2AE014D5F5F4FBE016F5F7D
:101AD0007F4FC5010E94861E882309F4B2C0D6013B
:101AE0001596ED91FC911697808191968C93919724
:101AF000818192968C93F6017682658220A2D6012E
:101B000092968C919297843011F493961C92F601E0
:101B100081A1825084832581368130872783828703
:101B2000818784E080A3D60192968C918430B1F0B5
:101B3000853009F442C0823009F06BC0AE014D5FC0
:101B40005F4FBE016F5F7F4FC5010E94861E8823D5
:101B500009F477C0F601858984A36BC0AE014D5F9F
:101B60005F4FBE016F5F7F4FC5010E94861E8823B5
:101B700009F467C0D60155968C915597833009F0CA
:101B800058C056968C915697813009F052C098965D
:101B90009C91989757968C91992321F0882309F46A
:101BA00048C003C0823009F044C0F60133A29289D4
:101BB00096A3938997A385A33CC0AE014D5F5F4F69
:101BC000BE016F5F7F4FC5010E94861E8823C9F149
:101BD000D60193968C919397882359F112968D9103
:101BE0009C911397009729F1DC01ED91FC910190F4
:101BF000F081E02D7401D60195960C9195979796FA
:101C00002C91979796964C91969794966C910995EE
:101C100010C0F60121A130E022503109AE014D5F24
:101C20005F4FBE016F5F7F4FC2010E94E30C8823AC
:101C300041F0D60116969C928E92159790961C9222
:101C400024CF0F900F900F900F90DF91CF911F91A5
:101C50000F91FF90EF90DF90CF90BF90AF909F904B
:101C60008F907F906F905F904F903F902F9008954E
:101C70002F923F924F925F926F927F928F929F929C
:101C8000AF92BF92CF92DF92EF92FF920F931F938A
:101C9000CF93DF9300D000D0CDB7DEB76C017C834B
:101CA0006B835A8349834C0180E1880E911C560155
:101CB000A7E0AA0EB11C332433942601BBE04B0EDF
:101CC000511C3601E2E16E0E711C83E0282E12E0F9
:101CD0008B819C81892B09F4D7C0D60190968C9179
:101CE000823061F128F4882341F0813079F0F0CF1F
:101CF000833041F18430D1F1EBCFF601148385813B
:101D00009681908787831287118730A2AE014D5F3D
:101D10005F4FBE016F5F7F4FC5010E94861E882303
:101D200009F4B2C0D6011596ED91FC911697808109
:101D300091968C939197818192968C93F6017682FD
:101D4000658220A2D60192968C919297843011F4EC
:101D500093961C92F60181A182508483258136815D
:101D6000308727838287818784E080A3D60192967B
:101D70008C918430B1F0853009F442C0823009F092
:101D80006BC0AE014D5F5F4FBE016F5F7F4FC501FE
:101D90000E94861E882309F477C0F601858984A3F2
:101DA0006BC0AE014D5F5F4FBE016F5F7F4FC501DE
:101DB0000E94861E882309F467C0D60155968C912F
:101DC0005597833009F058C056968C9156978130BC
:101DD00009F052C098969C91989757968C919923A8
:101DE00021F0882309F448C003C0813009F044C0C1
:101DF000F60133A2928996A3938997A385A33CC049
:101E0000AE014D5F5F4FBE016F5F7F4FC5010E9406
:101E1000861E8823C9F1D60193968C9193978823C7
:101E200059F112968D919C911397009729F1DC013D
:101E3000ED91FC910190F081E02D7401D601959611
:101E40000C91959797962C91979796964C9196977B
:101E500094966C91099510C0F60121A130E02250B2
:101E60003109AE014D5F5F4FBE016F5F7F4FC20111
:101E70000E94E30C882341F0D60116969C928E9224
:101E8000159790961C9224CF0F900F900F900F9063
:101E9000DF91CF911F910F91FF90EF90DF90CF9046
:101EA000BF90AF909F908F907F906F905F904F907A
:101EB0003F902F9008952F923F924F925F926F9292
:101EC0007F928F929F92AF92BF92CF92DF92EF92CA
:101ED000FF920F931F93CF93DF9300D000D0CDB725
:101EE000DEB76C017C836B835A8349834C0180E1AC
:101EF000880E911C5601A7E0AA0EB11C332433941E
:101F00002601BBE04B0E511C3601E2E16E0E711C46
:101F100083E0282E12E08B819C81892B09F4D7C0A5
:101F2000D60190968C91823061F128F4882341F09B
:101F3000813079F0F0CF833041F18430D1F1EBCFB3
:101F4000F601148385819681908787831287118794
:101F500030A2AE014D5F5F4FBE016F5F7F4FC50185
:101F60000E94861E882309F4B2C0D6011596ED9111
:101F7000FC911697808191968C939197818192968E
:101F80008C93F6017682658220A2D60192968C917E
:101F90009297843011F493961C92F60181A182509D
:101FA000848325813681308727838287818784E0F7
:101FB00080A3D60192968C918430B1F0853009F4DB
:101FC00042C0823009F06BC0AE014D5F5F4FBE0171
:101FD0006F5F7F4FC5010E94861E882309F477C07A
:101FE000F601858984A36BC0AE014D5F5F4FBE01D2
:101FF0006F5F7F4FC5010E94861E882309F467C06A
:10200000D60155968C915597833009F058C0569655
:102010008C915697813009F052C098969C91989770
:1020200057968C91992321F0882309F448C003C066
:10203000833009F044C0F60133A2928996A39389B4
:1020400097A385A33CC0AE014D5F5F4FBE016F5F9C
:102050007F4FC5010E94861E8823C9F1D601939641
:102060008C919397882359F112968D919C91139797
:10207000009729F1DC01ED91FC910190F081E02DB8
:102080007401D60195960C91959797962C919797F8
:1020900096964C91969794966C91099510C0F6017E
:1020A00021A130E022503109AE014D5F5F4FBE01EA
:1020B0006F5F7F4FC2010E94E30C882341F0D6017D
:1020C00016969C928E92159790961C9224CF0F9004
:1020D0000F900F900F90DF91CF911F910F91FF9074
:1020E000EF90DF90CF90BF90AF909F908F907F90B8
:1020F0006F905F904F903F902F9008958AED92E0FF
:102100000E94871D81E792E00E9452050C943901DC
:102110002A9A08952A988EBD0DB407FEFDCF1EBCE5
:102120000DB407FEFDCF0E9488108EB508952A9841
:1021300082608EBD0DB407FEFDCF6EBD0DB407FEEF
:10214000FDCF0C94881088EF0E948A10807C803428
:10215000A1F018F4882301F10895803819F0803C2B
:10216000B9F0089588ED0E948A1081FD0BC069ECDA
:1021700088ED0E94971082E00CC088ED0E948A10C2
:1021800081FDF5CF6BEC88ED0E94971083E001C0D4
:1021900081E080936E02089561ED88ED0E949710B2
:1021A00010926E0208950F931F93CF93DF938C01CB
:1021B000229A0E948810259A239A2498229A80E5D0
:1021C0008CBD81E08DBD219868E188E80E94971060
:1021D00060E288E70E94971060E088E70E9497100D
:1021E000C1E0D0E0209799F088E60E948A102196FD
:1021F00080FFF8CF61EC88ED0E94971060E680EDDB
:102200000E94971064E088EE0E94971002C08FEF42
:1022100011C088EE0E948A1082FFFBCFC8010E9485
:10222000A31060E288EC0E94971061E080E80E94B1
:10223000971080E0DF91CF911F910F910895CF9378
:10224000DF93C9E7D2E08FE692E090938602809315
:1022500085020E94BB010E94DC008AED92E00E9490
:10226000D3108F3FC9F461E08DE00E940B1361E051
:102270008DE00E94471364EF71E080E090E00E94DF
:10228000761260E08DE00E94471364EF71E080E019
:1022900090E00E947612EBCF68EC70E080E090E076
:1022A0000E947612D093CC02C093CB0281E792E0D9
:1022B0009093CE028093CD02D093AF02C093AE0232
:1022C0009093950280939402DF91CF9108950F939C
:1022D0001F93CF93DF938AED92E00E942416EBEBDD
:1022E000F2E00AED12E0158304838FEC91E0918314
:1022F00080838DEE91E093838283108E118E128EF7
:10230000138E148E168E1782D8E0D0878CE38093BC
:10231000C4021286138684E08093C702158616864F
:102320008093CA02C1E0C78B168A148A118A108A68
:10233000138A128ABF01C8010E94C80CE1EAF2E0C8
:102340001583048383EF91E09183808381E192E0A0
:1023500093838283138A148A158A168A178A118EA8
:102360001782D0878CE38093AA021286138684E0BA
:102370008093AD02C28B118A178616861586BF011F
:10238000C8010E94C80CE7E8F2E01583048387E1E6
:1023900092E09183808385E392E093838283138A22
:1023A000148A158A168A178A118E1782D0878CE3B1
:1023B000809390021286138684E080939302C28BEE
:1023C000118A178616861586BF01C8010E94C80C9F
:1023D00089E792E00E940E0581E792E00E944405A1
:1023E0008BE392E09093700280936F02DF91CF9124
:1023F0001F910F9108951F920F920FB60F92112403
:102400002F933F938F939F93AF93BF9380915203EA
:1024100090915303A0915403B0915503309151030F
:1024200026E0230F2D3720F40296A11DB11D05C013
:1024300029E8230F0396A11DB11D2093510380931A
:10244000520390935303A0935403B0935503809188
:10245000560390915703A0915803B09159030196E8
:10246000A11DB11D8093560390935703A093580369
:10247000B0935903BF91AF919F918F913F912F914D
:102480000F900FBE0F901F9018952FB7F894609182
:1024900052037091530380915403909155032FBFC1
:1024A00008953FB7F8948091560390915703A091F7
:1024B0005803B091590326B5A89B05C02F3F19F0CA
:1024C0000196A11DB11D3FBFBA2FA92F982F8827B4
:1024D000820F911DA11DB11DBC01CD0143E0660F0E
:1024E000771F881F991F4A95D1F70895CF92DF92E1
:1024F000EF92FF92CF93DF936B017C010E94511208
:10250000EB01C114D104E104F10479F00E945112ED
:102510006C1B7D0B683E7340A0F381E0C81AD108A4
:10252000E108F108C851DC4FECCFDF91CF91FF906B
:10253000EF90DF90CF9008958130910539F00297A8
:1025400029F0880F991F01970197F1F70895789462
:1025500084B5826084BD84B5816084BD85B58260A8
:1025600085BD85B5816085BDEEE6F0E08081816046
:102570008083E1E8F0E01082808182608083808146
:1025800081608083E0E8F0E0808181608083E1EB1E
:10259000F0E0808184608083E0EBF0E08081816006
:1025A0008083EAE7F0E080818460808380818260BC
:1025B00080838081816080838081806880831092A5
:1025C000C1000895833081F028F4813099F0823081
:1025D000A1F008958630A9F08730B9F08430D1F4A5
:1025E000809180008F7D03C0809180008F778093E1
:1025F0008000089584B58F7702C084B58F7D84BD37
:1026000008958091B0008F7703C08091B0008F7DD6
:102610008093B0000895CF93DF9390E0FC01E458DD
:10262000FF4F2491FC01E057FF4F8491882361F113
:1026300090E0880F991FFC01E255FF4FC591D4919E
:10264000FC01EC55FF4FA591B491611109C09FB7F2
:10265000F8948881209582238883EC912E230BC0E7
:10266000623061F49FB7F8943881822F809583237C
:102670008883EC912E2B2C939FBF06C08FB7F894C4
:10268000E8812E2B28838FBFDF91CF9108951F9370
:10269000CF93DF93282F30E0F901E859FF4F849161
:1026A000F901E458FF4FD491F901E057FF4FC4916D
:1026B000CC23C9F0162F81110E94E212EC2FF0E01A
:1026C000EE0FFF1FEC55FF4FA591B4918FB7F89413
:1026D000111105C09C91ED2FE095E92302C0EC910A
:1026E000ED2BEC938FBFDF91CF911F9108950E9446
:1026F000A7120E941F11C0E0D0E00E947E10209718
:10270000E1F30E940000F9CF0F931F93CF93DF9363
:10271000EC018A818170F8019081292F2170821744
:1027200071F0E881F98190FF04C00680F781E02D07
:1027300003C00480F581E02DB801CE0109958A819E
:1027400086958170F801908191FB222720F98217EC
:1027500071F0E881F98191FF04C00284F385E02DD6
:1027600003C00084F185E02DB801CE0109958A816E
:1027700082FB882780F9F801908192FB222720F9BB
:10278000821771F0E881F98192FF04C00684F78511
:10279000E02D03C00484F585E02DB801CE01099534
:1027A000F8018181811103C08281882341F0E88191
:1027B000F9810280F381E02DB801CE010995F8017D
:1027C00080818A83DF91CF911F910F9108953F926D
:1027D0004F925F926F927F928F929F92AF92BF9231
:1027E000CF92DF92EF92FF920F931F93CF93DF93DD
:1027F000D80112962C91213009F465C02B01EC010F
:102800006A81F8014081641731F0E881F981048020
:10281000F581E02D09954801F2E08F0E911C5E01D3
:1028200084E0A80EB11C3E01AAE06A0E711C75017D
:102830006401D6014C91F7019081D401F501312C4E
:1028400080E02191421303C0413009F081E02D91D5
:10285000291304C0913011F033243394E615F705A1
:1028600081F7811113C0E881F9810280F381E02DA5
:10287000B201CE010995E881F9810680F781E02D4A
:10288000D6014C91D8016C91CE01099531100AC046
:10289000E881F9810084F185E02DD7014C916A81AE
:1028A000CE010995BFEFCB1ADB0AEFEFEE1AFE0A55
:1028B000E614F70409F0BDCFF801229681918993BF
:1028C000C615D705D9F7DF91CF911F910F91FF90D2
:1028D000EF90DF90CF90BF90AF909F908F907F90C0
:1028E0006F905F904F903F9008958F929F92AF921C
:1028F000BF92CF92EF920F93CF93DF93CDB7DEB716
:10290000C054D1090FB6F894DEBF0FBECDBF5F93A0
:102910004F939E012F5F3F4F3F932F931F9220E4D1
:102920002F9320E8822E912C5B0132E2C32EE12C02
:1029300006E021E840E0FC016681848195810E94E7
:10294000281A0F900F900F900F900F900F90C05C6F
:10295000DF4F0FB6F894DEBF0FBECDBFDF91CF9132
:102960000F91EF90CF90BF90AF909F908F90089570
:102970008F929F92AF92BF92CF92DF92EF92FF928F
:102980000F938E2CA42EB12C1F921F92DF92CF9208
:10299000FF92EF929F2CC22EE02E09E021E2462FFB
:1029A000FC016681848195810E94281A0F900F9006
:1029B0000F900F900F900F900F91FF90EF90DF907E
:1029C000CF90BF90AF909F908F9008958F929F92DD
:1029D000AF92BF92CF92EF920F93A62EB12C1F927F
:1029E0001F921F921F921F921F92812C912CC22E18
:1029F000E42E0AE021E240E0FC01668184819581B9
:102A00000E94281A0F900F900F900F900F900F9028
:102A10000F91EF90CF90BF90AF909F908F900895BF
:102A20008F929F92AF92BF92CF92EF920F93A62E6A
:102A3000B12C1F921F921F921F921F921F92812CE6
:102A4000912CC12CE42E0BE021E240E0FC016681D8
:102A5000848195810E94281A0F900F900F900F90FB
:102A60000F900F900F91EF90CF90BF90AF909F90ED
:102A70008F900895CF93DF93FC01862F807809F023
:102A800051C0283008F04FC0442321F09581973081
:102A900009F449C0EF012D96A0E0B0E011969881AD
:102AA000911103C0662331F021C02596AF30B105E6
:102AB000A9F739C085E08A9FE0018B9FD00D1124D2
:102AC000CE0FDF1F442331F081E4888785818F5F3B
:102AD000858302C081E0888725E02A9FC0012B9F63
:102AE000900D1124E80FF91F80851DC06770660FD7
:102AF000660F660F442341F0606485818F5F858394
:102B00008770687F682B03C02770687B622B25E085
:102B10002A9FC0012B9F900D1124E80FF91F608799
:102B2000862F01C080E0DF91CF910895DF92EF9270
:102B3000FF920F931F93CF93DF93EC01E62EF12CBE
:102B400085E0689FB0011124FE01E60FF71F808524
:102B5000182F177086FF21C001E085E0D82E8FEF77
:102B6000800F8F3008F001E0FE01D09EE00DF11DD6
:102B7000112480858695869586958770811305C07A
:102B8000602FCE010E949615EACF0F5F003161F7EA
:102B90008D81811302C011501D8385E08E9DF0014F
:102BA0008F9DF00D1124EC0FFD1F108681E08187B1
:102BB00012862296D783C683DF91CF911F910F9102
:102BC000FF90EF90DF900895611102C0069608957E
:102BD000FC013D9621E03081361307C035E0239F8C
:102BE000800D911D1124069608952F5F3596203192
:102BF00091F780E090E00895FC016134C1F43F96C4
:102C00009C01265A3F4F61E0AC014E5F5F4FDF01F0
:102C100012971C9211966C93108213974D935C93AC
:102C20003596E217F30799F7FC01158208953D9652
:102C300021E03081361303C0622F0C9496152F5F6C
:102C400035962031B1F70895CF93DF93FC0181E4ED
:102C500092E0918380831582108681E081871286BD
:102C6000CF01029697838683128228E023832CE388
:102C70002483DF011F969F01265A3F4F41E0ED015B
:102C800022971882219648831C92239799838883E0
:102C90001596A217B30799F7EA58FF4F108281E102
:102CA00080935E03DF91CF910895CF93DF931F92BE
:102CB000CDB7DEB749830E94E4154981009789F0BA
:102CC000DC01ED91FC911197309759F013969C918E
:102CD00080E0891731F02081241731F033968F5F1F
:102CE000F8CF80E090E001C0CF010F90DF91CF914D
:102CF00008950F931F93CF93DF932115310571F042
:102D0000E901042F162F0E94E415FC01892B41F0E4
:102D10001283D183C083038380E003C088ED01C0A8
:102D200086EDDF91CF911F910F9108952A98089514
:102D3000CF93DF931F92CDB7DEB789830E9496169B
:102D400089818EBD0DB407FEFDCF1EBC0DB407FEFC
:102D5000FDCF0E9488108EB50F90DF91CF9108951E
:102D6000CF93DF9300D0CDB7DEB76A8389830E940B
:102D70009616898182608EBD6A810DB407FEFDCFF3
:102D80006EBD0DB407FEFDCF0F900F90DF91CF9178
:102D90000C9488108F929F92AF92BF92DF92EF9225
:102DA000FF920F931F93CF93DF931F92CDB7DEB7A0
:102DB0004C01D62E590149830E94E4157C014981BA
:102DC000009709F440C0FC0180819181892BE9F1D1
:102DD0006D2DC4010E945516F501918380830097E3
:102DE000B1F1FC0122812695269530E02031310594
:102DF00014F02FE030E081E090E0A0E0B0E004C00B
:102E0000880F991FAA1FBB1F2A95D2F70197F801B7
:102E1000918380836D2D80EE0E94B01688ED0E9414
:102E20009816682FF7018481882339F0F401EA5855
:102E3000FF4F80818260682B01C0697F88ED0E940E
:102E4000B01680E005C086ED03C087ED01C08BEDB4
:102E50000F90DF91CF911F910F91FF90EF90DF9036
:102E6000BF90AF909F908F9008958F929F92AF9256
:102E7000BF92CF92DF92EF92FF920F931F93CF9367
:102E8000DF93862E942E59010E9445126B017C011E
:102E900028E8C20E23E1D21EE11CF11C00E010E084
:102EA000D0E0C0E098280E944512DC01CB018C19CB
:102EB0009D09AE09BF09B7FF2DC0692D80EF0E94A3
:102EC000B0160E944512DC01CB018C199D09AE0998
:102ED000BF09B7FF09C088EC0E94981687FFF1CFA1
:102EE00060E888EC0E94B01688EF0E949816C82F00
:102EF000CF70C43019F0CE3051F00CC00F5F1F4FAF
:102F0000A114B10481F20A151B0569F603C0DF5F45
:102F1000D33049F68C2FDF91CF911F910F91FF9005
:102F2000EF90DF90CF90BF90AF909F908F900895DB
:102F30009F92AF92BF92CF92DF92EF92FF920F9348
:102F40001F93CF93DF937C01C42F122F9924939466
:102F50006C01C60ED11CC60ED11C86E5C80ED11C54
:102F6000A42EB12CABE2AA0EB11CAA0CBB1CAE0C59
:102F7000BF1CF60180819181DC01ED91FC91028002
:102F8000F381E02D202F412F6C2F0995803EC9F44D
:102F9000C1110BC061E088EE0E94B01666E670E0D9
:102FA00080E090E00E94761216C0F5018081918148
:102FB000DC01ED91FC910284F385E02D612F0995F0
:102FC0000AC08D3031F49FEF990D933008F040C066
:102FD00016C081113DC0F60180819181DC01ED9127
:102FE000FC910190F081E02D202F412F6C2F09954D
:102FF000D82F8D3061F48FEF890D833050F464E663
:1030000070E080E090E00E9476129394B2CF882323
:10301000F1F0C1110BC061E088EE0E94B01666E6C7
:1030200070E080E090E00E94761211C0EC2FF0E09A
:10303000BB96EE0FFF1FEE0DFF1D80819181DC011D
:10304000ED91FC910284F385E02D612F09958D2F80
:10305000DF91CF911F910F91FF90EF90DF90CF9074
:10306000BF90AF909F9008950F931F93CF93DF93DE
:1030700000D0CDB7DEB78A016A8389830E94961695
:10308000898182608EBDF8016A81862F882339F09C
:103090000DB407FEFDCF91919EBD8150F7CF060F75
:1030A000111D0DB407FEFDCF0E948810C8010F90BE
:1030B0000F90DF91CF911F910F9108952F923F9222
:1030C0004F925F926F927F928F929F92AF92BF9238
:1030D000CF92DF92EF92FF920F931F93CF93DF93E4
:1030E00000D000D01F92CDB7DEB77D836C835A012C
:1030F0006901FB0121808FEF820D803408F075C0DB
:103100000E9445122B013C01F8E84F0EF3E15F1ECF
:10311000611C711CEC81FD81828180FD02C060E434
:1031200001C060E888EE0E94B01620E0312CC11486
:10313000D10409F44AC076012C143D0408F471014D
:10314000EA82A8016E2D80E10E9434186E2D88E37A
:103150000E94B016EC81FD816081606280EF0E9468
:10316000B01688EC0E94981687FFFBCF60E888ECC9
:103170000E94B01688EF0E949816282F2F70812C7D
:10318000912C1982222361F02B830E944512DC01CD
:10319000CB0184199509A609B7092B81B7FD05C094
:1031A000CE18DF080E0D1F1DC2CF263001F12E30C4
:1031B00009F456C0243049F4FFEF8F1A9F0AA11476
:1031C000B10459F18A149B0441F588EF2B830E94C6
:1031D000981685FB882780F9EC81FD81928180FB20
:1031E00090F992832B81822F41C08AED3FC088EFF6
:1031F0000E94981685FB882780F991E08927EC8149
:10320000FD81928180FB90F9928390FD02C060E481
:1032100001C060E888EE0E94B01660E088E30E947A
:10322000B016F801608180E10E94B0166A8188E3DF
:103230000E94B016EC81FD816081606280EF0E9487
:10324000B01688EC0E94981687FFFBCF60E888ECE8
:103250000E94B01688EF0E949816282F2F7092CFE8
:1032600089818F5F89838330C1F6AFCF0F900F9034
:103270000F900F900F90DF91CF911F910F91FF90C2
:10328000EF90DF90CF90BF90AF909F908F907F9006
:103290006F905F904F903F902F9008952F923F92A4
:1032A0004F925F926F927F928F929F92AF92BF9256
:1032B000CF92DF92EF92FF920F931F93CF93DF9302
:1032C000CDB7DEB72A970FB6F894DEBF0FBECDBFDD
:1032D0004C017A8769875C834B836901F901A0807F
:1032E000B180FB01F181FA83F90111821082FB01A7
:1032F000828181FD02C060E101C060E288EE0E942F
:10330000B0162E2C312C412C512CAD822B813C81BE
:10331000E985FA85408160E0C4010E943517898300
:103320008630B1F488EF0E94981682958170F1E0A2
:103330008F27E985FA85928180FB91F9928391FD2F
:1033400002C060E101C060E288EE0E94B016DECFEC
:103350009981911163C088EC0E94981682FF5CC02D
:1033600080E30E949816F82E282F30E0A216B306AC
:1033700008F4FD80F601208131816F2C712CA501AC
:10338000421B530B57FF02C040E050E0930146152B
:1033900057050CF49A012E833F8328870E949616C6
:1033A000F8E0FEBD88853F812E810DB407FEFDCF7C
:1033B000F801882341F01EBC81500DB407FEFDCFFB
:1033C0004EB54193F6CF020F131F0E94881064E0A0
:1033D00088EC0E94B016F60120813181620E731EC6
:1033E00071826082FA81FF1618F06A147B0460F023
:1033F00088EF0E94981682958170E985FA859281FE
:1034000080FB91F992830AC0EE2009F47FCFC201BC
:10341000B1010E9476127ACF90EF998389812A9622
:103420000FB6F894DEBF0FBECDBFDF91CF911F91D5
:103430000F91FF90EF90DF90CF90BF90AF909F9053
:103440008F907F906F905F904F903F902F90089556
:103450002F923F924F925F926F927F928F929F92A4
:10346000AF92BF92CF92DF92EF92FF920F931F9392
:10347000CF93DF93CDB7DEB762970FB6F894DEBF78
:103480000FBECDBF3C01F42E322E202E5C2D4FA05E
:1034900058A4C9A4DAA4188A1F861E861D868E0128
:1034A000035F1F4F9E01215F3F4F598B0E94CA1639
:1034B000598981119DC039822A82EB825C83BE8248
:1034C000AD8298868F82AE014F5F5F4F68E080E2E9
:1034D0000E9434182D853E854F2D60E1C3010E9466
:1034E0003517182F811180C0232C221C2224221C66
:1034F000C114D10409F46BC0EF85F88982812220C0
:1035000009F456C082608283540133243394A11499
:10351000B10409F44AC05C864B864D855E856F8593
:103520007889E12C86019E01255F3F4FC3010E94EF
:103530004E19182F8630B1F42F85388988EF298BE2
:103540003A8B0E94981685FB882780F98325298964
:103550003A89D90112969C91129780FB91F91296A3
:103560009C93D5CF811140C0EBA5FCA53097A1F06D
:103570000190F081E02D0190F081E02DC4018A19C5
:103580009B099A8789876B857C859E01275F3F4FC2
:10359000A6018BA59CA509958B859C85A81AB90ABF
:1035A0008415950508F0B3CF12C011111DC014C0C9
:1035B000816082834D855E8586019201BF01C301D2
:1035C0000E945E18811114C02D853E850FC02D8587
:1035D0003E85211003C00AC02D853E8560EA4F2D2F
:1035E000C3010E94351704C0812F02C060E8F7CFE5
:1035F00062960FB6F894DEBF0FBECDBFDF91CF91BC
:103600001F910F91FF90EF90DF90CF90BF90AF9000
:103610009F908F907F906F905F904F903F902F90F2
:1036200008958F929F92AF92BF92CF92EF920F9395
:103630001F931F921F921F930F933F932F93490144
:10364000A12CB12CCC24C394E12C06E020E80E94EC
:10365000281A0F900F900F900F900F900F901F91BE
:103660000F91EF90CF90BF90AF909F908F90089563
:103670008F929F92AF92BF92CF92EF92FF920F9351
:103680001F921F92FF92EF923F932F934901A12C1B
:10369000B12C22E0C22EE02E06E020E80E94281A7B
:1036A0000F900F900F900F900F900F900F91FF9031
:1036B000EF90CF90BF90AF909F908F9008954F92D2
:1036C0005F926F927F928F929F92AF92BF92CF92B2
:1036D000DF92EF92FF920F931F93CF93DF93CDB7BB
:1036E000DEB7C054D1090FB6F894DEBF0FBECDBF10
:1036F0003C01D62E542E422EC02ECE0101965C01E6
:103700007C01022F29E030E0C3010E94381B8111A7
:103710001BC08B809C801F93CF92BF92AF921F9251
:1037200080E48F93A12CB12C82E0C82EE42C06E01B
:1037300020E8452D6D2DC3010E94281A0F900F908F
:103740000F900F900F900F90C05CDF4F0FB6F89462
:10375000DEBF0FBECDBFDF91CF911F910F91FF90C4
:10376000EF90DF90CF90BF90AF909F908F907F9021
:103770006F905F904F9008958F929F92AF92BF92FB
:10378000CF92EF920F93CF931F921F921F921F928F
:103790001F921F92812C912CA12CB12CC12CE22EB6
:1037A00005E020E00E94281AC82F6CE271E080E05A
:1037B00090E00E9476120F900F900F900F900F9054
:1037C0000F908C2FCF910F91EF90CF90BF90AF9033
:1037D0009F908F9008950F931F93CF93DF938A3F0D
:1037E0003FEF930711F486ED2DC0DC011696ED91A5
:1037F000FC911797EF2B09F1122F242FEC011A8758
:1038000040E00E943A15082F8823C9F0682FCE01A6
:103810000E94E415009739F3FC011483202F40E047
:1038200060E0CE010E94BC1B182F882351F0602F4E
:10383000CE010E94FC15812F05C087ED03C084EDE9
:1038400001C080E0DF91CF911F910F9108952F92D9
:103850003F924F925F926F927F928F929F92AF9220
:10386000BF92CF92DF92EF92FF920F931F93CF936D
:10387000DF93CDB7DEB766970FB6F894DEBF0FBE05
:10388000CDBF1B8A38E03C8B3CE33D8B8A3F3FEF4A
:10389000930709F4ADC0B22E342EA62E7C01DC01B4
:1038A0001696CD90DC901797CE01439617969C9371
:1038B0008E9316971A962C938E010F5F1F4F22E15D
:1038C00030E040E060E0C7010E94111BF701D782A1
:1038D000C6828111A5C069847A844B845C843D8151
:1038E0003E8B2E80670186E5C80ED11C460110E094
:1038F000D4018D919C91009789F1DC01ED91FC91AF
:103900000084F185E02D0995811128C0F4018081A2
:103910009181DC01ED91FC910088F189E02D622D0F
:1039200009958823D9F0F40180819181DC01ED9122
:10393000FC910484F585E02DA201B3010995811164
:1039400059C0F40180819181DC01ED91FC910684E4
:10395000F785E02D6E89099581114CC01F5FB2E09B
:103960008B0E911C103121F610E0F60180819181BF
:10397000009789F1DC01ED91FC910084F185E02D47
:103980000995811128C0F60180819181DC01ED91BA
:10399000FC910088F189E02D622D09958823A9F119
:1039A000F60180819181DC01ED91FC910484F58523
:1039B000E02DA201B301099581110DC0F6018081AE
:1039C0009181DC01ED91FC910684F785E02D6E89F3
:1039D00009958823D1F01F5FB2E0CB0ED11C1031C6
:1039E00021F62B2D432D6A2DC7010E94EB1B18C019
:1039F00086ED16C00B2D232D4A2D612FC7010E9485
:103A00009817813D09F4AACF0BC00B2D232D4A2D09
:103A1000612FC7010E949817982F977F913DD9F287
:103A200066960FB6F894DEBF0FBECDBFDF91CF9183
:103A30001F910F91FF90EF90DF90CF90BF90AF90CC
:103A40009F908F907F906F905F904F903F902F90BE
:103A500008958F929F92AF92BF92CF92EF920F9361
:103A60001F921F921F921F921F921F92812C912CC6
:103A7000A12CB12CC12CE22E09E020E00E94281AD2
:103A80000F900F900F900F900F900F900F91EF905D
:103A9000CF90BF90AF909F908F9008958F929F92FC
:103AA000AF92BF92CF92DF92EF920F931F93CF937B
:103AB000DF9300D000D0CDB7DEB76C0159014801CB
:103AC0001C821B821A8219828E010F5F1F4F9E017A
:103AD0002D5F3F4F0E94CA16811109C049815A814A
:103AE0006B817C8184019501C6010E944E190F9063
:103AF0000F900F900F90DF91CF911F910F91EF904A
:103B0000DF90CF90BF90AF909F908F900895AF922D
:103B1000BF92CF92DF92EF92FF920F931F93CF93BA
:103B20008C0119990EC088EC0E94981685FF05C07B
:103B3000C8010E94A31060E201C060E088EC0E940E
:103B4000B01680916E02813039F040F0823079F009
:103B5000833039F5C1E00CC083E106C080915E037B
:103B6000807F8031F1F081E180935E031AC0C0E074
:103B700080915E03807F8031A9F40E944512DC01B0
:103B8000CB0188539F4FAF4FBF4F80935A03909301
:103B90005B03A0935C03B0935D0380E280935E03BC
:103BA00001C0C0E0780186E5E80EF11C6801A6E7D7
:103BB000CA0ED11C5701F501819191915F010097C7
:103BC00039F0DC01ED91FC910680F781E02D09953B
:103BD000AC14BD0481F790915E03903409F43FC0AA
:103BE00050F4903221F19033A1F1913109F084C069
:103BF000F60110820AC0913509F458C0903809F4D2
:103C00006AC0903509F078C039C0D7018D919D9177
:103C10007D01009739F0DC01ED91FC910480F58184
:103C2000E02D0995EC14FD0481F782E163C00E9448
:103C3000451200915A0310915B0320915C0330916F
:103C40005D03DC01CB01801B910BA20BB30BB7FD15
:103C500053C061E088EE0E94B01680E44BC088EE4D
:103C60000E94981680FD48C088ED0E949816682F23
:103C7000686088ED0E94B01680E53CC088EC0E9428
:103C8000981686FF39C081E580935E030E94451235
:103C9000DC01CB014496A11DB11D80935A03909382
:103CA0005B03A0935C03B0935D0326C00E944512A2
:103CB000C0905A03D0905B03E0905C03F0905D03EA
:103CC000DC01CB018C199D09AE09BF09B7FD14C0F9
:103CD00080E880935E032C2F40E060E0C8010E94E2
:103CE000271C882331F0823D39F080935F0380EAFE
:103CF00001C080E980935E03CF911F910F91FF90E7
:103D0000EF90DF90CF90BF90AF900895CF93DF9367
:103D1000FC01EA0180819181892B19F580E027C09F
:103D200028813981232BD1F3DB012D913C91D901DD
:103D30009C91A381B0E0A81BB10920813181A20F21
:103D4000B31F9C93828181508283888199810197DE
:103D500099838883DB018D919C91119701968D93B6
:103D60009C9382818111DCCF8381828381E0DF910A
:103D7000CF910895F8940C94C31EEE0FFF1F059089
:0A3D8000F491E02D0994F894FFCFB0
:103D8A00016360646663616567FFFFFFFF20353387
:103D9A00221223242517262728373618191013210B
:103DAA0014163411321531010203040506070809F5
:103DBA000A44454142400B0C1A1BFF0D292A0038C0
:103DCA00393A62505152535455565758592B30FF6D
:103DDA00FFFF5FFF5A46FF5B4E4F4D4CFF5C5D4A4B
:103DEA005E431D1E1F2D2E2F3D3E3F0F3C3067FFA9
:103DFA00FFFFFFFFFFFFFFFFFFFFFFFFFFFFFFFFC9
:103E0A00FFFFFFFFFFFFFFFFFF00000000E713E2D5
:103E1A0003BA046D042B04D603D903DC03DF0300C1
:103E2A00000000841318052B052605350530053FCB
:103E3A00053A05000000005B0F00000000380E0084
:103E4A00000000150D00000000E10600000000D18E
:103E5A00095F056B06FB0686066105620589068E03
:103E6A0006930664059B069E06FEFF0000D7060021
:103E7A000000004F0B5F05F5058E0710066105620D
:103E8A0005130618061D066D0525062806FEFF0001
:103E9A000061060000000070085F057F05FF079AB1
:103EAA0005610562059D05A205A7057605AF05B260
:103EBA0005FEFF0000EB0500000000E2060000001E
:083ECA0000E4153A15FC150097
:00000001FF
