:100000000C9471000C9499000C94740A0C9499004F
:100010000C94D3080C9499000C9499000C949900BA
:100020000C9499000C9499000C9499000C94F2088B
:100030000C9499000C9499000C9499000C949900DC
:100040000C94D8110C9499000C9499000C9499007C
:100050000C9499000C9499000C9499000C949900BC
:100060000C9499000C94990021402324255E262AA3
:1000700028295F2B7B7D7C7E3A227E3C3E3F2D3DB6
:100080005B5D5C203B27602C2E2F2F2A2D2B13002D
:10009000000000240027002A00000000002500289E
:1000A000002B0004040404040404040202020202FB
:1000B000020303030303030102040810204080012C
:1000C00002040810200102040810200000000700AC
:1000D0000201000003040600000000000000000010
:1000E000AD1B11241FBECFEFD8E0DEBFCDBF12E0A5
:1000F000A0E0B1E0E2E2FBE302C005900D92AA3479
:10010000B107D9F723E0AAE4B2E001C01D92A236FC
:10011000B207E1F710E0C1E7D0E004C02197FE018B
:100120000E94891DC037D107C9F70E9415180C9489
:10013000861D0C940000EF92FF92CF93DF93DC01B9
:10014000E70157968C915797833049F154966C93F9
:10015000549755964C9355979B8193709330F9F42F
:100160009A8197FF1CC09E815D962C915D972917FF
:1001700018F45D969C935D97E82FF0E09F01220FA5
:10018000331FE20FF31FEA0FFB1F9A819F709783C3
:100190009C81908794E091878F5F57968C93DF9135
:1001A000CF91FF90EF900895FC01848D0895860F04
:1001B000911D860F911DFC0180899189089581E030
:1001C000633009F080E0089581E0633009F080E059
:1001D0000895FC0186810895CF93DF93EC018C8113
:1001E0009D81DC01ED91FC910480F581E02D6E8113
:1001F00009951C8A1D8A81E08F8B1E82188E198EAC
:100200001A8E1B8E1C8E80E0DF91CF910895EF92A5
:10021000FF92CF93DF93DC01E70152968C915297C6
:10022000823049F11F966C931F9750964C935097CC
:100230009B8193709330F9F49A8197FF1CC09E8143
:1002400058962C915897291718F458969C935897BC
:10025000E82FF0E09F01220F331FE20FF31FEA0F98
:10026000FB1F9A819F7097839C81908794E0918770
:100270008F5F52968C93DF91CF91FF90EF9008950E
:10028000EF92FF920F9302970E9407010F91FF9048
:10029000EF900895FC0187890895860F911D860FC0
:1002A000911DFC0185859685089581E0613009F0F6
:1002B00080E0089581E0633009F080E00895FC015A
:1002C00086810895CF93DF93EC018C819D81DC01C1
:1002D000ED91FC910480F581E02D6E8109951F86DA
:1002E000188A81E08A8B1E821B8A1C8A1D8A1E8ABC
:1002F0001F8A80E0DF91CF910895EF92FF92CF9314
:10030000DF93DC01E70152968C915297823049F1DC
:100310001F966C931F9750964C9350979B819370A8
:100320009330F9F49A8197FF1CC09E8158962C91C6
:100330005897291718F458969C935897E82FF0E08F
:100340009F01220F331FE20FF31FEA0FFB1F9A8159
:100350009F7097839C81908794E091878F5F5296DE
:100360008C93DF91CF91FF90EF900895EF92FF92E1
:100370000F9302970E947D010F91FF90EF900895D7
:10038000FC0187890895860F911D860F911DFC0140
:1003900085859685089581E0623009F080E00895B2
:1003A00081E0633009F080E00895FC0186810895C2
:1003B000CF93DF93EC018C819D81DC01ED91FC9169
:1003C0000480F581E02D6E8109951F86188A81E0F1
:1003D0008A8B1E821B8A1C8A1D8A1E8A1F8A80E0C5
:1003E000DF91CF910895860F911D860F911DFC011D
:1003F0005687458781E00895860F911D860F911DD0
:10040000FC015687458781E00895860F911D860F70
:10041000911DFC01518B408B81E0089561110FC04B
:10042000463469F4211103C080E090E002C082E10B
:1004300090E0909354028093530281E0089580E00D
:10044000089580E0089580E090E00895089581E0A7
:10045000089580E0089580E00895089580E008956B
:1004600080E0089580E0089580E0089580E0089598
:10047000FC0197819B7F97830895FC01978194608D
:1004800097830895FC0197819D7F97830895FC01D0
:100490009781926097830895FC0197819E7F97834F
:1004A0000895FC019781916097830895FC019581DF
:1004B000DB0111968C911197890F85839681129695
:1004C0008C91890F868308958AE890E008958EE7DD
:1004D00090E0089582E790E0089588E690E008951E
:1004E0002091CC0230E0A9014F5F5F4F4F7055273C
:1004F0008F3F51F06091CD02641731F0F901E4545F
:10050000FD4F80834093CC0208950F931F93CF93A8
:10051000DF938C01D62FC42FDC011C968D919C910A
:100520001D97009719F4C93381F40BC0DC01ED91DC
:10053000FC910190F081E02D21E00995882399F349
:100540001FC0F801828581FF1BC0EC2FF0E0E55F42
:10055000FE4F808187FF0E9470028D2F817181F094
:10056000D47471F0CC3411F0C33651F488E70E9492
:10057000700288E70E94700281E0D8011B968C937C
:10058000DF91CF911F910F9108956F927F928F927B
:100590009F92AF92BF92CF92DF92EF92FF920F9312
:1005A0001F93CF93DF93CDB7DEB762970FB6F89462
:1005B000DEBF0FBECDBFDC015C962C91222309F477
:1005C0005FC07C010E94CC11F701808C918CA28CC1
:1005D000B38CDC01CB0188199909AA09BB09B7FDC5
:1005E0004FC06701FBE0CF0ED11C4701370181E10D
:1005F000680E711CD6018C9190E09A8B898B8E01CC
:100600000F5F1F4F9E012F5E3F4FF60131974081D4
:10061000F7016681848195810E940B15B82E8111A6
:1006200015C029893A892330310580F0D4015096CC
:100630008D919C915197009749F0DC01ED91FC91CF
:100640000190F081E02D40E0B7010995B3E0CB0EB9
:10065000D11CE2E08E0E911CC614D70459F60E94FC
:10066000CC11D7015D962C91DC01CB01820F911D3D
:10067000A11DB11DF701808F918FA28FB38F01C093
:10068000B12C8B2D62960FB6F894DEBF0FBECDBF96
:10069000DF91CF911F910F91FF90EF90DF90CF905E
:1006A000BF90AF909F908F907F906F900895DF9252
:1006B000EF92FF920F931F93CF93DF93CDB7DEB7E7
:1006C00062970FB6F894DEBF0FBECDBFDC01579620
:1006D0002C91222381F07C010E94CC11F701038927
:1006E000148925893689DC01CB01801B910BA20B73
:1006F000B30BB7FF02C0D12C39C0838590E09A8B31
:10070000898B8E010F5F1F4F9E012F5E3F4F4285E9
:100710006681848195810E940B15D82E811118C0A5
:1007200029893A892330310598F0D7011D968D919A
:100730009C911E97009761F0DC01ED91FC91019076
:10074000F081E02D8E010F5F1F4F40E0B70109954A
:100750000E94CC11F701208DDC01CB01820F911D8D
:10076000A11DB11D838B948BA58BB68B8D2D6296AD
:100770000FB6F894DEBF0FBECDBFDF91CF911F91B2
:100780000F91FF90EF90DF900895DF92EF92FF922C
:100790000F931F93CF93DF93CDB7DEB762970FB65A
:1007A000F894DEBF0FBECDBFDC0157962C912223FB
:1007B00081F07C010E94CC11F701038914892589FD
:1007C0003689DC01CB01801B910BA20BB30BB7FF69
:1007D00002C0D12C39C0838590E09A8B898B8E0121
:1007E0000F5F1F4F9E012F5E3F4F428566818481C0
:1007F00095810E940B15D82E811118C029893A893C
:100800002330310598F0D7011D968D919C911E974C
:10081000009761F0DC01ED91FC910190F081E02DF9
:100820008E010F5F1F4F40E0B70109950E94CC1168
:10083000F701208DDC01CB01820F911DA11DB11D9F
:10084000838B948BA58BB68B8D2D62960FB6F89407
:10085000DEBF0FBECDBFDF91CF911F910F91FF90F3
:10086000EF90DF900895CF93DF931F92CDB7DEB75F
:10087000FC019285473499F0433551F04933B9F47E
:1008800091FB882780F98095292F80FB21F90EC0E4
:10089000892F81708095292F80FB20F907C092FB5A
:1008A000882780F98095292F80FB22F922872285CD
:1008B000921759F06115710541F0CB012983BE01F2
:1008C0006F5F7F4F0E94E21601C080E00F90DF91C2
:1008D000CF9108954F925F926F927F928F929F92E5
:1008E000AF92BF92CF92DF92EF92FF920F931F933E
:1008F000CF93DF93CDB7DEB7EC970FB6F894DEBF9A
:100900000FBECDBFDC0114968D909C901597169666
:100910003C91311129C1C22E442E562E8C01FC016E
:10092000158ED401ED91FC910190F081E02D60E0F5
:10093000C40109957C01009711F486ED1AC1FC01F0
:10094000608071806114710409F410C15801F7E0EE
:10095000AF0EB11CDC011196BC92AE921496CC92F3
:100960009E01265D3F4F48E050E060E0F801848141
:1009700095810E943E178CAF8111E9C0DAA4D7019E
:100980006D927C92D401ED91FC910280F381E02D77
:10099000242D40E0652DC4010995F8018683882344
:1009A00009F4E6C099A99087682F848195810E94F7
:1009B0000E178CAFD401ED91FC91D70114961C92C7
:1009C000882359F00480F581E02DD80116966C91AA
:1009D000C4010995F8011682C5C00190F081E02D8F
:1009E000D80116966C91C4010995009709F4A5CF1A
:1009F0004D2D433108F042E1FC01C482442379F0DB
:100A000050E09E01265D3F4FD80116966C911697D7
:100A100014968D919C9115970E943E178CAF8CADCA
:100A2000811198C0EBAC8BE991E09A838983C8016E
:100A300002969C838B831E86188A1F8619A21AA28F
:100A40001BA2CE0141969F838E83998788872D8133
:100A50002B872A879D878C8781E089A7F12CFE143C
:100A600079F09E012F5F3F4F4F2DF8016681848101
:100A700095810E946217D80157968C91833039F482
:100A8000F8018789833029F081ED8CAF63C0F3943E
:100A9000E6CF950143E06681848195810E94CF175E
:100AA0008CAF68EE73E080E090E00E94A611F80140
:100AB00044896681848195810E94611D8CAF81117A
:100AC00049C068EE73E080E090E00E94A611E12C3E
:100AD000F12C47E4C42E42E0D42ED8015E964C910E
:100AE0006E2DC8010E94EC178CAF811133C06E2DA2
:100AF000C8010E94381D8CAFDA82C982AE014F5FF7
:100B00005F4FB701C8010E94F61C8CAFEA94EF2832
:100B100021F0EE24E394F12CE0CF80E28CAF8CAD99
:100B2000882389F090E0959587958CAFBE01645C31
:100B30007F4FC8010E94E21669E170E080E090E01A
:100B40000E94A611ECCF91E0F801948F12C0F7013A
:100B500071826082D801ED91FC910480F581E02DD5
:100B6000C80109958CAD05C089ED03C087ED01C0B2
:100B700084EDEC960FB6F894DEBF0FBECDBFDF91CB
:100B8000CF911F910F91FF90EF90DF90CF90BF908A
:100B9000AF909F908F907F906F905F904F9008954F
:100BA0004F925F926F927F928F929F92AF92BF927D
:100BB000CF92DF92EF92FF920F931F93CF93DF9329
:100BC000CDB7DEB7EC970FB6F894DEBF0FBECDBF42
:100BD000DC0114968D909C90159716963C913111DE
:100BE0002EC1C22E442E562E8C01FC01108ED40133
:100BF000ED91FC910190F081E02D60E0C401099538
:100C00007C01009711F486ED1FC1FC0160807180AA
:100C10006114710409F415C15801F7E0AF0EB11C5D
:100C2000DC011196BC92AE921496CC929E01265D88
:100C30003F4F48E050E060E0F801848195810E94D8
:100C40003E178CAF8111EEC0DAA4D7016D927C9271
:100C5000D401ED91FC910280F381E02D242D40E040
:100C6000652DC4010995F8018683882309F4EBC03A
:100C700099A99087682F848195810E940E178CAF67
:100C8000D401ED91FC91D70114961C92882359F060
:100C90000480F581E02DD80116966C91C401099568
:100CA000F8011682CAC00190F081E02DD801169695
:100CB0006C91C4010995009709F4A5CF4D2D4331DE
:100CC00008F042E1FC01C482442379F050E09E0127
:100CD000265D3F4FD80116966C91169714968D910C
:100CE0009C9115970E943E178CAF8CAD81119DC0D1
:100CF000EBACF12C35E9832E31E0932E3801B2E0D4
:100D00006B0E711C6E01E1E1CE0ED11CFE1441F19F
:100D10009A8289827C826B821E86188A1F8619A21B
:100D20001AA21BA219A6DF82CE82D986C8868D811F
:100D30008B878A87DD86CC869E012F5F3F4F4F2DA4
:100D4000D80116966C91169714968D919C911597D3
:100D50000E946217F8018289823011F0F394D6CF95
:100D6000D80152968C91823019F081ED8CAF5DC024
:100D7000950142E0F8016681848195810E94CF1738
:100D80008CAF68EE73E080E090E00E94A611D8017D
:100D90001F964C911F9716966C91169714968D91ED
:100DA0009C9115970E94611D8CAF81113EC068EE29
:100DB00073E080E090E00E94A611F801418D60E0B0
:100DC000C8010E94EC178CAF81112FC060E0C801F0
:100DD0000E94381D8CAF87E492E09A838983AE012C
:100DE0004F5F5F4F60E070E0C8010E94F61C80E238
:100DF0008CAF8CAD882389F090E0959587958CAF6A
:100E0000BE01645C7F4FC8010E94E21669E170E098
:100E100080E090E00E94A611ECCF91E0D8015796B7
:100E20009C9312C0F70171826082D801ED91FC9110
:100E30000480F581E02DC80109958CAD05C089EDD0
:100E400003C087ED01C084EDEC960FB6F894DEBFC9
:100E50000FBECDBFDF91CF911F910F91FF90EF900B
:100E6000DF90CF90BF90AF909F908F907F906F90CA
:100E70005F904F9008953F924F925F926F927F9252
:100E80008F929F92AF92BF92CF92DF92EF92FF929A
:100E90000F931F93CF93DF93CDB7DEB7EB970FB6CA
:100EA000F894DEBF0FBECDBFDC011496AD90BC90B0
:100EB00015971696EC90E11010C1522E342E462E46
:100EC0008C01FC01108ED501ED91FC910190F08117
:100ED000E02D60E0C50109956C01009719F456ED0D
:100EE000E52E08C1FC01808091808114910409F4F1
:100EF000F7C03801F7E06F0E711CDC0111967C928F
:100F00006E9214965C929E01265D3F4F48E050E041
:100F100060E0F801848195810E943E17F82E8111CE
:100F2000E5C0FAA4D6018D929C92D501ED91FC9179
:100F30000280F381E02D232D40E0642DC501099549
:100F4000F8018683882309F4CEC099A99087682F79
:100F5000848195810E940E17982ED501ED91FC9108
:100F6000D60114961C92882361F00480F581E02D4F
:100F7000D80116966C91C5010995F8011682E92CE5
:100F8000B9C00190F081E02DD80116966C91C50191
:100F90000995009709F4A3CF4F2D433108F042E1A2
:100FA000FC01548241110FC05BACF12C4FE8A42E20
:100FB00041E0B42E4801F2E08F0E911C6E0181E1F8
:100FC000C80ED11C36C050E09E01265D3F4FD801AF
:100FD00016966C91169714968D919C9115970E9478
:100FE0003E17F82E81116FC0DFCFBA82A9829C8292
:100FF0008B821E86188A1F8619A21AA21BA219A606
:10100000DF82CE82D986C8868D818B878A87DD86EE
:10101000CC869E012F5F3F4F4F2DF8016681848162
:1010200095810E946217D80152968C91823019F0F6
:10103000F394F510DACFF8018289823009F041C0CB
:10104000930142E06681848195810E94CF1768EE0A
:1010500073E080E090E00E94A611D8011F964C91A9
:101060001F9716966C91169714968D919C911597D3
:101070000E94611DF82E811126C068EE73E080E0A9
:1010800090E00E94A611F801418D60E0C8010E9425
:10109000EC17F82E811117C060E0C8010E94381DBE
:1010A00087E492E09A838983AE014F5F5F4F60E0EF
:1010B00070E0C8010E94F61C81E0D80157968C931D
:1010C00019C031EDF32ED801ED91FC910480F5812A
:1010D000E02DC8010995EF2C0DC029EDE22E0AC0C4
:1010E00097EDE92E07C084EDE82E04C0F601918249
:1010F0008082E9CF8E2DEB960FB6F894DEBF0FBE3F
:10110000CDBFDF91CF911F910F91FF90EF90DF90B6
:10111000CF90BF90AF909F908F907F906F905F9097
:101120004F903F900895CF93C82F60E00E941E110A
:1011300061E08C2FCF910C946A112A9808952A9A15
:101140000895CF93DF93FC01DA018281882319F09F
:101150008130D9F01FC03483238381E0828315C09E
:101160002D913C911197232BA9F0019794838383B0
:10117000EB01888199810196998388838D919C9157
:101180001197019711969C938E9383819481009778
:1011900039F7128281E023813481232B09F080E02A
:1011A000DF91CF9108951F920F920FB60F921124E5
:1011B0008F93EF93FF93E1E8F0E08081826080837A
:1011C000FF91EF918F910F900FBE0F901F90189588
:1011D000CF93C82F60E00E946A1161E08C2FCF91FD
:1011E0000C941E111F920F920FB60F9211242F9381
:1011F0003F934F935F936F937F938F939F93AF939F
:10120000BF93CF93DF93EF93FF93C0915202C1112D
:1012100083C086B180958F7331F024E0829FC00136
:101220001124986002C080E090E0409153025091F8
:10123000540220915002309151024115510531F470
:10124000009729F42115310511F412C0CA01821743
:10125000930711F021E001C024E320935202909300
:101260005102809350020E947E1288E293E245C0B0
:101270004091BA025091BB0241958091B802909181
:10128000B90281959091B702911109C0411107C02F
:1012900051E0811101C050E0252F392F02C021E01B
:1012A00030E05091B70297E0592790E0A0E0B0E01D
:1012B000A52B50E0542F442760E070E0842B952B41
:1012C000A62BB72B80934C0290934D02A0934E0215
:1012D000B0934F021092BB021092BA021092B90260
:1012E0001092B8021092B702232B81F088E380930A
:1012F00052020E947E128CE494E0909389008093C5
:1013000088001092850010928400DBC080918100DB
:101310008D7F80938100D5C0C83308F073C0C13081
:1013200059F486E00E94E80884E991E190938900ED
:101330008093880082E0B7C0C23338F5DEEFDC0F5F
:10134000D0FD03C00E947E121AC086E00E94E80809
:101350008D2F86958C3008F08C502BE0281B8091C7
:1013600050029091510202C0969587952A95E2F716
:10137000CB3118F080FD03C005C080FD03C080E9BB
:1013800091E07EC080EB94E07BC0C23351F40E94B8
:101390007E1280E991E0909389008093880083E336
:1013A00082C0C33331F486E00E94E80884E993E404
:1013B00082C0C43359F486E00E94E80884E398E0D0
:1013C000909389008093880085E36DC0C53351F404
:1013D0000E947E1280E991E09093890080938800BA
:1013E00086E361C0C63359F486E00E94E8088AEBC0
:1013F0009EE5909389008093880087E354C08AEB30
:101400009EE559C0C83359F486E00E94E80887E792
:1014100091E0909389008093880089E344C0CF35A0
:10142000B8F547EC4C0F842F869522E130E0281B5D
:10143000310980914C0290914D02A0914E02B091E1
:101440004F0204C0B695A795979587952A95D2F730
:10145000D82FD17040FD0AC00E947E12D11103C066
:101460008AE890E00DC084EF91E00AC086E00E9417
:10147000E808D11103C08FED92E002C087E791E048
:101480009093890080938800CF5FC093520219C067
:10149000CF3561F40E947E1288E590E09093890038
:1014A0008093880080E6809352020BC086E00E9401
:1014B000E80880EB96E3909389008093880010926F
:1014C0005202FF91EF91DF91CF91BF91AF919F9128
:1014D0008F917F916F915F914F913F912F910F90DD
:1014E0000FBE0F901F9018951F920F920FB60F927C
:1014F00011248F9381E080930201E9988F910F90DE
:101500000FBE0F901F901895CF93C82F60E00E94D8
:101510006A1161E08C2FCF910C941E1182E00E9421
:10152000930868E572E080E090E00E94A61182E0F6
:101530000C94840A0F931F93CF938C01C42FDC016A
:101540001C968D919C911D97009719F4C93381F4D5
:101550000BC0DC01ED91FC910190F081E02D20E0C9
:101560000995882399F31BC0F801828581FD17C076
:10157000EC2FF0E0E55FFE4F808187FD03C08068BF
:101580000E947002D8011B968C911B97882339F01A
:101590001B961C92CF911F910F910C948E0ACF91A4
:1015A0001F910F910895AF92BF92CF92DF92EF9269
:1015B000FF920F931F93CF93DF935C01C42F83E0BF
:1015C000E82E81E0F82E00E010E0CC24C394D12C6A
:1015D000D62FD4279601002E01C0220F0A94EAF7D5
:1015E0008D2F822369F02C23F7018081222319F0AB
:1015F00087FD06C003C087FD03C080680E9470029B
:101600000F5F1F4FFFEFEF1AFF0A0830110511F7A8
:10161000F5018385882319F013860E948E0AC93844
:1016200011F0C83949F488E70E94700288E70E94E7
:10163000700281E0F5018387DF91CF911F910F91B7
:10164000FF90EF90DF90CF90BF90AF900895CF9331
:10165000DF93C3E2D0E0CE010197F1F782E00E9470
:101660009308CE010197F1F782E00E94840A219746
:10167000F1F7DF91CF910895882321F083E00E9454
:10168000930803C083E00E94840A0C94270BCF9335
:10169000C82F83E00E94840AC6FB882780F90E9435
:1016A0003C0BC5FB882780F90E943C0BC4FB8827B4
:1016B00080F90E943C0BC3FB882780F90E943C0BF9
:1016C000C2FB882780F90E943C0BC1FB882780F968
:1016D0000E943C0B8C2F81700E943C0B8C2F881F2A
:1016E0008827881F0E943C0B83E00E94840A8FE0B9
:1016F00090E00197F1F70E94CC116093CE027093B5
:10170000CF028093D0029093D10210920201E99A05
:10171000CF910895CF93DF93FC01862F807809F055
:1017200051C0283008F04FC0442321F095819730F4
:1017300009F449C0EF012D96A0E0B0E01196988120
:10174000911103C0662331F021C02596AF30B10559
:10175000A9F739C085E08A9FE0018B9FD00D112445
:10176000CE0FDF1F442331F081E4888785818F5FAE
:10177000858302C081E0888725E02A9FC0012B9FD6
:10178000900D1124E80FF91F80851DC06770660F4A
:10179000660F660F442341F0606485818F5F858307
:1017A0008770687F682B03C02770687B622B25E0F9
:1017B0002A9FC0012B9F900D1124E80FF91F60870D
:1017C000862F01C080E0DF91CF910895611102C0A2
:1017D00006960895FC013D9621E03081361307C03E
:1017E00035E0239F800D911D1124069608952F5FEB
:1017F0003596203191F780E090E008953F924F9226
:101800005F926F927F928F929F92AF92BF92CF9290
:10181000DF92EF92FF920F931F93CF93DF93D80144
:1018200012962C91213009F465C02B01EC016A81DC
:10183000F8014081641731F0E881F9810480F58175
:10184000E02D09954801F2E08F0E911C5E0184E0C5
:10185000A80EB11C3E01AAE06A0E711C750164015C
:10186000D6014C91F7019081D401F501312C80E033
:101870002191421303C0413009F081E02D912913D9
:1018800004C0913011F033243394E615F70581F745
:10189000811113C0E881F9810280F381E02DB2014A
:1018A000CE010995E881F9810680F781E02DD60106
:1018B0004C91D8016C91CE01099531100AC0E88194
:1018C000F9810084F185E02DD7014C916A81CE0128
:1018D0000995BFEFCB1ADB0AEFEFEE1AFE0AE6140A
:1018E000F70409F0BDCFF801229681918993C615BE
:1018F000D705D9F7DF91CF911F910F91FF90EF900E
:10190000DF90CF90BF90AF909F908F907F906F901F
:101910005F904F903F9008950F931F93CF93DF9365
:10192000EC018A818170F8019081292F2170821742
:1019300071F0E881F98190FF04C00680F781E02D05
:1019400003C00480F581E02DB801CE0109958A819C
:1019500086958170F801908191FB222720F98217EA
:1019600071F0E881F98191FF04C00284F385E02DD4
:1019700003C00084F185E02DB801CE0109958A816C
:1019800082FB882780F9F801908192FB222720F9B9
:10199000821771F0E881F98192FF04C00684F7850F
:1019A000E02D03C00484F585E02DB801CE01099532
:1019B000F8018181811103C08281882341F0E8818F
:1019C000F9810280F381E02DB801CE010995F8017B
:1019D00080818A83DF91CF911F910F91089508959F
:1019E000089508950895089508950895089508950F
:1019F00008950895FC016134C1F43F969C01265A74
:101A00003F4F61E0AC014E5F5F4FDF0112971C92C8
:101A100011966C93108213974D935C933596E21751
:101A2000F30799F7FC01158208953D9621E0308176
:101A3000361303C0622F0C94EA122F5F35962031C3
:101A4000B1F708958F929F92AF92BF92CF92DF929B
:101A5000EF92FF920F931F93CF93DF93862E942ED6
:101A600059010E94CC116B017C0128E8C20E23E1D0
:101A7000D21EE11CF11C00E010E0D0E0C0E098288C
:101A80000E94CC11DC01CB018C199D09AE09BF0964
:101A9000B7FF2DC0692D80EF0E9438130E94CC1132
:101AA000DC01CB018C199D09AE09BF09B7FF09C044
:101AB00088EC0E94B61387FFF1CF60E888EC0E94A3
:101AC000381388EF0E94B613C82FCF70C43019F0B6
:101AD000CE3051F00CC00F5F1F4FA114B10481F242
:101AE0000A151B0569F603C0DF5FD33049F68C2F5A
:101AF000DF91CF911F910F91FF90EF90DF90CF90EA
:101B0000BF90AF909F908F9008953FB7F8948091C9
:101B1000E6029091E702A091E802B091E90226B5B1
:101B2000A89B05C02F3F19F00196A11DB11D3FBF15
:101B3000BA2FA92F982F8827820F911DA11DB11DA3
:101B4000BC01CD0143E0660F771F881F991F4A959E
:101B5000D1F708950895EF92FF920F9302970E9494
:101B60009B000F91FF90EF9008952F923F924F921C
:101B70005F926F927F928F929F92AF92BF92CF921D
:101B8000DF92EF92FF920F931F93CF93DF9300D0DA
:101B900000D0CDB7DEB76C017C836B835A83498359
:101BA0004C0180E1880E911C5601A7E0AA0EB11CE1
:101BB000332433942601BBE04B0E511C3601E2E185
:101BC0006E0E711C83E0282E12E08B819C81892B84
:101BD00009F4D7C0D60190968C91823061F128F437
:101BE000882341F0813079F0F0CF833041F18430A7
:101BF000D1F1EBCFF601148385819681908787839D
:101C00001287118730A2AE014D5F5F4FBE016F5F3B
:101C10007F4FC5010E94B612882309F4B2C0D601D5
:101C20001596ED91FC911697808191968C939197E2
:101C3000818192968C93F6017682658220A2D601EC
:101C400092968C919297843011F493961C92F6019F
:101C500081A18250848325813681308727838287C2
:101C6000818784E080A3D60192968C918430B1F074
:101C7000853009F442C0823009F06BC0AE014D5F7F
:101C80005F4FBE016F5F7F4FC5010E94B612882370
:101C900009F477C0F601858984A36BC0AE014D5F5E
:101CA0005F4FBE016F5F7F4FC5010E94B612882350
:101CB00009F467C0D60155968C915597833009F089
:101CC00058C056968C915697813009F052C098961C
:101CD0009C91989757968C91992321F0882309F429
:101CE00048C003C0833009F044C0F60133A2928992
:101CF00096A3938997A385A33CC0AE014D5F5F4F28
:101D0000BE016F5F7F4FC5010E94B6128823C9F1E3
:101D1000D60193968C919397882359F112968D91C1
:101D20009C911397009729F1DC01ED91FC910190B2
:101D3000F081E02D7401D60195960C9195979796B8
:101D40002C91979796964C91969794966C910995AD
:101D500010C0F60121A130E022503109AE014D5FE3
:101D60005F4FBE016F5F7F4FC2010E94A1088823B1
:101D700041F0D60116969C928E92159790961C92E1
:101D800024CF0F900F900F900F90DF91CF911F9164
:101D90000F91FF90EF90DF90CF90BF90AF909F900A
:101DA0008F907F906F905F904F903F902F9008950D
:101DB0002F923F924F925F926F927F928F929F925B
:101DC000AF92BF92CF92DF92EF92FF920F931F9349
:101DD000CF93DF9300D000D0CDB7DEB76C017C830A
:101DE0006B835A8349834C0180E1880E911C560114
:101DF000A7E0AA0EB11C332433942601BBE04B0E9E
:101E0000511C3601E2E16E0E711C83E0282E12E0B7
:101E10008B819C81892B09F4D7C0D60190968C9137
:101E2000823061F128F4882341F0813079F0F0CFDD
:101E3000833041F18430D1F1EBCFF60114838581F9
:101E40009681908787831287118730A2AE014D5FFC
:101E50005F4FBE016F5F7F4FC5010E94B61288239E
:101E600009F4B2C0D6011596ED91FC9116978081C8
:101E700091968C939197818192968C93F6017682BC
:101E8000658220A2D60192968C919297843011F4AB
:101E900093961C92F60181A182508483258136811C
:101EA000308727838287818784E080A3D60192963A
:101EB0008C918430B1F0853009F442C0823009F051
:101EC0006BC0AE014D5F5F4FBE016F5F7F4FC501BD
:101ED0000E94B612882309F477C0F601858984A38D
:101EE0006BC0AE014D5F5F4FBE016F5F7F4FC5019D
:101EF0000E94B612882309F467C0D60155968C91CA
:101F00005597833009F058C056968C91569781307A
:101F100009F052C098969C91989757968C91992366
:101F200021F0882309F448C003C0813009F044C07F
:101F3000F60133A2928996A3938997A385A33CC007
:101F4000AE014D5F5F4FBE016F5F7F4FC5010E94C5
:101F5000B6128823C9F1D60193968C919397882362
:101F600059F112968D919C911397009729F1DC01FC
:101F7000ED91FC910190F081E02D7401D6019596D0
:101F80000C91959797962C91979796964C9196973A
:101F900094966C91099510C0F60121A130E0225071
:101FA0003109AE014D5F5F4FBE016F5F7F4FC201D0
:101FB0000E94A108882341F0D60116969C928E9229
:101FC000159790961C9224CF0F900F900F900F9022
:101FD000DF91CF911F910F91FF90EF90DF90CF9005
:101FE000BF90AF909F908F907F906F905F904F9039
:101FF0003F902F9008952F923F924F925F926F9251
:102000007F928F929F92AF92BF92CF92DF92EF9288
:10201000FF920F931F93CF93DF9300D000D0CDB7E3
:10202000DEB76C017C836B835A8349834C0180E16A
:10203000880E911C5601A7E0AA0EB11C33243394DC
:102040002601BBE04B0E511C3601E2E16E0E711C05
:1020500083E0282E12E08B819C81892B09F4D7C064
:10206000D60190968C91823061F128F4882341F05A
:10207000813079F0F0CF833041F18430D1F1EBCF72
:10208000F601148385819681908787831287118753
:1020900030A2AE014D5F5F4FBE016F5F7F4FC50144
:1020A0000E94B612882309F4B2C0D6011596ED91AC
:1020B000FC911697808191968C939197818192964D
:1020C0008C93F6017682658220A2D60192968C913D
:1020D0009297843011F493961C92F60181A182505C
:1020E000848325813681308727838287818784E0B6
:1020F00080A3D60192968C918430B1F0853009F49A
:1021000042C0823009F06BC0AE014D5F5F4FBE012F
:102110006F5F7F4FC5010E94B612882309F477C014
:10212000F601858984A36BC0AE014D5F5F4FBE0190
:102130006F5F7F4FC5010E94B612882309F467C004
:10214000D60155968C915597833009F058C0569614
:102150008C915697813009F052C098969C9198972F
:1021600057968C91992321F0882309F448C003C025
:10217000823009F044C0F60133A2928996A3938974
:1021800097A385A33CC0AE014D5F5F4FBE016F5F5B
:102190007F4FC5010E94B6128823C9F1D6019396DC
:1021A0008C919397882359F112968D919C91139756
:1021B000009729F1DC01ED91FC910190F081E02D77
:1021C0007401D60195960C91959797962C919797B7
:1021D00096964C91969794966C91099510C0F6013D
:1021E00021A130E022503109AE014D5F5F4FBE01A9
:1021F0006F5F7F4FC2010E94A108882341F0D60182
:1022000016969C928E92159790961C9224CF0F90C2
:102210000F900F900F90DF91CF911F910F91FF9032
:10222000EF90DF90CF90BF90AF909F908F907F9076
:102230006F905F904F903F902F90089590E0FC0139
:10224000E553FF4F3491FC01E954FF4F2491FC0109
:10225000ED55FF4FE491EE2309F43BC0332339F1F0
:10226000333091F038F43130A9F0323001F584B5D3
:102270008F7D12C0363091F03730A1F03430B9F490
:10228000809180008F7D03C0809180008F77809344
:1022900080000DC084B58F7784BD09C08091B000E7
:1022A0008F7703C08091B0008F7D8093B000F0E005
:1022B000EE0FFF1FE756FF4FA591B4918FB7F8942B
:1022C000EC91611103C020952E2301C02E2B2C937D
:1022D0008FBF0895CF93DF9390E0FC01E954FF4F47
:1022E0002491FC01ED55FF4F8491882361F190E02A
:1022F000880F991FFC01E157FF4FC591D491FC0154
:10230000E756FF4FA591B491611109C09FB7F894AA
:102310008881209582238883EC912E230BC0623024
:1023200061F49FB7F8943881822F80958323888346
:10233000EC912E2B2C939FBF06C08FB7F894E881A9
:102340002E2B28838FBFDF91CF910895CF92DF92FC
:10235000EF92FF92CF93DF936B017C010E94850D7A
:10236000EB01C114D104E104F10479F00E94850D60
:102370006C1B7D0B683E7340A0F381E0C81AD10846
:10238000E108F108C851DC4FECCFDF91CF91FF900D
:10239000EF90DF90CF9008952FB7F8946091E2020C
:1023A0007091E3028091E4029091E5022FBF0895BD
:1023B0001F920F920FB60F9211242F933F938F937A
:1023C0009F93AF93BF938091E2029091E302A0911B
:1023D000E402B091E5023091E10226E0230F2D37AF
:1023E00020F40296A11DB11D05C029E8230F039614
:1023F000A11DB11D2093E1028093E2029093E302BC
:10240000A093E402B093E5028091E6029091E70286
:10241000A091E802B091E9020196A11DB11D80933F
:10242000E6029093E702A093E802B093E902BF911D
:10243000AF919F918F913F912F910F900FBE0F9071
:102440001F901895CF93DF9300D0CDB7DEB76A8386
:1024500089830E949D08898182608EBD6A810DB446
:1024600007FEFDCF6EBD0DB407FEFDCF0F900F90A0
:10247000DF91CF910C949F08CF93DF931F92CDB73C
:10248000DEB789830E949D0889818EBD0DB407FE49
:10249000FDCF1EBC0DB407FEFDCF0E949F088EB578
:1024A0000F90DF91CF9108950F931F93CF93DF93F8
:1024B00000D0CDB7DEB78A016A8389830E949D0868
:1024C000898182608EBDF8016A81862F882339F068
:1024D0000DB407FEFDCF91919EBD8150F7CF060F41
:1024E000111D0DB407FEFDCF0E949F08C8010F907B
:1024F0000F90DF91CF911F910F91089560E086E0DA
:102500000E941E1161E086E00C946A1188EF0E941F
:102510003C12807C8034A1F018F4882301F10895E6
:10252000803819F0803CB9F0089588ED0E943C1283
:1025300081FD0BC069EC88ED0E94221282E00CC084
:1025400088ED0E943C1281FDF5CF6BEC88ED0E9476
:10255000221283E001C081E080936103089561ED60
:1025600088ED0E942212109261030895CF93DF93A9
:10257000FC01EA0180819181892B19F580E027C057
:1025800028813981232BD1F3DB012D913C91D90195
:102590009C91A381B0E0A81BB10920813181A20FD9
:1025A000B31F9C9382818150828388819981019796
:1025B00099838883DB018D919C91119701968D936E
:1025C0009C9382818111DCCF8381828381E0DF91C2
:1025D000CF910895DF92EF92FF920F931F93CF93C5
:1025E000DF93EC01E62EF12C85E0689FB001112409
:1025F000FE01E60FF71F8085182F177086FF21C098
:1026000001E085E0D82E8FEF800F8F3008F001E0D9
:10261000FE01D09EE00DF11D1124808586958695E2
:1026200086958770811305C0602FCE010E94EA1243
:10263000EACF0F5F003161F78D81811302C0115025
:102640001D8385E08E9DF0018F9DF00D1124EC0F10
:10265000FD1F108681E0818712862296D783C6836C
:10266000DF91CF911F910F91FF90EF90DF90089530
:10267000CF93DF9300D0CDB7DEB76A8389830E9402
:102680009D08898182608EBD6A810DB407FEFDCFF1
:102690006EBD0DB407FEFDCF0F900F90DF91CF916F
:1026A0000C949F08CF92DF92FF920F931F93CF93CA
:1026B000DF93F62ED1E0082F10E0000F111F005C11
:1026C0001C4F6801D8018D919C91DC01ED91FC912A
:1026D0000280F381E02D2F2D40E060E00995803EDF
:1026E00059F461E088EE0E94381366E670E080E0FD
:1026F00090E00E94A61109C08D3029F49FEF9D0F34
:10270000933060F516C0811129C0F6018081918156
:10271000DC01ED91FC910190F081E02D2F2D40E046
:1027200060E00995C82F8D3061F48FEF8D0F8330F5
:1027300050F464E670E080E090E00E94A611DF5F54
:10274000C1CF882351F061E088EE0E94381366E61D
:1027500070E080E090E00E94A6118C2FDF91CF9175
:102760001F910F91FF90DF90CF900895CF93DF934B
:102770001F92CDB7DEB789830E949D0889818EBDE7
:102780000DB407FEFDCF1EBC0DB407FEFDCF0E94A9
:102790009F088EB50F90DF91CF9108952F923F92B1
:1027A0004F925F926F927F928F929F92AF92BF9261
:1027B000CF92DF92EF92FF920F931F93CF93DF930D
:1027C00000D000D01F92CDB7DEB75C017D836C8353
:1027D0004A017901F901C080D180FB014180F901F2
:1027E00011821082FB01828181FD02C060E101C083
:1027F00060E288EE0E9438133C2C9401EC81FD814C
:10280000408160E0C5010E94220D582EF6E08F1332
:1028100016C088EF0E94B6138295817091E08927D7
:10282000EC81FD81928180FB91F9928391FD02C040
:1028300060E101C060E288EE0E943813DECF8111B2
:102840005BC088EC0E94B61382FF54C080E30E94F4
:10285000B613282E282F30E0C216D30608F4232CF6
:10286000F70120813181622C712CA601421B530B90
:1028700057FF02C040E050E09301461557050CF4A5
:102880009A0129833A832B830E949D08F8E0FEBDBC
:102890008B813A8129810DB407FEFDCFF801882391
:1028A00041F01EBC81500DB407FEFDCF4EB54193E3
:1028B000F6CF020F131F0E949F0864E088EC0E946D
:1028C0003813F70120813181620E731E718260829C
:1028D000241420F06C147D0408F48FCF88EF0E943C
:1028E000B61382958170EC81FD81928180FB91F914
:1028F000928302C080EF582E852D0F900F900F907D
:102900000F900F90DF91CF911F910F91FF90EF905B
:10291000DF90CF90BF90AF909F908F907F906F90FF
:102920005F904F903F902F9008958F929F92BF920B
:10293000CF92DF92EF92FF920F931F93CF93DF938B
:102940001F92CDB7DEB74C01B62E690149830E94B4
:10295000E60B7C014981009709F44BC0DC01ED9145
:10296000FC911197309709F446C013969C9180E032
:10297000891731F02081241729F033968F5FF8CF23
:10298000E0E0F0E0D601ED93FC933097B1F12281C5
:102990002695269530E02031310514F02FE030E007
:1029A00081E090E0A0E0B0E004C0880F991FAA1F6A
:1029B000BB1F2A95D2F70197F801918380836B2D75
:1029C00080EE0E94381388ED0E94B613682FD7015D
:1029D00014968C91882339F0F401EA58FF4F8081D6
:1029E0008260682B01C0697F88ED0E94381380E007
:1029F00005C086ED03C087ED01C08BED0F90DF9120
:102A0000CF911F910F91FF90EF90DF90CF90BF90EB
:102A10009F908F900895AF92BF92CF92DF92EF92E6
:102A2000FF920F931F93CF93DF9300D000D0CDB7C9
:102A3000DEB77C01690158011C821B821A8219824F
:102A40008E010F5F1F4F9E012D5F3F4F0E94951417
:102A5000811109C049815A816B817C818501960170
:102A6000C7010E94CE130F900F900F900F90DF912F
:102A7000CF911F910F91FF90EF90DF90CF90BF907B
:102A8000AF9008952F923F924F925F926F927F92F4
:102A90008F929F92AF92BF92CF92DF92EF92FF926E
:102AA0000F931F93CF93DF93CDB7DEB767970FB622
:102AB000F894DEBF0FBECDBF3C01542E422E302E07
:102AC0002E2CECA4FDA4188A1F861E861D868E015E
:102AD000035F1F4F9E01215F3F4F40E00E9495140E
:102AE000811157C159824A823B822C82DE82CD827B
:102AF000B886AF82AE014F5F5F4F68E080E20E9410
:102B000054122D853E8540E060E1C3010E94220DF4
:102B1000182F8111FAC0452C441C4424441CE11494
:102B2000F10409F4E3C0CF84D888442009F455C0E7
:102B3000D60112968C911297826012968C93650141
:102B400055245394C114D10409F443C09C868B8648
:102B50004D855E856F85788987019E01255F3F4F92
:102B6000C3010E94CE13182F863079F42F84388841
:102B700088EF0E94B61385FB882780F98525F1012F
:102B8000928180FB91F99283DDCF8111BEC02EA589
:102B90003FA521153105A1F0D901ED91FC911197C7
:102BA0000190F081E02DC5018C199D099A878987D4
:102BB0006B857C859E01275F3F4FA701CD0109955D
:102BC0008B859C85C81AD90A8815990508F0BACF53
:102BD0008DC0112309F48FC098C0F60182818160F5
:102BE00082832D853E853A8B298B21808FEF820D44
:102BF000803408F088C00E94CC119B01AC0128579A
:102C00003C4E4F4F5F4F2B8B3C8B4D8B5E8BD601D9
:102C100012968C9180FD02C060E401C060E888EEED
:102C20000E943813312C8114910409F44DC05401D1
:102C30002814390408F45101AF8AA7016A2D80E1F4
:102C40000E9454126A2D88E30E943813F6016081B5
:102C5000606280EF0E94381388EC0E94B61387FFF1
:102C6000FBCF60E888EC0E94381388EF0E94B6130F
:102C7000182F1F70412C512C00E0112371F00E947D
:102C8000CC11DC01CB012B893C894D895E89821BEB
:102C9000930BA40BB50BB7FD05C08A189B08EA0C73
:102CA000FB1CC1CF163099F11E3009F46AC01430F4
:102CB00059F4FFEF4F1A5F0A29893A892115310526
:102CC000F1F142165306D9F588EF0E94B61385FB41
:102CD000882780F9D60112969C91129780FB90F973
:102CE00012969C93112309F450C00FC02D853E8588
:102CF000411003C04CC02D853E8560EA40E0C30111
:102D00000E94220D46C08AED44C0812F42C088EF48
:102D10000E94B61385FB882780F931E08327D6010E
:102D200012969C91129780FB90F912969C9390FDBD
:102D300002C060E401C060E888EE0E94381360E0E1
:102D400088E30E943813F701608180E10E94381304
:102D50006F8988E30E943813D6016C91606280EF1E
:102D60000E94381388EC0E94B61387FFFBCF60E8FF
:102D700088EC0E94381388EF0E94B613182F1F703A
:102D80007CCF0F5F0330D9F69FCF2D853E8560E85D
:102D9000B5CF67960FB6F894DEBF0FBECDBFDF91FB
:102DA000CF911F910F91FF90EF90DF90CF90BF9048
:102DB000AF909F908F907F906F905F904F903F90DB
:102DC0002F9008958F929F92AF92BF92CF92DF92F1
:102DD000EF920F931F921F927F936F938824839497
:102DE000912CAA24A394B12CC12CD12C42E0E42E26
:102DF00000E029E041E2FC016681848195810E9426
:102E000042150F900F900F900F900F91EF90DF9061
:102E1000CF90BF90AF909F908F9008958F929F9288
:102E2000AF92BF92CF92DF92EF920F93CF931F9208
:102E30001F921F921F92812C912CA12CB12CC12C7E
:102E4000D12CE12C062F25E040E060E00E944215E5
:102E5000C82F6CE271E080E090E00E94A6110F9014
:102E60000F900F900F908C2FCF910F91EF90DF90DC
:102E7000CF90BF90AF909F908F9008958F929F9228
:102E8000AF92BF92CF92DF92EF920F931F921F9259
:102E90003F932F934A015A01C12CD12CEE24E39485
:102EA00000E026E040E80E9442150F900F900F903E
:102EB0000F900F91EF90DF90CF90BF90AF909F90C9
:102EC0008F9008953F924F925F926F927F928F9270
:102ED0009F92AF92BF92CF92DF92EF92FF920F93A9
:102EE0001F93CF93DF93CDB7DEB7C154D1090FB68F
:102EF000F894DEBF0FBECDBF3C01162FF42E322E4C
:102F00001F921F92CE0101962C019F938F9399E0FF
:102F1000892E912C29E0A22EB12CC12CD12C42E07B
:102F2000E42E0F2D26E040E8C30122963FAF229702
:102F30000E9442150F900F900F900F9022963FAD78
:102F40002297811113C0AB80BC803F933F925F9268
:102F50004F9280E4882E912C26E040E8612FC30137
:102F60000E9442150F900F900F900F90CF5BDF4F94
:102F70000FB6F894DEBF0FBECDBFDF91CF911F918A
:102F80000F91FF90EF90DF90CF90BF90AF909F9008
:102F90008F907F906F905F904F903F9008950F9328
:102FA0001F93CF93DF932115310571F0E901042FB1
:102FB000162F0E94E60BFC01892B41F01283D1836E
:102FC000C083038380E003C088ED01C086EDDF91FC
:102FD000CF911F910F9108958F929F92AF92BF92C0
:102FE000CF92DF92EF920F93C62ED12C1F921F9299
:102FF0001F921F92812C912CA12CB12CE12C042F1B
:103000002BE041E2FC016681848195810E9442159A
:103010000F900F900F900F900F91EF90DF90CF9047
:10302000BF90AF909F908F900895CF93DF93CDB7CF
:10303000DEB765970FB6F894DEBF0FBECDBF7894AC
:1030400084B5826084BD84B5816084BD85B58260AD
:1030500085BD85B5816085BD80916E00816080935E
:103060006E001092810080918100826080938100C7
:1030700080918100816080938100809180008160D7
:10308000809380008091B10084608093B100809132
:10309000B00081608093B00080917A00846080935A
:1030A0007A0080917A00826080937A0080917A0021
:1030B000816080937A0080917A00806880937A00A2
:1030C0001092C10080E091E09093B5028093B40229
:1030D000109254021092530286E00E94E8088EE09B
:1030E0000E94E8088FE00E94E80880E10E94E8085A
:1030F00081E10E94E80882E10E94E80883E10E94E1
:10310000E80880916C008F6380936C008091680068
:10311000826080936800109280001092810010926B
:1031200085001092840080E290E090938900809363
:1031300088008091810088608093810080916F0079
:10314000826080936F0082E00E94840A83E00E9484
:10315000840A809169008C6080936900E998E19A03
:10316000229A0E949F08259A239A2498229A80E501
:103170008CBD81E08DBD219868E188E80E94221213
:1031800060E288E70E94221260E088E70E94221233
:1031900001E010E00115110509F4C6C288E60E949D
:1031A0003C120F5F1F4F80FFF5CF61EC88ED0E944E
:1031B000221260E680ED0E94221264E088EE0E94F6
:1031C000221288EE0E943C1282FFFBCF0E948612E0
:1031D00060E288EC0E94221261E080E80E942212E4
:1031E00068EC70E080E090E00E94A61128EA32E0EE
:1031F00030939A022093990282ED92E090939C0280
:1032000080939B0230937D0220937C029093630213
:10321000809362022E0163E1460E511C21E1A22E31
:103220002224239419990DC088EC0E94B61385FFBF
:1032300004C00E94861260E201C060E088EC0E9437
:10324000381380916103813039F050F0823081F081
:10325000833041F511E00DC073E17093B60222C0D6
:103260008091B602807F8031E9F0A092B6021AC048
:1032700010E08091B602807F8031A9F40E94CC11C9
:10328000DC01CB0188539F4FAF4FBF4F8093DB02D0
:103290009093DC02A093DD02B093DE0280E2809383
:1032A000B60201C010E090E4E92E93E0F92E670128
:1032B000D6018D919D916D01009739F0DC01ED9162
:1032C000FC910680F781E02D0995B0E6CB16B3E0BE
:1032D000DB0671F78091B602803409F443C050F4E4
:1032E000803231F18033B1F1813109F067C1109240
:1032F00060030AC0813509F45EC0803809F470C0EB
:10330000803509F05BC13FC0F701819191917F0148
:10331000009739F0DC01ED91FC910480F581E02DFE
:103320000995B0E6EB16B3E0FB0671F782E117C032
:103330000E94CC110091DB021091DC022091DD0291
:103340003091DE02DC01CB01801B910BA20BB30B91
:10335000B7FD34C161E088EE0E94381380E48093A9
:10336000B6022CC188EE0E94B61380FD27C188EDFD
:103370000E94B613682F686088ED0E943813E0E55C
:10338000E093B6021BC188EC0E94B61386FF16C1FB
:1033900081E58093B6020E94CC11DC01CB014496FA
:1033A000A11DB11D8093DB029093DC02A093DD028E
:1033B000B093DE0203C10E94CC112091DB02309158
:1033C000DC024091DD025091DE02DC01CB01821B68
:1033D000930BA40BB50BB7FDF1C080E88093B60248
:1033E0001B8AF8E0FC8B8CE38D8B60EF72E0672B1F
:1033F00011F486EDDAC0C090F002D090F102509244
:10340000F1024092F0021093F4029E012F5F3F4FB1
:1034100042E150E060E08AEE92E00E943E17D092D6
:10342000F102C092F0028111BCC089849A846B843D
:103430007C84BD803E8080E4C82E83E0D82E00E0EE
:10344000D6018D919C91009789F1DC01ED91FC9161
:103450000084F185E02D0995811128C0F601808155
:103460009181DC01ED91FC910088F189E02D632DC3
:1034700009958823D9F0F60180819181DC01ED91D5
:10348000FC910484F585E02DA301B4010995811117
:1034900081C0F60180819181DC01ED91FC9106846F
:1034A000F785E02D6B2D0995811174C00F5FB2E097
:1034B000CB0ED11C003121F600E0F7018081918113
:1034C000009799F1DC01ED91FC910084F185E02DEC
:1034D000099581112AC0F70180819181DC01ED916C
:1034E000FC910088F189E02D632D0995882309F46A
:1034F00011C1F70180819181DC01ED91FC9104847F
:10350000F585E02DA301B401099581110EC0F701E5
:1035100080819181DC01ED91FC910684F785E02D9D
:103520006B2D0995882309F4F5C00F5FB2E0EB0E0F
:10353000F11C003111F68091F0029091F102892B7B
:1035400029F11093F40220E040E060E08AEE92E07E
:103550000E948A0B082F8823D9F0682F8AEE92E008
:103560000E94E60B009709F444CFFC011483602FFE
:103570008AEE92E00E940E17182F8823E1F0602F48
:103580008AEE92E00E94FA0C812F0BC087ED0DC0ED
:1035900084ED0BC0612F802F0E945213813D09F4EE
:1035A00085CF882341F0823D49F08093DA02F0EA2A
:1035B000F093B60203C060E96093B6028091D8022E
:1035C0009091D7022091D902F8944091BA0250917B
:1035D000BB029F3F19F4415051090CC0913019F4BE
:1035E0004F5F5F4F07C097FD9F5F9595490F511D36
:1035F00097FD5A955093BB024093BA028F3F31F426
:103600008091B8029091B902019715C0813031F4D0
:103610008091B8029091B90201960DC04091B80214
:103620005091B90287FD8F5F8595DA01A80FB11D12
:1036300087FDBA95CD019093B9028093B80280912D
:10364000B702822B8093B7027894809181008260C8
:10365000809381001092D7021092D80280910201CB
:10366000811124C00E94CC110091CE021091CF0292
:103670002091D0023091D102DC01CB01801B910B53
:10368000A20BB30B80399105A105B10578F00E941A
:10369000270B0E94CC116093CE027093CF028093CF
:1036A000D0029093D1022092E0022DC080910201BD
:1036B000882349F18091E002813039F489EF0E943A
:1036C000470B82E08093E0021EC0823039F4809183
:1036D000DF020E94470B1092E00215C02091CD023C
:1036E0008091CC02281779F030E0F901E454FD4FC5
:1036F00080818093DF022F5F3F4F2F70332720930D
:10370000CD020E94470BE0E0F0E0309709F48ACD4B
:10371000099584CD612F802F0E945213982F977F97
:10372000913D09F03ECF01CF61E08DE00E946A112A
:1037300061E08DE00E941E1164EF71E080E090E096
:103740000E94A61160E08DE00E941E1164EF71E0FE
:1037500080E090E00E94A611EBCF8DE392E0909381
:10376000EB028093EA021092EF021092F20281E0E3
:103770008093F3021092F4028CEE92E09093F102A7
:103780008093F0021092EC0288E08093ED028CE3CB
:103790008093EE0280E090E041E02CEE32E0FC010C
:1037A000E651FD4F15864687178634872387059691
:1037B0008B349105A1F71092600381E18093B602EA
:1037C0008AEE92E090938E0280938D0289E192E0DE
:1037D00090938A028093890287E392E090938C020F
:1037E00080938B021092A1021092A2021092A30267
:1037F0001092A4021092A5021092A70210929002B9
:1038000088E0809391028CE380939202109293025D
:103810001092940284E08093950210929602109286
:1038200097028093980281E08093A00210929F02F9
:1038300010929D0210929A021092990210929C028C
:1038400010929B02E0E4F3E080E090E0219131915E
:10385000232B51F4880F991FFC01E05CFC4F89E891
:1038600092E09183808304C001968031910571F7C5
:103870008AEE92E0909374028093730285EF91E058
:103880009093700280936F0283E192E090937202B2
:10389000809371021092820210928302109284022D
:1038A000109285021092860210928802109276027F
:1038B00088E0809377028CE38093780210927902FB
:1038C00010927A0284E080937B0281E080938102EF
:1038D0001092800210927E0210927D0210927C0261
:1038E000E0E4F3E080E090E021913191232B51F46A
:1038F000880F991FFC01E05CFC4F8FE692E09183FA
:10390000808304C001968031910571F78AEE92E0C0
:1039100090935A028093590281ED91E09093560260
:10392000809355028FEE91E0909358028093570256
:10393000109268021092690210926A0210926B0251
:1039400010926C0210926E0210925C0288E08093DA
:103950005D028CE380935E0210925F02109260021F
:1039600084E08093610281E0809367021092660296
:10397000109264021092630210926202E0E4F3E09B
:1039800080E090E021913191232B51F4880F991F11
:10399000FC01E05CFC4F85E592E09183808304C0EC
:1039A00001968031910571F71092B2028BEB91E094
:1039B0009093A9028093A8021092B3021092B502CC
:1039C0001092B402E2EDF2E085E0DF011D928A95EB
:1039D000E9F787EA91E09093D3028093D2021092A4
:1039E000D7021092D8021092D90208958F929F9216
:1039F000AF92BF92CF92DF92EF920F93CF93DF936C
:103A0000CDB7DEB7C054D1090FB6F894DEBF0FBEF4
:103A1000CDBF5F934F939E012F5F3F4F3F932F93F7
:103A200020E4822E912C30E8A32EB12C6B0142E2CF
:103A3000E42E00E026E041E8FC0166818481958166
:103A40000E9442150F900F900F900F90C05CDF4FB7
:103A50000FB6F894DEBF0FBECDBFDF91CF910F91AF
:103A6000EF90DF90CF90BF90AF909F908F90089590
:103A70008F929F92AF92BF92CF92DF92EF920F936D
:103A8000C62ED12C1F921F921F921F92812C912C17
:103A9000A12CB12CE12C00E02AE041E2FC0166817E
:103AA000848195810E9442150F900F900F900F9086
:103AB0000F91EF90DF90CF90BF90AF909F908F903D
:103AC00008958F929F92AF92BF92CF92DF92EF9222
:103AD0000F931F921F921F921F92812C912CA12C49
:103AE000B12CC12CD12CE12C042F29E040E00E9404
:103AF00042150F900F900F900F900F91EF90DF9065
:103B0000CF90BF90AF909F908F900895F8940C94B1
:103B10008F1DEE0FFF1F0590F491E02D0994F8948E
:023B2000FFCFD5
:103B2200A101016360646663616567FFFFFFFF20B7
:103B32003533221223242517262728373618191041
:103B4200132114163411321531010203040506073C
:103B520008090A44454142400B0C1A1BFF0D292A51
:103B62000038393A62505152535455565758592BCE
:103B720030FFFFFF4FFF5A46FF5B4E4F4D4CFF5C3D
:103B82005D4A5E431D1E1F2D2E2F3D3E3F0F3C30D2
:103B9200FFFFFFFFFFFFFFFFFFFFFFFFFFFFFFFF33
:103BA200FFFFFFFFFFFFFFFFFFFFFF00000000FB23
:103BB2000F00000000D80E00000000B50D0000004C
:103BC200000E02000000008C0C56024C0251024210
:103BD20002470238023D0200000000FE0B3304D30C
:103BE2000A85029A0A6D026A0267026402000000F4
:103BF200003B073402D801C503D5012D022B02D0A8
:103C020001CB01C301F301C0017D01FEFF0000B63B
:103C12000100000000D0053402620157035F012D4C
:103C2200022B025A0155014D01FC014A010701FE16
:103C3200FF00004001000000006A043402EC00C5ED
:103C420002E9002D022B02E400DF00D7000502D4B6
:103C5200009B00FEFF0000AB0D00000000E60B8A97
:0A3C62000BFA0C00000000AA0D0090
:00000001FF
