:100000000C9471000C9499000C945D0A0C94990066
:100010000C94B4080C9499000C9499000C949900D9
:100020000C9499000C9499000C9499000C94D308AA
:100030000C9499000C9499000C9499000C949900DC
:100040000C94B6110C9499000C9499000C9499009E
:100050000C9499000C9499000C9499000C949900BC
:100060000C9499000C94990021402324255E262AA3
:1000700028295F2B7B7D7C7E3A227E3C3E3F2D3DB6
:100080005B5D5C203B27602C2E2F2F2A2D2B13002D
:10009000000000240027002A00000000002500289E
:1000A000002B0004040404040404040202020202FB
:1000B000020303030303030102040810204080012C
:1000C00002040810200102040810200000000700AC
:1000D0000201000003040600000000000000000010
:1000E0008E1B11241FBECFEFD8E0DEBFCDBF12E0C4
:1000F000A0E0B1E0ECEDFAE302C005900D92A2346D
:10010000B107D9F723E0A2E4B2E001C01D92A835FF
:10011000B207E1F710E0C1E7D0E004C02197FE018B
:100120000E94661DC037D107C9F70E94F3170C94CF
:10013000631D0C940000EF92FF92CF93DF93DC01DC
:10014000E70157968C915797833049F154966C93F9
:10015000549755964C9355979B8193709330F9F42F
:100160009A8197FF1CC09E815D962C915D972917FF
:1001700018F45D969C935D97E82FF0E09F01220FA5
:10018000331FE20FF31FEA0FFB1F9A819F709783C3
:100190009C81908794E091878F5F57968C93DF9135
:1001A000CF91FF90EF900895FC01848D0895860F04
:1001B000911D860F911DFC0180899189089581E030
:1001C000633009F080E0089581E0633009F080E059
:1001D0000895FC0186810895CF93DF93EC018C8113
:1001E0009D81DC01ED91FC910480F581E02D6E8113
:1001F00009951C8A1D8A81E08F8B1E82188E198EAC
:100200001A8E1B8E1C8E80E0DF91CF910895EF92A5
:10021000FF92CF93DF93DC01E70152968C915297C6
:10022000823049F11F966C931F9750964C935097CC
:100230009B8193709330F9F49A8197FF1CC09E8143
:1002400058962C915897291718F458969C935897BC
:10025000E82FF0E09F01220F331FE20FF31FEA0F98
:10026000FB1F9A819F7097839C81908794E0918770
:100270008F5F52968C93DF91CF91FF90EF9008950E
:10028000EF92FF920F9302970E9407010F91FF9048
:10029000EF900895FC0187890895860F911D860FC0
:1002A000911DFC0185859685089581E0613009F0F6
:1002B00080E0089581E0633009F080E00895FC015A
:1002C00086810895CF93DF93EC018C819D81DC01C1
:1002D000ED91FC910480F581E02D6E8109951F86DA
:1002E000188A81E08A8B1E821B8A1C8A1D8A1E8ABC
:1002F0001F8A80E0DF91CF910895EF92FF92CF9314
:10030000DF93DC01E70152968C915297823049F1DC
:100310001F966C931F9750964C9350979B819370A8
:100320009330F9F49A8197FF1CC09E8158962C91C6
:100330005897291718F458969C935897E82FF0E08F
:100340009F01220F331FE20FF31FEA0FFB1F9A8159
:100350009F7097839C81908794E091878F5F5296DE
:100360008C93DF91CF91FF90EF900895EF92FF92E1
:100370000F9302970E947D010F91FF90EF900895D7
:10038000FC0187890895860F911D860F911DFC0140
:1003900085859685089581E0623009F080E00895B2
:1003A00081E0633009F080E00895FC0186810895C2
:1003B000CF93DF93EC018C819D81DC01ED91FC9169
:1003C0000480F581E02D6E8109951F86188A81E0F1
:1003D0008A8B1E821B8A1C8A1D8A1E8A1F8A80E0C5
:1003E000DF91CF910895860F911D860F911DFC011D
:1003F0005687458781E00895860F911D860F911DD0
:10040000FC015687458781E00895860F911D860F70
:10041000911DFC01518B408B81E0089580E008958F
:1004200080E090E00895089581E0089580E00895C7
:1004300080E00895089580E0089580E0089580E0C8
:10044000089580E0089580E00895FC0197819B7FE6
:1004500097830895FC019781946097830895FC0128
:1004600097819D7F97830895FC0197819260978380
:100470000895FC0197819E7F97830895FC019781E1
:10048000916097830895FC019581DB0111968C9111
:100490001197890F8583968112968C91890F868397
:1004A00008958AE890E008958EE790E0089582E745
:1004B00090E0089588E690E008952091C20230E02F
:1004C000A9014F5F5F4F4F7055278F3F51F06091EB
:1004D000C302641731F0F901EE54FD4F808340935D
:1004E000C20208950F931F93CF93DF93493321F4F2
:1004F000FC01228521FF25C0C42FD62F8C01E42FBB
:10050000F0E0E75FFE4F808187FF0E945D028D2F44
:10051000817179F0D47469F0CC3411F0C33649F4A8
:1005200088E70E945D0288E70E945D0281E0F80191
:100530008387C63431F482E190E090934C0280933B
:100540004B02DF91CF911F910F9108956F927F928F
:100550008F929F92AF92BF92CF92DF92EF92FF92D3
:100560000F931F93CF93DF93CDB7DEB762970FB68C
:10057000F894DEBF0FBECDBFDC015C962C91222328
:1005800009F45FC07C010E94AA11F701808C918C54
:10059000A28CB38CDC01CB0188199909AA09BB098B
:1005A000B7FD4FC06701FBE0CF0ED11C47013701FB
:1005B00081E1680E711CD6018C9190E09A8B898B39
:1005C0008E010F5F1F4F9E012F5E3F4FF601319747
:1005D0004081F7016681848195810E94E914B82EDB
:1005E000811115C029893A892330310580F0D40161
:1005F00050968D919C915197009749F0DC01ED91B7
:10060000FC910190F081E02D40E0B7010995B3E045
:10061000CB0ED11CE2E08E0E911CC614D70459F605
:100620000E94AA11D7015D962C91DC01CB01820FAB
:10063000911DA11DB11DF701808F918FA28FB38FE6
:1006400001C0B12C8B2D62960FB6F894DEBF0FBEA1
:10065000CDBFDF91CF911F910F91FF90EF90DF9071
:10066000CF90BF90AF909F908F907F906F900895A4
:10067000DF92EF92FF920F931F93CF93DF93CDB74B
:10068000DEB762970FB6F894DEBF0FBECDBFDC01B8
:1006900057962C91222381F07C010E94AA11F70128
:1006A0000389148925893689DC01CB01801B910BD4
:1006B000A20BB30BB7FF02C0D12C39C0838590E0E9
:1006C0009A8B898B8E010F5F1F4F9E012F5E3F4FCC
:1006D00042856681848195810E94E914D82E81111A
:1006E00018C029893A892330310598F0D7011D9621
:1006F0008D919C911E97009761F0DC01ED91FC912A
:100700000190F081E02D8E010F5F1F4F40E0B70197
:1007100009950E94AA11F701208DDC01CB01820FFF
:10072000911DA11DB11D838B948BA58BB68B8D2D37
:1007300062960FB6F894DEBF0FBECDBFDF91CF91AA
:100740001F910F91FF90EF90DF900895DF92EF924D
:10075000FF920F931F93CF93DF93CDB7DEB76297CE
:100760000FB6F894DEBF0FBECDBFDC0157962C91BB
:10077000222381F07C010E94AA11F70103891489C8
:1007800025893689DC01CB01801B910BA20BB30BB1
:10079000B7FF02C0D12C39C0838590E09A8B898B3A
:1007A0008E010F5F1F4F9E012F5E3F4F4285668176
:1007B000848195810E94E914D82E811118C029895D
:1007C0003A892330310598F0D7011D968D919C917F
:1007D0001E97009761F0DC01ED91FC910190F08192
:1007E000E02D8E010F5F1F4F40E0B70109950E9479
:1007F000AA11F701208DDC01CB01820F911DA11DF3
:10080000B11D838B948BA58BB68B8D2D62960FB605
:10081000F894DEBF0FBECDBFDF91CF911F910F9136
:10082000FF90EF90DF900895CF93DF931F92CDB7A5
:10083000DEB7FC019285473499F0433551F04933D6
:10084000B9F491FB882780F98095292F80FB21F945
:100850000EC0892F81708095292F80FB20F907C059
:1008600092FB882780F98095292F80FB22F9228727
:100870002285921759F06115710541F0CB0129834A
:10088000BE016F5F7F4F0E94C01601C080E00F90D5
:10089000DF91CF9108954F925F926F927F928F92E6
:1008A0009F92AF92BF92CF92DF92EF92FF920F93FF
:1008B0001F93CF93DF93CDB7DEB7EC970FB6F894C5
:1008C000DEBF0FBECDBFDC0114968D909C901597B6
:1008D00016963C91311129C1C22E442E562E8C0100
:1008E000FC01158ED401ED91FC910190F081E02D79
:1008F00060E0C40109957C01009711F486ED1AC1EE
:10090000FC01608071806114710409F410C1580108
:10091000F7E0AF0EB11CDC011196BC92AE921496BA
:10092000CC929E01265D3F4F48E050E060E0F80128
:10093000848195810E941C178CAF8111E9C0DAA4D3
:10094000D7016D927C92D401ED91FC910280F381EC
:10095000E02D242D40E0652DC4010995F801868322
:10096000882309F4E6C099A99087682F848195812E
:100970000E94EC168CAFD401ED91FC91D701149636
:100980001C92882359F00480F581E02DD801169639
:100990006C91C4010995F8011682C5C00190F081DF
:1009A000E02DD80116966C91C4010995009709F4C1
:1009B000A5CF4D2D433108F042E1FC01C482442310
:1009C00079F050E09E01265D3F4FD80116966C915C
:1009D000169714968D919C9115970E941C178CAFB9
:1009E0008CAD811198C0EBAC89E991E09A83898341
:1009F000C80102969C838B831E86188A1F8619A2C3
:100A00001AA21BA2CE0141969F838E839987888765
:100A10002D812B872A879D878C8781E089A7F12CE0
:100A2000FE1479F09E012F5F3F4F4F2DF801668134
:100A3000848195810E944017D80157968C9183300C
:100A400039F4F8018789833029F081ED8CAF63C0D8
:100A5000F394E6CF950143E06681848195810E94FD
:100A6000AD178CAF68EE73E080E090E00E948411D7
:100A7000F80144896681848195810E943E1D8CAF76
:100A8000811149C068EE73E080E090E00E9484111B
:100A9000E12CF12C4FE3C42E42E0D42ED8015E9617
:100AA0004C916E2DC8010E94CA178CAF811133C0C2
:100AB0006E2DC8010E94151D8CAFDA82C982AE016D
:100AC0004F5F5F4FB701C8010E94D31C8CAFEA94FF
:100AD000EF2821F0EE24E394F12CE0CF80E28CAFFC
:100AE0008CAD882389F090E0959587958CAFBE01F9
:100AF000645C7F4FC8010E94C01669E170E080E02D
:100B000090E00E948411ECCF91E0F801948F12C024
:100B1000F70171826082D801ED91FC910480F5812A
:100B2000E02DC80109958CAD05C089ED03C087EDA6
:100B300001C084EDEC960FB6F894DEBF0FBECDBFBA
:100B4000DF91CF911F910F91FF90EF90DF90CF90A9
:100B5000BF90AF909F908F907F906F905F904F90DD
:100B600008954F925F926F927F928F929F92AF9271
:100B7000BF92CF92DF92EF92FF920F931F93CF938A
:100B8000DF93CDB7DEB7EC970FB6F894DEBF0FBE9C
:100B9000CDBFDC0114968D909C90159716963C91D4
:100BA00031112EC1C22E442E562E8C01FC01108E06
:100BB000D401ED91FC910190F081E02D60E0C40141
:100BC00009957C01009711F486ED1FC1FC0160803E
:100BD00071806114710409F415C15801F7E0AF0E7A
:100BE000B11CDC011196BC92AE921496CC929E017F
:100BF000265D3F4F48E050E060E0F8018481958138
:100C00000E941C178CAF8111EEC0DAA4D7016D923F
:100C10007C92D401ED91FC910280F381E02D242D92
:100C200040E0652DC4010995F8018683882309F405
:100C3000EBC099A99087682F848195810E94EC165A
:100C40008CAFD401ED91FC91D70114961C928823AE
:100C500059F00480F581E02DD80116966C91C401FD
:100C60000995F8011682CAC00190F081E02DD801E3
:100C700016966C91C4010995009709F4A5CF4D2DE6
:100C8000433108F042E1FC01C482442379F050E092
:100C90009E01265D3F4FD80116966C9116971496CB
:100CA0008D919C9115970E941C178CAF8CAD811172
:100CB0009DC0EBACF12C33E9832E31E0932E38014B
:100CC000B2E06B0E711C6E01E1E1CE0ED11CFE1480
:100CD00041F19A8289827C826B821E86188A1F86E5
:100CE00019A21AA21BA219A6DF82CE82D986C886B3
:100CF0008D818B878A87DD86CC869E012F5F3F4F53
:100D00004F2DD80116966C91169714968D919C9143
:100D100015970E944017F8018289823011F0F394F0
:100D2000D6CFD80152968C91823019F081ED8CAFDC
:100D30005DC0950142E0F8016681848195810E9441
:100D4000AD178CAF68EE73E080E090E00E948411F4
:100D5000D8011F964C911F9716966C911697149672
:100D60008D919C9115970E943E1D8CAF81113EC0C4
:100D700068EE73E080E090E00E948411F801418DFC
:100D800060E0C8010E94CA178CAF81112FC060E0DB
:100D9000C8010E94151D8CAF8FE392E09A8389836E
:100DA000AE014F5F5F4F60E070E0C8010E94D31C4E
:100DB00080E28CAF8CAD882389F090E09595879583
:100DC0008CAFBE01645C7F4FC8010E94C01669E110
:100DD00070E080E090E00E948411ECCF91E0D801B7
:100DE00057969C9312C0F70171826082D801ED91F1
:100DF000FC910480F581E02DC80109958CAD05C0FA
:100E000089ED03C087ED01C084EDEC960FB6F89430
:100E1000DEBF0FBECDBFDF91CF911F910F91FF902D
:100E2000EF90DF90CF90BF90AF909F908F907F908A
:100E30006F905F904F9008953F924F925F926F92A4
:100E40007F928F929F92AF92BF92CF92DF92EF925A
:100E5000FF920F931F93CF93DF93CDB7DEB7EB973E
:100E60000FB6F894DEBF0FBECDBFDC011496AD9077
:100E7000BC9015971696EC90E11010C1522E342EAE
:100E8000462E8C01FC01108ED501ED91FC91019054
:100E9000F081E02D60E0C50109956C01009719F41F
:100EA00056EDE52E08C1FC018080918081149104EB
:100EB00009F4F7C03801F7E06F0E711CDC011196E0
:100EC0007C926E9214965C929E01265D3F4F48E0A4
:100ED00050E060E0F801848195810E941C17F82E93
:100EE0008111E5C0FAA4D6018D929C92D501ED91B5
:100EF000FC910280F381E02D232D40E0642DC5019B
:100F00000995F8018683882309F4CEC099A99087B2
:100F1000682F848195810E94EC16982ED501ED9161
:100F2000FC91D60114961C92882361F00480F5810F
:100F3000E02DD80116966C91C5010995F80116822D
:100F4000E92CB9C00190F081E02DD80116966C9182
:100F5000C5010995009709F4A3CF4F2D433108F03F
:100F600042E1FC01548241110FC05BACF12C4DE811
:100F7000A42E41E0B42E4801F2E08F0E911C6E01C8
:100F800081E1C80ED11C36C050E09E01265D3F4F66
:100F9000D80116966C91169714968D919C91159781
:100FA0000E941C17F82E81116FC0DFCFBA82A98270
:100FB0009C828B821E86188A1F8619A21AA21BA2E7
:100FC00019A6DF82CE82D986C8868D818B878A87D3
:100FD000DD86CC869E012F5F3F4F4F2DF801668145
:100FE000848195810E944017D80152968C9182305D
:100FF00019F0F394F510DACFF8018289823009F004
:1010000041C0930142E06681848195810E94AD17C1
:1010100068EE73E080E090E00E948411D8011F9692
:101020004C911F9716966C91169714968D919C91E2
:1010300015970E943E1DF82E811126C068EE73E0C0
:1010400080E090E00E948411F801418D60E0C801C9
:101050000E94CA17F82E811117C060E0C8010E94D3
:10106000151D8FE392E09A838983AE014F5F5F4F36
:1010700060E070E0C8010E94D31C81E0D80157965F
:101080008C9319C031EDF32ED801ED91FC910480C1
:10109000F581E02DC8010995EF2C0DC029EDE22E58
:1010A0000AC097EDE92E07C084EDE82E04C0F601D2
:1010B00091828082E9CF8E2DEB960FB6F894DEBF39
:1010C0000FBECDBFDF91CF911F910F91FF90EF9099
:1010D000DF90CF90BF90AF909F908F907F906F9058
:1010E0005F904F903F900895CF93C82F60E00E948B
:1010F000FC1061E08C2FCF910C9448112A98089530
:101100002A9A0895CF93DF93FC01DA018281882324
:1011100019F08130D9F01FC03483238381E08283AA
:1011200015C02D913C911197232BA9F00197948321
:101130008383EB01888199810196998388838D91BE
:101140009C911197019711969C938E938381948122
:10115000009739F7128281E023813481232B09F033
:1011600080E0DF91CF9108951F920F920FB60F92FA
:1011700011248F93EF93FF93E1E8F0E08081826088
:101180008083FF91EF918F910F900FBE0F901F9072
:101190001895CF93C82F60E00E94481161E08C2F12
:1011A000CF910C94FC101F920F920FB60F92112446
:1011B0002F933F934F935F936F937F938F939F935F
:1011C000AF93BF93CF93DF93EF93FF93C0914A0206
:1011D000C11183C086B180958F7331F024E0829F66
:1011E000C0011124986002C080E090E040914B0261
:1011F00050914C022091480230914902411551050D
:1012000031F4009729F42115310511F412C0CA01F7
:101210008217930711F021E001C024E320934A02D2
:1012200090934902809348020E945C1288E293E204
:1012300045C04091B0025091B10241958091AE02FB
:101240009091AF0281959091AD02911109C0411129
:1012500007C051E0811101C050E0252F392F02C095
:1012600021E030E05091AD0297E0592790E0A0E0F6
:10127000B0E0A52B50E0542F442760E070E0842BB1
:10128000952BA62BB72B8093440290934502A093F5
:101290004602B09347021092B1021092B00210922F
:1012A000AF021092AE021092AD02232B81F088E3C0
:1012B00080934A020E945C128CE494E0909389002F
:1012C000809388001092850010928400E3C0809182
:1012D00081008D7F80938100DDC0C83308F078C025
:1012E000C13061F486E090E00E94C90884E991E190
:1012F000909389008093880082E0BDC0C23340F59E
:10130000DEEFDC0FD0FD03C00E945C121BC086E044
:1013100090E00E94C9088D2F86958C3008F08C5083
:101320002BE0281B809148029091490202C09695BB
:1013300087952A95E2F7CB3118F080FD03C005C0F0
:1013400080FD03C080E991E083C080EB94E080C021
:10135000C23351F40E945C1280E991E090938900BD
:101360008093880083E387C0C33339F486E090E03C
:101370000E94C90884E993E487C0C43361F486E01D
:1013800090E00E94C90884E398E0909389008093DC
:10139000880085E370C0C53351F40E945C1280E977
:1013A00091E0909389008093880086E364C0C633FF
:1013B00061F486E090E00E94C9088AEB9EE5909374
:1013C00089008093880087E356C08AEB9EE55CC065
:1013D000C83361F486E090E00E94C90887E791E095
:1013E000909389008093880089E345C0CF35C0F58C
:1013F00047EC4C0F842F869522E130E0281B310901
:101400008091440290914502A0914602B09147021A
:1014100004C0B695A795979587952A95D2F7D82FAA
:10142000D17040FD0AC00E945C12D11103C08AE84D
:1014300090E00EC084EF91E00BC086E090E00E9447
:10144000C908D11103C08FED92E002C087E791E097
:101450009093890080938800CF5FC0934A021AC09E
:10146000CF3561F40E945C1288E590E0909389008A
:101470008093880080E680934A020CC086E090E06A
:101480000E94C90880EB96E39093890080938800BE
:1014900010924A02FF91EF91DF91CF91BF91AF91EE
:1014A0009F918F917F916F915F914F913F912F917C
:1014B0000F900FBE0F901F9018951F920F920FB6AE
:1014C0000F9211248F9381E080930001E9988F910E
:1014D0000F900FBE0F901F901895CF93C82F60E00C
:1014E0000E94481161E08C2FCF910C94FC1082E097
:1014F00090E00E94740868E572E080E090E00E944D
:10150000841182E090E00C946D0A0F931F93CF93A7
:10151000493321F4FC01228521FD19C0C42F8C011F
:10152000E42FF0E0E75FFE4F808187FD03C0806815
:101530000E945D02F8018385882319F013860E94BA
:10154000770AC63421F410924C0210924B02CF91CC
:101550001F910F910895AF92BF92CF92DF92EF92B9
:10156000FF920F931F93CF93DF935C01C42F81E011
:10157000E82E81E0F82E00E010E0CC24C394D12CBA
:10158000D62FD4279601002E01C0220F0A94EAF725
:101590008D2F822369F02C23F7018081222319F0FB
:1015A00087FD06C003C087FD03C080680E945D02FE
:1015B0000F5F1F4FFFEFEF1AFF0A0830110511F7F9
:1015C000F5018385882319F013860E94770AC938AC
:1015D00011F0C83949F488E70E945D0288E70E944B
:1015E0005D0281E0F5018387DF91CF911F910F911B
:1015F000FF90EF90DF90CF90BF90AF900895CF9382
:10160000DF93C3E2D0E0CE010197F1F782E090E0F2
:101610000E947408CE010197F1F782E090E00E94E9
:101620006D0A2197F1F7DF91CF910895882329F072
:1016300083E090E00E94740804C083E090E00E9480
:101640006D0A0C94FF0ACF93C82F83E090E00E94AC
:101650006D0AC6FB882780F90E94160BC5FB8827F8
:1016600080F90E94160BC4FB882780F90E94160B94
:10167000C3FB882780F90E94160BC2FB882780F9DC
:101680000E94160BC1FB882780F90E94160B8C2F35
:1016900081700E94160B8C2F881F8827881F0E943C
:1016A000160B83E090E00E946D0A8FE090E00197B6
:1016B000F1F70E94AA116093C4027093C50280934F
:1016C000C6029093C70210920001E99ACF91089543
:1016D000CF93DF93FC01862F807809F051C028302A
:1016E00008F04FC0442321F09581973009F449C098
:1016F000EF012D96A0E0B0E011969881911103C002
:10170000662331F021C02596AF30B105A9F739C065
:1017100085E08A9FE0018B9FD00D1124CE0FDF1F43
:10172000442331F081E4888785818F5F858302C0FF
:1017300081E0888725E02A9FC0012B9F900D11240E
:10174000E80FF91F80851DC06770660F660F660F72
:10175000442341F0606485818F5F85838770687F53
:10176000682B03C02770687B622B25E02A9FC0018D
:101770002B9F900D1124E80FF91F6087862F01C061
:1017800080E0DF91CF910895611102C0069608951F
:10179000FC013D9621E03081361307C035E0239FE0
:1017A000800D911D1124069608952F5F35962031E6
:1017B00091F780E090E008953F924F925F926F9290
:1017C0007F928F929F92AF92BF92CF92DF92EF92D1
:1017D000FF920F931F93CF93DF93D80112962C9112
:1017E000213009F465C02B01EC016A81F8014081C8
:1017F000641731F0E881F9810480F581E02D0995C5
:101800004801F2E08F0E911C5E0184E0A80EB11C2D
:101810003E01AAE06A0E711C75016401D6014C916B
:10182000F7019081D401F501312C80E02191421320
:1018300003C0413009F081E02D91291304C091309B
:1018400011F033243394E615F70581F7811113C0A5
:10185000E881F9810280F381E02DB201CE01099582
:10186000E881F9810680F781E02DD6014C91D801FD
:101870006C91CE01099531100AC0E881F98100848C
:10188000F185E02DD7014C916A81CE010995BFEF1A
:10189000CB1ADB0AEFEFEE1AFE0AE614F70409F0A2
:1018A000BDCFF801229681918993C615D705D9F746
:1018B000DF91CF911F910F91FF90EF90DF90CF902C
:1018C000BF90AF909F908F907F906F905F904F9060
:1018D0003F9008950F931F93CF93DF93EC018A817C
:1018E0008170F8019081292F2170821771F0E881B1
:1018F000F98190FF04C00680F781E02D03C00480C9
:10190000F581E02DB801CE0109958A818695817017
:10191000F801908191FB222720F9821771F0E8816C
:10192000F98191FF04C00284F385E02D03C0008497
:10193000F185E02DB801CE0109958A8182FB8827C7
:1019400080F9F801908192FB222720F9821771F02B
:10195000E881F98192FF04C00684F785E02D03C079
:101960000484F585E02DB801CE010995F801818147
:10197000811103C08281882341F0E881F9810280CE
:10198000F381E02DB801CE010995F80180818A83A9
:10199000DF91CF911F910F910895089508950895B3
:1019A000089508950895089508950895089508954F
:1019B000FC016134C1F43F969C01265A3F4F61E01F
:1019C000AC014E5F5F4FDF0112971C9211966C9332
:1019D000108213974D935C933596E217F30799F7AE
:1019E000FC01158208953D9621E03081361303C035
:1019F000622F0C94C8122F5F35962031B1F70895ED
:101A00008F929F92AF92BF92CF92DF92EF92FF920E
:101A10000F931F93CF93DF93862E942E59010E942C
:101A2000AA116B017C0128E8C20E23E1D21EE11C41
:101A3000F11C00E010E0D0E0C0E098280E94AA115C
:101A4000DC01CB018C199D09AE09BF09B7FF2DC080
:101A5000692D80EF0E9416130E94AA11DC01CB01B0
:101A60008C199D09AE09BF09B7FF09C088EC0E9417
:101A7000941387FFF1CF60E888EC0E94161388EF7B
:101A80000E949413C82FCF70C43019F0CE3051F09B
:101A90000CC00F5F1F4FA114B10481F20A151B0582
:101AA00069F603C0DF5FD33049F68C2FDF91CF9109
:101AB0001F910F91FF90EF90DF90CF90BF90AF906C
:101AC0009F908F9008953FB7F8948091DC02909199
:101AD000DD02A091DE02B091DF0226B5A89B05C011
:101AE0002F3F19F00196A11DB11D3FBFBA2FA92F9D
:101AF000982F8827820F911DA11DB11DBC01CD011A
:101B000043E0660F771F881F991F4A95D1F7089504
:101B10000895EF92FF920F9302970E949B000F91FE
:101B2000FF90EF9008952F923F924F925F926F92A5
:101B30007F928F929F92AF92BF92CF92DF92EF925D
:101B4000FF920F931F93CF93DF9300D000D0CDB7B8
:101B5000DEB76C017C836B835A8349834C0180E13F
:101B6000880E911C5601A7E0AA0EB11C33243394B1
:101B70002601BBE04B0E511C3601E2E16E0E711CDA
:101B800083E0282E12E08B819C81892B09F4D7C039
:101B9000D60190968C91823061F128F4882341F02F
:101BA000813079F0F0CF833041F18430D1F1EBCF47
:101BB000F601148385819681908787831287118728
:101BC00030A2AE014D5F5F4FBE016F5F7F4FC50119
:101BD0000E949412882309F4B2C0D6011596ED91A3
:101BE000FC911697808191968C9391978181929622
:101BF0008C93F6017682658220A2D60192968C9112
:101C00009297843011F493961C92F60181A1825030
:101C1000848325813681308727838287818784E08A
:101C200080A3D60192968C918430B1F0853009F46E
:101C300042C0823009F06BC0AE014D5F5F4FBE0104
:101C40006F5F7F4FC5010E949412882309F477C00B
:101C5000F601858984A36BC0AE014D5F5F4FBE0165
:101C60006F5F7F4FC5010E949412882309F467C0FB
:101C7000D60155968C915597833009F058C05696E9
:101C80008C915697813009F052C098969C91989704
:101C900057968C91992321F0882309F448C003C0FA
:101CA000833009F044C0F60133A2928996A3938948
:101CB00097A385A33CC0AE014D5F5F4FBE016F5F30
:101CC0007F4FC5010E9494128823C9F1D6019396D3
:101CD0008C919397882359F112968D919C9113972B
:101CE000009729F1DC01ED91FC910190F081E02D4C
:101CF0007401D60195960C91959797962C9197978C
:101D000096964C91969794966C91099510C0F60111
:101D100021A130E022503109AE014D5F5F4FBE017D
:101D20006F5F7F4FC2010E948208882341F0D60175
:101D300016969C928E92159790961C9224CF0F9097
:101D40000F900F900F90DF91CF911F910F91FF9007
:101D5000EF90DF90CF90BF90AF909F908F907F904B
:101D60006F905F904F903F902F9008952F923F92E9
:101D70004F925F926F927F928F929F92AF92BF929B
:101D8000CF92DF92EF92FF920F931F93CF93DF9347
:101D900000D000D0CDB7DEB76C017C836B835A8353
:101DA00049834C0180E1880E911C5601A7E0AA0EE0
:101DB000B11C332433942601BBE04B0E511C360179
:101DC000E2E16E0E711C83E0282E12E08B819C8173
:101DD000892B09F4D7C0D60190968C91823061F19D
:101DE00028F4882341F0813079F0F0CF833041F13D
:101DF0008430D1F1EBCFF6011483858196819087F1
:101E000087831287118730A2AE014D5F5F4FBE01FD
:101E10006F5F7F4FC5010E949412882309F4B2C0FE
:101E2000D6011596ED91FC911697808191968C9331
:101E30009197818192968C93F6017682658220A299
:101E4000D60192968C919297843011F493961C92BD
:101E5000F60181A1825084832581368130872783D2
:101E60008287818784E080A3D60192968C9184300A
:101E7000B1F0853009F442C0823009F06BC0AE0188
:101E80004D5F5F4FBE016F5F7F4FC5010E9494128F
:101E9000882309F477C0F601858984A36BC0AE015D
:101EA0004D5F5F4FBE016F5F7F4FC5010E9494126F
:101EB000882309F467C0D60155968C9155978330D5
:101EC00009F058C056968C915697813009F052C04F
:101ED00098969C91989757968C91992321F08823F6
:101EE00009F448C003C0813009F044C0F60133A2B0
:101EF000928996A3938997A385A33CC0AE014D5FB9
:101F00005F4FBE016F5F7F4FC5010E94941288230F
:101F1000C9F1D60193968C919397882359F1129623
:101F20008D919C911397009729F1DC01ED91FC9123
:101F30000190F081E02D7401D60195960C91959752
:101F400097962C91979796964C91969794966C911C
:101F5000099510C0F60121A130E022503109AE01EF
:101F60004D5F5F4FBE016F5F7F4FC2010E948208CD
:101F7000882341F0D60116969C928E9215979096E2
:101F80001C9224CF0F900F900F900F90DF91CF9164
:101F90001F910F91FF90EF90DF90CF90BF90AF9087
:101FA0009F908F907F906F905F904F903F902F9079
:101FB00008952F923F924F925F926F927F928F92ED
:101FC0009F92AF92BF92CF92DF92EF92FF920F93C8
:101FD0001F93CF93DF9300D000D0CDB7DEB76C0155
:101FE0007C836B835A8349834C0180E1880E911C6A
:101FF0005601A7E0AA0EB11C332433942601BBE09E
:102000004B0E511C3601E2E16E0E711C83E0282E4E
:1020100012E08B819C81892B09F4D7C0D601909660
:102020008C91823061F128F4882341F0813079F07D
:10203000F0CF833041F18430D1F1EBCFF60114833E
:1020400085819681908787831287118730A2AE01A0
:102050004D5F5F4FBE016F5F7F4FC5010E949412BD
:10206000882309F4B2C0D6011596ED91FC9116971C
:10207000808191968C939197818192968C93F601B1
:102080007682658220A2D60192968C9192978430B6
:1020900011F493961C92F60181A1825084832581CC
:1020A0003681308727838287818784E080A3D601A9
:1020B00092968C918430B1F0853009F442C0823020
:1020C00009F06BC0AE014D5F5F4FBE016F5F7F4F88
:1020D000C5010E949412882309F477C0F60185890E
:1020E00084A36BC0AE014D5F5F4FBE016F5F7F4F3A
:1020F000C5010E949412882309F467C0D601559641
:102100008C915597833009F058C056968C9156970C
:10211000813009F052C098969C91989757968C916F
:10212000992321F0882309F448C003C0823009F0C4
:1021300044C0F60133A2928996A3938997A385A3FD
:102140003CC0AE014D5F5F4FBE016F5F7F4FC50169
:102150000E9494128823C9F1D60193968C9193978B
:10216000882359F112968D919C911397009729F12C
:10217000DC01ED91FC910190F081E02D7401D6011C
:1021800095960C91959797962C91979796964C913A
:10219000969794966C91099510C0F60121A130E0B4
:1021A00022503109AE014D5F5F4FBE016F5F7F4F1F
:1021B000C2010E948208882341F0D60116969C92A3
:1021C0008E92159790961C9224CF0F900F900F909F
:1021D0000F90DF91CF911F910F91FF90EF90DF90C3
:1021E000CF90BF90AF909F908F907F906F905F90B7
:1021F0004F903F902F90089590E0FC01E553FF4FE2
:102200003491FC01E954FF4F2491FC01ED55FF4F3F
:10221000E491EE2309F43BC0332339F1333091F0DC
:1022200038F43130A9F0323001F584B58F7D12C019
:10223000363091F03730A1F03430B9F4809180001D
:102240008F7D03C0809180008F77809380000DC0C8
:1022500084B58F7784BD09C08091B0008F7703C0AB
:102260008091B0008F7D8093B000F0E0EE0FFF1FF3
:10227000E756FF4FA591B4918FB7F894EC91611197
:1022800003C020952E2301C02E2B2C938FBF0895C1
:10229000CF93DF9390E0FC01E954FF4F2491FC01C0
:1022A000ED55FF4F8491882361F190E0880F991FCD
:1022B000FC01E157FF4FC591D491FC01E756FF4F58
:1022C000A591B491611109C09FB7F89488812095B8
:1022D00082238883EC912E230BC0623061F49FB778
:1022E000F8943881822F809583238883EC912E2B5C
:1022F0002C939FBF06C08FB7F894E8812E2B2883BC
:102300008FBFDF91CF910895CF92DF92EF92FF922E
:10231000CF93DF936B017C010E94630DEB01C1142D
:10232000D104E104F10479F00E94630D6C1B7D0B74
:10233000683E7340A0F381E0C81AD108E108F108B3
:10234000C851DC4FECCFDF91CF91FF90EF90DF9041
:10235000CF9008952FB7F8946091D8027091D90268
:102360008091DA029091DB022FBF08951F920F92A5
:102370000FB60F9211242F933F938F939F93AF9398
:10238000BF938091D8029091D902A091DA02B091C6
:10239000DB023091D70226E0230F2D3720F402967E
:1023A000A11DB11D05C029E8230F0396A11DB11D74
:1023B0002093D7028093D8029093D902A093DA0297
:1023C000B093DB028091DC029091DD02A091DE02ED
:1023D000B091DF020196A11DB11D8093DC029093A4
:1023E000DD02A093DE02B093DF02BF91AF919F9117
:1023F0008F913F912F910F900FBE0F901F901895C6
:10240000CF93DF9300D0CDB7DEB76A8389830E9474
:102410007E08898182608EBD6A810DB407FEFDCF82
:102420006EBD0DB407FEFDCF0F900F90DF91CF91E1
:102430000C948008CF93DF931F92CDB7DEB78983CA
:102440000E947E0889818EBD0DB407FEFDCF1EBCA3
:102450000DB407FEFDCF0E9480088EB50F90DF916E
:10246000CF9108950F931F93CF93DF9300D0CDB7F3
:10247000DEB78A016A8389830E947E08898182602F
:102480008EBDF8016A81862F882339F00DB407FECE
:10249000FDCF91919EBD8150F7CF060F111D0DB458
:1024A00007FEFDCF0E948008C8010F900F90DF91BA
:1024B000CF911F910F91089560E086E00E94FC107B
:1024C00061E086E00C94481188EF0E941A12807C2B
:1024D0008034A1F018F4882301F10895803819F0B0
:1024E000803CB9F0089588ED0E941A1281FD0BC05E
:1024F00069EC88ED0E94001282E00CC088ED0E9419
:102500001A1281FDF5CF6BEC88ED0E94001283E07A
:1025100001C081E080935703089561ED88ED0E942A
:102520000012109257030895CF93DF93FC01EA0144
:1025300080819181892B19F580E027C0288139811C
:10254000232BD1F3DB012D913C91D9019C91A381E7
:10255000B0E0A81BB10920813181A20FB31F9C9369
:1025600082818150828388819981019799838883B0
:10257000DB018D919C91119701968D939C938281A3
:102580008111DCCF8381828381E0DF91CF91089537
:10259000DF92EF92FF920F931F93CF93DF93EC01A3
:1025A000E62EF12C85E0689FB0011124FE01E60FB4
:1025B000F71F8085182F177086FF21C001E085E086
:1025C000D82E8FEF800F8F3008F001E0FE01D09EF3
:1025D000E00DF11D1124808586958695869587707E
:1025E000811305C0602FCE010E94C812EACF0F5F91
:1025F000003161F78D81811302C011501D8385E088
:102600008E9DF0018F9DF00D1124EC0FFD1F1086A3
:1026100081E0818712862296D783C683DF91CF918E
:102620001F910F91FF90EF90DF900895CF93DF936C
:1026300000D0CDB7DEB76A8389830E947E08898186
:1026400082608EBD6A810DB407FEFDCF6EBD0DB4F4
:1026500007FEFDCF0F900F90DF91CF910C94800873
:10266000CF92DF92FF920F931F93CF93DF93F62EBB
:10267000D1E0082F10E0000F111F0A5C1C4F680109
:10268000D8018D919C91DC01ED91FC910280F38148
:10269000E02D2F2D40E060E00995803E59F461E087
:1026A00088EE0E94161366E670E080E090E00E94DB
:1026B000841109C08D3029F49FEF9D0F933060F590
:1026C00016C0811129C0F60180819181DC01ED9154
:1026D000FC910190F081E02D2F2D40E060E0099504
:1026E000C82F8D3061F48FEF8D0F833050F464E686
:1026F00070E080E090E00E948411DF5FC1CF88230A
:1027000051F061E088EE0E94161366E670E080E00A
:1027100090E00E9484118C2FDF91CF911F910F9137
:10272000FF90DF90CF900895CF93DF931F92CDB7A6
:10273000DEB789830E947E0889818EBD0DB407FEB5
:10274000FDCF1EBC0DB407FEFDCF0E9480088EB5E4
:102750000F90DF91CF9108952F923F924F925F9209
:102760006F927F928F929F92AF92BF92CF92DF92A1
:10277000EF92FF920F931F93CF93DF9300D000D07F
:102780001F92CDB7DEB75C017D836C834A0179016E
:10279000F901C080D180FB014180F90111821082D2
:1027A000FB01828181FD02C060E101C060E288EE30
:1027B0000E9416133C2C9401EC81FD81408160E065
:1027C000C5010E94000D582EF6E08F1316C088EF49
:1027D0000E9494138295817091E08927EC81FD819C
:1027E000928180FB91F9928391FD02C060E101C06A
:1027F00060E288EE0E941613DECF81115BC088EC88
:102800000E94941382FF54C080E30E949413282EE8
:10281000282F30E0C216D30608F4232CF7012081BC
:102820003181622C712CA601421B530B57FF02C051
:1028300040E050E09301461557050CF49A012983B6
:102840003A832B830E947E08F8E0FEBD8B813A819B
:1028500029810DB407FEFDCFF801882341F01EBC8D
:1028600081500DB407FEFDCF4EB54193F6CF020F58
:10287000131F0E94800864E088EC0E941613F70181
:1028800020813181620E731E71826082241420F0D7
:102890006C147D0408F48FCF88EF0E949413829506
:1028A0008170EC81FD81928180FB91F9928302C05D
:1028B00080EF582E852D0F900F900F900F900F9056
:1028C000DF91CF911F910F91FF90EF90DF90CF900C
:1028D000BF90AF909F908F907F906F905F904F9040
:1028E0003F902F9008958F929F92BF92CF92DF9248
:1028F000EF92FF920F931F93CF93DF931F92CDB769
:10290000DEB74C01B62E690149830E94C40B7C01DD
:102910004981009709F44BC0DC01ED91FC911197BE
:10292000309709F446C013969C9180E0891731F0E6
:102930002081241729F033968F5FF8CFE0E0F0E094
:10294000D601ED93FC933097B1F12281269526951F
:1029500030E02031310514F02FE030E081E090E0EC
:10296000A0E0B0E004C0880F991FAA1FBB1F2A95E2
:10297000D2F70197F801918380836B2D80EE0E943E
:10298000161388ED0E949413682FD70114968C912A
:10299000882339F0F401EA58FF4F80818260682B68
:1029A00001C0697F88ED0E94161380E005C086EDA6
:1029B00003C087ED01C08BED0F90DF91CF911F9188
:1029C0000F91FF90EF90DF90CF90BF909F908F90EE
:1029D0000895AF92BF92CF92DF92EF92FF920F9342
:1029E0001F93CF93DF9300D000D0CDB7DEB77C012B
:1029F000690158011C821B821A8219828E010F5FA5
:102A00001F4F9E012D5F3F4F0E947314811109C01B
:102A100049815A816B817C8185019601C7010E94A1
:102A2000AC130F900F900F900F90DF91CF911F91EB
:102A30000F91FF90EF90DF90CF90BF90AF900895EF
:102A40002F923F924F925F926F927F928F929F92BE
:102A5000AF92BF92CF92DF92EF92FF920F931F93AC
:102A6000CF93DF93CDB7DEB767970FB6F894DEBF8D
:102A70000FBECDBF3C01542E422E302E2E2CECA486
:102A8000FDA4188A1F861E861D868E01035F1F4FB8
:102A90009E01215F3F4F40E00E947314811157C196
:102AA00059824A823B822C82DE82CD82B886AF82F6
:102AB000AE014F5F5F4F68E080E20E9432122D85C9
:102AC0003E8540E060E1C3010E94000D182F811196
:102AD000FAC0452C441C4424441CE114F10409F4BC
:102AE000E3C0CF84D888442009F455C0D60112969B
:102AF0008C911297826012968C93650155245394A1
:102B0000C114D10409F443C09C868B864D855E8533
:102B10006F85788987019E01255F3F4FC3010E9421
:102B2000AC13182F863079F42F84388888EF0E94F0
:102B3000941385FB882780F98525F101928180FB1C
:102B400091F99283DDCF8111BEC02EA53FA521153D
:102B50003105A1F0D901ED91FC9111970190F0811F
:102B6000E02DC5018C199D099A8789876B857C8525
:102B70009E01275F3F4FA701CD0109958B859C855D
:102B8000C81AD90A8815990508F0BACF8DC0112343
:102B900009F48FC098C0F6018281816082832D85FF
:102BA0003E853A8B298B21808FEF820D803408F08F
:102BB00088C00E94AA119B01AC0128573C4E4F4F80
:102BC0005F4F2B8B3C8B4D8B5E8BD60112968C917D
:102BD00080FD02C060E401C060E888EE0E94161328
:102BE000312C8114910409F44DC054012814390486
:102BF00008F45101AF8AA7016A2D80E10E943212C8
:102C00006A2D88E30E941613F6016081606280EFEE
:102C10000E94161388EC0E94941387FFFBCF60E894
:102C200088EC0E94161388EF0E949413182F1F70CF
:102C3000412C512C00E0112371F00E94AA11DC01FB
:102C4000CB012B893C894D895E89821B930BA40B98
:102C5000B50BB7FD05C08A189B08EA0CFB1CC1CF59
:102C6000163099F11E3009F46AC0143059F4FFEFA0
:102C70004F1A5F0A29893A8921153105F1F1421667
:102C80005306D9F588EF0E94941385FB882780F9B5
:102C9000D60112969C91129780FB90F912969C9304
:102CA000112309F450C00FC02D853E85411003C08B
:102CB0004CC02D853E8560EA40E0C3010E94000DB6
:102CC00046C08AED44C0812F42C088EF0E94941311
:102CD00085FB882780F931E08327D60112969C91E5
:102CE000129780FB90F912969C9390FD02C060E4CD
:102CF00001C060E888EE0E94161360E088E30E943D
:102D00001613F701608180E10E9416136F8988E332
:102D10000E941613D6016C91606280EF0E94161318
:102D200088EC0E94941387FFFBCF60E888EC0E9438
:102D3000161388EF0E949413182F1F707CCF0F5F1B
:102D40000330D9F69FCF2D853E8560E8B5CF6796D5
:102D50000FB6F894DEBF0FBECDBFDF91CF911F91AC
:102D60000F91FF90EF90DF90CF90BF90AF909F902A
:102D70008F907F906F905F904F903F902F9008952D
:102D80008F929F92AF92BF92CF92DF92EF920F936A
:102D90001F921F927F936F9388248394912CAA246F
:102DA000A394B12CC12CD12C42E0E42E00E029E008
:102DB00041E2FC016681848195810E9420150F907B
:102DC0000F900F900F900F91EF90DF90CF90BF90EA
:102DD000AF909F908F9008958F929F92AF92BF92E5
:102DE000CF92DF92EF920F93CF931F921F921F9279
:102DF0001F92812C912CA12CB12CC12CD12CE12C17
:102E0000062F25E040E060E00E942015C82F6CE20C
:102E100071E080E090E00E9484110F900F900F907D
:102E20000F908C2FCF910F91EF90DF90CF90BF90AC
:102E3000AF909F908F9008958F929F92AF92BF9284
:102E4000CF92DF92EF920F931F921F923F932F9397
:102E50004A015A01C12CD12CEE24E39400E026E073
:102E600040E80E9420150F900F900F900F900F9147
:102E7000EF90DF90CF90BF90AF909F908F9008958C
:102E80003F924F925F926F927F928F929F92AF92FA
:102E9000BF92CF92DF92EF92FF920F931F93CF9347
:102EA000DF93CDB7DEB7C154D1090FB6F894DEBFBA
:102EB0000FBECDBF3C01162FF42E322E1F921F9253
:102EC000CE0101962C019F938F9399E0892E912C2E
:102ED00029E0A22EB12CC12CD12C42E0E42E0F2DE2
:102EE00026E040E8C30122963FAF22970E942015BA
:102EF0000F900F900F900F9022963FAD2297811167
:102F000013C0AB80BC803F933F925F924F9280E4AE
:102F1000882E912C26E040E8612FC3010E942015E5
:102F20000F900F900F900F90CF5BDF4F0FB6F8947C
:102F3000DEBF0FBECDBFDF91CF911F910F91FF90EC
:102F4000EF90DF90CF90BF90AF909F908F907F9049
:102F50006F905F904F903F9008950F931F93CF9382
:102F6000DF932115310571F0E901042F162F0E941E
:102F7000C40BFC01892B41F01283D183C0830383EE
:102F800080E003C088ED01C086EDDF91CF911F91F5
:102F90000F9108958F929F92AF92BF92CF92DF923E
:102FA000EF920F93C62ED12C1F921F921F921F9249
:102FB000812C912CA12CB12CE12C042F2BE041E28F
:102FC000FC016681848195810E9420150F900F90ED
:102FD0000F900F900F91EF90DF90CF90BF90AF9038
:102FE0009F908F900895CF93DF93CDB7DEB765970D
:102FF0000FB6F894DEBF0FBECDBF789484B5826063
:1030000084BD84B5816084BD85B5826085BD85B58C
:10301000816085BD80916E00816080936E0010920A
:103020008100809181008260809381008091810085
:103030008160809381008091800081608093800016
:103040008091B10084608093B1008091B000816074
:103050008093B00080917A00846080937A008091A0
:103060007A00826080937A0080917A0081608093F8
:103070007A0080917A00806880937A001092C10073
:1030800010924C0210924B0286E090E00E94C90818
:103090008EE090E00E94C9088FE090E00E94C9088D
:1030A00080E190E00E94C90881E190E00E94C90897
:1030B00082E190E00E94C90883E190E00E94C90883
:1030C00080916C008F6380936C00809168008260B7
:1030D0008093680010928000109281001092850009
:1030E0001092840080E290E09093890080938800A1
:1030F0008091810088608093810080916F00826060
:1031000080936F0082E090E00E946D0A83E090E07F
:103110000E946D0A809169008C6080936900E99833
:10312000E19A229A0E948008259A239A2498229A4A
:1031300080E58CBD81E08DBD219868E188E80E9422
:10314000001260E288E70E94001260E088E70E94B7
:10315000001201E010E00115110509F4C6C288E66D
:103160000E941A120F5F1F4F80FFF5CF61EC88EDB0
:103170000E94001260E680ED0E94001264E088EE7A
:103180000E94001288EE0E941A1282FFFBCF0E945A
:10319000641260E288EC0E94001261E080E80E9404
:1031A000001268EC70E080E090E00E94841121E859
:1031B00032E030939E0220939D0288EC92E090933F
:1031C000A00280939F023093750220937402909323
:1031D0005B0280935A022E0163E1460E511C21E1ED
:1031E000A22E2224239419990DC088EC0E949413D6
:1031F00085FF04C00E94641260E201C060E088ECB8
:103200000E94161380915703813039F050F08230BC
:1032100081F0833041F511E00DC073E17093AC0291
:1032200022C08091AC02807F8031E9F0A092AC0294
:103230001AC010E08091AC02807F8031A9F40E9416
:10324000AA11DC01CB0188539F4FAF4FBF4F809332
:10325000D1029093D202A093D302B093D40280E221
:103260008093AC0201C010E096E3E92E93E0F92EC2
:103270006701D6018D919D916D01009739F0DC01B8
:10328000ED91FC910680F781E02D0995B6E5CB160E
:10329000B3E0DB0671F78091AC02803409F443C0DF
:1032A00050F4803231F18033B1F1813109F067C1DE
:1032B000109256030AC0813509F45EC0803809F4C3
:1032C00070C0803509F05BC13FC0F70181919191D9
:1032D0007F01009739F0DC01ED91FC910480F581CC
:1032E000E02D0995B6E5EB16B3E0FB0671F782E138
:1032F00017C00E94AA110091D1021091D202209110
:10330000D3023091D402DC01CB01801B910BA20BC4
:10331000B30BB7FD34C161E088EE0E94161380E460
:103320008093AC022CC188EE0E94941380FD27C1CB
:1033300088ED0E949413682F686088ED0E94161330
:10334000E0E5E093AC021BC188EC0E94941386FF79
:1033500016C181E58093AC020E94AA11DC01CB0169
:103360004496A11DB11D8093D1029093D202A093E7
:10337000D302B093D40203C10E94AA112091D102BA
:103380003091D2024091D3025091D402DC01CB01A2
:10339000821B930BA40BB50BB7FDF1C080E88093A3
:1033A000AC021B8AF8E0FC8B8CE38D8B66EE72E03E
:1033B000672B11F486EDDAC0C090E602D090E702E8
:1033C0005092E7024092E6021093EA029E012F5FBC
:1033D0003F4F42E150E060E080EE92E00E941C1717
:1033E000D092E702C092E6028111BCC089849A841F
:1033F0006B847C84BD803E8086E3C82E83E0D82E1B
:1034000000E0D6018D919C91009789F1DC01ED914E
:10341000FC910084F185E02D0995811128C0F60109
:1034200080819181DC01ED91FC910088F189E02D92
:10343000632D09958823D9F0F60180819181DC0103
:10344000ED91FC910484F585E02DA301B40109956B
:10345000811181C0F60180819181DC01ED91FC91A7
:103460000684F785E02D6B2D0995811174C00F5FDF
:10347000B2E0CB0ED11C003121F600E0F7018081D3
:103480009181009799F1DC01ED91FC910084F18527
:10349000E02D099581112AC0F70180819181DC011D
:1034A000ED91FC910088F189E02D632D0995882329
:1034B00009F411C1F70180819181DC01ED91FC914A
:1034C0000484F585E02DA301B401099581110EC096
:1034D000F70180819181DC01ED91FC910684F785F3
:1034E000E02D6B2D0995882309F4F5C00F5FB2E03C
:1034F000EB0EF11C003111F68091E6029091E7028B
:10350000892B29F11093EA0220E040E060E080EE90
:1035100092E00E94680B082F8823D9F0682F80EE74
:1035200092E00E94C40B009709F444CFFC0114837D
:10353000602F80EE92E00E94EC16182F8823E1F0B5
:10354000602F80EE92E00E94D80C812F0BC087ED97
:103550000DC084ED0BC0612F802F0E943013813D80
:1035600009F485CF882341F0823D49F08093D00251
:10357000F0EAF093AC0203C060E96093AC02809182
:10358000CE029091CD022091CF02F8944091B002EA
:103590005091B1029F3F19F4415051090CC0913034
:1035A00019F44F5F5F4F07C097FD9F5F9595490FD7
:1035B000511D97FD5A955093B1024093B0028F3F31
:1035C00031F48091AE029091AF02019715C0813025
:1035D00031F48091AE029091AF0201960DC04091FE
:1035E000AE025091AF0287FD8F5F8595DA01A80F7B
:1035F000B11D87FDBA95CD019093AF028093AE02C5
:103600008091AD02822B8093AD02789480918100ED
:103610008260809381001092CD021092CE02809140
:103620000001811124C00E94AA110091C4021091CE
:10363000C5022091C6023091C702DC01CB01801B7C
:10364000910BA20BB30B80399105A105B10578F060
:103650000E94FF0A0E94AA116093C4027093C502DF
:103660008093C6029093C7022092D6022DC080910B
:103670000001882349F18091D602813039F489EF25
:103680000E94230B82E08093D6021EC0823039F460
:103690008091D5020E94230B1092D60215C0209172
:1036A000C3028091C202281779F030E0F901EE548C
:1036B000FD4F80818093D5022F5F3F4F2F703327BE
:1036C0002093C3020E94230BE0E0F0E0309709F45E
:1036D0008ACD099584CD612F802F0E943013982FB9
:1036E000977F913D09F03ECF01CF61E08DE00E94D0
:1036F000481161E08DE00E94FC1064EF71E080E011
:1037000090E00E94841160E08DE00E94FC1064EF64
:1037100071E080E090E00E948411EBCF85E392E0BD
:103720009093E1028093E0021092E5021092E80289
:1037300081E08093E9021092EA0282EE92E0909397
:10374000E7028093E6021092E20288E08093E302AF
:103750008CE38093E40280E090E041E022EE32E0EE
:10376000FC01E052FD4F1586468717863487238774
:1037700005968B349105A1F71092560381E1809351
:10378000AC0280EE92E0909392028093910281E1EC
:1037900092E090938E0280938D028FE292E090935C
:1037A000900280938F021092A5021092A6021092AE
:1037B000A7021092A8021092A9021092AB021092D6
:1037C000940288E0809395028CE380939602109295
:1037D00097021092980284E08093990210929A02C4
:1037E00010929B0280939C0281E08093A40210922D
:1037F000A3021092A10210929E0210929D021092BA
:10380000A00210929F02E6E3F3E080E090E02191B5
:103810003191232B51F4880F991FFC01EA5CFC4F76
:103820008DE892E09183808304C0019680319105F8
:1038300071F780EE92E090936C0280936B028DEEB4
:1038400091E090936802809367028BE092E09093FE
:103850006A028093690210927A0210927B0210929F
:103860007C0210927D0210927E02109280021092D1
:103870006E0288E080936F028CE380937002109256
:1038800071021092720284E08093730281E080934F
:1038900079021092780210927602109275021092BC
:1038A0007402E6E3F3E080E090E021913191232B74
:1038B00051F4880F991FFC01EA5CFC4F87E692E007
:1038C0009183808304C001968031910571F780EE69
:1038D00092E0909352028093510289EC91E0909390
:1038E0004E0280934D0287EE91E0909350028093B8
:1038F0004F021092600210926102109262021092C6
:10390000630210926402109266021092540288E0E0
:10391000809355028CE380935602109257021092C6
:10392000580284E08093590281E080935F021092F4
:103930005E0210925C0210925B0210925A02E6E361
:10394000F3E080E090E021913191232B51F4880F36
:10395000991FFC01EA5CFC4F8DE492E09183808327
:1039600004C001968031910571F710928B0283EBB0
:1039700091E0909382028093810210928C02E8EC95
:10398000F2E085E0DF011D928A95E9F78FE991E089
:103990009093C9028093C8021092CD021092CE0279
:1039A0001092CF0208958F929F92AF92BF92CF92C2
:1039B000DF92EF920F93CF93DF93CDB7DEB7C05472
:1039C000D1090FB6F894DEBF0FBECDBF5F934F9302
:1039D0009E012F5F3F4F3F932F9320E4822E912C27
:1039E00030E8A32EB12C6B0142E2E42E00E026E089
:1039F00041E8FC016681848195810E9420150F9029
:103A00000F900F900F90C05CDF4F0FB6F894DEBFA1
:103A10000FBECDBFDF91CF910F91EF90DF90CF9090
:103A2000BF90AF909F908F9008958F929F92AF928A
:103A3000BF92CF92DF92EF920F93C62ED12C1F929E
:103A40001F921F921F92812C912CA12CB12CE12C42
:103A500000E02AE041E2FC016681848195810E94B8
:103A600020150F900F900F900F900F91EF90DF9017
:103A7000CF90BF90AF909F908F9008958F929F921C
:103A8000AF92BF92CF92DF92EF920F931F921F924D
:103A90001F921F92812C912CA12CB12CC12CD12CC6
:103AA000E12C042F29E040E00E9420150F900F9098
:103AB0000F900F900F91EF90DF90CF90BF90AF904D
:103AC0009F908F900895F8940C946C1DEE0FFF1F3B
:0C3AD0000590F491E02D0994F894FFCFCC
:103ADC00016360646663616567FFFFFFFF20353338
:103AEC0022122324251726272837361819101321BC
:103AFC0014163411321531010203040506070809A6
:103B0C000A44454142400B0C1A1BFF0D292A003870
:103B1C00393A62505152535455565758592B30FF1D
:103B2C00FFFF4FFF5A46FF5B4E4F4D4CFF5C5D4A0B
:103B3C005E431D1E1F2D2E2F3D3E3F0F3C30FFFFC1
:103B4C00FFFFFFFFFFFFFFFFFFFFFFFFFFFFFFFF79
:103B5C00FFFFFFFFFFFFFFFFFF00000000D90F007A
:103B6C00000000B60E00000000930D000000006A7B
:103B7C000C430239023E022F02340225022A0200B3
:103B8C00000000DC0B1404AB0A7202850A5A0257BF
:103B9C000254025102000000001C072102D801A6A9
:103BAC0003D5011A021802D001CB01C301F301C0E5
:103BBC00017D01FEFF0000B60100000000B10521EF
:103BCC0002620138035F011A0218025A0155014DB5
:103BDC0001FC014A010701FEFF000040010000004A
:103BEC00004B042102EC00A602E9001A021802E4C0
:103BFC0000DF00D7000502D4009B00FEFF00008907
:103C0C000D00000000C40B680BD80C0000000088ED
:023C1C000D0099
:00000001FF
