:100000000C9471000C9499000C947A090C9499004A
:100010000C9499000C9499000C9499000C949900FC
:100020000C9499000C9499000C9499000C949900EC
:100030000C9499000C9499000C9499000C949900DC
:100040000C94ED0E0C9499000C94DE120C94A312F7
:100050000C9499000C9499000C9499000C949900BC
:100060000C9499000C94990021402324255E262AA3
:1000700028295F2B7B7D7C7E3A227E3C3E3F2D3DB6
:100080005B5D5C203B27602C2E2F2F2A2D2B0D0033
:10009000000000240027002A00000000002500289E
:1000A000002B0004040404040404040202020202FB
:1000B000020303030303030102040810204080012C
:1000C00002040810200102040810200000000700AC
:1000D0000201000003040600000000000000000010
:1000E000882011241FBECFEFD8E0DEBFCDBF12E0C5
:1000F000A0E0B1E0E0E5F4E402C005900D92A03785
:10010000B107D9F724E0A0E7B2E001C01D92A63301
:10011000B207E1F710E0C1E7D0E004C02197FE018B
:100120000E942022C037D107C9F70E94361D0C94C7
:100130001D220C940000EF92FF92CF93DF93DC011D
:10014000E70157968C915797833049F154966C93F9
:10015000549755964C9355979B8193709330F9F42F
:100160009A8197FF1CC09E815D962C915D972917FF
:1001700018F45D969C935D97E82FF0E09F01220FA5
:10018000331FE20FF31FEA0FFB1F9A819F709783C3
:100190009C81908794E091878F5F57968C93DF9135
:1001A000CF91FF90EF900895FC01848D0895860F04
:1001B000911D860F911DFC0180899189089581E030
:1001C000633009F080E0089581E0633009F080E059
:1001D0000895FC0186810895CF93DF93EC018C8113
:1001E0009D81DC01ED91FC910480F581E02D6E8113
:1001F00009951C8A1D8A81E08F8B1E82188E198EAC
:100200001A8E1B8E1C8E80E0DF91CF910895EF92A5
:10021000FF92CF93DF93DC01E70152968C915297C6
:10022000823049F11F966C931F9750964C935097CC
:100230009B8193709330F9F49A8197FF1CC09E8143
:1002400058962C915897291718F458969C935897BC
:10025000E82FF0E09F01220F331FE20FF31FEA0F98
:10026000FB1F9A819F7097839C81908794E0918770
:100270008F5F52968C93DF91CF91FF90EF9008950E
:10028000EF92FF920F9302970E9407010F91FF9048
:10029000EF900895FC0187890895860F911D860FC0
:1002A000911DFC0185859685089581E0613009F0F6
:1002B00080E0089581E0633009F080E00895FC015A
:1002C00086810895CF93DF93EC018C819D81DC01C1
:1002D000ED91FC910480F581E02D6E8109951F86DA
:1002E000188A81E08A8B1E821B8A1C8A1D8A1E8ABC
:1002F0001F8A80E0DF91CF910895EF92FF92CF9314
:10030000DF93DC01E70152968C915297823049F1DC
:100310001F966C931F9750964C9350979B819370A8
:100320009330F9F49A8197FF1CC09E8158962C91C6
:100330005897291718F458969C935897E82FF0E08F
:100340009F01220F331FE20FF31FEA0FFB1F9A8159
:100350009F7097839C81908794E091878F5F5296DE
:100360008C93DF91CF91FF90EF900895EF92FF92E1
:100370000F9302970E947D010F91FF90EF900895D7
:10038000FC0187890895860F911D860F911DFC0140
:1003900085859685089581E0623009F080E00895B2
:1003A00081E0633009F080E00895FC0186810895C2
:1003B000CF93DF93EC018C819D81DC01ED91FC9169
:1003C0000480F581E02D6E8109951F86188A81E0F1
:1003D0008A8B1E821B8A1C8A1D8A1E8A1F8A80E0C5
:1003E000DF91CF910895860F911D860F911DFC011D
:1003F0005687458781E00895860F911D860F911DD0
:10040000FC015687458781E00895860F911D860F70
:10041000911DFC01518B408B81E0089580E008958F
:1004200080E090E00895089581E0089580E00895C7
:1004300080E00895089580E0089580E0089580E0C8
:10044000089580E0089580E00895FC0197819B7FE6
:1004500097830895FC019781946097830895FC0128
:1004600097819D7F97830895FC0197819260978380
:100470000895FC0197819E7F97830895FC019781E1
:10048000916097830895FC019581DB0111968C9111
:100490001197890F8583968112968C91890F868397
:1004A00008958AE890E008958EE790E0089582E745
:1004B00090E0089588E690E008952091820230E06F
:1004C000A9014F5F5F4F4F7055278F3F51F06091EB
:1004D0008302641731F0F901EE58FD4F8083409399
:1004E000820208950F931F93CF93DF9300D0CDB76F
:1004F000DEB78C0169834A83DC011C968D919C9147
:100500001D97009721F4EA81E933B9F411C0DC01A9
:10051000ED91FC910190F081E02D21E0AE014E5F64
:100520005F4FBE016F5F7F4F0995882361F320C045
:10053000D8011A968C9181FF1BC0F0E0E55FFE4F59
:10054000808187FF0E945D029981892F817181F0EE
:10055000947471F08A818C3411F0833649F488E701
:100560000E945D0288E70E945D0281E0F8018387B6
:100570000F900F90DF91CF911F910F9108956F927F
:100580007F928F929F92AF92BF92CF92DF92EF9223
:10059000FF920F931F93CF93DF93CDB7DEB7629790
:1005A0000FB6F894DEBF0FBECDBFDC015C962C9178
:1005B000222309F45FC07C010E94E10EF701808CC8
:1005C000918CA28CB38CDC01CB0188199909AA0902
:1005D000BB09B7FD4FC06701FBE0CF0ED11C47013F
:1005E000370181E1680E711CD6018C9190E09A8BE5
:1005F000898B8E010F5F1F4F9E012F5E3F4FF601CB
:1006000031974081F7016681848195810E9418119C
:10061000B82E811115C029893A892330310580F01F
:10062000D40150968D919C915197009749F0DC012F
:10063000ED91FC910190F081E02D40E0B70109952A
:10064000B3E0CB0ED11CE2E08E0E911CC614D70491
:1006500059F60E94E10ED7015D962C91DC01CB0189
:10066000820F911DA11DB11DF701808F918FA28F67
:10067000B38F01C0B12C8B2D62960FB6F894DEBFFC
:100680000FBECDBFDF91CF911F910F91FF90EF90E3
:10069000DF90CF90BF90AF909F908F907F906F90A2
:1006A0000895DF92EF92FF920F931F93CF93DF9302
:1006B000CDB7DEB762970FB6F894DEBF0FBECDBFE1
:1006C000DC0157962C91222381F07C010E94E10EDF
:1006D000F7010389148925893689DC01CB01801B48
:1006E000910BA20BB30BB7FF02C0D12C39C083858D
:1006F00090E09A8B898B8E010F5F1F4F9E012F5EBA
:100700003F4F42856681848195810E941811D82EC1
:10071000811118C029893A892330310598F0D70111
:100720001D968D919C911E97009761F0DC01ED91D3
:10073000FC910190F081E02D8E010F5F1F4F40E092
:10074000B70109950E94E10EF701208DDC01CB0174
:10075000820F911DA11DB11D838B948BA58BB68B30
:100760008D2D62960FB6F894DEBF0FBECDBFDF9120
:10077000CF911F910F91FF90EF90DF900895DF923E
:10078000EF92FF920F931F93CF93DF93CDB7DEB716
:1007900062970FB6F894DEBF0FBECDBFDC0157964F
:1007A0002C91222381F07C010E94E10EF701038944
:1007B000148925893689DC01CB01801B910BA20BA2
:1007C000B30BB7FF02C0D12C39C0838590E09A8B60
:1007D000898B8E010F5F1F4F9E012F5E3F4F428519
:1007E0006681848195810E941811D82E811118C0CC
:1007F00029893A892330310598F0D7011D968D91CA
:100800009C911E97009761F0DC01ED91FC910190A5
:10081000F081E02D8E010F5F1F4F40E0B701099579
:100820000E94E10EF701208DDC01CB01820F911DAA
:10083000A11DB11D838B948BA58BB68B8D2D6296DC
:100840000FB6F894DEBF0FBECDBFDF91CF911F91E1
:100850000F91FF90EF90DF900895CF93DF931F9259
:10086000CDB7DEB7FC019285473499F0433551F09E
:100870004933B9F491FB882780F98095292F80FBB3
:1008800021F90EC0892F81708095292F80FB20F9D6
:1008900007C092FB882780F98095292F80FB22F9D9
:1008A00022872285921759F06115710541F0CB011D
:1008B0002983BE016F5F7F4F0E94DA1C01C080E078
:1008C0000F90DF91CF9108954F925F926F927F9238
:1008D0008F929F92AF92BF92CF92DF92EF92FF9250
:1008E0000F931F93CF93DF93CDB7DEB7EC970FB67F
:1008F000F894DEBF0FBECDBFDC0114968D909C90A6
:10090000159716963C91311129C1C22E442E562EB0
:100910008C01FC01158ED401ED91FC910190F081C8
:10092000E02D60E0C40109957C01009711F486ED8B
:100930001AC1FC01608071806114710409F410C156
:100940005801F7E0AF0EB11CDC011196BC92AE92DB
:100950001496CC929E01265D3F4F48E050E060E047
:10096000F801848195810E947F118CAF8111E9C0CB
:10097000DAA4D7016D927C92D401ED91FC910280B2
:10098000F381E02D242D40E0652DC4010995F80187
:100990008683882309F4E6C099A99087682F84810B
:1009A00095810E944F118CAFD401ED91FC91D7013C
:1009B00014961C92882359F00480F581E02DD8010B
:1009C00016966C91C4010995F8011682C5C0019074
:1009D000F081E02DD80116966C91C401099500971D
:1009E00009F4A5CF4D2D433108F042E1FC01C4824A
:1009F000442379F050E09E01265D3F4FD8011696C2
:100A00006C91169714968D919C9115970E947F1169
:100A10008CAF8CAD811198C0EBAC8BE991E09A83DF
:100A20008983C80102969C838B831D821A861B864C
:100A30001E86188A1F8619A21AA21BA2CE014196F1
:100A40009F838E83998788879D878C8781E089A77C
:100A5000F12CFE1479F09E012F5F3F4F4F2DF801CE
:100A60006681848195810E94C911D80157968C9125
:100A7000833039F4F8018789833029F081ED8CAF18
:100A800063C0F394E6CF950143E06681848195814C
:100A90000E9442208CAF68EE73E080E090E00E94FC
:100AA000BB0EF80144896681848195810E941D20D6
:100AB0008CAF811149C068EE73E080E090E00E9445
:100AC000BB0EE12CF12C47EAC42E41E0D42ED80114
:100AD0005E964C916E2DC8010E945F208CAF8111F3
:100AE00033C06E2DC8010E94F41F8CAFDA82C98218
:100AF000AE014F5F5F4FB701C8010E94B21F8CAFBC
:100B0000EA94EF2821F0EE24E394F12CE0CF80E288
:100B10008CAF8CAD882389F090E0959587958CAF4C
:100B2000BE01645C7F4FC8010E94DA1C69E170E07D
:100B300080E090E00E94BB0EECCF91E0F801948F32
:100B400012C0F70171826082D801ED91FC9104809E
:100B5000F581E02DC80109958CAD05C089ED03C074
:100B600087ED01C084EDEC960FB6F894DEBF0FBEA2
:100B7000CDBFDF91CF911F910F91FF90EF90DF904C
:100B8000CF90BF90AF909F908F907F906F905F902D
:100B90004F9008954F925F926F927F928F929F92A3
:100BA000AF92BF92CF92DF92EF92FF920F931F937B
:100BB000CF93DF93CDB7DEB7EC970FB6F894DEBFD7
:100BC0000FBECDBFDC0114968D909C9015971696A4
:100BD0003C9131112EC1C22E442E562E8C01FC01A7
:100BE000108ED401ED91FC910190F081E02D60E038
:100BF000C40109957C01009711F486ED1FC1FC0129
:100C0000608071806114710409F415C15801F7E026
:100C1000AF0EB11CDC011196BC92AE921496CC9230
:100C20009E01265D3F4F48E050E060E0F80184817E
:100C300095810E947F118CAF8111EEC0DAA4D7019B
:100C40006D927C92D401ED91FC910280F381E02DB4
:100C5000242D40E0652DC4010995F8018683882381
:100C600009F4EBC099A99087682F848195810E942F
:100C70004F118CAFD401ED91FC91D70114961C92C9
:100C8000882359F00480F581E02DD80116966C91E7
:100C9000C4010995F8011682CAC00190F081E02DC7
:100CA000D80116966C91C4010995009709F4A5CF57
:100CB0004D2D433108F042E1FC01C482442379F018
:100CC00050E09E01265D3F4FD80116966C91169715
:100CD00014968D919C9115970E947F118CAF8CADCD
:100CE00081119DC0EBACF12C35E9832E31E0932EC0
:100CF0003801B2E06B0E711C6E01E1E1CE0ED11C29
:100D0000FE1441F19A8289827C826B821D821A864E
:100D10001B861E86188A1F8619A21AA21BA219A654
:100D2000DF82CE82D986C886DD86CC869E012F5F83
:100D30003F4F4F2DD80116966C91169714968D91B2
:100D40009C9115970E94C911F8018289823011F097
:100D5000F394D6CFD80152968C91823019F081ED60
:100D60008CAF5DC0950142E0F80166818481958178
:100D70000E9442208CAF68EE73E080E090E00E9419
:100D8000BB0ED8011F964C911F9716966C91169723
:100D900014968D919C9115970E941D208CAF811106
:100DA0003EC068EE73E080E090E00E94BB0EF80168
:100DB000418D60E0C8010E945F208CAF81112FC07F
:100DC00060E0C8010E94F41F8CAF87EA91E09A832B
:100DD0008983AE014F5F5F4F60E070E0C8010E9401
:100DE000B21F80E28CAF8CAD882389F090E095959E
:100DF00087958CAFBE01645C7F4FC8010E94DA1CEE
:100E000069E170E080E090E00E94BB0EECCF91E0E1
:100E1000D80157969C9312C0F70171826082D80165
:100E2000ED91FC910480F581E02DC80109958CAD10
:100E300005C089ED03C087ED01C084EDEC960FB6C7
:100E4000F894DEBF0FBECDBFDF91CF911F910F9100
:100E5000FF90EF90DF90CF90BF90AF909F908F90DA
:100E60007F906F905F904F9008953F924F925F9266
:100E70006F927F928F929F92AF92BF92CF92DF92AA
:100E8000EF92FF920F931F93CF93DF93CDB7DEB70F
:100E9000EB970FB6F894DEBF0FBECDBFDC01149602
:100EA000AD90BC9015971696EC90E11010C1522EA3
:100EB000342E462E8C01FC01108ED501ED91FC9153
:100EC0000190F081E02D60E0C50109956C0100976B
:100ED00019F456EDE52E08C1FC0180809180811443
:100EE000910409F4F7C03801F7E06F0E711CDC01C2
:100EF00011967C926E9214965C929E01265D3F4FF5
:100F000048E050E060E0F801848195810E947F1103
:100F1000F82E8111E5C0FAA4D6018D929C92D501DC
:100F2000ED91FC910280F381E02D232D40E0642DB2
:100F3000C5010995F8018683882309F4CEC099A9D3
:100F40009087682F848195810E944F11982ED5013A
:100F5000ED91FC91D60114961C92882361F00480D7
:100F6000F581E02DD80116966C91C5010995F8011F
:100F70001682E92CB9C00190F081E02DD8011696B7
:100F80006C91C5010995009709F4A3CF4F2D43310A
:100F900008F042E1FC01548241110FC05BACF12C1E
:100FA0004FE8A42E41E0B42E4801F2E08F0E911CD0
:100FB0006E0181E1C80ED11C36C050E09E01265D55
:100FC0003F4FD80116966C91169714968D919C916F
:100FD00015970E947F11F82E81116FC0DFCFBA8262
:100FE000A9829C828B821D821A861B861E86188A85
:100FF0001F8619A21AA21BA219A6DF82CE82D98649
:10100000C886DD86CC869E012F5F3F4F4F2DF801AD
:101010006681848195810E94C911D80152968C9174
:10102000823019F0F394F510DACFF801828982301A
:1010300009F041C0930142E06681848195810E945C
:10104000422068EE73E080E090E00E94BB0ED80181
:101050001F964C911F9716966C91169714968D912A
:101060009C9115970E941D20F82E811126C068EED4
:1010700073E080E090E00E94BB0EF801418D60E0DB
:10108000C8010E945F20F82E811117C060E0C801DE
:101090000E94F41F87EA91E09A838983AE014F5F33
:1010A0005F4F60E070E0C8010E94B21F81E0D8018C
:1010B00057968C9319C031EDF32ED801ED91FC9128
:1010C0000480F581E02DC8010995EF2C0DC029EDB4
:1010D000E22E0AC097EDE92E07C084EDE82E04C089
:1010E000F60191828082E9CF8E2DEB960FB6F894AF
:1010F000DEBF0FBECDBFDF91CF911F910F91FF904B
:10110000EF90DF90CF90BF90AF909F908F907F90A7
:101110006F905F904F903F900895CF93C82F60E0FD
:101120000E94330E61E08C2FCF910C947F0ECF93F1
:10113000C82F60E00E947F0E61E08C2FCF910C944D
:10114000330EFA018081FB0190819530D1F4803516
:1011500031F0823541F08F34A1F482E101C083E1A6
:10116000222369F006C082E1222331F00E948D081B
:1011700083E10E948D0805C00E94970883E10E94C8
:10118000970880E00895CF93C82F60E00E94330E47
:1011900061E08C2FCF910C947F0E2A9808952A9AA3
:1011A0000895CF93DF93FC01DA018281882319F03F
:1011B0008130D9F01FC03483238381E0828315C03E
:1011C0002D913C911197232BA9F001979483838350
:1011D000EB01888199810196998388838D919C91F7
:1011E0001197019711969C938E9383819481009718
:1011F00039F7128281E023813481232B09F080E0CA
:10120000DF91CF910895DC01AA5ABF4F20E030E072
:101210004D915D91452B59F4255D3F4F220F331FB2
:10122000FC01E20FF31F7183608380E008952F5F5C
:101230003F4F2031310561F783ED0895CF93C82FDB
:1012400060E00E94330E61E08C2FCF910C947F0EF2
:10125000CF93C82F60E00E947F0E61E08C2FCF916A
:101260000C94330E80917002813069F040F082302E
:1012700071F08330B1F487E00E941E090FC087E04F
:101280000E9428090BC087E00E94280903C087E05C
:101290000E941E0985E00E941E0903C085E00E948D
:1012A00028098BE891E00197F1F708958091710288
:1012B000813069F040F0823071F08330B1F486E023
:1012C0000E941E090FC086E00E9428090BC086E01C
:1012D0000E94280903C086E00E941E0988E00E943F
:1012E0001E0903C088E00E9428098BE891E001975D
:1012F000F1F708951F920F920FB60F9211248F935A
:1013000081E080930201E9988F910F900FBE0F90BA
:101310001F901895CF93C82F60E00E947F0E61E068
:101320008C2FCF910C94330E84E00E94C30868E5A3
:1013300072E080E090E00E94BB0E84E00C948A0989
:101340000F931F93CF93DF9300D0CDB7DEB78C01FF
:1013500069834A83DC011C968D919C911D970097AF
:1013600021F4EA81E933B9F411C0DC01ED91FC917B
:101370000190F081E02D20E0AE014E5F5F4FBE0195
:101380006F5F7F4F0995882361F315C0D8011A96C6
:101390008C9181FD10C0F0E0E55FFE4F808187FDFC
:1013A00003C080680E945D02F8018385882319F0DC
:1013B00013860E9494090F900F90DF91CF911F9197
:1013C0000F910895AF92BF92CF92DF92EF92FF926A
:1013D0000F931F93CF93DF935C01C42F83E0E82E1C
:1013E00081E0F82E00E010E0CC24C394D12CD62F5D
:1013F000D4279601002E01C0220F0A94EAF78D2F00
:10140000822369F02C23F7018081222319F087FDC4
:1014100006C003C087FD03C080680E945D020F5FA5
:101420001F4FFFEFEF1AFF0A0830110511F7F50102
:101430008385882319F013860E949409C93811F016
:10144000C83949F488E70E945D0288E70E945D027E
:1014500081E0F5018387DF91CF911F910F91FF907C
:10146000EF90DF90CF90BF90AF900895CF93DF9330
:10147000C3E2D0E0CE010197F1F782E00E94C308F9
:10148000CE010197F1F782E00E948A092197F1F7D6
:10149000DF91CF910895882321F083E00E94C30853
:1014A00003C083E00E948A090C94360ACF93C82FA8
:1014B00083E00E948A09C6FB882780F90E944B0AB4
:1014C000C5FB882780F90E944B0AC4FB882780F956
:1014D0000E944B0AC3FB882780F90E944B0AC2FB7B
:1014E000882780F90E944B0AC1FB882780F90E9457
:1014F0004B0A8C2F81700E944B0A8C2F881F8827E3
:10150000881F0E944B0A83E00E948A098FE090E0C6
:101510000197F1F70E94E10E6093840270938502B7
:10152000809386029093870210920201E99ACF91EC
:10153000089508953FB7F89480918D0290918E029E
:10154000A0918F02B091900226B5A89B05C02F3FB5
:1015500019F00196A11DB11D3FBFBA2FA92F982FD9
:101560008827820F911DA11DB11DBC01CD0143E053
:10157000660F771F881F991F4A95D1F70895089520
:101580002F923F924F925F926F927F928F929F9293
:10159000AF92BF92CF92DF92EF92FF920F931F9381
:1015A000CF93DF9300D000D0CDB7DEB76C017C8342
:1015B0006B835A8349834C0180E1880E911C56014C
:1015C000A7E0AA0EB11C332433942601BBE04B0ED6
:1015D000511C3601E2E16E0E711C83E0282E12E0F0
:1015E0008B819C81892B09F4D7C0D60190968C9170
:1015F000823061F128F4882341F0813079F0F0CF16
:10160000833041F18430D1F1EBCFF6011483858131
:101610009681908787831287118730A2AE014D5F34
:101620005F4FBE016F5F7F4FC5010E94C3198823C2
:1016300009F4B2C0D6011596ED91FC911697808100
:1016400091968C939197818192968C93F6017682F4
:10165000658220A2D60192968C919297843011F4E3
:1016600093961C92F60181A1825084832581368154
:10167000308727838287818784E080A3D601929672
:101680008C918430B1F0853009F442C0823009F089
:101690006BC0AE014D5F5F4FBE016F5F7F4FC501F5
:1016A0000E94C319882309F477C0F601858984A3B1
:1016B0006BC0AE014D5F5F4FBE016F5F7F4FC501D5
:1016C0000E94C319882309F467C0D60155968C91EE
:1016D0005597833009F058C056968C9156978130B3
:1016E00009F052C098969C91989757968C9199239F
:1016F00021F0882309F448C003C0833009F044C0B6
:10170000F60133A2928996A3938997A385A33CC03F
:10171000AE014D5F5F4FBE016F5F7F4FC5010E94FD
:10172000C3198823C9F1D60193968C919397882386
:1017300059F112968D919C911397009729F1DC0134
:10174000ED91FC910190F081E02D7401D601959608
:101750000C91959797962C91979796964C91969772
:1017600094966C91099510C0F60121A130E02250A9
:101770003109AE014D5F5F4FBE016F5F7F4FC20108
:101780000E94D108882341F0D60116969C928E9231
:10179000159790961C9224CF0F900F900F900F905A
:1017A000DF91CF911F910F91FF90EF90DF90CF903D
:1017B000BF90AF909F908F907F906F905F904F9071
:1017C0003F902F9008952F923F924F925F926F9289
:1017D0007F928F929F92AF92BF92CF92DF92EF92C1
:1017E000FF920F931F93CF93DF9300D000D0CDB71C
:1017F000DEB76C017C836B835A8349834C0180E1A3
:10180000880E911C5601A7E0AA0EB11C3324339414
:101810002601BBE04B0E511C3601E2E16E0E711C3D
:1018200083E0282E12E08B819C81892B09F4D7C09C
:10183000D60190968C91823061F128F4882341F092
:10184000813079F0F0CF833041F18430D1F1EBCFAA
:10185000F60114838581968190878783128711878B
:1018600030A2AE014D5F5F4FBE016F5F7F4FC5017C
:101870000E94C319882309F4B2C0D6011596ED91D0
:10188000FC911697808191968C9391978181929685
:101890008C93F6017682658220A2D60192968C9175
:1018A0009297843011F493961C92F60181A1825094
:1018B000848325813681308727838287818784E0EE
:1018C00080A3D60192968C918430B1F0853009F4D2
:1018D00042C0823009F06BC0AE014D5F5F4FBE0168
:1018E0006F5F7F4FC5010E94C319882309F477C039
:1018F000F601858984A36BC0AE014D5F5F4FBE01C9
:101900006F5F7F4FC5010E94C319882309F467C028
:10191000D60155968C915597833009F058C056964C
:101920008C915697813009F052C098969C91989767
:1019300057968C91992321F0882309F448C003C05D
:10194000813009F044C0F60133A2928996A39389AD
:1019500097A385A33CC0AE014D5F5F4FBE016F5F93
:101960007F4FC5010E94C3198823C9F1D601939600
:101970008C919397882359F112968D919C9113978E
:10198000009729F1DC01ED91FC910190F081E02DAF
:101990007401D60195960C91959797962C919797EF
:1019A00096964C91969794966C91099510C0F60175
:1019B00021A130E022503109AE014D5F5F4FBE01E1
:1019C0006F5F7F4FC2010E94D108882341F0D6018A
:1019D00016969C928E92159790961C9224CF0F90FB
:1019E0000F900F900F90DF91CF911F910F91FF906B
:1019F000EF90DF90CF90BF90AF909F908F907F90AF
:101A00006F905F904F903F902F9008952F923F924C
:101A10004F925F926F927F928F929F92AF92BF92FE
:101A2000CF92DF92EF92FF920F931F93CF93DF93AA
:101A300000D000D0CDB7DEB76C017C836B835A83B6
:101A400049834C0180E1880E911C5601A7E0AA0E43
:101A5000B11C332433942601BBE04B0E511C3601DC
:101A6000E2E16E0E711C83E0282E12E08B819C81D6
:101A7000892B09F4D7C0D60190968C91823061F100
:101A800028F4882341F0813079F0F0CF833041F1A0
:101A90008430D1F1EBCFF601148385819681908754
:101AA00087831287118730A2AE014D5F5F4FBE0161
:101AB0006F5F7F4FC5010E94C319882309F4B2C02C
:101AC000D6011596ED91FC911697808191968C9395
:101AD0009197818192968C93F6017682658220A2FD
:101AE000D60192968C919297843011F493961C9221
:101AF000F60181A182508483258136813087278336
:101B00008287818784E080A3D60192968C9184306D
:101B1000B1F0853009F442C0823009F06BC0AE01EB
:101B20004D5F5F4FBE016F5F7F4FC5010E94C319BC
:101B3000882309F477C0F601858984A36BC0AE01C0
:101B40004D5F5F4FBE016F5F7F4FC5010E94C3199C
:101B5000882309F467C0D60155968C915597833038
:101B600009F058C056968C915697813009F052C0B2
:101B700098969C91989757968C91992321F0882359
:101B800009F448C003C0823009F044C0F60133A212
:101B9000928996A3938997A385A33CC0AE014D5F1C
:101BA0005F4FBE016F5F7F4FC5010E94C31988233D
:101BB000C9F1D60193968C919397882359F1129687
:101BC0008D919C911397009729F1DC01ED91FC9187
:101BD0000190F081E02D7401D60195960C919597B6
:101BE00097962C91979796964C91969794966C9180
:101BF000099510C0F60121A130E022503109AE0153
:101C00004D5F5F4FBE016F5F7F4FC2010E94D108E1
:101C1000882341F0D60116969C928E921597909645
:101C20001C9224CF0F900F900F900F90DF91CF91C7
:101C30001F910F91FF90EF90DF90CF90BF90AF90EA
:101C40009F908F907F906F905F904F903F902F90DC
:101C50000895EF92FF920F9302970E949B000F91BD
:101C6000FF90EF90089590E0FC01E553FF4F349111
:101C7000FC01E954FF4F2491FC01ED55FF4FE49125
:101C8000EE2309F43BC0332339F1333091F038F4BB
:101C90003130A9F0323001F584B58F7D12C0363075
:101CA00091F03730A1F03430B9F4809180008F7D0D
:101CB00003C0809180008F77809380000DC084B531
:101CC0008F7784BD09C08091B0008F7703C0809169
:101CD000B0008F7D8093B000F0E0EE0FFF1FE7565D
:101CE000FF4FA591B4918FB7F894EC91611103C0A7
:101CF00020952E2301C02E2B2C938FBF0895CF93B8
:101D0000DF9390E0FC01E954FF4F2491FC01ED5575
:101D1000FF4F8491882361F190E0880F991FFC01A7
:101D2000E157FF4FC591D491FC01E756FF4FA591B4
:101D3000B491611109C09FB7F894888120958223DE
:101D40008883EC912E230BC0623061F49FB7F89426
:101D50003881822F809583238883EC912E2B2C93BE
:101D60009FBF06C08FB7F894E8812E2B28838FBFC2
:101D7000DF91CF910895CF92DF92EF92FF92CF93B0
:101D8000DF936B017C010E949A0AEB01C114D1041C
:101D9000E104F10479F00E949A0A6C1B7D0B683E05
:101DA0007340A0F381E0C81AD108E108F108C851D6
:101DB000DC4FECCFDF91CF91FF90EF90DF90CF9091
:101DC00008952FB7F8946091890270918A028091EA
:101DD0008B0290918C022FBF08951F920F920FB625
:101DE0000F9211242F933F938F939F93AF93BF93A1
:101DF0008091890290918A02A0918B02B0918C020D
:101E00003091880226E0230F2D3720F40296A11D81
:101E1000B11D05C029E8230F0396A11DB11D209314
:101E200088028093890290938A02A0938B02B093D8
:101E30008C0280918D0290918E02A0918F02B091C0
:101E400090020196A11DB11D80938D0290938E0288
:101E5000A0938F02B0939002BF91AF919F918F9109
:101E60003F912F910F900FBE0F901F901895CF9319
:101E7000DF9300D0CDB7DEB76A8389830E94CD0897
:101E8000898182608EBD6A810DB407FEFDCF6EBD73
:101E90000DB407FEFDCF0F900F90DF91CF910C9402
:101EA000CF08CF93DF931F92CDB7DEB789830E940F
:101EB000CD0889818EBD0DB407FEFDCF1EBC0DB4CB
:101EC00007FEFDCF0E94CF088EB50F90DF91CF9116
:101ED00008950F931F93CF93DF93FC01A685B785D9
:101EE0008D01005C1F4FE8018881998101968F73F5
:101EF0009927AD014E5B5F4FEA0128813981821736
:101F00009307D1F3E80128813981A20FB31F6C93A5
:101F1000A685B785A05CBF4F11969C938E93A6892A
:101F2000B7892C9181E090E0078C02C0880F991F3F
:101F30000A94E2F7822B8C9381E081A30488F589CF
:101F4000E02D80818064808381E090E0DF91CF91FB
:101F50001F910F910895FC0181A1882329F0A48984
:101F6000B5898C9186FFFBCF11A20895FC01A48551
:101F7000B585FD01E05CFF4F208131813296808183
:101F800091812817390779F080819181A80FB91FB5
:101F90008C91208131812F5F3F4F2F733327318305
:101FA000208390E008958FEF9FEF0895DC011C9649
:101FB000ED91FC911D97DF01A05CBF4F2D913C91ED
:101FC000119712968D919C9111972817390739F026
:101FD0008D919C91E80FF91F808190E008958FEF1B
:101FE0009FEF0895FC0124853585F901E05CFF4FE2
:101FF00080819181329620813181821B930B8F7376
:102000009927089582E293E00C94F20FCF92DF9229
:10201000EF92FF920F931F93CF93DF936C01EB012D
:102020007B01E40EF51E00E010E0CE15DF0561F047
:102030006991D601ED91FC910190F081E02DC601EE
:102040000995080F191FF1CFC801DF91CF911F919A
:102050000F91FF90EF90DF90CF900895DF92EF9275
:10206000FF920F931F93CF93DF93EC01E62EF12C99
:1020700085E0689FB0011124FE01E60FF71F8085FF
:10208000182F177086FF21C001E085E0D82E8FEF52
:10209000800F8F3008F001E0FE01D09EE00DF11DB1
:1020A000112480858695869586958770811305C055
:1020B000602FCE010E942E10EACF0F5F003161F732
:1020C0008D81811302C011501D8385E08E9DF0012A
:1020D0008F9DF00D1124EC0FFD1F108681E081878C
:1020E00012862296D783C683DF91CF911F910F91DD
:1020F000FF90EF90DF900895FC016134C1F43F96AA
:102100009C01265A3F4F61E0AC014E5F5F4FDF01FB
:1021100012971C9211966C93108213974D935C93B7
:102120003596E217F30799F7FC01158208953D965D
:1021300021E03081361303C0622F0C942E102F5FE4
:1021400035962031B1F70895CF93DF93FC01862FA8
:10215000807809F051C0283008F04FC0442321F0A6
:102160009581973009F449C0EF012D96A0E0B0E0C9
:1021700011969881911103C0662331F021C02596F4
:10218000AF30B105A9F739C085E08A9FE0018B9F88
:10219000D00D1124CE0FDF1F442331F081E4888756
:1021A00085818F5F858302C081E0888725E02A9F33
:1021B000C0012B9F900D1124E80FF91F80851DC0D1
:1021C0006770660F660F660F442341F06064858177
:1021D0008F5F85838770687F682B03C02770687B5B
:1021E000622B25E02A9FC0012B9F900D1124E80F40
:1021F000F91F6087862F01C080E0DF91CF9108959D
:10220000611102C006960895FC013D9621E03081DF
:10221000361307C035E0239F800D911D11240696CB
:1022200008952F5F3596203191F780E090E0089572
:10223000AF92BF92CF92DF92EF92FF920F931F93D4
:10224000CF93DF9300D000D0CDB7DEB77C0169011A
:1022500058011C821B821A8219828E010F5F1F4F48
:102260009E012D5F3F4F0E94BE1A811109C0498116
:102270005A816B817C8185019601C7010E94F71903
:102280000F900F900F900F90DF91CF911F910F91B2
:10229000FF90EF90DF90CF90BF90AF9008958F9216
:1022A0009F92AF92BF92CF92DF92EF920F93CF9314
:1022B0001F921F921F921F92812C912CA12CB12C46
:1022C000C12CD12CE12C062F25E040E060E00E94DB
:1022D000341BC82F6CE271E080E090E00E94BB0EDE
:1022E0000F900F900F900F908C2FCF910F91EF9038
:1022F000DF90CF90BF90AF909F908F9008958F9276
:102300009F92AF92BF92CF92DF92EF920F931F9264
:102310001F923F932F934A015A01C12CD12CEE24D6
:10232000E39400E026E040E80E94341B0F900F90F9
:102330000F900F900F91EF90DF90CF90BF90AF90E4
:102340009F908F9008958F929F92AF92BF92CF925D
:10235000DF92EF920F931F931F921F921F930F9381
:102360004A015A01C12CD12C32E0E32E022F26E083
:1023700040E80E94341B0F900F900F900F901F9118
:102380000F91EF90DF90CF90BF90AF909F908F9084
:1023900008955F926F927F928F929F92AF92BF92B9
:1023A000CF92DF92EF92FF920F931F93CF93DF9321
:1023B000CDB7DEB7C154D1090FB6F894DEBF0FBE5A
:1023C000CDBF3C01F62E542EE22ECE0101966C01BB
:1023D0008C01242F49E050E0C30122963FAF2297A1
:1023E0000E94A31122963FAD2297811118C0AB80A5
:1023F000BC803F93EF92DF92CF9280E4882E912CA5
:10240000C12CD12C92E0E92E052D26E040E86F2D5D
:10241000C3010E94341B0F900F900F900F90CF5B61
:10242000DF4F0FB6F894DEBF0FBECDBFDF91CF9167
:102430001F910F91FF90EF90DF90CF90BF90AF90E2
:102440009F908F907F906F905F9008958F929F9252
:10245000AF92BF92CF92DF92EF920F93C42ED12C06
:102460001F921F921F921F92812C912CA12CB12C94
:10247000E12C062F21E043E2FC01628582819381F9
:102480000E94341B0F900F900F900F900F91EF90C0
:10249000DF90CF90BF90AF909F908F9008958F92D4
:1024A0009F92AF92BF92CF92DF92EF920F93C62E80
:1024B000D12C1F921F925F934F9324E0822E912C78
:1024C00034E0A32EB12CE12C00E020E043EAFC0133
:1024D0006285828193810E94341B0F900F900F9030
:1024E0000F900F91EF90DF90CF90BF90AF909F90A3
:1024F0008F9008958F929F92AF92BF92CF92DF926A
:10250000EF920F93C42ED12C1F921F921F921F92F5
:10251000812C912CA12CB12CE12C062F23E043E23D
:10252000FC016285828193810E94341B0F900F9081
:102530000F900F900F91EF90DF90CF90BF90AF90E2
:102540009F908F9008951F920F920FB60F921124B3
:102550002F933F938F939F93EF93FF932091DA02F2
:102560003091DB028091DC029091DD02281739075F
:1025700031F48091C1008F7D8093C10014C0E0913F
:10258000DC02F091DD02E656FD4F20818091DC02F5
:102590009091DD0201968F7399279093DD028093CD
:1025A000DC022093C600FF91EF919F918F913F91A4
:1025B0002F910F900FBE0F901F9018951F920F92A2
:1025C0000FB60F9211242F934F935F938F939F9386
:1025D000EF93FF938091C00082FD1CC02091C60044
:1025E00080911E0390911F0301968F73992740914C
:1025F0002003509121038417950771F0E0911E0389
:10260000F0911F03E252FD4F208390931F038093AC
:102610001E0302C08091C600FF91EF919F918F91A0
:102620005F914F912F910F900FBE0F901F901895B3
:102630000F931F93CF93DF9300D0CDB7DEB78A01FE
:102640006A8389830E94CD08898182608EBDF801EA
:102650006A81862F882339F00DB407FEFDCF919152
:102660009EBD8150F7CF060F111D0DB407FEFDCFA3
:102670000E94CF08C8010F900F90DF91CF911F915A
:102680000F910895CF93DF9300D0CDB7DEB76A8363
:1026900089830E94CD08898182608EBD6A810DB4D4
:1026A00007FEFDCF6EBD0DB407FEFDCF0F900F905E
:1026B000DF91CF910C94CF089F92AF92BF92CF92AF
:1026C000DF92EF92FF920F931F93CF93DF937C01E2
:1026D000C42F122F992493946C01C60ED11CC60EE0
:1026E000D11C86E5C80ED11CA42EB12CABE2AA0EDB
:1026F000B11CAA0CBB1CAE0CBF1CF60180819181E1
:10270000DC01ED91FC910280F381E02D202F412F1F
:102710006C2F0995803EC9F4C1110BC061E088EEB1
:102720000E94421366E670E080E090E00E94BB0EDB
:1027300016C0F50180819181DC01ED91FC9102844C
:10274000F385E02D612F09950AC08D3031F49FEF9C
:10275000990D933008F040C016C081113DC0F601BC
:1027600080819181DC01ED91FC910190F081E02D5F
:10277000202F412F6C2F0995D82F8D3061F48FEFCA
:10278000890D833050F464E670E080E090E00E94B0
:10279000BB0E9394B2CF8823F1F0C1110BC061E05E
:1027A00088EE0E94421366E670E080E090E00E94AE
:1027B000BB0E11C0EC2FF0E0BB96EE0FFF1FEE0D2D
:1027C000FF1D80819181DC01ED91FC910284F385F4
:1027D000E02D612F09958D2FDF91CF911F910F91E2
:1027E000FF90EF90DF90CF90BF90AF909F900895B3
:1027F000CF93DF931F92CDB7DEB789830E94CD08B8
:1028000089818EBD0DB407FEFDCF1EBC0DB407FE41
:10281000FDCF0E94CF088EB50F90DF91CF91089524
:102820002F923F924F925F926F927F928F929F92E0
:10283000AF92BF92CF92DF92EF92FF920F931F93CE
:10284000CF93DF93CDB7DEB766970FB6F894DEBFB0
:102850000FBECDBF1B8A38E03C8B3CE33D8B8A3FEB
:102860003FEF930711F486EDEEC0122F442E562E43
:102870007C01DC011696CD90DC901797CE01439633
:1028800017969C938E9316971A962C939E012F5F02
:102890003F4F42E150E060E0C7010E947F11F70125
:1028A000D782C6828111CFC089849A846B847C844C
:1028B0003D813E8B2E80670186E5C80ED11C5601F6
:1028C000312CD5018D919C91009789F1DC01ED911E
:1028D000FC910084F185E02D0995811128C0F50156
:1028E00080819181DC01ED91FC910088F189E02DDE
:1028F000622D09958823D9F0F50180819181DC0151
:10290000ED91FC910484F585E02DA301B4010995B6
:10291000811182C0F50180819181DC01ED91FC91F2
:102920000684F785E02D6E890995811175C0339471
:10293000B2E0AB0EB11CE0E13E12C3CFB12CD60128
:102940008D919C91009799F1DC01ED91FC910084AF
:10295000F185E02D099581112AC0F60180819181D0
:10296000DC01ED91FC910088F189E02D622D099543
:10297000882309F45CC0F60180819181DC01ED912E
:10298000FC910484F585E02DA301B4010995811122
:102990000EC0F60180819181DC01ED91FC910684ED
:1029A000F785E02D6E890995882309F440C0B3941A
:1029B000B2E0CB0ED11CE0E1BE12C1CFD70116961A
:1029C0008D919C911797892B09F11A961C93242DB0
:1029D00040E0652DC7010E94A410D82E8823C1F0C5
:1029E000682FC7010E940011009709F43CCFFC0139
:1029F00014836D2DC7010E944F11182F882351F0A9
:102A00006D2DC7010E947C10812F1DC087ED1BC05A
:102A100084ED19C080E017C0012F242D452D632DB2
:102A2000C7010E945C13813D09F481CF0CC0012FC6
:102A3000242D452D6B2DC7010E945C13982F977F85
:102A4000913D09F4B4CF66960FB6F894DEBF0FBE81
:102A5000CDBFDF91CF911F910F91FF90EF90DF904D
:102A6000CF90BF90AF909F908F907F906F905F902E
:102A70004F903F902F9008953F924F925F926F92A8
:102A80007F928F929F92AF92BF92CF92DF92EF92FE
:102A9000FF920F931F93CF93DF93D80112962C913F
:102AA000213009F465C02B01EC016A81F8014081F5
:102AB000641731F0E881F9810480F581E02D0995F2
:102AC0004801F2E08F0E911C5E0184E0A80EB11C5B
:102AD0003E01AAE06A0E711C75016401D6014C9199
:102AE000F7019081D401F501312C80E0219142134E
:102AF00003C0413009F081E02D91291304C09130C9
:102B000011F033243394E615F70581F7811113C0D2
:102B1000E881F9810280F381E02DB201CE010995AF
:102B2000E881F9810680F781E02DD6014C91D8012A
:102B30006C91CE01099531100AC0E881F9810084B9
:102B4000F185E02DD7014C916A81CE010995BFEF47
:102B5000CB1ADB0AEFEFEE1AFE0AE614F70409F0CF
:102B6000BDCFF801229681918993C615D705D9F773
:102B7000DF91CF911F910F91FF90EF90DF90CF9059
:102B8000BF90AF909F908F907F906F905F904F908D
:102B90003F9008950F931F93CF93DF93EC018A81A9
:102BA0008170F8019081292F2170821771F0E881DE
:102BB000F98190FF04C00680F781E02D03C00480F6
:102BC000F581E02DB801CE0109958A818695817045
:102BD000F801908191FB222720F9821771F0E8819A
:102BE000F98191FF04C00284F385E02D03C00084C5
:102BF000F185E02DB801CE0109958A8182FB8827F5
:102C000080F9F801908192FB222720F9821771F058
:102C1000E881F98192FF04C00684F785E02D03C0A6
:102C20000484F585E02DB801CE010995F801818174
:102C3000811103C08281882341F0E881F9810280FB
:102C4000F381E02DB801CE010995F80180818A83D6
:102C5000DF91CF911F910F910895089508950895E0
:102C60000895089508950895089508950895CF93B7
:102C7000DF93EC018A819B81DC01ED91FC91048062
:102C8000F581E02D6A8509958A85813439F4EA81D8
:102C9000FB81EA58FF4F8081846080831A861B86FF
:102CA0001C861D861E861F86188A80E0DF91CF91C4
:102CB000089581E0693009F080E00895FC01828583
:102CC0000895CF92DF92EF92FF920F931F93CF93CD
:102CD0008C01C62F7A01FA0180819181A281B38192
:102CE0008130F3E09F07F1E0AF07B105E1F060F458
:102CF0008115E1E09E07AE07B10569F18130914091
:102D0000A140B10581F08FC0833021E0920720E11E
:102D1000A207B10509F468C083309340A041B10512
:102D200009F462C080C08091980281117CC04C2F50
:102D300061E1C8010E9426124C2F60E1C8010E9487
:102D400026124C2F64E0C8010E947A1281E0809321
:102D5000980281EB69C0462F61E1C8010E942612EA
:102D60004C2F60E1C8010E94261210929802D801EF
:102D70001A968C911A978770C770880F880F880FE2
:102D8000C82B1296ED90FC901397CC2309F44BC0FE
:102D90006701B6E5CB0ED11C00E010E0F601819191
:102DA00091916F010097D1F0DC01ED91FC910084CD
:102DB000F185E02D09958C1311C0055D1F4F000FA3
:102DC000111FF701E00FF11F80819181DC01ED916E
:102DD000FC910480F581E02D099525C00F5F1F4F00
:102DE00000311105D9F61FC04C2F64E1C8010E94C3
:102DF00026124C2F60E1C8010E94261264E170E0A7
:102E000080E090E00E94BB0EF8016285D701119628
:102E10002C912695217067704C2F828193810E949E
:102E200010141092980280E0CF911F910F91FF90A3
:102E3000EF90DF90CF900895CF92DF92FF920F93A3
:102E40001F93CF93DF9300D000D0CDB7DEB78C01B6
:102E5000F62E19821A821B821C82462F61E10E9483
:102E600026124F2D60E1C8010E9426124F2D64E00A
:102E7000C8010E947A1283E0C82ED12CAE014F5FA8
:102E80005F4F6F2DC8010E944F128823E1F04F2D34
:102E900064E1C8010E9426124F2D60E1C8010E9422
:102EA000261264E170E080E090E00E94BB0E0F907B
:102EB0000F900F900F90DF91CF911F910F91FF9086
:102EC000DF90CF90089589819A81AB81BC819D7FED
:102ED00083309140A041B105D1F264E670E080E01A
:102EE00090E00E94BB0E81E0C81AD10839F6CFCF1E
:102EF000DF92EF92FF920F931F93CF93DF93CDB7A3
:102F0000DEB72E970FB6F894DEBF0FBECDBFFC0123
:102F10002089211102C010E07FC07C010E94E10ED7
:102F2000F7010485158526853785DC01CB01801BDB
:102F3000910BA20BB30BB7FDEECF81E090E09E8723
:102F40008D878E010F5F1F4F9E01235F3F4F41E032
:102F50006285828193810E94181181114FC001E026
:102F600082E0D82E89818D21C1F019861A861B86B0
:102F70001C86AE01475F5F4F602FC7010E944F1252
:102F800081110BC0AE01475F5F4F602FC7010E94E8
:102F90006116813B89F1811131C0DD0C0F5F083072
:102FA00009F701E0F7018385801730F119861A8649
:102FB0001B861C86AE01475F5F4F602FC7010E94D2
:102FC0004F12811117C089859A8587709170813061
:102FD000914081F48B859C8581609C878B87AE01B5
:102FE000475F5F4F602FC7010E946116813B21F050
:102FF000811104C00F5FD6CF10E001C0182F0E94CE
:10300000E10EDC01CB018C599F4FAF4FBF4FF70151
:1030100084879587A687B787812F2E960FB6F89459
:10302000DEBF0FBECDBFDF91CF911F910F91FF90FB
:10303000EF90DF9008958F929F92AF92BF92CF92C0
:10304000DF92EF92FF920F931F93CF93DF93862E21
:10305000942E59010E94E10E6B017C0128E8C20EFA
:1030600023E1D21EE11CF11C00E010E0D0E0C0E042
:1030700098280E94E10EDC01CB018C199D09AE0954
:10308000BF09B7FF2DC0692D80EF0E9442130E9437
:10309000E10EDC01CB018C199D09AE09BF09B7FF18
:1030A00009C088EC0E94F81387FFF1CF60E888EC34
:1030B0000E94421388EF0E94F813C82FCF70C430CB
:1030C00019F0CE3051F00CC00F5F1F4FA114B104A6
:1030D00081F20A151B0569F603C0DF5FD33049F69C
:1030E0008C2FDF91CF911F910F91FF90EF90DF9088
:1030F000CF90BF90AF909F908F9008953F924F9246
:103100005F926F927F928F929F92AF92BF92CF9277
:10311000DF92EF92FF920F931F93CF93DF93CDB780
:10312000DEB7E8970FB6F894DEBF0FBECDBFDC0167
:103130001296AD90BC9013971A963C913111F7C03E
:10314000922E342E862E3C01D501ED91FC910190FA
:10315000F081E02D60E0C50109957C01009709F43C
:10316000E9C0FC01C080D180C114D10409F4E5C0DC
:1031700083010C5F1F4F118300839482CE0101965F
:103180002C019C0148E050E060E0D30112968D9143
:103190009C9113970E947F11F70114828111D6C070
:1031A00099808D81893009F0CBC0D501ED91FC91DA
:1031B0000280F381E02D232D41E0682DC5010995A2
:1031C000F3018287882309F4BEC098859583682F10
:1031D000828193810E944F11882E882391F0D7011C
:1031E000CD92DC92D501ED91FC910480F581E02D2A
:1031F000D3011A966C91C5010995F3011286F82C3A
:10320000A9C0492D413208F040E2D701CD92DC92AD
:1032100041110BC0980142E0F301628582819381E4
:103220000E944220811195C00FC050E09201D3014D
:103230001A966C911A9712968D919C9113970E94F1
:103240007F11811186C0E6CF1F921F925F924F922D
:1032500058E0852E912C68E0A62EB12CC12CD12CE3
:1032600079E2E72E00E026E040EAF3016285828100
:1032700093810E94341BF82E0F900F900F900F90A7
:10328000811168C08B81D3011B968C931B9782019F
:1032900020E048E050E01A966C911A9712968D91B2
:1032A0009C9113970E94A311811153C04B815C81A3
:1032B00020E0F3016285828193810E94A311811134
:1032C00048C0498150E08E010F5D1F4F20E0D301BF
:1032D0001A966C911A9712968D919C9113970E9451
:1032E000A311811136C04E81F301628582819381E1
:1032F0000E941D2081112DC011E0D3011B968C91DD
:103300001B97811738F0412F68E0C3010E947A12A1
:103310001F5FF3CF1296ED91FC911397EA58FF4F80
:1033200080818460808381E050968C9313C049ED46
:10333000F42E10C036EDF32E0DC027EDF22E0AC08C
:1033400091EDF92E07C084EDF82E04C0F701D1826B
:10335000C082F82E8F2DE8960FB6F894DEBF0FBE10
:10336000CDBFDF91CF911F910F91FF90EF90DF9034
:10337000CF90BF90AF909F908F907F906F905F9015
:103380004F903F900895CF93DF93FC01EA01808135
:103390009181892B19F580E027C028813981232B61
:1033A000D1F3DB012D913C91D9019C91A381B0E037
:1033B000A81BB10920813181A20FB31F9C93828188
:1033C0008150828388819981019799838883DB0169
:1033D0008D919C91119701968D939C93828181117F
:1033E000DCCF8381828381E0DF91CF9108952F929A
:1033F0003F924F925F926F927F928F929F92AF9285
:10340000BF92CF92DF92EF92FF920F931F93CF93D1
:10341000DF9300D000D01F92CDB7DEB75C017D8373
:103420006C834A017901F901C080D180FB014180A0
:10343000F90111821082FB01828181FD02C060E1ED
:1034400001C060E288EE0E9442133C2C9401EC81A2
:10345000FD81408160E0C5010E941B18582EF6E0F6
:103460008F1316C088EF0E94F8138295817091E047
:103470008927EC81FD81928180FB91F9928391FDF6
:1034800002C060E101C060E288EE0E944213DECF1C
:1034900081115BC088EC0E94F81382FF54C080E366
:1034A0000E94F813282E282F30E0C216D30608F405
:1034B000232CF70120813181622C712CA601421B43
:1034C000530B57FF02C040E050E0930146155705EB
:1034D0000CF49A0129833A832B830E94CD08F8E0EB
:1034E000FEBD8B813A8129810DB407FEFDCFF80125
:1034F000882341F01EBC81500DB407FEFDCF4EB5B0
:103500004193F6CF020F131F0E94CF0864E088ECAE
:103510000E944213F70120813181620E731E718275
:103520006082241420F06C147D0408F48FCF88EF9F
:103530000E94F81382958170EC81FD81928180FB5D
:1035400091F9928302C080EF582E852D0F900F9035
:103550000F900F900F90DF91CF911F910F91FF90DF
:10356000EF90DF90CF90BF90AF909F908F907F9023
:103570006F905F904F903F902F9008958F929F9201
:10358000BF92CF92DF92EF92FF920F931F93CF9350
:10359000DF931F92CDB7DEB74C01B62E6901498388
:1035A0000E9400117C014981009709F44BC0DC01A5
:1035B000ED91FC911197309709F446C013969C91B8
:1035C00080E0891731F02081241729F033968F5F2E
:1035D000F8CFE0E0F0E0D601ED93FC933097B1F145
:1035E00022812695269530E02031310514F02FE018
:1035F00030E081E090E0A0E0B0E004C0880F991FC7
:10360000AA1FBB1F2A95D2F70197F80191838083E7
:103610006B2D80EE0E94421388ED0E94F813682FF4
:10362000D70114968C91882339F0F401EA58FF4FA2
:1036300080818260682B01C0697F88ED0E944213FF
:1036400080E005C086ED03C087ED01C08BED0F90D3
:10365000DF91CF911F910F91FF90EF90DF90CF906E
:10366000BF909F908F9008952F923F924F925F92BC
:103670006F927F928F929F92AF92BF92CF92DF9282
:10368000EF92FF920F931F93CF93DF93CDB7DEB7E7
:1036900067970FB6F894DEBF0FBECDBF3C01542E26
:1036A000422E302E2E2CECA4FDA4188A1F861E86D6
:1036B0001D868E01035F1F4F9E01215F3F4F40E03B
:1036C0000E94BE1A81115DC159824A823B822C82BE
:1036D000DE82CD82B886AF82AE014F5F5F4F68E079
:1036E00080E20E9418132D853E8540E060E1C30111
:1036F0000E941B18182F8111EDC0452C441C442436
:10370000441CE114F10409F4D6C0CF84D8884420C5
:1037100009F455C0D60112968C91129782601296C8
:103720008C93650155245394C114D10409F443C00A
:103730009C868B864D855E856F85788987019E0185
:10374000255F3F4FC3010E94F719182F863079F487
:103750002F84388888EF0E94F81385FB882780F92A
:103760008525F101928180FB91F99283DDCF811152
:10377000B1C02EA53FA521153105A1F0D901ED91CC
:10378000FC9111970190F081E02DC5018C199D09E4
:103790009A8789876B857C859E01275F3F4FA701AC
:1037A000CD0109958B859C85C81AD90A881599057C
:1037B00008F0BACF80C0112309F482C08BC0F60193
:1037C0008281816082832D853E853A8B298B218081
:1037D0008FEF820D803408F07BC00E94E10E9B01C8
:1037E000AC0128573C4E4F4F5F4F2B8B3C8B4D8B82
:1037F0005E8BD60112968C9180FD02C060E401C000
:1038000060E888EE0E944213312C81149104D9F1B2
:1038100054012814390408F45101AF8AA7016A2D14
:1038200080E10E9418136A2D88E30E944213F6017A
:103830006081606280EF0E94421388EC0E94F8135E
:1038400087FFFBCF60E888EC0E94421388EF0E945C
:10385000F813182F1F70412C512C00E0112371F028
:103860000E94E10EDC01CB012B893C894D895E89E8
:10387000821B930BA40BB50BB7FD2EC08A189B08B7
:10388000EA0CFB1CC2CF112321F060E088E30E9408
:10389000421388EF0E94F81385FB882780F9D60130
:1038A00012969C91129780FB90F912969C9311238B
:1038B00009F463C00FC02D853E85411003C05FC071
:1038C0002D853E8560EA40E0C3010E941B1859C067
:1038D0008AED57C0812F55C01630D1F588EF0E9470
:1038E000F81385FB882780F931E08327D6011296EB
:1038F0009C91129780FB90F912969C9390FD02C0C8
:1039000060E401C060E888EE0E94421360E088E352
:103910000E944213F701608180E10E9442136F8987
:1039200088E30E944213D6016C91606280EF0E948E
:10393000421388EC0E94F81387FFFBCF60E888EC05
:103940000E94421388EF0E94F813182F1F7086CF31
:103950001E3021F40F5F0330C9F697CF143009F001
:1039600094CFFFEF4F1A5F0A29893A892115310553
:1039700069F24216530651F688CF2D853E8560E8E0
:10398000A2CF67960FB6F894DEBF0FBECDBFDF9112
:10399000CF911F910F91FF90EF90DF90CF90BF904C
:1039A000AF909F908F907F906F905F904F903F90DF
:1039B0002F9008958F929F92AF92BF92CF92DF92F5
:1039C000EF920F931F921F927F936F93882483949B
:1039D000912CAA24A394B12CC12CD12C42E0E42E2A
:1039E00000E029E041E2FC016681848195810E942A
:1039F000341B0F900F900F900F900F91EF90DF906E
:103A0000CF90BF90AF909F908F90089588EF0E94C5
:103A1000510F807C8034A1F018F4882301F10895BF
:103A2000803819F0803CB9F0089588ED0E94510F5C
:103A300081FD0BC069EC88ED0E94370F82E00CC05D
:103A400088ED0E94510F81FDF5CF6BEC88ED0E944F
:103A5000370F83E001C081E080939902089561ED02
:103A600088ED0E94370F109299020895789484B5DA
:103A7000826084BD84B5816084BD85B5826085BD6A
:103A800085B5816085BD80916E00816080936E00F8
:103A900010928100809181008260809381008091EA
:103AA000810081608093810080918000816080939B
:103AB00080008091B10084608093B1008091B0005B
:103AC00081608093B00080917A00846080937A0056
:103AD00080917A00826080937A0080917A00816080
:103AE00080937A0080917A00806880937A001092A7
:103AF000C10080E091E090935A03809359030E94A3
:103B000056090E9432098EE00E9428098FE00E9427
:103B1000280982E00E948A0983E00E948A09809134
:103B200069008C6080936900E998E19A229A0E946A
:103B3000CF08259A239A2498229A80E58CBD81E0AB
:103B40008DBD219868E188E80E94370F60E288E720
:103B50000E94370F60E088E70E94370FC1E0D0E095
:103B6000209709F4E6C188E60E94510F219680FF54
:103B7000F7CF61EC88ED0E94370F60E680ED0E9480
:103B8000370F64E088EE0E94370F88EE0E94510FD5
:103B900082FFFBCF0E94061D60E288EC0E94370F77
:103BA00061E080E80E94370F68EC70E080E090E010
:103BB0000E94BB0E2DE433E03093A00320939F03BB
:103BC00085E493E09093A2038093A1033093830351
:103BD00020938203909369038093680383E1582EB6
:103BE00091E1692EFF24F39420E5E22E30E9D32EF3
:103BF00040EAC42E50E8B52E61E5A62E70E4972E5B
:103C0000E0E38E2EF2E17F2E19990DC088EC0E9420
:103C1000F81385FF04C00E94061D60E201C060E049
:103C200088EC0E94421380919902813041F050F05B
:103C3000823081F0833041F5442443940CC050928B
:103C4000440322C080914403807F8031E9F0609278
:103C500044031AC0412C80914403807F8031A9F431
:103C60000E94E10EDC01CB0188539F4FAF4FBF4F45
:103C70008093920290939302A0939402B093950242
:103C800080E28093440301C0412CC4E0D4E08E0163
:103C9000D8018D919D918D01009739F0DC01ED9156
:103CA000FC910680F781E02D0995B4E004321B07F2
:103CB00079F780914403803409F442C050F4803293
:103CC00021F18033B1F1813109F087C010922404D1
:103CD0000AC0813509F45BC0803809F46CC08035B6
:103CE00009F07BC03DC089919991009739F0DC01C2
:103CF000ED91FC910480F581E02D0995B4E0C4328A
:103D0000DB0789F77092440368C00E94E10E0091BE
:103D10009202109193022091940230919502DC015D
:103D2000CB01801B910BA20BB30BB7FD56C0809249
:103D3000440361E088EE0E944213909244034DC018
:103D400088EE0E94F81380FD48C088ED0E94F813A9
:103D5000682F686088ED0E944213E09244033DC0E2
:103D600088EC0E94F81386FF38C0A09244030E949A
:103D7000E10EDC01CB014496A11DB11D809392029E
:103D800090939302A0939402B093950226C00E9450
:103D9000E10E0091920210919302209194023091D1
:103DA0009502DC01CB01801B910BA20BB30BB7FD7D
:103DB00014C0B0924403242D40E060E08EEA93E00A
:103DC0000E941014882339F0823D39F080939102CB
:103DD000C092440302C0D0924403C0914B03D091DF
:103DE0004A0310914C030D2F101654F48091710268
:103DF00081508370809371020E9456090150F4CF64
:103E00008D2FD7FD80E0D81BDD2351F0809171020A
:103E10008F5F8370809371020E945609DF5FF4CF39
:103E2000DC2F1D1654F4809170028F5F8370809395
:103E300070020E943209D150F4CF8C2FC7FD80E070
:103E4000C81BCC2351F08091700281508370809305
:103E500070020E943209CF5FF4CF8EE010FF03C0E2
:103E60000E941E0902C00E9428098FE011FF03C0B2
:103E70000E941E0902C00E94280910924A03109253
:103E80004B0380910201811124C00E94E10E009138
:103E90008402109185022091860230918702DC0114
:103EA000CB01801B910BA20BB30B80399105A105AF
:103EB000B10578F00E94360A0E94E10E60938402F8
:103EC000709385028093860290938702F092970206
:103ED0002DC080910201882349F1809197028130A1
:103EE00039F489EF0E94560A82E0809397021EC03F
:103EF000823039F4809196020E94560A10929702FD
:103F000015C02091830280918202281779F030E059
:103F1000F901EE58FD4F8081809396022F5F3F4F4D
:103F20002F703327209383020E94560A0E940210AA
:103F30006BCE61E08DE00E947F0E61E08DE00E941B
:103F4000330E64EF71E080E090E00E94BB0E60E011
:103F50008DE00E94330E64EF71E080E090E00E94FB
:103F6000BB0EEBCF8F929F92AF92BF92CF92DF9218
:103F7000EF920F93CF93DF93CDB7DEB7C054D10943
:103F80000FB6F894DEBF0FBECDBF5F934F939E0177
:103F90002F5F3F4F3F932F9320E4822E912C30E8E8
:103FA000A32EB12C6B0142E2E42E00E026E041E8B2
:103FB000FC016681848195810E94341B0F900F90D3
:103FC0000F900F90C05CDF4F0FB6F894DEBF0FBEAE
:103FD000CDBFDF91CF910F91EF90DF90CF90BF9049
:103FE000AF909F908F9008958F929F92AF92BF92C3
:103FF000CF92DF92EF920F93C62ED12C1F921F9279
:104000001F921F92812C912CA12CB12CE12C00E04D
:104010002AE041E2FC016681848195810E94341B83
:104020000F900F900F900F900F91EF90DF90CF9027
:10403000BF90AF909F908F9008958F929F92AF9274
:10404000BF92CF92DF92EF920F931F921F921F9217
:104050001F92812C912CA12CB12CC12CD12CE12CA4
:10406000042F29E040E00E94341B0F900F900F9026
:104070000F900F91EF90DF90CF90BF90AF909F90F7
:104080008F9008950F931F93CF93DF9321153105E0
:1040900071F0E901042F162F0E940011FC01892BF9
:1040A00041F01283D183C083038380E003C088ED95
:1040B00001C086EDDF91CF911F910F9108958F92EE
:1040C0009F92AF92BF92CF92DF92EF920F93C62E44
:1040D000D12C1F921F921F921F92812C912CA12CE8
:1040E000B12CE12C042F2BE041E2FC01668184819C
:1040F00095810E94341B0F900F900F900F900F919D
:10410000EF90DF90CF90BF90AF909F908F900895E9
:104110000F931F93CF93DF931092250310922403E4
:1041200088EE93E0A0E0B0E080932603909327030D
:10413000A0932803B09329038DEA91E09093230381
:10414000809322038EED92E090932F0380932E03B1
:104150008AE992E0909331038093300385EC90E0FC
:10416000909333038093320384EC90E09093350373
:104170008093340380EC90E0909337038093360370
:1041800081EC90E0909339038093380382EC90E0C7
:1041900090933B0380933A0386EC90E090933D0329
:1041A00080933C0384E080933E0383E080933F034D
:1041B00087E08093400385E08093410381E0809312
:1041C000420329E632E03093AF032093AE0310920E
:1041D000B3031092B6038093B7031092B80380EB39
:1041E00093E09093B5038093B4031092B00388E0FA
:1041F0008093B1038CE38093B20380E090E041E0D0
:1042000020EB33E0FC01E255FC4F1586D1E04687F8
:1042100017863487238705968B34910599F70EEA24
:1042200013E01092240481E18093440383E592E03B
:104230009093260480932504109328040093270468
:1042400010922F0410923004109231041092320414
:104250001092330410923404109235041092290401
:10426000C8E0C0932A048CE380932B04D0932C04E1
:10427000C0932D0484E080932E0465E274E0C801AD
:104280000E94030910939403009393038FE292E03A
:104290009093900380938F038DE492E09093920328
:1042A000809391031092A7031092A8031092A90380
:1042B0001092AA031092AB031092AD0310929603D2
:1042C000C09397038CE38093980310929903109204
:1042D0009A0384E080939B0310929C0310929D03A9
:1042E00080939E03D093A6031092A5031092A3037C
:1042F0001092A00310929F031092A2031092A103A8
:104300006FE873E0C8010E94030910937A030093D9
:1043100079038BE092E0909376038093750389E2B2
:1043200092E0909378038093770310928803109221
:10433000890310928A0310928B0310928C031092BF
:104340008E0310927C03C0937D038CE380937E03E5
:1043500010927F031092800384E080938103D093B6
:1043600087031092860310928403109283031092A5
:10437000820365E773E0C8010E940309109360039C
:1043800000935F0387EE91E090935C0380935B035F
:1043900085E092E090935E0380935D0310926E033C
:1043A00010926F03109270031092710310927203B7
:1043B0001092740310926203C09363038CE38093A2
:1043C0006403109265031092660384E08093670390
:1043D000D0936D0310926C0310926A0310926903DC
:1043E000109268036BE573E0C8010E940309109204
:1043F000570381ED91E090934E0380934D0310920B
:10440000580310925A0310925903E5E4F3E085E053
:10441000DF011D928A95E9F78DEB91E090934603B9
:104420008093450310924A0310924B0310924C0361
:10443000DF91CF911F910F910895F8940C9426224B
:10444000EE0FFF1F0590F491E02D0994F894FFCF33
:10445000A101016360646663616567FFFFFFFF2080
:10446000353322122324251726272837361819100A
:104470001321141634113215310102030405060705
:1044800008090A44454142400B0C1A1BFF0D292A1A
:104490000038393A62505152535455565758592B97
:1044A00030FFFFFF5FFF5A46FF5B4E4F4D4CFF5CF6
:1044B0005D4A5E431D1E1F2D2E2F3D3E3F0F3C309B
:1044C00067FFFFFFFFFFFFFFFFFFFFFFFFFFFFFF94
:1044D000FFFFFFFFFFFFFFFFFFFFFF0000000006E1
:1044E0000D00000000E30B00000000C00A00000007
:1044F00000A10800000000BF0A00000000690F06CC
:1045000010F20FB60FD60FAB0F00000000CA154314
:104510000239023E022F02340225022A0200000064
:10452000003C152D04E2097202A0095A02570254F8
:104530000251020000000035072102D801BF03D557
:10454000011A021802D001CB01C301F301C0017DA1
:1045500001FEFF0000B60100000000CA0521026252
:104560000151035F011A0218025A0155014D01FC65
:10457000014A010701FEFF00004001000000006445
:10458000042102EC00BF02E9001A021802E400DF75
:1045900000D7000502D4009B00FEFF0000290E009A
:1045A0000000007E182102371678175E161C1718B7
:1045B0000259161402000000000011A4107C100023
:00000001FF
