:100000000C9471000C9499000C94471D0C94990069
:100010000C94321D0C9499000C9499000C94990046
:100020000C9499000C9499000C9499000C94B51BB5
:100030000C9499000C9499000C9499000C949900DC
:100040000C946B1B0C9499000C94391B0C94131B8F
:100050000C9499000C9499000C9499000C949900BC
:100060000C9499000C94990021402324255E262AA3
:1000700028295F2B7B7D7C7E3A227E3C3E3F2D3DB6
:100080005B5D5C203B27602C2E2F2F2A2D2B13002D
:10009000000000250028002B0000000008000201DD
:1000A0000000030407000000000000000000000042
:1000B00000240027002A00010204081020408001CB
:1000C000020408102001020408102004040404049F
:1000D00004040402020202020203030303030300F6
:1000E000721D11241FBECFEFD8E0DEBFCDBF24E0CC
:1000F000AAE6B2E001C01D92AE32B207E1F712E00B
:10010000A0E0B1E0E6EDF4E402C005900D92AA365D
:10011000B107D9F710E0C1E7D0E004C02197FE0194
:100120000E945C22C037D107C9F70E94EF1E0C94D1
:1001300069220C9400008CBD9DBD0895FC01538D77
:10014000448D252F30E0842F90E0821B930B5417B1
:1001500010F0CF96089501970895FC01918D828D3E
:10016000981761F0A28DAE0FBF2FB11D5D968C91D7
:10017000928D9F5F9F73928F90E008958FEF9FEF16
:100180000895FC01918D828D981731F0828DE80FD2
:10019000F11D858D90E008958FEF9FEF0895FC018C
:1001A000918D228D892F90E0805C9F4F821B910959
:1001B0008F7399270895FC01A48DA80FB92FB11D45
:1001C000A35ABF4F2C91848D90E001968F7399278D
:1001D000848FA689B7892C93A089B1898C9183706B
:1001E00080648C93938D848D981306C00288F38964
:1001F000E02D80818F7D80830895EF92FF920F9391
:100200001F93CF93DF93EC0181E0888F9B8D8C8DC2
:1002100098131AC0E889F989808185FF15C09FB7B6
:10022000F894EE89FF896083E889F9898081837079
:10023000806480839FBF81E090E0DF91CF911F9128
:100240000F91FF90EF900895F62E0B8D10E00F5F49
:100250001F4F0F731127E02E8C8D8E110CC00FB61F
:1002600007FCFACFE889F989808185FFF5CFCE01B7
:100270000E94DB00F1CFEB8DEC0FFD2FF11DE35A57
:10028000FF4FF0829FB7F8940B8FEA89FB8980813A
:100290008062CFCFCF93DF93EC01888D8823B9F0B4
:1002A000AA89BB89E889F9898C9185FD03C0808181
:1002B00086FD0DC00FB607FCF7CF8C9185FFF2CFFE
:1002C000808185FFEDCFCE010E94DB00E9CFDF9179
:1002D000CF91089580EA92E00E94CF0021E0892B1F
:1002E00009F420E0822F089580E090E0892B29F026
:1002F0000E946A0181110C9400000895AF92BF9290
:10030000CF92DF92EF92FF920F931F93CF93DF93E1
:100310006C017B018B01040F151FEB015E01AE1810
:10032000BF08C017D10759F06991D601ED91FC9132
:100330000190F081E02DC6010995892B79F7C5015F
:10034000DF91CF911F910F91FF90EF90DF90CF90B1
:10035000BF90AF90089590E0FC01E756FF4F2491C5
:10036000FC01E954FF4F3491FC01E553FF4FE49148
:10037000EE23C9F0222339F0233001F1A8F4213013
:1003800019F1223029F1F0E0EE0FFF1FE157FF4F86
:10039000A591B4918FB7F894EC91611126C0309576
:1003A0003E233C938FBF08952730A9F02830C9F031
:1003B000243049F7809180008F7D03C080918000B8
:1003C0008F7780938000DFCF84B58F7784BDDBCFBC
:1003D00084B58F7DFBCF8091B0008F778093B00084
:1003E000D2CF8091B0008F7DF9CF3E2BDACFCF9363
:1003F000DF9390E0FC01E954FF4F249185539F4F18
:10040000FC0184918823D1F090E0880F991FFC01B2
:10041000E355FF4FA591B491FC01E157FF4FC59102
:10042000D49161110EC09FB7F8948C91E22FE095A2
:100430008E238C932881E223E8839FBFDF91CF91A5
:1004400008958FB7F894EC91E22BEC938FBFF6CF21
:100450003FB7F8948091790290917A02A0917B0243
:10046000B0917C0226B5A89B05C02F3F19F00196DC
:10047000A11DB11D3FBFBA2FA92F982F8827BC01FE
:10048000CD01620F711D811D911D43E0660F771F25
:10049000881F991F4A95D1F708958F929F92AF9226
:1004A000BF92CF92DF92EF92FF924B015C010E94CC
:1004B00028026B017C010E9428026C197D098E09BB
:1004C0009F09683E734081059105A8F321E0821AD7
:1004D0009108A108B10888EEC80E83E0D81EE11C7F
:1004E000F11C81149104A104B10429F7FF90EF904D
:1004F000DF90CF90BF90AF909F908F9008952FB7CF
:10050000F8946091750270917602809177029091D3
:1005100078022FBF0895CF93DF93EC018A819B81EE
:10052000DC01ED91FC910480F581E02D6A8509954F
:100530008A85813439F4EA81FB81EA58FF4F808152
:10054000846080831A861B861C861D861E861F86F5
:10055000188A80E0DF91CF91089581E0693009F039
:1005600080E00895FC01828508950F931F93CF9337
:10057000DF93FC018B01EA0180819181892B31F1AC
:100580009281992349F128813981232BF9F0D801EF
:100590002D913C91D9014C918381682F691B770B78
:1005A00080819181860F971FDC014C93828181505D
:1005B000828388819981019799838883D8018D915D
:1005C0009C91119701968D939C93DACF80E0DF91F7
:1005D000CF911F910F9108958381828381E0F7CF9E
:1005E0002F923F924F925F926F927F928F929F9243
:1005F000AF92BF92CF92DF92EF92FF920F931F9331
:10060000CF93DF9300D000D01F92CDB7DEB7D801D3
:1006100012962C911297213009F484C02B019D83EE
:100620008C83FC0162814C91641739F00190F08158
:10063000E02D0480F581E02D09953801B2E06B0EC4
:10064000711C8C809D80E4E08E0E911C6801C801B5
:1006500008969B838A83540173012C803D809AE025
:10066000290E311CD7014D917D01F50191915F015A
:10067000D301F401198280E02191421303C041307B
:1006800009F081E02D91291304C0913011F021E08F
:100690002983E215F30581F781111AC0AC81BD8170
:1006A000ED91FC9111970280F381E02DB201CD0113
:1006B0000995AC81BD81ED91FC910680F781E02D1B
:1006C000D70111974C91D8016C918C819D8109952E
:1006D000B981B11111C0AC81BD81ED91FC91008453
:1006E000F185E02DD50111974C91AC81BD81129619
:1006F0006C911297CD010995EA81FB81EE16FF06F8
:1007000009F0B0CF8C819D8102969B838A83D601AC
:100710008D916D01EA81FB818193FB83EA83AE15A4
:10072000BF05A9F70F900F900F900F900F90DF91DA
:10073000CF911F910F91FF90EF90DF90CF90BF90DE
:10074000AF909F908F907F906F905F904F903F9071
:100750002F9008950F931F93CF93DF93EC018A811D
:100760008170F8019081292F2170821751F0E88162
:10077000F98190FF46C00680F781E02DB801CE01D7
:1007800009958A8186958170F801908191FB2227D5
:1007900020F9821751F0E881F98191FF36C0028477
:1007A000F385E02DB801CE0109958A8182FB882767
:1007B00080F9F801908192FB222720F9821751F0ED
:1007C000E881F98192FF25C00684F785E02DB80104
:1007D000CE010995F8018181811103C082818823AE
:1007E00041F0E881F9810280F381E02DB801CE016A
:1007F0000995F80180818A83DF91CF911F910F9134
:1008000008950480F581E02DB9CF0084F185E02DB5
:10081000C9CF0484F585E02DDACFDF92EF92FF9205
:100820000F931F93CF93DF93EC0185E0E62EF12C1D
:10083000FE01869FE00DF11D1124908596FF24C0D6
:10084000192F177001E085E0D82E8FEF800F8F30C1
:1008500008F001E0602F70E0062FD69EF001D79ED1
:10086000F00D1124EC0FFD1F8085869586958695E9
:100870008770181701F16F5F7F4F603168F38D81CA
:10088000811302C011501D8385E08E9DF0018F9D64
:10089000F00D1124EC0FFD1F108681E08187128678
:1008A0002296D783C683DF91CF911F910F91FF903E
:1008B000EF90DF900895CE010E940D04C6CFFC0199
:1008C00020812EBD9B012150310941F051810DB491
:1008D00007FEFDCF4EB55EBD4193F5CF6150710966
:1008E000860F971F0DB407FEFDCF2EB5FC012083A8
:1008F0000895FC0121E0613499F49C01255B3F4F90
:1009000061E0AC014E5F5F4F15866687178654879E
:10091000438735962E173F07B9F7FC0115820895D6
:100920003585631729F02F5F35962031C9F7089573
:10093000622F0C940D04CF93DF93FC0167FD12C06E
:10094000283080F4442319F08581873059F0EF0175
:10095000A1E0B0E08D85882349F111962596A0315C
:10096000B105C1F780E018C085E08A9FE0018B9F48
:10097000D00D1124CE0FDF1F442389F081E4888736
:1009800085818F5F858325E02A9FC0012B9F900D75
:100990001124E80FF91F8085DF91CF91089581E040
:1009A0008887F1CF2770687B622B0FC06623E1F246
:1009B0006770660F660F660F4423A1F3606485813C
:1009C0008F5F85838770687F682B25E02A9FC00131
:1009D0002B9F900D1124E80FF91F6087862FDCCF25
:1009E000FC0121E0611102C0069608953585631768
:1009F00039F02F5F35962031C9F790E080E00895F7
:100A0000069635E0239F800D911D112408950F93C4
:100A10001F93CF93DF932115310599F0E901042F3E
:100A2000162F0E94F004FC0186ED309729F0128306
:100A3000D183C083038380E0DF91CF911F910F9119
:100A4000089588EDF9CF81E00895FC0197819B7F9F
:100A500097830895FC019781946097830895FC0122
:100A600097819D7F97830895FC019781926097837A
:100A70000895FC0197819E7F97830895FC019781DB
:100A8000916097830895FC018581DB0111969C910B
:100A90001197890F8583868112969C91890F868391
:100AA00008958AE890E008958EE790E0089582E73F
:100AB00090E0089588E690E008950895EF92FF92FF
:100AC000CF93DF93FC01E7018789833021F1648BA9
:100AD000458B9B8193709330F1F49A8197FF1BC0F3
:100AE0002E81358D321708F4258F282F30E0D9015B
:100AF000AA0FBB1FA20FB31FAE0FBF1F9F70179689
:100B00009C9317979C8118969C93189794E019963C
:100B10009C938F5F878BDF91CF91FF90EF9008952B
:100B2000EF92FF920F9302970E945E050F91FF9044
:100B3000EF900895FC01848D089570E0685F7F4F09
:100B4000660F771F860F971FFC01808191810895A2
:100B500081E0633009F080E00895FC01868108950A
:100B6000CF93DF93EC018C819D81DC01ED91FC91B1
:100B70000480F581E02D6E8109951C8A1D8A81E033
:100B80008F8B1E82188E198E1A8E1B8E1C8E80E003
:100B9000DF91CF910895EF92FF92CF93DF93FC0105
:100BA000E7018289823021F16787408B9B819370B6
:100BB0009330F1F49A8197FF1BC02E81308D32174C
:100BC00008F4208F282F30E0D901AA0FBB1FA20FF5
:100BD000B31FAE0FBF1F9F7017969C9317979C81F2
:100BE00018969C93189794E019969C938F5F828B2C
:100BF000DF91CF91FF90EF900895EF92FF920F93C6
:100C000002970E94CB050F91FF90EF900895FC0191
:100C10008789089570E0660F771F860F971FFC0184
:100C200085859685089581E0613009F080E008951A
:100C3000FC0186810895CF93DF93EC018C819D8127
:100C4000DC01ED91FC910480F581E02D6E81099528
:100C50001F86188A81E08A8B1E821B8A1C8A1D8A45
:100C60001E8A1F8A80E0DF91CF910895EF92FF9254
:100C70000F9302970E94CB050F91FF90EF9008957C
:100C800081E0623009F080E00895CF93DF93EC01BA
:100C90008C819D81DC01ED91FC910480F581E02D3A
:100CA0006E8109951F86188A81E08A8B1E821B8AB5
:100CB0001C8A1D8A1E8A1F8A80E0DF91CF910895C9
:100CC0002A9808952A9A089570E0660F771F860F74
:100CD000971FFC015687458781E0089570E0685FA3
:100CE0007F4F660F771F860F971FFC01518340834C
:100CF00081E00895CF93DF93FC01DA01828188239C
:100D000059F0813069F081E023813481232B09F08F
:100D100080E0DF91CF9108953483238381E0828343
:100D2000838194810097B1F02D913C911197232BF1
:100D300051F3019794838383EB0188819981019614
:100D4000998388838D919C911197019711969C931B
:100D50008E93E6CF1282D7CF2F923F924F925F921F
:100D60006F927F928F929F92AF92BF92CF92DF92BB
:100D7000EF92FF920F931F93CF93DF9300D000D099
:100D8000CDB7DEB76C017A8369835C834B832C011A
:100D900082E1480E511C83E0282E5601A7E0AA0EDE
:100DA000B11C12E0332433944601B0E18B0E911C48
:100DB0003601EBE06E0E711C29813A812115310557
:100DC00009F4D4C0D60190968C918230F1F0B0F540
:100DD000882309F45AC0813089F7AE014F5F5F4F15
:100DE000BE016D5F7F4FC5010E94B502882309F4E3
:100DF000BDC0D6011596ED91FC9116978081919614
:100E00008C939197818192968C93F60156824582BC
:100E100020A2D60192968C919297843011F49396E9
:100E20001C92F60181A1825084832581368130870E
:100E300027838287818784E080A305C0833049F3BC
:100E4000843009F0BBCFD60192968C91843039F171
:100E5000853009F44FC0823009F079C0AE014F5F90
:100E60005F4FBE016D5F7F4FC5010E94B5028823B1
:100E700009F47CC0F601858984A3D60116969C925C
:100E80008E92159790961C9297CFF60114838581C8
:100E90009681908787831287118730A29ECFAE01FB
:100EA0004F5F5F4FBE016D5F7F4FC5010E94B5026E
:100EB000882309F45BC0D60155968C9155978330F1
:100EC000E1F656968C9156978130B9F698969C919A
:100ED000989757968C91992351F0882371F2F601D7
:100EE00033A2928996A3938997A385A3C6CF833013
:100EF00021F6F5CFAE014F5F5F4FBE016D5F7F4FB3
:100F0000C5010E94B502882389F1D60193968C9180
:100F10009397882309F4B1CF12968D919C910097F5
:100F200009F4ABCFDC01ED91FC910190F081E02D53
:100F30007401D60195960C91959797962C91979759
:100F400096964C91969794966C91099596CFF6014A
:100F500021A12250330BAE014F5F5F4FBE016D5F89
:100F60007F4FC3010E947A06811187CF0F900F90A7
:100F70000F900F90DF91CF911F910F91FF90EF9005
:100F8000DF90CF90BF90AF909F908F907F906F90A9
:100F90005F904F903F902F9008952F923F924F92E5
:100FA0005F926F927F928F929F92AF92BF92CF92F9
:100FB000DF92EF92FF920F931F93CF93DF9300D0B6
:100FC00000D0CDB7DEB76C017A8369835C834B8335
:100FD0002C0182E1480E511C83E0282E5601A7E027
:100FE000AA0EB11C12E0332433944601B0E18B0EFB
:100FF000911C3601EBE06E0E711C29813A8121159E
:10100000310509F4D4C0D60190968C918230F1F06C
:10101000B0F5882309F45AC0813089F7AE014F5FDB
:101020005F4FBE016D5F7F4FC5010E94B5028823EF
:1010300009F4BDC0D6011596ED91FC9116978081FB
:1010400091968C939197818192968C93F60156821A
:10105000458220A2D60192968C919297843011F409
:1010600093961C92F60181A182508483258136815A
:10107000308727838287818784E080A305C08330FF
:1010800049F3843009F0BBCFD60192968C9184301D
:1010900039F1853009F44FC0823009F079C0AE01D2
:1010A0004F5F5F4FBE016D5F7F4FC5010E94B5026C
:1010B000882309F47CC0F601858984A3D60116969D
:1010C0009C928E92159790961C9297CFF60114835E
:1010D00085819681908787831287118730A29ECF62
:1010E000AE014F5F5F4FBE016D5F7F4FC5010E9434
:1010F000B502882309F45BC0D60155968C915597AB
:101100008330E1F656968C9156978130B9F69896D1
:101110009C91989757968C91992351F0882371F25E
:10112000F60133A2928996A3938997A385A3C6CF8C
:10113000813021F6F5CFAE014F5F5F4FBE016D5F8D
:101140007F4FC5010E94B502882389F1D60193968D
:101150008C919397882309F4B1CF12968D919C912D
:10116000009709F4ABCFDC01ED91FC910190F08187
:10117000E02D7401D60195960C91959797962C9138
:10118000979796964C91969794966C91099596CFD1
:10119000F60121A12250330BAE014F5F5F4FBE011C
:1011A0006D5F7F4FC3010E947A06811187CF0F9038
:1011B0000F900F900F90DF91CF911F910F91FF90A3
:1011C000EF90DF90CF90BF90AF909F908F907F90E7
:1011D0006F905F904F903F902F9008952F923F9285
:1011E0004F925F926F927F928F929F92AF92BF9237
:1011F000CF92DF92EF92FF920F931F93CF93DF93E3
:1012000000D000D0CDB7DEB76C017A8369835C83F0
:101210004B832C0182E1480E511C83E0282E56019D
:10122000A7E0AA0EB11C12E0332433944601B0E1CA
:101230008B0E911C3601EBE06E0E711C29813A81F8
:101240002115310509F4D4C0D60190968C918230D5
:10125000F1F0B0F5882309F45AC0813089F7AE0166
:101260004F5F5F4FBE016D5F7F4FC5010E94B502AA
:10127000882309F4BDC0D6011596ED91FC9116970F
:10128000808191968C939197818192968C93F601AF
:101290005682458220A2D60192968C9192978430F4
:1012A00011F493961C92F60181A1825084832581CA
:1012B0003681308727838287818784E080A305C0B9
:1012C000833049F3843009F0BBCFD60192968C91DC
:1012D000843039F1853009F44FC0823009F079C08B
:1012E000AE014F5F5F4FBE016D5F7F4FC5010E9432
:1012F000B502882309F47CC0F601858984A3D60150
:1013000016969C928E92159790961C9297CFF60106
:10131000148385819681908787831287118730A2F5
:101320009ECFAE014F5F5F4FBE016D5F7F4FC50126
:101330000E94B502882309F45BC0D60155968C91B2
:1013400055978330E1F656968C9156978130B9F6D1
:1013500098969C91989757968C91992351F0882351
:1013600071F2F60133A2928996A3938997A385A37C
:10137000C6CF823021F6F5CFAE014F5F5F4FBE0181
:101380006D5F7F4FC5010E94B502882389F1D601A8
:1013900093968C919397882309F4B1CF12968D91EF
:1013A0009C91009709F4ABCFDC01ED91FC91019089
:1013B000F081E02D7401D60195960C919597979642
:1013C0002C91979796964C91969794966C91099537
:1013D00096CFF60121A12250330BAE014F5F5F4F34
:1013E000BE016D5F7F4FC3010E947A06811187CFD6
:1013F0000F900F900F900F90DF91CF911F910F9151
:10140000FF90EF90DF90CF90BF90AF909F908F9024
:101410007F906F905F904F903F902F90089580E065
:101420000895089580E0089508950F931F93CF9332
:10143000DF9300D0CDB7DEB7182F062F80E591E0FF
:101440000E949B000E946006126019830A8362E07A
:1014500070E0CE0101960E945F040E9462060F9028
:101460000F90DF91CF911F910F9108959F92AF92AE
:10147000BF92CF92DF92EF92FF920F931F93CF9381
:10148000DF936C01C42FD22F99249394E62EF12C74
:10149000EE0CFF1CE80EF91E86E5E80EF11CA42EEA
:1014A000B12CABE2AA0EB11CAA0CBB1CAC0CBD1C2F
:1014B000F70180819181DC01ED91FC910280F38143
:1014C000E02D202F4D2F6C2F0995182F803EC9F548
:1014D000C1112BC061E088EE0E94150A66E670E03B
:1014E00080E090E00E944D02F70180819181DC0153
:1014F000ED91FC910190F081E02D202F4D2F6C2F6C
:101500000995182F8D30D1F58FEF890D8330F8F0C4
:10151000C11137C061E088EE0E94150A66E670E0EE
:1015200080E090E00E944D021CC0F5018081918115
:10153000DC01ED91FC910284F385E02D6D2F09957E
:10154000D3CF8D3061F48FEF890D833050F464E692
:1015500070E080E090E00E944D029394A9CF882330
:1015600019F2812FDF91CF911F910F91FF90EF9092
:10157000DF90CF90BF90AF909F900895882389F31C
:10158000C7CF8C2F90E08B96880F991F8C0D9D1DD7
:10159000FC0180819181DC01ED91FC910284F38555
:1015A000E02D6D2F0995DDCF8EBD00000DB407FE37
:1015B000FDCF8EB50895FF920F931F93CF93DF93C6
:1015C000182FF62EEA0180E591E00E949B000E9410
:1015D0006006812F82600E94D40A0F2D10E0FF2048
:1015E00021F0B801CE010E945F04C00FD11F0E94FC
:1015F0006206CE01DF91CF911F910F91FF90089568
:10160000CF93C82F80E591E00E949B000E94600666
:101610008C2F0E94D40A80E00E94D40AC82F0E9416
:1016200062068C2FCF9108958F929F92AF92BF92B6
:10163000CF92DF92EF92FF920F931F93CF93DF939E
:10164000882E962E5A010E947F026B017C0128E8A9
:10165000C20E23E1D21EE11CF11C10E000E0D0E03C
:10166000C0E098280E947F026C197D098E099F09AD
:1016700097FF1EC0692D80EF0E94150A0E947F020D
:101680006C197D098E099F0997FF09C088EC0E949B
:10169000000B87FFF3CF60E888EC0E94150A88EF03
:1016A0000E94000BC82FCF70C43081F0CE30B9F04B
:1016B0008C2FDF91CF911F910F91FF90EF90DF90D2
:1016C000CF90BF90AF909F908F9008950F5F1F4F66
:1016D000A114B10439F20A151B0521F6E9CFDF5F29
:1016E000D33009F0BFCFE4CFAF92BF92CF92DF9259
:1016F000EF92FF920F931F93CF93DF93EC01B62EDF
:10170000A42E69010E94F0047C0186EDE114F1042D
:1017100009F447C0D701ED91FC91119787ED3097FF
:1017200009F43FC013969C9180E0981731F0208116
:10173000A21629F033968F5FF8CFF0E0E0E0D601F3
:10174000ED93FC938BED309761F1228126952695E0
:10175000203108F02FE081E090E0A0E0B0E004C08C
:10176000880F991FAA1FBB1F2A95D2F70197F8016E
:10177000918380836B2D80EE0E94150A88ED0E9474
:10178000000BD70114969C91682F697F992329F04B
:10179000CA58DF4F68816260682B88ED0E94150A85
:1017A00080E0DF91CF911F910F91FF90EF90DF903C
:1017B000CF90BF90AF90089588EF0E94000B807C7F
:1017C0008034B1F018F4882301F10895803819F0BD
:1017D000803CC9F0089588ED0E94000B81FD0DC08A
:1017E00069EC88ED0E94150A82E080939F020895BB
:1017F00088ED0E94000B81FDF3CF6BEC88ED0E9419
:10180000150A83E0F2CF81E0F0CF61ED88ED0E9410
:10181000150A10929F020895CF93C82F60E00E948E
:10182000AB0161E08C2FCF910C94F701CF93C82FBF
:1018300060E00E94F70161E08C2FCF910C94AB0126
:101840008F3F91F02091970230E0A9014F5F5F4FE9
:101850004F70552790919802941731F029573D4FBA
:10186000F90180834093970208950F931F93CF93BC
:10187000DF93FC014933E9F0C42FD62F8F01E42F09
:10188000F0E0E55EFE4F808187FF1EC08D2F8171E5
:10189000B1F0D474A1F0CC3411F0C33681F488E7F0
:1018A0000E94200C88E70E94200C81E0F8018487C8
:1018B00006C0938581E0982793879111DDCFDF9152
:1018C000CF911F910F9108950E94200CDFCF82E0ED
:1018D00090E00E940C0C68E572E080E090E00E94CD
:1018E0004D0282E090E00C94160CCF93DF934933C5
:1018F00021F4FC012385211113C0EC01E42FF0E059
:10190000E55EFE4F808187FD03C080680E94200C49
:101910008C85882329F01C86DF91CF910C94670C6D
:10192000DF91CF910895CF92DF92EF92FF920F93C4
:101930001F93CF93DF937C01142FD0E0C0E0CC2421
:10194000C394D12C062F042796010C2E01C0220F20
:101950000A94EAF7802F822349F0FE01ED5EFE4FE4
:101960008081212321F187FF0E94200C2196C8301D
:10197000D10551F7F7018485882319F014860E9458
:10198000670C193811F0183949F488E70E94200CC7
:1019900088E70E94200C81E0F7018487DF91CF91D6
:1019A0001F910F91FF90EF90DF90CF90089587FDEA
:1019B000DDCF8068D9CFCF93DF93C4E2D0E0CE01F2
:1019C0000197F1F782E090E00E940C0CCE010197A4
:1019D000F1F782E090E00E94160C2197F1F7DF9179
:1019E000CF910895882331F083E090E00E940C0CA1
:1019F0000C94DB0C83E090E00E94160CF9CFCF939F
:101A0000C82F83E090E00E94160CC6FB882780F95F
:101A10000E94F20CC5FB882780F90E94F20CC4FBDF
:101A2000882780F90E94F20CC3FB882780F90E9466
:101A3000F20CC2FB882780F90E94F20CC1FB8827B8
:101A400080F90E94F20C8C2F81700E94F20C8C2F76
:101A5000881F8827881F0E94F20C83E090E00E9474
:101A6000160C80E190E00197F1F70E947F026093ED
:101A70009B0270939C0280939D0290939E02109211
:101A80000001E99ACF9108952F923F924F925F9271
:101A90006F927F928F929F92AF92BF92CF92DF927E
:101AA000EF92FF920F931F93CF93DF937B013A0145
:101AB0006901F901A080B180FB013180F901118237
:101AC0001082FB01828160E181FD60E288EE0E946C
:101AD000150A2A2CA301F701608180E00E94140BF3
:101AE000582EF6E08F1310C088EF0E94000BF7010C
:101AF00092819D7F84FF9260928360E191FD60E21C
:101B000088EE0E94150AE6CF811150C088EC0E9431
:101B1000000B82FF5FC080E30E94000B482E8A15F5
:101B20001B0411F008F0422CF60180819181E5013F
:101B3000C81BD90BD7FF02C0D0E0C0E0842C912C89
:101B40008C169D060CF4E40180E591E00E949B0058
:101B50000E94600688E00E94D40AAE0170E060E056
:101B6000C8010E946222209721F0BE01C8010E9494
:101B70005F040C0F1D1F0E94620664E088EC0E9447
:101B8000150AF60180819181880E991E91828082CA
:101B9000431420F08A149B0408F49CCF88EF0E9421
:101BA000000BF701928184FB91F99283852DDF91DF
:101BB000CF911F910F91FF90EF90DF90CF90BF904A
:101BC000AF909F908F907F906F905F904F903F90DD
:101BD0002F90089580EF582EE9CFAF92BF92CF9209
:101BE000DF92EF92FF920F931F93CF93DF9300D07A
:101BF00000D0CDB7DEB77C01690158011C821B8281
:101C00001A8219828E010F5F1F4F9E012D5F3F4F79
:101C10000E94740B811109C049815A816B817C81BA
:101C200085019601C7010E94440D0F900F900F90FF
:101C30000F90DF91CF911F910F91FF90EF90DF9068
:101C4000CF90BF90AF9008958F929F92AF92BF9226
:101C5000CF92DF92EF92FF920F931F93CF93DF9378
:101C6000CDB7DEB762970FB6F894DEBF0FBECDBF1B
:101C7000DC015C962C91211115C0912C892D629666
:101C80000FB6F894DEBF0FBECDBFDF91CF911F918D
:101C90000F91FF90EF90DF90CF90BF90AF909F900B
:101CA0008F9008957C010E947F02F701808C918CB7
:101CB000A28CB38C681979098A099B0997FDDDCF3D
:101CC0005701D12CC12CD5011A964C911A971B960D
:101CD0008C9190E09A8B898B8E010F5F1F4F9E0134
:101CE0002F5E3F4FF7016681848195810E94ED0D43
:101CF000982E811115C029893A892330310580F049
:101D0000F701EC0DFD1D80899189009749F0DC01F8
:101D1000ED91FC910190F081E02D40E0B701099533
:101D2000B3E0AB0EB11CE2E0CE0ED11CF4E0CF1656
:101D3000D10449F60E947F02D7015D962C91620F73
:101D4000711D811D911DF701608F718F828F938F9F
:101D500095CFDF92EF92FF920F931F93CF93DF9374
:101D6000CDB7DEB762970FB6F894DEBF0FBECDBF1A
:101D7000DC0157962C91211110C0D12C8D2D62962B
:101D80000FB6F894DEBF0FBECDBFDF91CF911F918C
:101D90000F91FF90EF90DF9008957C010E947F02E9
:101DA000F7010389148925893689601B710B820B21
:101DB000930B97FDE2CF4285838590E09A8B898BC8
:101DC0008E010F5F1F4F9E012F5E3F4F6681848102
:101DD00095810E94ED0DD82E811114C029893A8970
:101DE0002330310578F0D7011D968D919C91009795
:101DF00049F0DC01ED91FC910190F081E02D40E093
:101E0000B70109950E947F02F701208D620F711DB5
:101E1000811D911D638B748B858B968BAFCFDF9269
:101E2000EF92FF920F931F93CF93DF93CDB7DEB75F
:101E300062970FB6F894DEBF0FBECDBFDC01579698
:101E40002C91211110C0D12C8D2D62960FB6F894D3
:101E5000DEBF0FBECDBFDF91CF911F910F91FF90DD
:101E6000EF90DF9008957C010E947F02F7010389C3
:101E7000148925893689601B710B820B930B97FDA2
:101E8000E2CF4285838590E09A8B898B8E010F5F2C
:101E90001F4F9E012F5E3F4F6681848195810E9476
:101EA000ED0DD82E811114C029893A8923303105CE
:101EB00078F0D7011D968D919C91009749F0DC0137
:101EC000ED91FC910190F081E02D40E0B701099582
:101ED0000E947F02F701208D620F711D811D911DEF
:101EE000638B748B858B968BAFCF2F923F924F92E3
:101EF0005F926F927F928F929F92AF92BF92CF929A
:101F0000DF92EF92FF920F931F93CF93DF93CDB7A2
:101F1000DEB765970FB6F894DEBF0FBECDBF3C01AC
:101F2000342E222E402EED8AEAA4FBA4188A1F86A6
:101F30001E861D868E01035F1F4F9E01215F3F4F4E
:101F400040E00E94740B582E8111F5C039822A821C
:101F50004B822D892C83DE82CD82B886AF82AE0182
:101F60004F5F5F4F68E080E20E94DB0A4D855E852F
:101F700060E080E10E94140B81113AC1E114F10488
:101F800009F453C00F851889D80112968C911297C5
:101F900037FE51C0826012968C93650144244394AD
:101FA000C114D10409F429C19C868B864D855E85B8
:101FB0006F85788987019E01255F3F4FC3010E948D
:101FC000440D582EB6E08B130EC088EF0E94000B14
:101FD000EF85F88985FB882780F98425928180FB2D
:101FE00091F99283DDCF8111A6C0ECA5FDA53097B4
:101FF000A1F06B857C850190F081E02D0190F0814E
:10200000E02DC5018C199D099A8789879E01275F5C
:102010003F4FA7018CA59DA509958B859C85C81A66
:10202000D90A8815990508F0BBCF4D855E8537FE26
:10203000DBC080EADAC0816012968C931297119609
:102040006C908FEF860D803408F0D4C02D843E84D0
:102050000E947F029B01AC0128573C4E4F4F5F4FBF
:10206000298B3A8B4B8B5C8BD80112968C9160E854
:1020700080FF60E488EE0E94150A512C712C8114B7
:10208000910409F448C053018614970408F45401DC
:10209000AD8AA7016A2D80E10E94DB0A6A2D88E3E0
:1020A0000E94150AF8016081606280EF0E94150AA3
:1020B00088EC0E94000B87FFFBCF60E888EC0E9451
:1020C000150A88EF0E94000B8F70582E412CD12CDE
:1020D000C12C552009F449C00E947F0229893A8900
:1020E0004B895C89621B730B840B950B97FF3DC07A
:1020F00036E0531609F464C04EE05416D9F154E0AA
:10210000551209C08FEFC81AD80A21143104B1F151
:102110002C143D0499F588EF0E94000BD80112960B
:102120009C91129785FB90F912969C934D855E8544
:10213000552009F459C0852D65960FB6F894DEBF79
:102140000FBECDBFDF91CF911F910F91FF90EF9008
:10215000DF90CF90BF90AF909F908F907F906F90C7
:102160005F904F903F902F9008958A189B08EA0C3B
:10217000FB1C85CF439493E0491669F260E088E345
:102180000E94150AD7016C9180E10E94150A6D89A1
:1021900088E30E94150AF8016081606280EF0E9466
:1021A000150A88EC0E94000B87FFFBCF60E888ECE3
:1021B0000E94150A88EF0E94000B8F70582E89CF5D
:1021C00088EF0E94000B85FB882780F9A1E08A2711
:1021D000F801928180FB90F9928360E890FF60E4BF
:1021E00088EE0E94150ACACF80E860E00E94140BB6
:1021F000582EA1CF8AED582E9ECF4D855E85552055
:1022000009F417CF98CF8F929F92AF92BF92CF923F
:10221000DF92EF920F93CF931F921F921F921F9204
:10222000912C812CB12CA12CD12CC12CE12C062F6E
:1022300025E040E060E00E94750FC82F6CE271E07D
:1022400080E090E00E944D020F900F900F900F9051
:102250008C2FCF910F91EF90DF90CF90BF90AF90E8
:102260009F908F9008958F929F92AF92BF92CF923E
:10227000DF92EF920F931F921F923F932F934A0189
:102280005A01D12CC12CEE24E39400E026E040E872
:102290000E94750F0F900F900F900F900F91EF907D
:1022A000DF90CF90BF90AF909F908F9008952F9226
:1022B0003F924F925F926F927F928F929F92AF92D6
:1022C000BF92CF92DF92EF92FF920F931F93CF9323
:1022D000DF93CDB7DEB768970FB6F894DEBF0FBEB9
:1022E000CDBF1B8A38E03C8B3CE33D8B8A3F3FEF00
:1022F0009307D9F416ED812F68960FB6F894DEBFD8
:102300000FBECDBFDF91CF911F910F91FF90EF9046
:10231000DF90CF90BF90AF909F908F907F906F9005
:102320005F904F903F902F900895222E642E362E6E
:102330007C01DC0116960D911C911797CE014396F6
:1023400017969C938E9316971A962C939E012F5F47
:102350003F4F42E150E060E0C7010E943311782E08
:10236000F70117830683182F8111C5CF49845A843A
:102370008B849C84FD81FF8B3E81388F670186E5CD
:10238000C80ED11C56011E8AD5018D919D915D010B
:102390000097D1F5BE89BF5FBE8BB031A9F7F601BA
:1023A000819191916F01009709F06EC07394F0E1F3
:1023B0007F12F5CFF7018681978117ED892B09F4FC
:1023C0009ACF2286262D40E0632DC7010E949B04F0
:1023D000082F14ED882309F48ECF682FC7010E94BF
:1023E000F004009709F486CFDC0114962C92602F3C
:1023F000C7010E940311182F882309F47CCF602F96
:10240000C7010E94790477CFDC01ED91FC91008433
:10241000F185E02D09958111BDCFF5019291829151
:102420008F01DC01ED91FC910088F189E02D688D30
:102430000995882309F4AECFF80180819181DC01F0
:10244000ED91FC910484F585E02DA401B20109957C
:10245000882361F0022D262D432D6E89C7010E942D
:10246000360A182F813D09F495CF45CFF8018081B8
:102470009181DC01ED91FC910684F785E02D6F8957
:1024800009958111E7CF86CFDC01ED91FC910084A5
:10249000F185E02D0995811189CFF6019291829104
:1024A0008F01DC01ED91FC910088F189E02D688DB0
:1024B000099581110DC0022D262D432D672DC701D1
:1024C0000E94360A182F877F813D09F014CF6ECF06
:1024D000F80180819181DC01ED91FC910484F58506
:1024E000E02DA401B2010995811160CFF80180812E
:1024F0009181DC01ED91FC910684F785E02D6F89D7
:1025000009958823C1F252CF8F929F92AF92BF92CA
:10251000CF92DF92EF920F931F921F927F936F9350
:1025200088248394912CAA24A394B12CD12CC12C5F
:1025300042E0E42E00E029E041E2FC016681848172
:1025400095810E94750F0F900F900F900F900F9133
:10255000EF90DF90CF90BF90AF909F908F900895B5
:10256000CF93DF931F92CDB7DEB7FC01928547343E
:1025700021F1433551F0493379F491FB882780F9F3
:10258000292F2D7F80FF226006C0892F8170292F7F
:102590002E7F80FF2160228722852917B1F06115E7
:1025A000710599F0CB012983BE016F5F7F4F0E94B7
:1025B00084120F90DF91CF91089592FB882780F9C4
:1025C000292F2B7F80FF2460E6CF80E0F2CF8F920F
:1025D0009F92AF92BF92CF92DF92EF920F931F9292
:1025E0001F921F921F92912C812CB12CA12CD12CC7
:1025F000C12CE12C042F29E040E00E94750F0F90C0
:102600000F900F900F900F91EF90DF90CF90BF90B1
:10261000AF909F908F9008958F929F92AF92BF92AC
:10262000CF92DF92EF920F931F931F921F921F93EF
:102630000F934A015A01D12CC12C32E0E32E022F14
:1026400026E040E80E94750F0F900F900F900F90BA
:102650001F910F91EF90DF90CF90BF90AF909F9020
:102660008F9008955F926F927F928F929F92AF9218
:10267000BF92CF92DF92EF92FF920F931F93CF936F
:10268000DF93CDB7DEB7C054D1090FB6F894DEBFE3
:102690000FBECDBF3C01F62E542EE22E932ECE015E
:1026A00001966C018C01242F49E050E0C3010E9487
:1026B0000C13811118C0AB80BC809F92EF92DF9207
:1026C000CF9280E4882E912CD12CC12C92E0E92E5F
:1026D000052D26E040E86F2DC3010E94750F0F9075
:1026E0000F900F900F90C05CDF4F0FB6F894DEBFD5
:1026F0000FBECDBFDF91CF911F910F91FF90EF9053
:10270000DF90CF90BF90AF909F908F907F906F9011
:102710005F9008958F929F92AF92BF92CF92DF9277
:10272000EF920F93C42ED12C1F921F921F921F92D3
:10273000912C812CB12CA12CE12C062F21E043E21D
:10274000FC016285828193810E94750F0F900F902A
:102750000F900F900F91EF90DF90CF90BF90AF90C0
:102760009F908F9008958F929F92AF92BF92CF9239
:10277000DF92EF920F93C62ED12C1F921F925F9380
:102780004F9324E0822E912C34E0A32EB12CE12C27
:1027900000E020E043EAFC016285828193810E948F
:1027A000750F0F900F900F900F900F91EF90DF909B
:1027B000CF90BF90AF909F908F9008958F929F92EF
:1027C000AF92BF92CF92DF92EF920F93C42ED12C93
:1027D0001F921F921F921F92912C812CB12CA12C21
:1027E000E12C062F23E043E2FC0162858281938184
:1027F0000E94750F0F900F900F900F900F91EF9018
:10280000DF90CF90BF90AF909F908F900895CF9220
:10281000DF92EF92FF921F93CF93DF93EC01162F7D
:102820007A01FA0180819181A281B3818130F3E044
:102830009F07F1E0AF07B105C9F170F48115E1E040
:102840009E07AE07B10509F450C081309140A14008
:10285000B10561F180E041C0833021E0920720E1C1
:10286000A207B10529F083309340A041B10591F74B
:10287000412F64E1CE010E948A13412F60E1CE0115
:102880000E948A1364E170E080E090E00E944D02B3
:102890006A85F7012181269521706770412F8A8111
:1028A0009B810E94571110927302D4CF80917302C2
:1028B0008111D0CF412F61E1CE010E948A13412FB7
:1028C00060E1CE010E948A13412F64E0CE010E9494
:1028D000DE1381E08093730281EBDF91CF911F9132
:1028E000FF90EF90DF90CF900895462F61E1CE01E9
:1028F0000E948A13412F60E1CE010E948A13109238
:1029000073028A8587701770880F880F880F182BBD
:1029100009F4A0CFEA80FB806701F6E5CF0ED11C59
:10292000D0E0C0E0D6018D919D916D010097C1F07E
:10293000DC01ED91FC910084F185E02D09951813DF
:102940000FC0AB96CC0FDD1FCE0DDF1D88819981A6
:10295000DC01ED91FC910480F581E02D09957ACFA1
:102960002196C031D105F1F675CFCF92DF92EF926B
:10297000FF920F931F93CF93DF93CDB7DEB72E97C0
:102980000FB6F894DEBF0FBECDBFFC012089211128
:1029900011C010E0812F2E960FB6F894DEBF0FBE47
:1029A000CDBFDF91CF911F910F91FF90EF90DF90FE
:1029B000CF9008957C010E947F02F7010485158560
:1029C00026853785601B710B820B930B97FDE1CF3A
:1029D00081E090E09E878D878E010F5F1F4F9E01E3
:1029E000235F3F4F41E06285828193810E94ED0D1C
:1029F000182F811121C082E0D82E01E089818D211C
:102A000039F119861A861B861C86AE01475F5F4F17
:102A1000602FC7010E94B313C82E811119C0AE01E7
:102A2000475F5F4F602FC7010E940714813B19F079
:102A3000882371F0C82E1C2D0E947F026C597F4F95
:102A40008F4F9F4FF7016487758786879787A2CF3F
:102A5000DD0C0F5F083091F601E0F70183858017E8
:102A600058F319861A861B861C86AE01475F5F4F96
:102A7000602FC7010E94B313D82E811117C089851A
:102A80009A85877091708130914081F48B859C8507
:102A900081609C878B87AE01475F5F4F602FC701C6
:102AA0000E940714813B29F0811102C00F5FD5CF2E
:102AB000D82E1D2DC1CFCF92DF92FF920F931F937F
:102AC000CF93DF9300D000D0CDB7DEB78C01F62EC8
:102AD00019821A821B821C82462F61E10E948A138E
:102AE0004F2D60E1C8010E948A134F2D64E0C80198
:102AF0000E94DE1383E0C82ED12CAE014F5F5F4FE2
:102B00006F2DC8010E94B313811114C089819A816D
:102B1000AB81BC819D7F83309140A041B10551F0D4
:102B200064E670E080E090E00E944D0281E0C81A07
:102B3000D10819F74F2D64E1C8010E948A134F2D67
:102B400060E1C8010E948A1364E170E080E090E0D7
:102B50000E944D020F900F900F900F90DF91CF9138
:102B60001F910F91FF90DF90CF9008952F923F9289
:102B70004F925F926F927F928F929F92AF92BF928D
:102B8000CF92DF92EF92FF920F931F93CF93DF9339
:102B9000CDB7DEB7E8970FB6F894DEBF0FBECDBF56
:102BA000DC011A963C91311116C1922E242E362E3C
:102BB0003C01FC01E280F380D701ED91FC91019092
:102BC000F081E02D60E0C70109958C01009709F4C0
:102BD00005C1FC01C080D180C114D10409F401C138
:102BE0005301F4E0AF0EB11CDC011196BC92AE9221
:102BF00014969C92FE0131962F019F0148E050E00F
:102C000060E0D30112968D919C910E943311982E11
:102C1000F80114828111EBC08D8191ED992E8930DC
:102C200059F58980D701ED91FC910280F381E02D67
:102C3000222D41E0632DC7010995F3018287882386
:102C400009F4D2C098859583682F828193810E9470
:102C50000311982ED801CD92DC92882339F1D70147
:102C6000ED91FC910480F581E02DD3011A966C91D1
:102C7000C7010995F3011286892DE8960FB6F894DD
:102C8000DEBF0FBECDBFDF91CF911F910F91FF909F
:102C9000EF90DF90CF90BF90AF909F908F907F90FC
:102CA0006F905F904F903F902F900895811073C068
:102CB000950142E0F3016285828193810E940705BC
:102CC000982E8111D9CF1F921F925F924F9258E098
:102CD000852E912C68E0A62EB12CD12CC12C79E246
:102CE000E72E00E026E040EAF301628582819381CD
:102CF0000E94750F982E0F900F900F900F908111DA
:102D0000BBCF8B81D3011B968C931B97820120E054
:102D100048E050E01A966C911A9712968D919C910A
:102D20000E940C13982E8111A7CF4B815C8120E06B
:102D3000F3016285828193810E940C13982E811188
:102D40009BCF498150E08E010F5D1F4F20E0D301E2
:102D50001A966C911A9712968D919C910E940C1361
:102D6000982E811189CF4E81F301628582819381F2
:102D70000E94E712982E81117FCF11E0D3011B969C
:102D80008C911B978117D0F0412F68E0C3010E94FE
:102D9000DE131F5FF3CF482D413208F040E250E0D0
:102DA0009201D3011A966C911A9712968D919C916B
:102DB0000E943311982E81115FCF7ACF1296ED9138
:102DC000FC911397EA58FF4F80818460808381E0F3
:102DD00050968C9351CF49ED942E4ECF36ED932ED5
:102DE0004BCF27ED922E48CF84ED982E45CFD18240
:102DF000C08242CF4F925F926F927F928F929F924A
:102E0000AF92BF92CF92DF92EF92FF920F931F93F8
:102E1000CF93DF93CDB7DEB7EC970FB6F894DEBF54
:102E20000FBECDBFDC0116963C9131113EC1C22EC2
:102E3000442E562E8C01FC0184809580158ED40181
:102E4000ED91FC910190F081E02D60E0C4010995C5
:102E50007C010097C1F486EDEC960FB6F894DEBFC6
:102E60000FBECDBFDF91CF911F910F91FF90EF90DB
:102E7000DF90CF90BF90AF909F908F907F906F909A
:102E80005F904F900895FC016080718087ED611420
:102E9000710411F35801F7E0AF0EB11CD701119680
:102EA000BC92AE921496CC929E01265D3F4F48E0B4
:102EB00050E060E0F801848195810E9433118CAF6D
:102EC0008111F7C0DAA4D7016D927C92D401ED9103
:102ED000FC910280F381E02D242D40E0652DC4019A
:102EE0000995F8018683882309F4E1C099A99087A0
:102EF000682F848195810E9403118CAFD401ED91DC
:102F0000FC91882379F0D70114961C920480F581F6
:102F1000E02DD80116966C91C4010995F80116822E
:102F20008CAD9ACFD80116966C91D70114961C924D
:102F30000190F081E02DC4010995009709F48BCF31
:102F4000FC01C482DD2091F04D2D433108F042E1B7
:102F500050E09E01265D3F4FD80116966C91169762
:102F600014968D919C910E9433118CAFFCACF110A2
:102F700035C0EBAC81E191E09A838983C801029668
:102F80009C838B831E86188A1F8619A21AA21BA2F5
:102F9000CE0141969F838E83998788872D812B87C9
:102FA0002A879D878C8781E089A7FE1489F09E017E
:102FB0002F5F3F4F4F2DF8016681848195810E94DC
:102FC0003213D80157968C91833011F0F394EDCFE2
:102FD000F8018789833059F081ED8CAFD801ED91EC
:102FE000FC910480F581E02DC801099599CF9501E8
:102FF00043E06681848195810E9407058CAF68EE6D
:1030000073E080E090E00E944D02F80144896681FF
:10301000848195810E94E7128CAF8111DFCF68EE29
:1030200073E080E090E00E944D02F12CE12C4FE92A
:10303000C42E41E0D42ED8015E964C916E2DC8016D
:103040000E9433228CAF8111C9CF6E2DC8010E941E
:103050000A228CAFDA82C982AE014F5F5F4FB7019F
:10306000C8010E94C8218CAFEA94EF2821F0EE2419
:10307000E394F12CE0CF80E28CAF8CAD882389F013
:1030800090E0959587958CAFBE01645C7F4FC80139
:103090000E94841269E170E080E090E00E944D029D
:1030A000ECCF91E0F801948FD7CE89EDD5CE84EDA9
:1030B000D3CEF7017182608291CF4F925F926F926F
:1030C0007F928F929F92AF92BF92CF92DF92EF92B8
:1030D000FF920F931F93CF93DF93CDB7DEB7EC979B
:1030E0000FB6F894DEBF0FBECDBFDC0116963C9143
:1030F000311141C1C22E442E562E8C01FC01848018
:103100009580108ED401ED91FC910190F081E02D1D
:1031100060E0C40109957C010097C1F486EDEC964E
:103120000FB6F894DEBF0FBECDBFDF91CF911F91D8
:103130000F91FF90EF90DF90CF90BF90AF909F9056
:103140008F907F906F905F904F900895FC0160800A
:10315000718087ED6114710411F35801F7E0AF0E2F
:10316000B11CD7011196BC92AE921496CC929E01DE
:10317000265D3F4F48E050E060E0F8018481958192
:103180000E9433118CAF8111FAC0DAA4D7016D927D
:103190007C92D401ED91FC910280F381E02D242DED
:1031A00040E0652DC4010995F8018683882309F460
:1031B000E4C099A99087682F848195810E940311AA
:1031C0008CAFD401ED91FC91882379F0D70114964E
:1031D0001C920480F581E02DD80116966C91C401F3
:1031E0000995F80116828CAD9ACFD80116966C918C
:1031F000D70114961C920190F081E02DC40109952D
:10320000009709F48BCFFC01C482DD2091F04D2D95
:10321000433108F042E150E09E01265D3F4FD80166
:1032200016966C91169714968D919C910E9433116D
:103230008CAFFCACF1103DC0EBAC3BE0832E31E039
:10324000932E3801B2E06B0E711C6E01E1E1CE0EDF
:10325000D11CFE1439F19A8289827C826B821E868F
:10326000188A1F8619A21AA21BA219A6DF82CE8273
:10327000D986C8868D818B878A87DD86CC869E011C
:103280002F5F3F4F4F2DD80116966C9116971496CD
:103290008D919C910E943213F8018289823011F045
:1032A000F394D7CFD80152968C91823059F081EDAA
:1032B0008CAFD801ED91FC910480F581E02DC8011F
:1032C000099591CF950142E0F8016681848195814D
:1032D0000E9407058CAF68EE73E080E090E00E94EA
:1032E0004D02D8011F964C911F9716966C91169718
:1032F00014968D919C910E94E7128CAF8111D9CFC9
:1033000068EE73E080E090E00E944D02F801418D8C
:1033100060E0C8010E9433228CAF8111CACF60E007
:10332000C8010E940A228CAF8FE991E09A838983B9
:10333000AE014F5F5F4F70E060E0C8010E94C8219E
:1033400080E28CAF8CAD882389F090E095958795CD
:103350008CAFBE01645C7F4FC8010E94841269E19A
:1033600070E080E090E00E944D02ECCF91E0D80147
:1033700057969C93D4CE89EDD2CE84EDD0CEF70172
:103380007182608296CF4F925F926F927F928F92FE
:103390009F92AF92BF92CF92DF92EF92FF920F93E4
:1033A0001F93CF93DF93CDB7DEB7EB970FB6F894AB
:1033B000DEBF0FBECDBFDC0116963C91311129C195
:1033C000E22E442E562E8C01FC0184809580108EB6
:1033D000D401ED91FC910190F081E02D60E0C401F9
:1033E00009956C010097D1F456EDF52E8F2DEB96D3
:1033F0000FB6F894DEBF0FBECDBFDF91CF911F9106
:103400000F91FF90EF90DF90CF90BF90AF909F9083
:103410008F907F906F905F904F900895FC01608037
:10342000718097EDF92E6114710401F35801F7E0F2
:10343000AF0EB11CD6011196BC92AE921496EC92CE
:103440009E01265D3F4F48E050E060E0F801848136
:1034500095810E943311F82E8111E1C0FAA4D601A2
:103460006D927C92D401ED91FC910280F381E02D6C
:10347000242D40E0652DC4010995F8018683882339
:1034800009F4CAC099A99087682F848195810E9408
:103490000311782ED401ED91FC91882379F0D601A7
:1034A00014961C920480F581E02DD80116966C913B
:1034B000C4010995F8011682F72C98CFD801169609
:1034C0006C91D60114961C920190F081E02DC401FC
:1034D0000995009709F488CFFC01E482F11035C00A
:1034E0006BAC45E0C42E41E0D42E4801F2E08F0ED3
:1034F000911C7E0181E1E80EF11C761409F443C0B1
:10350000DA82C9829C828B821E86188A1F8619A243
:103510001AA21BA219A6FF82EE82F986E8868D8187
:103520008B878A87FD86EC869E012F5F3F4F472D54
:10353000F8016681848195810E943213D8015296E8
:103540008C91823001F17394D8CF4F2D433108F024
:1035500042E150E09E01265D3F4FD80116966C91E6
:10356000169714968D919C910E943311F82E882302
:1035700009F4B6CFD801ED91FC910480F581E02DDE
:10358000C801099533CFF801828931EDF32E8230DD
:1035900089F7950142E06681848195810E94070543
:1035A00068EE73E080E090E00E944D02D8011F9623
:1035B0004C911F9716966C91169714968D919C912D
:1035C0000E94E712F82E8111D5CF68EE73E080E0FB
:1035D00090E00E944D02F801418D60E0C8010E9418
:1035E0003322F82E8111C6CF60E0C8010E940A2262
:1035F0008FE991E09A838983AE014F5F5F4F70E05E
:1036000060E0C8010E94C82181E0D80157968C93E0
:10361000EDCE29EDF22EEACE84EDF82EE7CEF601BE
:1036200071826082A7CF1F920F920FB60F92112462
:103630002F933F934F935F936F937F938F939F93BA
:10364000AF93BF93EF93FF9380EA92E00E94DB0079
:10365000FF91EF91BF91AF919F918F917F916F916A
:103660005F914F913F912F910F900FBE0F901F9040
:1036700018951F920F920FB60F9211242F938F93CC
:103680009F93EF93FF93E091B002F091B10280819C
:10369000E091B602F091B70282FD1BC0908180914B
:1036A000B9028F5F8F732091BA02821741F0E091C7
:1036B000B902F0E0E056FD4F958F8093B902FF917B
:1036C000EF919F918F912F910F900FBE0F901F90B0
:1036D00018958081F4CF1F920F920FB60F9211248C
:1036E0002F933F938F939F93AF93BF9380917502D6
:1036F00090917602A0917702B09178023091740295
:1037000026E0230F2D3758F50296A11DB11D2093F9
:1037100074028093750290937602A0937702B0931F
:1037200078028091790290917A02A0917B02B09107
:103730007C020196A11DB11D8093790290937A02BB
:10374000A0937B02B0937C02BF91AF919F918F9128
:103750003F912F910F900FBE0F901F90189529E861
:10376000230F0396A11DB11DD2CF1F920F920FB64A
:103770000F9211242F933F934F935F936F937F93F7
:103780008F939F93AF93BF93CF93DF93EF93FF9369
:10379000C0917202C11187C086B180958F7320914C
:1037A000700230917102882381F144E0849FC0014E
:1037B000112498602817390761F524E320937202D9
:1037C000909371028093700286E090E00E940C0C4E
:1037D00088E293E29093890080938800109285009C
:1037E00010928400FF91EF91DF91CF91BF91AF9143
:1037F0009F918F917F916F915F914F913F912F9109
:103800000F900FBE0F901F901895232B21F090E082
:1038100080E021E0D3CF409185025091860241950E
:10382000809183029091840281959091820221E09F
:10383000911105C0411103C0811101C020E03091F8
:10384000820297E0392790E0B0E0A32F50E0542F98
:10385000442770E060E0842B952BA62BB72B809338
:103860006C0290936D02A0936E02B0936F0210925F
:1038700086021092850210928402109283021092A6
:103880008202222351F088E38093720286E090E066
:103890000E940C0C8CE494E09DCF809181008D7F80
:1038A000809381009FCFC83308F08AC0C13071F483
:1038B00086E090E00E94160C84E991E190938900E3
:1038C0008093880082E0809372028CCFC23378F5B7
:1038D000DEEFDC0F86E090E0D0FD05C00E940C0C0E
:1038E00080E991E019C00E94160CD695DC3008F0F2
:1038F000DC502BE02D1B809170029091710202C070
:10390000969587952A95E2F781709927CB3160F0DB
:10391000892B31F780EB94E09093890080938800A5
:10392000CF5FC09372025ECF892BD1F2F3CFC23347
:1039300061F486E090E00E940C0C80E991E09093A5
:1039400089008093880083E3BECFC33369F486E0A7
:1039500090E00E94160C84E993E490938900809390
:103960008800109272023ECFC43361F486E090E08A
:103970000E94160C84E398E090938900809388005D
:1039800085E3A1CFC53361F486E090E00E940C0C82
:1039900080E991E0909389008093880086E393CF3B
:1039A0008AEB9EE5C633C9F686E090E00E94160CCD
:1039B0008AEB9EE5909389008093880087E383CF0C
:1039C000C83361F486E090E00E94160C87E791E02E
:1039D000909389008093880089E375CFCF3578F57F
:1039E00047EC4C0F842F869522E130E0281B3109EB
:1039F00080916C0290916D02A0916E02B0916F0265
:103A000004C0B695A795979587952A95D2F7D82F94
:103A1000D17086E090E040FD09C00E940C0C84EF5C
:103A200091E0D11179CF8AE890E076CF0E94160C10
:103A300087E791E0D11170CF8FED92E06DCF86E0F6
:103A400090E0CF3551F40E940C0C88E590E0909303
:103A500089008093880080E636CF0E94160C80EBA8
:103A600096E37BCF1F920F920FB60F9211248F9384
:103A7000EF93FF93E1E8F0E0808182608083FF9123
:103A8000EF918F910F900FBE0F901F9018951F927E
:103A90000F920FB60F9211248F9381E08093000153
:103AA000E9988F910F900FBE0F901F901895FC0111
:103AB000EA5AFF4F30E020E041915191452B59F4F3
:103AC000255D3F4F220F331F280F391FF9017183E6
:103AD000608380E008952F5F3F4F2031310561F70B
:103AE00083ED0895EF92FF920F931F93CF93DF938F
:103AF0001092A3021092A20288EE93E0A0E0B0E040
:103B00008093A4029093A502A093A602B093A7026B
:103B100085EA91E09093A1028093A00285EC90E069
:103B20009093AD028093AC0284EC90E09093AF024E
:103B30008093AE0280EC90E09093B1028093B0024B
:103B400081EC90E09093B3028093B20282EC90E01B
:103B50009093B5028093B40286EC90E09093B70204
:103B60008093B6021092B9021092BA021092BB0270
:103B70001092BC0283E692E09093B8038093B7035F
:103B80001092BF0381E08093C0031092C10389EBC0
:103B900093E09093BE038093BD031092B90388E035
:103BA0008093BA038CE38093BB031092BC03E7EBD2
:103BB000F3E011E089EB93E015861687178694876A
:103BC0008387359624E0E230F207B1F787EBE82EE1
:103BD00083E0F82E10922D0481E180933D038DE463
:103BE00092E09093A7038093A603F092A903E0923A
:103BF000A8031092B6031092AA03D8E0D093AB03A7
:103C00000CE30093AC031093AD03D093AE03C4E078
:103C1000C093AF031092B0031092B1031092B2039D
:103C20001092B3031092B4031092B50366EA73E0E6
:103C3000C7010E94571DF0928C03E0928B0389E22A
:103C400092E0909388038093870387E492E09093B7
:103C50008A038093890310929F031092A00310920D
:103C6000A1031092A2031092A3031092A503109334
:103C70009E0310929D0310928E03D0938F030093A6
:103C800090031092910310929203C09393031092A9
:103C9000940310929503C093960310929703109289
:103CA00098031092990310929A0310929B0367E86D
:103CB00073E0C7010E94571DF0927203E0927103F6
:103CC00085E092E090936E0380936D0383E292E02F
:103CD0009093700380936F0310928003109281037E
:103CE0001092820310928303109284031092860331
:103CF00010937F0310927E0310927403D093750388
:103D0000009376031092770310927803C09379039F
:103D100010927A0310927B0310927C036DE673E09D
:103D2000C7010E94571DF0925803E092570381EE9D
:103D300091E090935403809353038FEF91E090931D
:103D400056038093550310926603109267031092F6
:103D500068031092690310926A0310926C03109327
:103D600065031092640310925A03D0935B0300938F
:103D70005C0310925D0310925E03C0935F03109288
:103D80006003109261031092620363E573E0C70160
:103D90000E94571D109250038BEC91E090934703C3
:103DA00080934603109251031092520310924003E5
:103DB000109241031092420387EB91E090933F03EE
:103DC00080933E03109243031092440310924503E4
:103DD000DF91CF911F910F91FF90EF90089578940C
:103DE00084B5826084BD84B5816084BD85B5826000
:103DF00085BD85B5816085BD80916E0081608093B1
:103E00006E00109281008091810082608093810019
:103E10008091810081608093810080918000816029
:103E2000809380008091B10084608093B100809184
:103E3000B00081608093B00080917A0084608093AC
:103E40007A0080917A00826080937A0080917A0073
:103E50008E7F80937A0080917A00806880937A00C8
:103E60001092C10086E090E00E94160C8EE090E077
:103E70000E94160C8FE090E00E94160C80E190E00A
:103E80000E94160C81E190E00E94160C82E190E005
:103E90000E94160C83E190E00E94160C80916C0049
:103EA0008F6380936C0080916800826080936800CB
:103EB0001092800010928100109285001092840070
:103EC00080E290E090938900809388008091810047
:103ED00088608093810080916F00826080936F0082
:103EE00082E090E00E94160C83E090E00E94160CA5
:103EF000809169008C6080936900E998E19A229A28
:103F00000E946206CFB7F89480917D02811127C08C
:103F1000E5EDF0E08491E1ECF0E09491E82FF0E041
:103F2000EE0FFF1FE355FF4FA591B491EC91E923EC
:103F300021F461E08AE00E94AB0161E08AE00E9426
:103F4000F7018CB580618CBD8CB580648CBD61E05F
:103F50008DE00E94F70161E08BE00E94F701809103
:103F60007D028F5F80937D02CFBF229A0E946206FE
:103F7000219868E188E80E94150A60E288E70E94BB
:103F8000150A60E088E70E94150AD0E0C0E088E6E4
:103F90000E94000B219680FF6BC061EC88ED0E94AF
:103FA000150A60E680ED0E94150A64E088EE0E9422
:103FB000150A88EE0E94000B82FFFBCF0E94DC0BEB
:103FC00060E288EC0E94150A61E080E80E94150A10
:103FD00068EC70E080E090E00E944D0226E433E05F
:103FE00030939803209397038EE393E090939A0382
:103FF0008093990330937B0320937A03909361031A
:10400000809360035DE2C52E54E0D52E60E0A62EBD
:1040100060E0B62E70E2272EE3E13E2EF1E14F2E56
:1040200055245394D0E990EA992E20E8822E31E568
:10403000732E40E4642E83B1C82FC27081FD0CC082
:1040400088EC0E94000B85FF03C00E94DC0BC0E2DD
:104050006C2F88EC0E94150A80919F02813029F113
:1040600038F1823009F4DDC0833051F1C0E03EC048
:10407000CF3FDC0709F08BCF61E08DE00E94F701B4
:1040800061E08DE00E94AB0164EF71E080E090E0C0
:104090000E944D0260E08DE00E94AB0164EF71E090
:1040A00080E090E00E944D02EBCF30923D03DECFE6
:1040B00080913D03807F8031C9F240923D03D6CF8D
:1040C000C1E080913D03807F803181F40E947F02B6
:1040D00068537F4F8F4F9F4F60937E0270937F0294
:1040E000809380029093810220923D038DE0E82E20
:1040F00084E0F82E8701D8018D919D918D01009764
:1041000039F0DC01ED91FC910680F781E02D0995F5
:10411000C016D10681F780913D03803409F4B9C0FF
:1041200008F081C0803209F49DC0803309F4AAC030
:104130008131A9F410922D04F701819191917F01B1
:10414000009739F0DC01ED91FC910480F581E02DC0
:1041500009950E151F0581F782E180933D0380913B
:1041600044034091430390914503F89420918502C4
:10417000309186024F3F09F0C1C021503109309380
:1041800086022093850220918302309184028F3F22
:1041900009F0C1C021503109309384022093830279
:1041A00080918202982B9093820278948091810072
:1041B00082608093810010924303109244038091A7
:1041C00000018111B5C00E947F0200919B021091F5
:1041D0009C0220919D0230919E02601B710B820B0C
:1041E000930B603971058105910508F4A1C00E9407
:1041F000DB0C0E947F0260939B0270939C02809371
:104200009D0290939E0250929A02A114B10409F467
:1042100012CF0E946A01882309F404CF0E94000093
:1042200001CFC0E04ECF813509F444C0803809F495
:1042300053C0803509F093CF88EC0E94000B86FFB5
:104240008ECF70923D030E947F026C5E7F4F8F4F36
:104250009F4F60937E0270937F02809380029093C1
:1042600081027DCF0E947F0200917E0210917F0229
:104270002091800230918102601B710B820B930BA5
:1042800097FD6DCF61E088EE0E94150A60923D03B4
:1042900066CF88EE0E94000B80FD61CF88ED0E9402
:1042A000000B682F686088ED0E94150AB0E5B09396
:1042B0003D0355CF0E947F0200917E0210917F0244
:1042C0002091800230918102601B710B820B930B55
:1042D00097FD45CF80923D032C2F40E060E087EBB7
:1042E00093E00E945711882331F0823D09F437CFC3
:1042F00090923D0334CFD0933D0331CF413019F438
:104300002F5F3F4F3CCF47FD4F5F4595240F311D39
:1043100047FD3A9534CF813019F42F5F3F4F3CCFA2
:1043200087FD8F5F8595280F311D87FD3A9534CF26
:1043300080910001882309F468CF80919A0281302E
:1043400039F489EF0E94FF0C82E080939A025DCFDE
:10435000823039F4809199020E94FF0C10929A02E7
:1043600054CF2091980280919702281709F44DCFDD
:1043700030E0F901E957FD4F8081809399022F5F6A
:104380003F4F2F703327209398020E94FF0C3DCFA0
:104390008F929F92AF92BF92CF92DF92EF920F9344
:1043A000CF93DF93CDB7DEB7C054D1090FB6F894E1
:1043B000DEBF0FBECDBF5F934F939E012F5F3F4F78
:1043C0003F932F9320E4822E912C30E8A32EB12C22
:1043D0006B0142E2E42E00E026E041E8FC01668148
:1043E000848195810E94750F0F900F900F900F9010
:1043F000C05CDF4F0FB6F894DEBF0FBECDBFDF91BC
:10440000CF910F91EF90DF90CF90BF90AF909F90A2
:104410008F9008958F929F92AF92BF92CF92DF922A
:10442000EF920F93C62ED12C1F921F921F921F92B4
:10443000912C812CB12CA12CE12C00E02AE041E24E
:10444000FC016681848195810E94750F0F900F9009
:104450000F900F900F91EF90DF90CF90BF90AF90A3
:104460009F908F9008958F929F92AF92BF92CF921C
:10447000DF92EF920F93C62ED12C1F921F921F92A4
:104480001F92912C812CB12CA12CE12C042F2BE01C
:1044900041E2FC016681848195810E94750F0F9035
:1044A0000F900F900F900F91EF90DF90CF90BF90F3
:1044B000AF909F908F900895EE0FFF1F0590F4919D
:1044C000E02D0994DC0101C06D9341505040E0F7AC
:0644D0000895F894FFCFEF
:1044D6000100000000EE0800000000CD070000000B
:1044E60000AC066360646663616567FFFFFFFF20DB
:1044F6003533221223242517262728373618191074
:10450600132114163411321531010203040506076E
:1045160008090A44454142400B0C1A1BFF0D292A83
:104526000038393A62505152535455565758592B00
:1045360030FFFFFF4FFF5A46FF5B4E4F4D4CFF5C6F
:104546005D4A5E431D1E1F2D2E2F3D3E3F0F3C3004
:10455600FFFFFFFFFFFFFFFFFFFFFFFFFFFFFFFF65
:10456600FFFFFFFFFFFFFFFFFFFFFF000000005DF3
:104576000500000000FD007E019E004A01CF00AD4F
:1045860000C10000000000AA03430539053E052FBF
:1045960005340525052A0500000000F002B0129337
:1045A6000C350C750C5A05570554055105000000CD
:1045B60000C319120A45060F0F1806110A0F0AA89A
:1045C6000540060A0664060706CB05FEFF00003610
:1045D60006000000005D18120A1B06A90E18061137
:1045E6000A0F0AA80513060A0664060706CB05FE87
:1045F600FF0000FD0500000000FA16120AB00524AF
:104606000EAD05110A0F0AA805A8059D056E069AA6
:10461600055E05FEFF0000900500000000B61512BD
:104626000A8B02B514B2025B150F0AAD0223050010
:0A463600000000F0049B047904006A
:00000001FF
