:100000000C9471000C9499000C94CC000C94990001
:100010000C94FB010C9499000C9499000C94990099
:100020000C9499000C9499000C9499000C949702EC
:100030000C9499000C9499000C9499000C949900DC
:100040000C94AD110C9499000C9499000C949900A7
:100050000C9499000C9499000C9499000C949900BC
:100060000C9499000C949900000000070002010014
:100070000003040600000000000000000102040864
:100080001020408001020408102001020408102002
:10009000040404040404040402020202020203032E
:1000A0000303030300000000250028002B000000CC
:1000B0000000240027002A002F2A2D2B132D3D5B42
:1000C0005D5C203B27602C2E2F5F2B7B7D7C7E3A56
:1000D000227E3C3E3F21402324255E262A282900FB
:1000E000191111241FBECFEFD8E0DEBFCDBF12E043
:1000F000A0E0B1E0EEEEFCE302C005900D92A83462
:10010000B107D9F723E0A8E4B2E001C01D92A03600
:10011000B207E1F710E0C1E7D0E004C02197FE018B
:100120000E946F1EC037D107C9F70E9429130C9493
:100130006C1E0C940000CF93C82F60E00E94BD128B
:1001400061E08C2FCF910C94F912CF93C82F60E00F
:100150000E94F91261E08C2FCF910C94BD1284E1C2
:1001600090E00E944E1282E00E94A50084E190E09F
:100170000E944E1282E00E949B0084E190E00C9469
:100180004E12882321F083E00E94A50003C083E083
:100190000E949B000C94AF001F920F920FB60F921B
:1001A00011248F9381E080930001E9988F910F9043
:1001B0000FBE0F901F90189582E00E949B0083E075
:1001C0000E949B00E9E6F0E080818C608083E998E2
:1001D000E19A089582E00E94A50068E572E080E05F
:1001E00090E00E94281282E00C949B00CF93C82FCD
:1001F00083E00E949B00C6FB882780F90E94C10013
:10020000C5FB882780F90E94C100C4FB882780F9BC
:100210000E94C100C3FB882780F90E94C100C2FB75
:10022000882780F90E94C100C1FB882780F90E94BD
:10023000C1008C2F81700E94C1008C2F881F8827DD
:10024000881F0E94C10083E00E949B008AE090E02A
:100250000E944E120E94F7116093490270934A0265
:1002600080934B0290934C0210920001E99ACF9137
:1002700008950F931F9380910001811123C00E9464
:10028000F7110091490210914A0220914B023091DE
:100290004C02DC01CB01801B910BA20BB30B80390C
:1002A0009105A105B10570F00E94AF000E94F71101
:1002B0006093490270934A0280934B0290934C02E0
:1002C00081E00CC080910001882359F1809148029F
:1002D000813039F489EF0E94F60082E08093480271
:1002E00020C0823039F480914D020E94F6001092B5
:1002F000480217C020915F0280915E02281789F0A2
:1003000030E0F901E25BFD4F808180934D022F5F69
:100310003F4F2F70332720935F021F910F910C9452
:10032000F6001F910F91089520915E0230E0A9011F
:100330004F5F5F4F4F7055278F3F51F060915F02C5
:10034000641731F0F901E25BFD4F808340935E0258
:100350000895CF93C82F60E00E94BD1261E08C2FFA
:10036000CF910C94F91260E086E00E94F91261E0EE
:1003700086E00C94BD1210926D0210926C0286E021
:100380000E94A9018EE00E94A9018FE00E94A901AC
:1003900080E10E94A90181E10E94A90182E10E94FD
:1003A000A90183E10E94A901ECE6F0E080818F635E
:1003B0008083E8E6F0E08081826080831092800094
:1003C000E1E8F0E01082109285001092840080E253
:1003D00090E090938900809388008081886080837A
:1003E000EFE6F0E0808182608083089590936D0253
:1003F00080936C0208951F920F920FB60F921124F2
:100400008F93EF93FF93E1E8F0E080818260808337
:10041000FF91EF918F910F900FBE0F901F90189545
:1004200086B180958F7331F024E0829FC001112442
:100430009860089580E090E00895F89420916A0211
:1004400030916B026F3F19F4215031090CC06130BB
:1004500019F42F5F3F4F07C067FD6F5F6595260F4B
:10046000311D67FD3A9530936B0220936A0220910B
:100470006802309169024F3F19F4215031090CC0D4
:10048000413019F42F5F3F4F07C047FD4F5F45953F
:10049000240F311D47FD3A9530936902209368027D
:1004A00090916702892B80936702789480918100F4
:1004B00082608093810008950F931F93FC01009147
:1004C0006A0210916B020195409168025091690295
:1004D000419580916702811107C081E0011105C03B
:1004E000411103C080E001C081E02091670297E0E4
:1004F000922750E060E070E0692B10E0102F002799
:1005000020E030E0402B512B622B732B4083518332
:100510006283738310926B0210926A0210926902D6
:1005200010926802109267021F910F9108951F9216
:100530000F920FB60F9211242F933F934F935F9317
:100540006F937F938F939F93AF93BF93CF93EF93CB
:10055000FF9380916602811141C00E941002409178
:100560006C0250916D022091640230916502411538
:10057000510531F4009729F42115310511F412C009
:10058000CA018217930711F021E001C024E32093F0
:10059000660290936502809364020E94B30188E230
:1005A00093E20DC080E692E00E945C02882381F015
:1005B00088E3809366020E94B3018CE494E09093F8
:1005C0008900809388001092850010928400ACC04E
:1005D000809181008D7F80938100A6C0883308F0D0
:1005E00051C0813031F486E00E94A90184E991E193
:1005F0007FC0823318F5CEEFC80FC0FF33C086E04E
:100600000E94A9018C2F86958C3008F08C502BE02D
:10061000281B30916602809164029091650202C0AD
:10062000969587952A95E2F73B3118F080FD1CC01E
:1006300002C080FF19C080EB94E05AC0823391F071
:10064000833331F486E00E94A90184E993E466C013
:10065000843331F486E00E94A90184E398E048C025
:10066000853329F40E94B30180E991E041C08633CB
:1006700031F486E00E94A9018AEB9EE539C08AEB3D
:100680009EE54CC0883321F486E00E94A9012EC06B
:100690008F35C0F58953982F969522E130E0291BBC
:1006A0003109409160025091610260916202709143
:1006B000630204C076956795579547952A95D2F7BA
:1006C000C42FC17080FD0AC00E94B301C11103C0D4
:1006D0008AE890E00DC084EF91E00AC086E00E94B5
:1006E000A901C11103C08FED92E002C087E791E03C
:1006F0009093890080938800809166028F5F809339
:10070000660212C08F3529F40E94B30188E590E09B
:10071000EFCF86E00E94A90180EB96E390938900D9
:100720008093880010926602FF91EF91CF91BF9164
:10073000AF919F918F917F916F915F914F913F9179
:100740002F910F900FBE0F901F90189585ED90E0A0
:10075000089589EC90E008958DEB90E0089588EB82
:1007600090E00895CF92DF92EF92FF920F93CF9394
:10077000DF931F92CDB7DEB7FC019285473499F025
:10078000433551F04933B9F491FB882780F98095BE
:10079000292F80FB21F90EC0892F81708095292F88
:1007A00080FB20F907C092FB882780F98095292FCC
:1007B00080FB22F922872285921799F06115710535
:1007C00081F0CB0129839E012F5F3F4F6901EE2409
:1007D000E394F12C00E022E040E060E00E946A1423
:1007E00001C080E00F90DF91CF910F91FF90EF90CB
:1007F000DF90CF9008950F931F93CF938C01C42F58
:10080000DC011C968D919C911D97009719F4C933BA
:1008100081F40BC0DC01ED91FC910190F081E02DA1
:1008200020E00995882399F31BC0F801828581FD9A
:1008300017C0EC2FF0E0E75FFE4F808187FD03C01B
:1008400080680E949401D8011B968C911B97882385
:1008500039F01B961C92CF911F910F910C94EA00D6
:10086000CF911F910F9108950F931F93CF93DF9313
:100870008C01D62FC42FDC011C968D919C911D9765
:10088000009719F4C93381F40BC0DC01ED91FC91A0
:100890000190F081E02D21E00995882399F31FC094
:1008A000F801828581FF1BC0EC2FF0E0E75FFE4F6F
:1008B000808187FF0E9494018D2F817181F0D47413
:1008C00071F0CC3411F0C33651F488E70E949401E2
:1008D00088E70E94940181E0D8011B968C93DF91F8
:1008E000CF911F910F910895AF92BF92CF92DF9257
:1008F000EF92FF920F931F93CF93DF935C01C42F6E
:1009000081E0E82E81E0F82E00E010E0CC24C394D2
:10091000D12CD62FD4279601002E01C0220F0A9485
:10092000EAF78D2F822369F02C23F701808122239F
:1009300019F087FD06C003C087FD03C080680E94D0
:1009400094010F5F1F4FFFEFEF1AFF0A08301105E8
:1009500011F7F5018385882319F013860E94EA00B8
:10096000C93811F0C83949F488E70E94940188E732
:100970000E94940181E0F5018387DF91CF911F915F
:100980000F91FF90EF90DF90CF90BF90AF900895C0
:10099000FC0112868DE891E0918380831386158691
:1009A00014860895FC019581DB0111968C911197B5
:1009B000890F8583968112968C91890F868308957D
:1009C000FC019781916097830895FC0197819E7F38
:1009D00097830895FC019781926097830895FC01A5
:1009E00097819D7F97830895FC01978194609783F9
:1009F0000895FC0197819B7F97830895FC0185E012
:100A0000DF011D928A95E9F783EA91E09183808363
:100A10001582168217820895CF93DF93EC014E81E1
:100A20006D818F810E941D021D821E82DF91CF91F8
:100A3000089580E00895089580E00895860F911D3F
:100A4000860F911DFC01518B408B81E00895860F2C
:100A5000911D860F911DFC015687458781E0089501
:100A6000860F911D860F911DFC015687458781E0F9
:100A70000895CF93DF93EC018C819D81DC01ED9192
:100A8000FC910480F581E02D6E8109951F86188AFE
:100A900081E08A8B1E821B8A1C8A1D8A1E8A1F8AFD
:100AA00080E0DF91CF910895FC018681089581E077
:100AB000633009F080E0089581E0623009F080E061
:100AC0000895860F911D860F911DFC0185859685E1
:100AD0000895FC0187890895EF92FF92CF93DF93E9
:100AE000DC01E70152968C915297823049F11F96B2
:100AF0006C931F9750964C9350979B8193709330B3
:100B0000F9F49A8197FF1CC09E8158962C915897B2
:100B1000291718F458969C935897E82FF0E09F01F6
:100B2000220F331FE20FF31FEA0FFB1F9A819F7002
:100B300097839C81908794E091878F5F52968C93E6
:100B4000DF91CF91FF90EF900895EF92FF920F9376
:100B500002970E946C050F91FF90EF900895CF933C
:100B6000DF93EC018C819D81DC01ED91FC9104808F
:100B7000F581E02D6E8109951F86188A81E08A8BA8
:100B80001E821B8A1C8A1D8A1E8A1F8A80E0DF91B2
:100B9000CF910895FC018681089581E0633009F0CA
:100BA00080E0089581E0613009F080E00895860FCB
:100BB000911D860F911DFC01858596850895FC0188
:100BC00087890895EF92FF92CF93DF93DC01E701CD
:100BD00052968C915297823049F11F966C931F97D1
:100BE00050964C9350979B8193709330F9F49A816F
:100BF00097FF1CC09E8158962C915897291718F47E
:100C000058969C935897E82FF0E09F01220F331FCE
:100C1000E20FF31FEA0FFB1F9A819F7097839C815D
:100C2000908794E091878F5F52968C93DF91CF915C
:100C3000FF90EF900895EF92FF920F9302970E941A
:100C4000E2050F91FF90EF900895CF93DF93EC01B1
:100C50008C819D81DC01ED91FC910480F581E02D7A
:100C60006E8109951C8A1D8A81E08F8B1E82188EE9
:100C7000198E1A8E1B8E1C8E80E0DF91CF91089505
:100C8000FC018681089581E0633009F080E00895D9
:100C900081E0633009F080E00895860F911D860F92
:100CA000911DFC01808991890895FC01848D08952E
:100CB000EF92FF92CF93DF93DC01E70157968C917F
:100CC0005797833049F154966C93549755964C93AB
:100CD00055979B8193709330F9F49A8197FF1CC0CC
:100CE0009E815D962C915D97291718F45D969C93D3
:100CF0005D97E82FF0E09F01220F331FE20FF31FF3
:100D0000EA0FFB1F9A819F7097839C81908794E0E4
:100D100091878F5F57968C93DF91CF91FF90EF90E3
:100D20000895EF92FF920F9302970E9458060F9139
:100D3000FF90EF900895089561110DC0463459F465
:100D4000211103C080E090E002C082E190E00E94A7
:100D5000F60181E0089580E008956F927F928F926E
:100D60009F92AF92BF92CF92DF92EF92FF920F933A
:100D70001F93CF93DF93CDB7DEB762970FB6F8948A
:100D8000DEBF0FBECDBFDC015C962C91222309F49F
:100D900060C06C010E94F711F601808C918CA28CCE
:100DA000B38CDC01CB0188199909AA09BB09B7FDED
:100DB00050C05601FBE0AF0EB11C4601360181E187
:100DC000680E711CD5018C9190E09A8B898BE12C77
:100DD0008E010F5F1F4F9E012F5E3F4FF501319730
:100DE0004081F6016681848195810E94001DF82E64
:100DF000811115C029893A892330310580F0D40149
:100E000050968D919C915197009749F0DC01ED919E
:100E1000FC910190F081E02D40E0B6010995B3E02E
:100E2000AB0EB11CE2E08E0E911CA614B70451F675
:100E30000E94F711D6015D962C91DC01CB01820F47
:100E4000911DA11DB11DF601808F918FA28FB38FCF
:100E500001C0F12C8F2D62960FB6F894DEBF0FBE45
:100E6000CDBFDF91CF911F910F91FF90EF90DF9059
:100E7000CF90BF90AF909F908F907F906F9008958C
:100E8000CF92DF92EF92FF920F931F93CF93DF9356
:100E9000CDB7DEB762970FB6F894DEBF0FBECDBFF9
:100EA000DC0157962C91222381F06C010E94F711EE
:100EB000F6010389148925893689DC01CB01801B61
:100EC000910BA20BB30BB7FF02C0F12C3AC0838584
:100ED00090E09A8B898BE12C8E010F5F1F4F9E0152
:100EE0002F5E3F4F42856681848195810E94001D5F
:100EF000F82E811118C029893A892330310598F0DC
:100F0000D6011D968D919C911E97009761F0DC0192
:100F1000ED91FC910190F081E02D8E010F5F1F4F4C
:100F200040E0B60109950E94F711F601208DDC0121
:100F3000CB01820F911DA11DB11D838B948BA58BBD
:100F4000B68B8F2D62960FB6F894DEBF0FBECDBF65
:100F5000DF91CF911F910F91FF90EF90DF90CF9095
:100F60000895CF92DF92EF92FF920F931F93CF934A
:100F7000DF93CDB7DEB762970FB6F894DEBF0FBE32
:100F8000CDBFDC0157962C91222381F06C010E9489
:100F9000F711F6010389148925893689DC01CB0113
:100FA000801B910BA20BB30BB7FF02C0F12C3AC010
:100FB000838590E09A8B898BE12C8E010F5F1F4F08
:100FC0009E012F5E3F4F42856681848195810E94FC
:100FD000001DF82E811118C029893A892330310566
:100FE00098F0D6011D968D919C911E97009761F007
:100FF000DC01ED91FC910190F081E02D8E010F5FFD
:101000001F4F40E0B60109950E94F711F601208DAF
:10101000DC01CB01820F911DA11DB11D838B948B2F
:10102000A58BB68B8F2D62960FB6F894DEBF0FBEE0
:10103000CDBFDF91CF911F910F91FF90EF90DF9087
:10104000CF9008952F923F924F925F926F927F922E
:101050008F929F92AF92BF92CF92DF92EF92FF92C8
:101060000F931F93CF93DF93CDB7DEB7EB970FB6F8
:10107000F894DEBF0FBECDBFDC0114968D909C901E
:1010800015971696DC90D11017C1C22E242E362E3D
:101090007C01FC01108ED401ED91FC910190F08156
:1010A000E02D60E0C40109955C01009719F446ED5C
:1010B000D42E0FC1FC01608071806114710409F4A9
:1010C000FEC02701F7E04F0E511CDC0111965C9227
:1010D0004E921496CC928E01065D1F4F28E030E0B0
:1010E00040E060E0F701848195810E94C31A182FC7
:1010F0008111EBC01AA5D5016D927C92D401ED91BE
:10110000FC910280F381E02D222D40E0632DC4018B
:101110000995F7018683882309F4D4C099A990879B
:10112000282F40E060E0848195810E946E1B782E1C
:10113000D401ED91FC91D50114961C92882361F0A5
:101140000480F581E02DD70116966C91C4010995B4
:10115000F7011682D72CBDC00190F081E02DD70198
:1011600016966C91C4010995009709F4A0CF212F20
:10117000133108F022E1FC01C48221110FC03BAC05
:10118000C12C33EC832E31E0932E3701F2E06F0E49
:10119000711C5E0181E1A80EB11C38C030E08E01E7
:1011A000065D1F4F40E0D70116966C911697149676
:1011B0008D919C9115970E94C31A182F811172C0AE
:1011C000DECF9A8289827C826B821E86188A1F8675
:1011D00019A21AA21BA219A6BF82AE82B986A8863E
:1011E0008D818B878A87BD86AC868E010F5F1F4FEE
:1011F0002C2D40E0F7016681848195810E94111BAE
:10120000D70152968C91823019F0C394C310D9CF74
:10121000F7018289823009F044C0920142E0668180
:10122000848195810E942B1668EE73E080E090E047
:101230000E942812D7011F962C911F9740E0169606
:101240006C91169714968D919C9115970E94DB1CBA
:10125000182F811127C068EE73E080E090E00E94B3
:101260002812F701418D60E0C7010E94C214182FB7
:10127000811118C020E040E060E0C7010E9498148E
:1012800089EC91E09A838983AE014F5F5F4F60E004
:1012900070E0C7010E94271481E0D70157968C9314
:1012A00018C011EDD701ED91FC910480F581E02D7E
:1012B000C7010995D12E0DC029EDD22E0AC097ED98
:1012C000D92E07C084EDD82E04C0F501718260824A
:1012D000E9CF8D2DEB960FB6F894DEBF0FBECDBFD4
:1012E000DF91CF911F910F91FF90EF90DF90CF9002
:1012F000BF90AF909F908F907F906F905F904F9036
:101300003F902F9008953F924F925F926F927F92FD
:101310008F929F92AF92BF92CF92DF92EF92FF9205
:101320000F931F93CF93DF93CDB7DEB7EC970FB634
:10133000F894DEBF0FBECDBFDC0114968D909C905B
:10134000159716963C9131113FC1522E342E462EE0
:101350005C01FC01158ED401ED91FC910190F081AE
:10136000E02D60E0C40109957C01009711F486ED41
:1013700030C1FC01608071806114710409F426C1E0
:101380006501F7E0CF0ED11CDC011196DC92CE9204
:1013900014965C928E01065D1F4F28E030E040E01D
:1013A00060E0F501848195810E94C31A8CAF8111A0
:1013B000FEC01AA5D7016D927C92D401ED91FC91EB
:1013C0000280F381E02D232D40E0642DC4010995B6
:1013D000F5018683882309F4FBC099A99087282FFB
:1013E00040E060E0848195810E946E1B8CAFD40147
:1013F000ED91FC91D70114961C92882359F004803A
:10140000F581E02DD50116966C91C4010995F50181
:101410001682D8C00190F081E02DD50116966C910E
:10142000C4010995FC01892B09F4A1CF912F133137
:1014300008F092E15482992369F0292F30E08E015F
:10144000065D1F4F40E0F5016681848195810E9411
:10145000C31A8CAF8CAD8111ADC0EBAC87EB91E0C2
:101460009A838983C50102969C838B831E86188A82
:101470001F8619A21AA21BA2CE0141969F838E83BA
:10148000998788872D812B872A879D878C8781E084
:1014900089A7F12CFE1499F08E010F5F1F4F2F2D9D
:1014A00040E0D50116966C91169714968D919C91FB
:1014B00015970E94111BF5018789833041F4D501EE
:1014C00057968C91833029F081ED8CAF73C0F394E3
:1014D000E1CF960143E0F5016681848195810E9408
:1014E0002B168CAF68EE73E080E090E00E9428122B
:1014F000D50154962C91549740E016966C9116970E
:1015000014968D919C9115970E94DB1C8CAF8111D4
:1015100051C068EE73E080E090E00E94281200E085
:1015200010E049ECE42E41E0F42EF501468D602FE9
:10153000C5010E94C2148CAF81113CC020E040E084
:10154000602FC5010E9498148CAFFA82E982AE0127
:101550004F5F5F4FB801C5010E9427148CAF013067
:10156000110519F001E010E0E0CF80E28CAF8CAD06
:101570008823C1F090E0959587958CAFCE01CC96ED
:101580006C01EE24E394F12C00E022E040E060E006
:10159000C5010E946A1469E170E080E090E00E9459
:1015A0002812E5CF91E0D5015C969C9312C0F7011B
:1015B00071826082D501ED91FC910480F581E02D6E
:1015C000C50109958CAD05C089ED03C087ED01C04B
:1015D00084EDEC960FB6F894DEBF0FBECDBFDF9161
:1015E000CF911F910F91FF90EF90DF90CF90BF9020
:1015F000AF909F908F907F906F905F904F903F90B3
:1016000008953F924F925F926F927F928F929F9236
:10161000AF92BF92CF92DF92EF92FF920F931F9300
:10162000CF93DF93CDB7DEB7EC970FB6F894DEBF5C
:101630000FBECDBFDC0114968D909C901597169629
:101640003C9131113AC1522E342E462E5C01FC01E0
:10165000108ED401ED91FC910190F081E02D60E0BD
:10166000C40109957C01009711F486ED2BC1FC01A2
:10167000608071806114710409F421C16501F7E093
:10168000CF0ED11CDC011196DC92CE9214965C92A6
:101690008E01065D1F4F28E030E040E060E0F5017C
:1016A000848195810E94C31A8CAF8111F9C01AA55B
:1016B000D7016D927C92D401ED91FC910280F3816F
:1016C000E02D232D40E0642DC4010995F5018683AA
:1016D000882309F4F6C099A99087282F40E060E09C
:1016E000848195810E946E1B8CAFD401ED91FC9199
:1016F000D70114961C92882359F00480F581E02DBF
:10170000D50116966C91C4010995F5011682D3C0D6
:101710000190F081E02DD50116966C91C4010995D8
:10172000FC01892B09F4A1CF912F133108F092E12C
:101730005482992369F0292F30E08E01065D1F4FF6
:1017400040E0F5016681848195810E94C31A8CAFC7
:101750008CAD8111A8C0EBACF12C4DEB642E41E0B7
:10176000742E2501F2E04F0E511C4E0181E1880ECE
:10177000911CFE1449F17A8269825C824B821E863A
:10178000188A1F8619A21AA21BA219A69F828E82EE
:10179000998688868D818B878A879D868C868E0127
:1017A0000F5F1F4F2F2D40E0D50116966C911697B5
:1017B00014968D919C9115970E94111BF5018289B9
:1017C000823011F0F394D5CFD50152968C918230AE
:1017D00019F081ED8CAF67C0960142E0F50166819A
:1017E000848195810E942B168CAF68EE73E080E0B7
:1017F00090E00E942812D5011F962C911F9740E07F
:1018000016966C91169714968D919C9115970E943F
:10181000DB1C8CAF811147C068EE73E080E090E084
:101820000E942812F501418D60E0C5010E94C2149A
:101830008CAF811138C020E040E060E0C5010E941B
:1018400098148CAF89EC91E09A838983AE014F5F45
:101850005F4F60E070E0C5010E94271480E28CAF0A
:101860008CAD8823C1F090E0959587958CAFCE0123
:10187000CC966C01EE24E394F12C00E022E040E0F1
:1018800060E0C5010E946A1469E170E080E090E0C8
:101890000E942812E5CF91E0D50157969C9312C083
:1018A000F70171826082D501ED91FC910480F58190
:1018B000E02DC50109958CAD05C089ED03C087ED0C
:1018C00001C084EDEC960FB6F894DEBF0FBECDBF1D
:1018D000DF91CF911F910F91FF90EF90DF90CF900C
:1018E000BF90AF909F908F907F906F905F904F9040
:1018F0003F900895DC01AA5ABF4F20E030E04D919F
:101900005D91452B59F4255D3F4F220F331FFC019C
:10191000E20FF31F7183608380E008952F5F3F4FD4
:101920002031310561F783ED0895CF93DF93FC01FA
:10193000DA018281882319F08130D9F01FC0348305
:10194000238381E0828315C02D913C911197232B35
:10195000A9F0019794838383EB0188819981019693
:10196000998388838D919C911197019711969C93EF
:101970008E9383819481009739F7128281E02381CD
:101980003481232B09F080E0DF91CF9108952F92CD
:101990003F924F925F926F927F928F929F92AF92FF
:1019A000BF92CF92DF92EF92FF920F931F93CF934C
:1019B000DF9300D000D0CDB7DEB76C017C836B83A2
:1019C0005A8349834C0180E1880E911C5601A7E09F
:1019D000AA0EB11C332433942601BBE04B0E511CDC
:1019E0003601E2E16E0E711C83E0282E12E08B813D
:1019F0009C81892B09F4D7C0D60190968C918230B6
:101A000061F128F4882341F0813079F0F0CF833000
:101A100041F18430D1F1EBCFF601148385819681B9
:101A2000908787831287118730A2AE014D5F5F4F89
:101A3000BE016F5F7F4FC5010E94381E882309F4E5
:101A4000B2C0D6011596ED91FC91169780819196C2
:101A50008C939197818192968C93F6017682658220
:101A600020A2D60192968C919297843011F493968D
:101A70001C92F60181A182508483258136813087B2
:101A800027838287818784E080A3D60192968C91F8
:101A90008430B1F0853009F442C0823009F06BC067
:101AA000AE014D5F5F4FBE016F5F7F4FC5010E946A
:101AB000381E882309F477C0F601858984A36BC09A
:101AC000AE014D5F5F4FBE016F5F7F4FC5010E944A
:101AD000381E882309F467C0D60155968C91559716
:101AE000833009F058C056968C915697813009F092
:101AF00052C098969C91989757968C91992321F073
:101B0000882309F448C003C0823009F044C0F601BC
:101B100033A2928996A3938997A385A33CC0AE0173
:101B20004D5F5F4FBE016F5F7F4FC5010E94381E42
:101B30008823C9F1D60193968C919397882359F104
:101B400012968D919C911397009729F1DC01ED91EC
:101B5000FC910190F081E02D7401D60195960C91D5
:101B6000959797962C91979796964C9196979496D1
:101B70006C91099510C0F60121A130E02250310985
:101B8000AE014D5F5F4FBE016F5F7F4FC2010E948C
:101B9000950C882341F0D60116969C928E9215974B
:101BA00090961C9224CF0F900F900F900F90DF9182
:101BB000CF911F910F91FF90EF90DF90CF90BF904A
:101BC000AF909F908F907F906F905F904F903F90DD
:101BD0002F9008952F923F924F925F926F927F9233
:101BE0008F929F92AF92BF92CF92DF92EF92FF922D
:101BF0000F931F93CF93DF9300D000D0CDB7DEB704
:101C00006C017C836B835A8349834C0180E1880E8D
:101C1000911C5601A7E0AA0EB11C3324339426016F
:101C2000BBE04B0E511C3601E2E16E0E711C83E0ED
:101C3000282E12E08B819C81892B09F4D7C0D60114
:101C400090968C91823061F128F4882341F08130A4
:101C500079F0F0CF833041F18430D1F1EBCFF60150
:101C6000148385819681908787831287118730A29C
:101C7000AE014D5F5F4FBE016F5F7F4FC5010E9498
:101C8000381E882309F4B2C0D6011596ED91FC9157
:101C90001697808191968C939197818192968C93DF
:101CA000F6017682658220A2D60192968C91929757
:101CB000843011F493961C92F60181A182508483A2
:101CC00025813681308727838287818784E080A3BE
:101CD000D60192968C918430B1F0853009F442C0DF
:101CE000823009F06BC0AE014D5F5F4FBE016F5F88
:101CF0007F4FC5010E94381E882309F477C0F60182
:101D0000858984A36BC0AE014D5F5F4FBE016F5FDD
:101D10007F4FC5010E94381E882309F467C0D60191
:101D200055968C915597833009F058C056968C91F2
:101D30005697813009F052C098969C919897579683
:101D40008C91992321F0882309F448C003C0813085
:101D500009F044C0F60133A2928996A3938997A310
:101D600085A33CC0AE014D5F5F4FBE016F5F7F4FEB
:101D7000C5010E94381E8823C9F1D60193968C9123
:101D80009397882359F112968D919C911397009700
:101D900029F1DC01ED91FC910190F081E02D7401BD
:101DA000D60195960C91959797962C919797969624
:101DB0004C91969794966C91099510C0F60121A1CB
:101DC00030E022503109AE014D5F5F4FBE016F5FC1
:101DD0007F4FC2010E94950C882341F0D6011696D0
:101DE0009C928E92159790961C9224CF0F900F90F4
:101DF0000F900F90DF91CF911F910F91FF90EF9077
:101E0000DF90CF90BF90AF909F908F907F906F901A
:101E10005F904F903F902F9008952F923F924F9256
:101E20005F926F927F928F929F92AF92BF92CF926A
:101E3000DF92EF92FF920F931F93CF93DF9300D027
:101E400000D0CDB7DEB76C017C836B835A834983A6
:101E50004C0180E1880E911C5601A7E0AA0EB11C2E
:101E6000332433942601BBE04B0E511C3601E2E1D2
:101E70006E0E711C83E0282E12E08B819C81892BD1
:101E800009F4D7C0D60190968C91823061F128F484
:101E9000882341F0813079F0F0CF833041F18430F4
:101EA000D1F1EBCFF60114838581968190878783EA
:101EB0001287118730A2AE014D5F5F4FBE016F5F89
:101EC0007F4FC5010E94381E882309F4B2C0D60195
:101ED0001596ED91FC911697808191968C93919730
:101EE000818192968C93F6017682658220A2D6013A
:101EF00092968C919297843011F493961C92F601ED
:101F000081A182508483258136813087278382870F
:101F1000818784E080A3D60192968C918430B1F0C1
:101F2000853009F442C0823009F06BC0AE014D5FCC
:101F30005F4FBE016F5F7F4FC5010E94381E88232F
:101F400009F477C0F601858984A36BC0AE014D5FAB
:101F50005F4FBE016F5F7F4FC5010E94381E88230F
:101F600009F467C0D60155968C915597833009F0D6
:101F700058C056968C915697813009F052C0989669
:101F80009C91989757968C91992321F0882309F476
:101F900048C003C0833009F044C0F60133A29289DF
:101FA00096A3938997A385A33CC0AE014D5F5F4F75
:101FB000BE016F5F7F4FC5010E94381E8823C9F1A3
:101FC000D60193968C919397882359F112968D910F
:101FD0009C911397009729F1DC01ED91FC91019000
:101FE000F081E02D7401D60195960C919597979606
:101FF0002C91979796964C91969794966C910995FB
:1020000010C0F60121A130E022503109AE014D5F30
:102010005F4FBE016F5F7F4FC2010E94950C882306
:1020200041F0D60116969C928E92159790961C922E
:1020300024CF0F900F900F900F90DF91CF911F91B1
:102040000F91FF90EF90DF90CF90BF90AF909F9057
:102050008F907F906F905F904F903F902F9008955A
:102060008AED92E00E94391D81E792E00E940C0502
:102070000C9439012A9A08952A988EBD0DB407FE52
:10208000FDCF1EBC0DB407FEFDCF0E943A108EB5E9
:1020900008952A9882608EBD0DB407FEFDCF6EBDF7
:1020A0000DB407FEFDCF0C943A1088EF0E943C104F
:1020B000807C8034A1F018F4882301F108958038E1
:1020C00019F0803CB9F0089588ED0E943C1081FD24
:1020D0000BC069EC88ED0E94491082E00CC088EDCD
:1020E0000E943C1081FDF5CF6BEC88ED0E944910F9
:1020F00083E001C081E080936E02089561ED88ED78
:102100000E94491010926E0208950F931F93CF936F
:10211000DF938C01229A0E943A10259A239A2498E0
:10212000229A80E58CBD81E08DBD219868E188E828
:102130000E94491060E288E70E94491060E088E749
:102140000E944910C1E0D0E0209799F088E60E94F3
:102150003C10219680FFF8CF61EC88ED0E94491079
:1021600060E680ED0E94491064E088EE0E9449100C
:1021700002C08FEF11C088EE0E943C1082FFFBCF9F
:10218000C8010E94551060E288EC0E94491061E08D
:1021900080E80E94491080E0DF91CF911F910F915C
:1021A0000895CF93DF93C9E7D2E08FE692E0909352
:1021B0008602809385020E94BB010E94DC008AEDAA
:1021C00092E00E9485108F3FC9F461E08DE00E948B
:1021D000BD1261E08DE00E94F91264EF71E080E0D1
:1021E00090E00E94281260E08DE00E94F91264EFF6
:1021F00071E080E090E00E942812EBCF68EC70E084
:1022000080E090E00E942812D093CC02C093CB02D1
:1022100081E792E09093CE028093CD02D093AF02FB
:10222000C093AE029093950280939402DF91CF9178
:1022300008950F931F93CF93DF938AED92E00E944E
:10224000D615EBEBF2E00AED12E0158304838FEC78
:1022500091E0918380838DEE91E093838283108E51
:10226000118E128E138E148E168E1782D8E0D087A0
:102270008CE38093C4021286138684E08093C702A5
:10228000158616868093CA02C1E0C78B168A148A07
:10229000118A108A138A128ABF01C8010E947A0C1F
:1022A000E1EAF2E01583048383EF91E09183808378
:1022B00081E192E093838283138A148A158A168AB5
:1022C000178A118E1782D0878CE38093AA02128618
:1022D000138684E08093AD02C28B118A178616861E
:1022E0001586BF01C8010E947A0CE7E8F2E0158369
:1022F000048387E192E09183808385E392E0938376
:102300008283138A148A158A168A178A118E178275
:10231000D0878CE3809390021286138684E08093AA
:102320009302C28B118A178616861586BF01C801D3
:102330000E947A0C89E792E00E94C80481E792E04B
:102340000E94FE048BE392E09093700280936F02F0
:10235000DF91CF911F910F9108951F920F920FB6A9
:102360000F9211242F933F938F939F93AF93BF931B
:102370008091520390915303A0915403B09155035F
:102380003091510326E0230F2D3720F40296A11D32
:10239000B11D05C029E8230F0396A11DB11D20938F
:1023A00051038093520390935303A0935403B0932B
:1023B00055038091560390915703A0915803B09113
:1023C00059030196A11DB11D8093560390935703A5
:1023D000A0935803B0935903BF91AF919F918F91F0
:1023E0003F912F910F900FBE0F901F9018952FB710
:1023F000F89460915203709153038091540390912B
:1024000055032FBF08953FB7F894809156039091DC
:102410005703A0915803B091590326B5A89B05C056
:102420002F3F19F00196A11DB11D3FBFBA2FA92F53
:10243000982F8827820F911DA11DB11DBC01CD01D0
:1024400043E0660F771F881F991F4A95D1F70895BB
:10245000CF92DF92EF92FF92CF93DF936B017C01DB
:102460000E940312EB01C114D104E104F10479F0DC
:102470000E9403126C1B7D0B683E7340A0F381E049
:10248000C81AD108E108F108C851DC4FECCFDF9140
:10249000CF91FF90EF90DF90CF900895813091051C
:1024A00039F0029729F0880F991F01970197F1F7EA
:1024B0000895789484B5826084BD84B5816084BDBC
:1024C00085B5826085BD85B5816085BDEEE6F0E0AD
:1024D000808181608083E1E8F0E010828081826009
:1024E0008083808181608083E0E8F0E0808181608A
:1024F0008083E1EBF0E0808184608083E0EBF0E0BA
:10250000808181608083EAE7F0E08081846080835D
:102510008081826080838081816080838081806807
:1025200080831092C1000895833081F028F48130B7
:1025300099F08230A1F008958630A9F08730B9F083
:102540008430D1F4809180008F7D03C08091800021
:102550008F7780938000089584B58F7702C084B50B
:102560008F7D84BD08958091B0008F7703C08091E6
:10257000B0008F7D8093B0000895CF93DF9390E0FB
:10258000FC01E458FF4F2491FC01E057FF4F849178
:10259000882361F190E0880F991FFC01E255FF4FFD
:1025A000C591D491FC01EC55FF4FA591B4916111F7
:1025B00009C09FB7F8948881209582238883EC9185
:1025C0002E230BC0623061F49FB7F8943881822FBC
:1025D000809583238883EC912E2B2C939FBF06C07C
:1025E0008FB7F894E8812E2B28838FBFDF91CF918E
:1025F00008951F93CF93DF93282F30E0F901E85916
:10260000FF4F8491F901E458FF4FD491F901E0574D
:10261000FF4FC491CC23C9F0162F81110E94941250
:10262000EC2FF0E0EE0FFF1FEC55FF4FA591B4919A
:102630008FB7F894111105C09C91ED2FE095E92317
:1026400002C0EC91ED2BEC938FBFDF91CF911F91E6
:1026500008950E9459120E94D110C0E0D0E00E945B
:1026600030102097E1F30E940000F9CF0F931F93E1
:10267000CF93DF93EC018A818170F8019081292F3B
:102680002170821771F0E881F98190FF04C0068003
:10269000F781E02D03C00480F581E02DB801CE0163
:1026A00009958A8186958170F801908191FB222796
:1026B00020F9821771F0E881F98191FF04C002844A
:1026C000F385E02D03C00084F185E02DB801CE0133
:1026D00009958A8182FB882780F9F801908192FB15
:1026E000222720F9821771F0E881F98192FF04C056
:1026F0000684F785E02D03C00484F585E02DB8013C
:10270000CE010995F8018181811103C0828188235E
:1027100041F0E881F9810280F381E02DB801CE011A
:102720000995F80180818A83DF91CF911F910F91E4
:1027300008953F924F925F926F927F928F929F92F5
:10274000AF92BF92CF92DF92EF92FF920F931F93BF
:10275000CF93DF93D80112962C91213009F465C0F4
:102760002B01EC016A81F8014081641731F0E881A6
:10277000F9810480F581E02D09954801F2E08F0E82
:10278000911C5E0184E0A80EB11C3E01AAE06A0E15
:10279000711C75016401D6014C91F7019081D4013F
:1027A000F501312C80E02191421303C0413009F042
:1027B00081E02D91291304C0913011F0332433941A
:1027C000E615F70581F7811113C0E881F9810280D0
:1027D000F381E02DB201CE010995E881F9810680EF
:1027E000F781E02DD6014C91D8016C91CE0109956D
:1027F00031100AC0E881F9810084F185E02DD7010C
:102800004C916A81CE010995BFEFCB1ADB0AEFEF3D
:10281000EE1AFE0AE614F70409F0BDCFF80122967D
:1028200081918993C615D705D9F7DF91CF911F9173
:102830000F91FF90EF90DF90CF90BF90AF909F905F
:102840008F907F906F905F904F903F9008958F9200
:102850009F92AF92BF92CF92EF920F93CF93DF935D
:10286000CDB7DEB7C054D1090FB6F894DEBF0FBEA6
:10287000CDBF5F934F939E012F5F3F4F3F932F93A9
:102880001F9220E42F9320E8822E912C5B0132E2EC
:10289000C32EE12C06E021E840E0FC016681848142
:1028A00095810E94DA190F900F900F900F900F9062
:1028B0000F90C05CDF4F0FB6F894DEBF0FBECDBFE8
:1028C000DF91CF910F91EF90CF90BF90AF909F90FD
:1028D0008F9008958F929F92AF92BF92CF92DF9286
:1028E000EF92FF920F938E2CA42EB12C1F921F9269
:1028F000DF92CF92FF92EF929F2CC22EE02E09E042
:1029000021E2462FFC016681848195810E94DA19BB
:102910000F900F900F900F900F900F900F91FF90CE
:10292000EF90DF90CF90BF90AF909F908F900895E1
:102930008F929F92AF92BF92CF92EF920F93A62E5B
:10294000B12C1F921F921F921F921F921F92812CD7
:10295000912CC22EE42E0AE021E240E0FC016681C7
:10296000848195810E94DA190F900F900F900F903B
:102970000F900F900F91EF90CF90BF90AF909F90DE
:102980008F9008958F929F92AF92BF92CF92EF92C5
:102990000F93A62EB12C1F921F921F921F921F926F
:1029A0001F92812C912CC12CE42E0BE021E240E0FF
:1029B000FC016681848195810E94DA190F900F9045
:1029C0000F900F900F900F900F91EF90CF90BF90BE
:1029D000AF909F908F900895CF93DF93FC01862F47
:1029E000807809F051C0283008F04FC0442321F00E
:1029F0009581973009F449C0EF012D96A0E0B0E031
:102A000011969881911103C0662331F021C025965B
:102A1000AF30B105A9F739C085E08A9FE0018B9FEF
:102A2000D00D1124CE0FDF1F442331F081E48887BD
:102A300085818F5F858302C081E0888725E02A9F9A
:102A4000C0012B9F900D1124E80FF91F80851DC038
:102A50006770660F660F660F442341F060648581DE
:102A60008F5F85838770687F682B03C02770687BC2
:102A7000622B25E02A9FC0012B9F900D1124E80FA7
:102A8000F91F6087862F01C080E0DF91CF91089504
:102A9000DF92EF92FF920F931F93CF93DF93EC019E
:102AA000E62EF12C85E0689FB0011124FE01E60FAF
:102AB000F71F8085182F177086FF21C001E085E081
:102AC000D82E8FEF800F8F3008F001E0FE01D09EEE
:102AD000E00DF11D11248085869586958695877079
:102AE000811305C0602FCE010E944815EACF0F5F09
:102AF000003161F78D81811302C011501D8385E083
:102B00008E9DF0018F9DF00D1124EC0FFD1F10869E
:102B100081E0818712862296D783C683DF91CF9189
:102B20001F910F91FF90EF90DF900895611102C007
:102B300006960895FC013D9621E03081361307C0CA
:102B400035E0239F800D911D1124069608952F5F77
:102B50003596203191F780E090E00895FC016134D2
:102B6000C1F43F969C01265A3F4F61E0AC014E5F95
:102B70005F4FDF0112971C9211966C93108213978E
:102B80004D935C933596E217F30799F7FC01158294
:102B900008953D9621E03081361303C0622F0C94D6
:102BA00048152F5F35962031B1F70895CF93DF9305
:102BB000FC0181E492E0918380831582108681E09C
:102BC00081871286CF01029697838683128228E03E
:102BD00023832CE32483DF011F969F01265A3F4F56
:102BE00041E0ED0122971882219648831C92239799
:102BF000998388831596A217B30799F7EA58FF4F70
:102C0000108281E180935E03DF91CF910895CF938D
:102C1000DF931F92CDB7DEB749830E949615498195
:102C2000009789F0DC01ED91FC911197309759F0F4
:102C300013969C9180E0891731F02081241731F0A0
:102C400033968F5FF8CF80E090E001C0CF010F9006
:102C5000DF91CF9108950F931F93CF93DF932115A9
:102C6000310571F0E901042F162F0E949615FC0121
:102C7000892B41F01283D183C083038380E003C09A
:102C800088ED01C086EDDF91CF911F910F910895DE
:102C90002A980895CF93DF931F92CDB7DEB789832B
:102CA0000E94481689818EBD0DB407FEFDCF1EBC63
:102CB0000DB407FEFDCF0E943A108EB50F90DF9144
:102CC000CF910895CF93DF9300D0CDB7DEB76A835D
:102CD00089830E944816898182608EBD6A810DB405
:102CE00007FEFDCF6EBD0DB407FEFDCF0F900F9018
:102CF000DF91CF910C943A108F929F92AF92BF9236
:102D0000DF92EF92FF920F931F93CF93DF931F9267
:102D1000CDB7DEB74C01D62E590149830E949615D6
:102D20007C014981009709F440C0FC0180819181B8
:102D3000892BE9F16D2DC4010E940716F5019183DD
:102D400080830097B1F1FC0122812695269530E021
:102D50002031310514F02FE030E081E090E0A0E078
:102D6000B0E004C0880F991FAA1FBB1F2A95D2F795
:102D70000197F801918380836D2D80EE0E94621689
:102D800088ED0E944A16682FF7018481882339F064
:102D9000F401EA58FF4F80818260682B01C0697F8F
:102DA00088ED0E94621680E005C086ED03C087EDC5
:102DB00001C08BED0F90DF91CF911F910F91FF908C
:102DC000EF90DF90BF90AF909F908F9008958F927B
:102DD0009F92AF92BF92CF92DF92EF92FF920F93AA
:102DE0001F93CF93DF93862E942E59010E94F711E3
:102DF0006B017C0128E8C20E23E1D21EE11CF11C0C
:102E000000E010E0D0E0C0E098280E94F711DC015B
:102E1000CB018C199D09AE09BF09B7FF2DC0692DE3
:102E200080EF0E9462160E94F711DC01CB018C1921
:102E30009D09AE09BF09B7FF09C088EC0E944A1678
:102E400087FFF1CF60E888EC0E94621688EF0E944D
:102E50004A16C82FCF70C43019F0CE3051F00CC0D4
:102E60000F5F1F4FA114B10481F20A151B0569F60B
:102E700003C0DF5FD33049F68C2FDF91CF911F91D4
:102E80000F91FF90EF90DF90CF90BF90AF909F9009
:102E90008F9008959F92AF92BF92CF92DF92EF9260
:102EA000FF920F931F93CF93DF937C01C42F122FB8
:102EB000992493946C01C60ED11CC60ED11C86E5D4
:102EC000C80ED11CA42EB12CABE2AA0EB11CAA0CC8
:102ED000BB1CAE0CBF1CF60180819181DC01ED9121
:102EE000FC910280F381E02D202F412F6C2F09955A
:102EF000803EC9F4C1110BC061E088EE0E946216E9
:102F000066E670E080E090E00E94281216C0F501AD
:102F100080819181DC01ED91FC910284F385E02DAB
:102F2000612F09950AC08D3031F49FEF990D9330D0
:102F300008F040C016C081113DC0F601808191812A
:102F4000DC01ED91FC910190F081E02D202F412FCB
:102F50006C2F0995D82F8D3061F48FEF890D833058
:102F600050F464E670E080E090E00E9428129394B0
:102F7000B2CF8823F1F0C1110BC061E088EE0E944E
:102F8000621666E670E080E090E00E94281211C0B0
:102F9000EC2FF0E0BB96EE0FFF1FEE0DFF1D8081C2
:102FA0009181DC01ED91FC910284F385E02D612F8C
:102FB00009958D2FDF91CF911F910F91FF90EF9089
:102FC000DF90CF90BF90AF909F9008950F931F9385
:102FD000CF93DF9300D0CDB7DEB78A016A838983B0
:102FE0000E944816898182608EBDF8016A81862F11
:102FF000882339F00DB407FEFDCF91919EBD81501D
:10300000F7CF060F111D0DB407FEFDCF0E943A1039
:10301000C8010F900F90DF91CF911F910F910895EC
:103020002F923F924F925F926F927F928F929F92D8
:10303000AF92BF92CF92DF92EF92FF920F931F93C6
:10304000CF93DF9300D000D01F92CDB7DEB77D8342
:103050006C835A016901FB0121808FEF820D80345E
:1030600008F075C00E94F7112B013C01F8E84F0EE3
:10307000F3E15F1E611C711CEC81FD81828180FD8A
:1030800002C060E401C060E888EE0E94621620E0A1
:10309000312CC114D10409F44AC076012C143D042A
:1030A00008F47101EA82A8016E2D80E10E94E61702
:1030B0006E2D88E30E946216EC81FD816081606262
:1030C00080EF0E94621688EC0E944A1687FFFBCFB1
:1030D00060E888EC0E94621688EF0E944A16282F4A
:1030E0002F70812C912C1982222361F02B830E9456
:1030F000F711DC01CB0184199509A609B7092B81C9
:10310000B7FD05C0CE18DF080E0D1F1DC2CF26303B
:1031100001F12E3009F456C0243049F4FFEF8F1A24
:103120009F0AA114B10459F18A149B0441F588EF58
:103130002B830E944A1685FB882780F9EC81FD814C
:10314000928180FB90F992832B81822F41C08AED7E
:103150003FC088EF0E944A1685FB882780F991E0DE
:103160008927EC81FD81928180FB90F9928390FD0B
:1031700002C060E401C060E888EE0E94621660E070
:1031800088E30E946216F801608180E10E94621665
:103190006A8188E30E946216EC81FD816081606231
:1031A00080EF0E94621688EC0E944A1687FFFBCFD0
:1031B00060E888EC0E94621688EF0E944A16282F69
:1031C0002F7092CF89818F5F89838330C1F6AFCF13
:1031D0000F900F900F900F900F90DF91CF911F9154
:1031E0000F91FF90EF90DF90CF90BF90AF909F90A6
:1031F0008F907F906F905F904F903F902F900895A9
:103200002F923F924F925F926F927F928F929F92F6
:10321000AF92BF92CF92DF92EF92FF920F931F93E4
:10322000CF93DF93CDB7DEB72A970FB6F894DEBF02
:103230000FBECDBF4C017A8769875C834B836901E0
:10324000F901A080B180FB01F181FA83F9011182BB
:103250001082FB01828181FD02C060E101C060E259
:1032600088EE0E9462162E2C312C412C512CAD82FE
:103270002B813C81E985FA85408160E0C4010E9490
:10328000E71689838630B1F488EF0E944A1682954A
:103290008170F1E08F27E985FA85928180FB91F9B1
:1032A000928391FD02C060E101C060E288EE0E945D
:1032B0006216DECF9981911163C088EC0E944A1694
:1032C00082FF5CC080E30E944A16F82E282F30E06F
:1032D000A216B30608F4FD80F601208131816F2C1F
:1032E000712CA501421B530B57FF02C040E050E078
:1032F0009301461557050CF49A012E833F832887C6
:103300000E944816F8E0FEBD88853F812E810DB4ED
:1033100007FEFDCFF801882341F01EBC81500DB49B
:1033200007FEFDCF4EB54193F6CF020F131F0E944B
:103330003A1064E088EC0E946216F6012081318127
:10334000620E731E71826082FA81FF1618F06A1491
:103350007B0460F088EF0E944A1682958170E985AF
:10336000FA85928180FB91F992830AC0EE2009F4DC
:103370007FCFC201B1010E9428127ACF90EF9983CA
:1033800089812A960FB6F894DEBF0FBECDBFDF91BC
:10339000CF911F910F91FF90EF90DF90CF90BF9052
:1033A000AF909F908F907F906F905F904F903F90E5
:1033B0002F9008952F923F924F925F926F927F923B
:1033C0008F929F92AF92BF92CF92DF92EF92FF9235
:1033D0000F931F93CF93DF93CDB7DEB762970FB6EE
:1033E000F894DEBF0FBECDBF3C01F42E322E202E4E
:1033F0005C2D4FA058A4C9A4DAA4188A1F861E8683
:103400001D868E01035F1F4F9E01215F3F4F598B29
:103410000E947C16598981119DC039822A82EB82D3
:103420005C83BE82AD8298868F82AE014F5F5F4F14
:1034300068E080E20E94E6172D853E854F2D60E111
:10344000C3010E94E716182F811180C0232C221C73
:103450002224221CC114D10409F46BC0EF85F88921
:103460008281222009F456C0826082835401332471
:103470003394A114B10409F44AC05C864B864D858F
:103480005E856F857889E12C86019E01255F3F4F1F
:10349000C3010E940019182F8630B1F42F85388996
:1034A00088EF298B3A8B0E944A1685FB882780F982
:1034B000832529893A89D90112969C91129780FB1C
:1034C00091F912969C93D5CF811140C0EBA5FCA534
:1034D0003097A1F00190F081E02D0190F081E02D76
:1034E000C4018A199B099A8789876B857C859E010F
:1034F000275F3F4FA6018BA59CA509958B859C85D1
:10350000A81AB90A8415950508F0B3CF12C0111195
:103510001DC014C0816082834D855E858601920145
:10352000BF01C3010E941018811114C02D853E8572
:103530000FC02D853E85211003C00AC02D853E8514
:1035400060EA4F2DC3010E94E71604C0812F02C01C
:1035500060E8F7CF62960FB6F894DEBF0FBECDBF1E
:10356000DF91CF911F910F91FF90EF90DF90CF905F
:10357000BF90AF909F908F907F906F905F904F9093
:103580003F902F9008958F929F92AF92BF92CF92CB
:10359000EF920F931F931F921F921F930F933F93CE
:1035A0002F934901A12CB12CCC24C394E12C06E02B
:1035B00020E80E94DA190F900F900F900F900F9053
:1035C0000F901F910F91EF90CF90BF90AF909F9071
:1035D0008F9008958F929F92AF92BF92CF92EF9269
:1035E000FF920F931F921F92FF92EF923F932F93A0
:1035F0004901A12CB12C22E0C22EE02E06E020E8E9
:103600000E94DA190F900F900F900F900F900F906B
:103610000F91FF90EF90CF90BF90AF909F908F90C1
:1036200008954F925F926F927F928F929F92AF9286
:10363000BF92CF92DF92EF92FF920F931F93CF939F
:10364000DF93CDB7DEB7C054D1090FB6F894DEBF13
:103650000FBECDBF3C01D62E542E422EC02ECE0121
:1036600001965C017C01022F29E030E0C3010E9439
:10367000EA1A81111BC08B809C801F93CF92BF924E
:10368000AF921F9280E48F93A12CB12C82E0C82EC0
:10369000E42C06E020E8452D6D2DC3010E94DA19C7
:1036A0000F900F900F900F900F900F90C05CDF4F16
:1036B0000FB6F894DEBF0FBECDBFDF91CF911F9143
:1036C0000F91FF90EF90DF90CF90BF90AF909F90C1
:1036D0008F907F906F905F904F9008958F929F9200
:1036E000AF92BF92CF92EF920F93CF931F921F9200
:1036F0001F921F921F921F92812C912CA12CB12CF2
:10370000C12CE22E05E020E00E94DA19C82F6CE2FD
:1037100071E080E090E00E9428120F900F900F90CF
:103720000F900F900F908C2FCF910F91EF90CF9023
:10373000BF90AF909F908F9008950F931F93CF935A
:10374000DF938A3F3FEF930711F486ED2DC0DC0134
:103750001696ED91FC911797EF2B09F1122F242F5C
:10376000EC011A8740E00E94EC14082F8823C9F06E
:10377000682FCE010E949615009739F3FC0114833F
:10378000202F40E060E0CE010E946E1B182F88239E
:1037900051F0602FCE010E94AE15812F05C087ED3C
:1037A00003C084ED01C080E0DF91CF911F910F91A4
:1037B00008952F923F924F925F926F927F928F92D5
:1037C0009F92AF92BF92CF92DF92EF92FF920F93B0
:1037D0001F93CF93DF93CDB7DEB766970FB6F894FC
:1037E000DEBF0FBECDBF1B8A38E03C8B3CE33D8B78
:1037F0008A3F3FEF930709F4ADC0B22E342EA62EB8
:103800007C01DC011696CD90DC901797CE01439693
:1038100017969C938E9316971A962C938E010F5F92
:103820001F4F22E130E040E060E0C7010E94C31A70
:10383000F701D782C6828111A5C069847A844B843E
:103840005C843D813E8B2E80670186E5C80ED11CCD
:10385000460110E0D4018D919C91009789F1DC0123
:10386000ED91FC910084F185E02D0995811128C02E
:10387000F40180819181DC01ED91FC910088F18956
:10388000E02D622D09958823D9F0F4018081918182
:10389000DC01ED91FC910484F585E02DA201B301DA
:1038A0000995811159C0F40180819181DC01ED916C
:1038B000FC910684F785E02D6E89099581114CC035
:1038C0001F5FB2E08B0E911C103121F610E0F60163
:1038D00080819181009789F1DC01ED91FC91008458
:1038E000F185E02D0995811128C0F6018081918133
:1038F000DC01ED91FC910088F189E02D622D0995A4
:103900008823A9F1F60180819181DC01ED91FC9180
:103910000484F585E02DA201B301099581110DC044
:10392000F60180819181DC01ED91FC910684F7859F
:10393000E02D6E8909958823D1F01F5FB2E0CB0E90
:10394000D11C103121F62B2D432D6A2DC7010E9469
:103950009D1B18C086ED16C00B2D232D4A2D612FFF
:10396000C7010E944A17813D09F4AACF0BC00B2D55
:10397000232D4A2D612FC7010E944A17982F977F48
:10398000913DD9F266960FB6F894DEBF0FBECDBF5B
:10399000DF91CF911F910F91FF90EF90DF90CF902B
:1039A000BF90AF909F908F907F906F905F904F905F
:1039B0003F902F9008958F929F92AF92BF92CF9297
:1039C000EF920F931F921F921F921F921F921F92AE
:1039D000812C912CA12CB12CC12CE22E09E020E0ED
:1039E0000E94DA190F900F900F900F900F900F9088
:1039F0000F91EF90CF90BF90AF909F908F900895D0
:103A00008F929F92AF92BF92CF92DF92EF920F93DD
:103A10001F93CF93DF9300D000D0CDB7DEB76C01FA
:103A2000590148011C821B821A8219828E010F5F84
:103A30001F4F9E012D5F3F4F0E947C16811109C0D0
:103A400049815A816B817C8184019501C6010E9464
:103A500000190F900F900F900F90DF91CF911F9151
:103A60000F91EF90DF90CF90BF90AF909F908F908D
:103A70000895AF92BF92CF92DF92EF92FF920F9391
:103A80001F93CF938C0119990EC088EC0E944A169F
:103A900085FF05C0C8010E94551060E201C060E0CA
:103AA00088EC0E94621680916E02813039F040F0FD
:103AB000823079F0833039F5C1E00CC083E106C073
:103AC00080915E03807F8031F1F081E180935E031D
:103AD0001AC0C0E080915E03807F8031A9F40E940B
:103AE000F711DC01CB0188539F4FAF4FBF4F80933D
:103AF0005A0390935B03A0935C03B0935D0380E251
:103B000080935E0301C0C0E0780186E5E80EF11CF9
:103B10006801A6E7CA0ED11C5701F5018191919168
:103B20005F01009739F0DC01ED91FC910680F7818F
:103B3000E02D0995AC14BD0481F790915E0390349B
:103B400009F43FC050F4903221F19033A1F191314A
:103B500009F084C0F60110820AC0913509F458C0FA
:103B6000903809F46AC0903509F078C039C0D7019F
:103B70008D919D917D01009739F0DC01ED91FC91D3
:103B80000480F581E02D0995EC14FD0481F782E1B4
:103B900063C00E94F71100915A0310915B032091BA
:103BA0005C0330915D03DC01CB01801B910BA20B08
:103BB000B30BB7FD53C061E088EE0E94621680E44B
:103BC0004BC088EE0E944A1680FD48C088ED0E94D6
:103BD0004A16682F686088ED0E94621680E53CC036
:103BE00088EC0E944A1686FF39C081E580935E0307
:103BF0000E94F711DC01CB014496A11DB11D8093F9
:103C00005A0390935B03A0935C03B0935D0326C0BB
:103C10000E94F711C0905A03D0905B03E0905C03C0
:103C2000F0905D03DC01CB018C199D09AE09BF0941
:103C3000B7FD14C080E880935E032C2F40E060E065
:103C4000C8010E94D91B882331F0823D39F080934E
:103C50005F0380EA01C080E980935E03CF911F91EA
:103C60000F91FF90EF90DF90CF90BF90AF900895AD
:103C7000CF93DF93FC01EA0180819181892B19F5B3
:103C800080E027C028813981232BD1F3DB012D91DE
:103C90003C91D9019C91A381B0E0A81BB10920817E
:103CA0003181A20FB31F9C938281815082838881CE
:103CB0009981019799838883DB018D919C9111975C
:103CC00001968D939C9382818111DCCF83818283C5
:103CD00081E0DF91CF910895F8940C94751EEE0F5A
:0E3CE000FF1F0590F491E02D0994F894FFCF9A
:103CEE00016360646663616567FFFFFFFF20353324
:103CFE0022122324251726272837361819101321A8
:103D0E001416341132153101020304050607080991
:103D1E000A44454142400B0C1A1BFF0D292A00385C
:103D2E00393A62505152535455565758592B30FF09
:103D3E00FFFF4FFF5A46FF5B4E4F4D4CFF5C5D4AF7
:103D4E005E431D1E1F2D2E2F3D3E3F0F3C30FFFFAD
:103D5E00FFFFFFFFFFFFFFFFFFFFFFFFFFFFFFFF65
:103D6E00FFFFFFFFFFFFFFFFFF000000009913B2F0
:103D7E000374043404FB03A603A903AC03AF0300CE
:103D8E000000003613D204E504E004EF04EA04F95F
:103D9E0004F404000000000D0F00000000EA0D0006
:103DAE00000000C70C000000009B0600000000830E
:103DBE000919052506AD0640061B051C05430648D8
:103DCE00064D061E0555065806FEFF00009106001C
:103DDE00000000010B1905AF054007CA051B051CA5
:103DEE0005CD05D205D7052705DF05E205FEFF0047
:103DFE00001B0600000000220819053905B1075402
:103E0E00051B051C0557055C056105300569056C2C
:103E1E0005FEFF0000A505000000009C0600000046
:083E2E00009615EC14AE15001E
:00000001FF
