:100000000C9471000C9499000C9444090C94990080
:100010000C9499000C9499000C9499000C949900FC
:100020000C9499000C9499000C9499000C949900EC
:100030000C9499000C9499000C9499000C949900DC
:100040000C94B70E0C9499000C94A8120C946D1299
:100050000C9499000C9499000C9499000C949900BC
:100060000C9499000C94990021402324255E262AA3
:1000700028295F2B7B7D7C7E3A227E3C3E3F2D3DB6
:100080005B5D5C203B27602C2E2F2F2A2D2B0D0033
:10009000000000240027002A00000000002500289E
:1000A000002B0004040404040404040202020202FB
:1000B000020303030303030102040810204080012C
:1000C00002040810200102040810200000000700AC
:1000D0000201000003040600000000000000000010
:1000E0004C2011241FBECFEFD8E0DEBFCDBF12E001
:1000F000A0E0B1E0E8EDF3E402C005900D92A8366F
:10010000B107D9F724E0A8E6B2E001C01D92AE32F3
:10011000B207E1F710E0C1E7D0E004C02197FE018B
:100120000E94E421C037D107C9F70E94001D0C943A
:10013000E1210C940000EF92FF92CF93DF93DC015A
:10014000E70157968C915797833049F154966C93F9
:10015000549755964C9355979B8193709330F9F42F
:100160009A8197FF1CC09E815D962C915D972917FF
:1001700018F45D969C935D97E82FF0E09F01220FA5
:10018000331FE20FF31FEA0FFB1F9A819F709783C3
:100190009C81908794E091878F5F57968C93DF9135
:1001A000CF91FF90EF900895FC01848D0895860F04
:1001B000911D860F911DFC0180899189089581E030
:1001C000633009F080E0089581E0633009F080E059
:1001D0000895FC0186810895CF93DF93EC018C8113
:1001E0009D81DC01ED91FC910480F581E02D6E8113
:1001F00009951C8A1D8A81E08F8B1E82188E198EAC
:100200001A8E1B8E1C8E80E0DF91CF910895EF92A5
:10021000FF92CF93DF93DC01E70152968C915297C6
:10022000823049F11F966C931F9750964C935097CC
:100230009B8193709330F9F49A8197FF1CC09E8143
:1002400058962C915897291718F458969C935897BC
:10025000E82FF0E09F01220F331FE20FF31FEA0F98
:10026000FB1F9A819F7097839C81908794E0918770
:100270008F5F52968C93DF91CF91FF90EF9008950E
:10028000EF92FF920F9302970E9407010F91FF9048
:10029000EF900895FC0187890895860F911D860FC0
:1002A000911DFC0185859685089581E0613009F0F6
:1002B00080E0089581E0633009F080E00895FC015A
:1002C00086810895CF93DF93EC018C819D81DC01C1
:1002D000ED91FC910480F581E02D6E8109951F86DA
:1002E000188A81E08A8B1E821B8A1C8A1D8A1E8ABC
:1002F0001F8A80E0DF91CF910895EF92FF92CF9314
:10030000DF93DC01E70152968C915297823049F1DC
:100310001F966C931F9750964C9350979B819370A8
:100320009330F9F49A8197FF1CC09E8158962C91C6
:100330005897291718F458969C935897E82FF0E08F
:100340009F01220F331FE20FF31FEA0FFB1F9A8159
:100350009F7097839C81908794E091878F5F5296DE
:100360008C93DF91CF91FF90EF900895EF92FF92E1
:100370000F9302970E947D010F91FF90EF900895D7
:10038000FC0187890895860F911D860F911DFC0140
:1003900085859685089581E0623009F080E00895B2
:1003A00081E0633009F080E00895FC0186810895C2
:1003B000CF93DF93EC018C819D81DC01ED91FC9169
:1003C0000480F581E02D6E8109951F86188A81E0F1
:1003D0008A8B1E821B8A1C8A1D8A1E8A1F8A80E0C5
:1003E000DF91CF910895860F911D860F911DFC011D
:1003F0005687458781E00895860F911D860F911DD0
:10040000FC015687458781E00895860F911D860F70
:10041000911DFC01518B408B81E0089580E008958F
:1004200080E090E00895089581E0089580E00895C7
:1004300080E00895089580E0089580E0089580E0C8
:10044000089580E0089580E00895FC0197819B7FE6
:1004500097830895FC019781946097830895FC0128
:1004600097819D7F97830895FC0197819260978380
:100470000895FC0197819E7F97830895FC019781E1
:10048000916097830895FC019581DB0111968C9111
:100490001197890F8583968112968C91890F868397
:1004A00008958AE890E008958EE790E0089582E745
:1004B00090E0089588E690E0089520917A0230E077
:1004C000A9014F5F5F4F4F7055278F3F51F06091EB
:1004D0007B02641731F0F901E659FD4F80834093A8
:1004E0007A0208950F931F93CF93DF9300D0CDB777
:1004F000DEB78C0169834A83DC011C968D919C9147
:100500001D97009721F4EA81E933B9F411C0DC01A9
:10051000ED91FC910190F081E02D21E0AE014E5F64
:100520005F4FBE016F5F7F4F0995882361F320C045
:10053000D8011A968C9181FF1BC0F0E0E75FFE4F57
:10054000808187FF0E945D029981892F817181F0EE
:10055000947471F08A818C3411F0833649F488E701
:100560000E945D0288E70E945D0281E0F8018387B6
:100570000F900F90DF91CF911F910F9108956F927F
:100580007F928F929F92AF92BF92CF92DF92EF9223
:10059000FF920F931F93CF93DF93CDB7DEB7629790
:1005A0000FB6F894DEBF0FBECDBFDC015C962C9178
:1005B000222309F45FC07C010E94AB0EF701808CFE
:1005C000918CA28CB38CDC01CB0188199909AA0902
:1005D000BB09B7FD4FC06701FBE0CF0ED11C47013F
:1005E000370181E1680E711CD6018C9190E09A8BE5
:1005F000898B8E010F5F1F4F9E012F5E3F4FF601CB
:1006000031974081F7016681848195810E94E210D3
:10061000B82E811115C029893A892330310580F01F
:10062000D40150968D919C915197009749F0DC012F
:10063000ED91FC910190F081E02D40E0B70109952A
:10064000B3E0CB0ED11CE2E08E0E911CC614D70491
:1006500059F60E94AB0ED7015D962C91DC01CB01BF
:10066000820F911DA11DB11DF701808F918FA28F67
:10067000B38F01C0B12C8B2D62960FB6F894DEBFFC
:100680000FBECDBFDF91CF911F910F91FF90EF90E3
:10069000DF90CF90BF90AF909F908F907F906F90A2
:1006A0000895DF92EF92FF920F931F93CF93DF9302
:1006B000CDB7DEB762970FB6F894DEBF0FBECDBFE1
:1006C000DC0157962C91222381F07C010E94AB0E15
:1006D000F7010389148925893689DC01CB01801B48
:1006E000910BA20BB30BB7FF02C0D12C39C083858D
:1006F00090E09A8B898B8E010F5F1F4F9E012F5EBA
:100700003F4F42856681848195810E94E210D82EF8
:10071000811118C029893A892330310598F0D70111
:100720001D968D919C911E97009761F0DC01ED91D3
:10073000FC910190F081E02D8E010F5F1F4F40E092
:10074000B70109950E94AB0EF701208DDC01CB01AA
:10075000820F911DA11DB11D838B948BA58BB68B30
:100760008D2D62960FB6F894DEBF0FBECDBFDF9120
:10077000CF911F910F91FF90EF90DF900895DF923E
:10078000EF92FF920F931F93CF93DF93CDB7DEB716
:1007900062970FB6F894DEBF0FBECDBFDC0157964F
:1007A0002C91222381F07C010E94AB0EF70103897A
:1007B000148925893689DC01CB01801B910BA20BA2
:1007C000B30BB7FF02C0D12C39C0838590E09A8B60
:1007D000898B8E010F5F1F4F9E012F5E3F4F428519
:1007E0006681848195810E94E210D82E811118C003
:1007F00029893A892330310598F0D7011D968D91CA
:100800009C911E97009761F0DC01ED91FC910190A5
:10081000F081E02D8E010F5F1F4F40E0B701099579
:100820000E94AB0EF701208DDC01CB01820F911DE0
:10083000A11DB11D838B948BA58BB68B8D2D6296DC
:100840000FB6F894DEBF0FBECDBFDF91CF911F91E1
:100850000F91FF90EF90DF900895CF93DF931F9259
:10086000CDB7DEB7FC019285473499F0433551F09E
:100870004933B9F491FB882780F98095292F80FBB3
:1008800021F90EC0892F81708095292F80FB20F9D6
:1008900007C092FB882780F98095292F80FB22F9D9
:1008A00022872285921759F06115710541F0CB011D
:1008B0002983BE016F5F7F4F0E94A41C01C080E0AE
:1008C0000F90DF91CF9108954F925F926F927F9238
:1008D0008F929F92AF92BF92CF92DF92EF92FF9250
:1008E0000F931F93CF93DF93CDB7DEB7EC970FB67F
:1008F000F894DEBF0FBECDBFDC0114968D909C90A6
:10090000159716963C91311129C1C22E442E562EB0
:100910008C01FC01158ED401ED91FC910190F081C8
:10092000E02D60E0C40109957C01009711F486ED8B
:100930001AC1FC01608071806114710409F410C156
:100940005801F7E0AF0EB11CDC011196BC92AE92DB
:100950001496CC929E01265D3F4F48E050E060E047
:10096000F801848195810E9449118CAF8111E9C001
:10097000DAA4D7016D927C92D401ED91FC910280B2
:10098000F381E02D242D40E0652DC4010995F80187
:100990008683882309F4E6C099A99087682F84810B
:1009A00095810E9419118CAFD401ED91FC91D70172
:1009B00014961C92882359F00480F581E02DD8010B
:1009C00016966C91C4010995F8011682C5C0019074
:1009D000F081E02DD80116966C91C401099500971D
:1009E00009F4A5CF4D2D433108F042E1FC01C4824A
:1009F000442379F050E09E01265D3F4FD8011696C2
:100A00006C91169714968D919C9115970E9449119F
:100A10008CAF8CAD811198C0EBAC89E991E09A83E1
:100A20008983C80102969C838B831D821A861B864C
:100A30001E86188A1F8619A21AA21BA2CE014196F1
:100A40009F838E83998788879D878C8781E089A77C
:100A5000F12CFE1479F09E012F5F3F4F4F2DF801CE
:100A60006681848195810E949311D80157968C915B
:100A7000833039F4F8018789833029F081ED8CAF18
:100A800063C0F394E6CF950143E06681848195814C
:100A90000E9406208CAF68EE73E080E090E00E9438
:100AA000850EF80144896681848195810E94E11F49
:100AB0008CAF811149C068EE73E080E090E00E9445
:100AC000850EE12CF12C4FE9C42E41E0D42ED80143
:100AD0005E964C916E2DC8010E9423208CAF81112F
:100AE00033C06E2DC8010E94B81F8CAFDA82C98254
:100AF000AE014F5F5F4FB701C8010E94761F8CAFF8
:100B0000EA94EF2821F0EE24E394F12CE0CF80E288
:100B10008CAF8CAD882389F090E0959587958CAF4C
:100B2000BE01645C7F4FC8010E94A41C69E170E0B3
:100B300080E090E00E94850EECCF91E0F801948F68
:100B400012C0F70171826082D801ED91FC9104809E
:100B5000F581E02DC80109958CAD05C089ED03C074
:100B600087ED01C084EDEC960FB6F894DEBF0FBEA2
:100B7000CDBFDF91CF911F910F91FF90EF90DF904C
:100B8000CF90BF90AF909F908F907F906F905F902D
:100B90004F9008954F925F926F927F928F929F92A3
:100BA000AF92BF92CF92DF92EF92FF920F931F937B
:100BB000CF93DF93CDB7DEB7EC970FB6F894DEBFD7
:100BC0000FBECDBFDC0114968D909C9015971696A4
:100BD0003C9131112EC1C22E442E562E8C01FC01A7
:100BE000108ED401ED91FC910190F081E02D60E038
:100BF000C40109957C01009711F486ED1FC1FC0129
:100C0000608071806114710409F415C15801F7E026
:100C1000AF0EB11CDC011196BC92AE921496CC9230
:100C20009E01265D3F4F48E050E060E0F80184817E
:100C300095810E9449118CAF8111EEC0DAA4D701D1
:100C40006D927C92D401ED91FC910280F381E02DB4
:100C5000242D40E0652DC4010995F8018683882381
:100C600009F4EBC099A99087682F848195810E942F
:100C700019118CAFD401ED91FC91D70114961C92FF
:100C8000882359F00480F581E02DD80116966C91E7
:100C9000C4010995F8011682CAC00190F081E02DC7
:100CA000D80116966C91C4010995009709F4A5CF57
:100CB0004D2D433108F042E1FC01C482442379F018
:100CC00050E09E01265D3F4FD80116966C91169715
:100CD00014968D919C9115970E9449118CAF8CAD03
:100CE00081119DC0EBACF12C33E9832E31E0932EC2
:100CF0003801B2E06B0E711C6E01E1E1CE0ED11C29
:100D0000FE1441F19A8289827C826B821D821A864E
:100D10001B861E86188A1F8619A21AA21BA219A654
:100D2000DF82CE82D986C886DD86CC869E012F5F83
:100D30003F4F4F2DD80116966C91169714968D91B2
:100D40009C9115970E949311F8018289823011F0CD
:100D5000F394D6CFD80152968C91823019F081ED60
:100D60008CAF5DC0950142E0F80166818481958178
:100D70000E9406208CAF68EE73E080E090E00E9455
:100D8000850ED8011F964C911F9716966C91169759
:100D900014968D919C9115970E94E11F8CAF811143
:100DA0003EC068EE73E080E090E00E94850EF8019E
:100DB000418D60E0C8010E9423208CAF81112FC0BB
:100DC00060E0C8010E94B81F8CAF8FE991E09A8360
:100DD0008983AE014F5F5F4F60E070E0C8010E9401
:100DE000761F80E28CAF8CAD882389F090E09595DA
:100DF00087958CAFBE01645C7F4FC8010E94A41C24
:100E000069E170E080E090E00E94850EECCF91E017
:100E1000D80157969C9312C0F70171826082D80165
:100E2000ED91FC910480F581E02DC80109958CAD10
:100E300005C089ED03C087ED01C084EDEC960FB6C7
:100E4000F894DEBF0FBECDBFDF91CF911F910F9100
:100E5000FF90EF90DF90CF90BF90AF909F908F90DA
:100E60007F906F905F904F9008953F924F925F9266
:100E70006F927F928F929F92AF92BF92CF92DF92AA
:100E8000EF92FF920F931F93CF93DF93CDB7DEB70F
:100E9000EB970FB6F894DEBF0FBECDBFDC01149602
:100EA000AD90BC9015971696EC90E11010C1522EA3
:100EB000342E462E8C01FC01108ED501ED91FC9153
:100EC0000190F081E02D60E0C50109956C0100976B
:100ED00019F456EDE52E08C1FC0180809180811443
:100EE000910409F4F7C03801F7E06F0E711CDC01C2
:100EF00011967C926E9214965C929E01265D3F4FF5
:100F000048E050E060E0F801848195810E94491139
:100F1000F82E8111E5C0FAA4D6018D929C92D501DC
:100F2000ED91FC910280F381E02D232D40E0642DB2
:100F3000C5010995F8018683882309F4CEC099A9D3
:100F40009087682F848195810E941911982ED50170
:100F5000ED91FC91D60114961C92882361F00480D7
:100F6000F581E02DD80116966C91C5010995F8011F
:100F70001682E92CB9C00190F081E02DD8011696B7
:100F80006C91C5010995009709F4A3CF4F2D43310A
:100F900008F042E1FC01548241110FC05BACF12C1E
:100FA0004DE8A42E41E0B42E4801F2E08F0E911CD2
:100FB0006E0181E1C80ED11C36C050E09E01265D55
:100FC0003F4FD80116966C91169714968D919C916F
:100FD00015970E944911F82E81116FC0DFCFBA8298
:100FE000A9829C828B821D821A861B861E86188A85
:100FF0001F8619A21AA21BA219A6DF82CE82D98649
:10100000C886DD86CC869E012F5F3F4F4F2DF801AD
:101010006681848195810E949311D80152968C91AA
:10102000823019F0F394F510DACFF801828982301A
:1010300009F041C0930142E06681848195810E945C
:10104000062068EE73E080E090E00E94850ED801F3
:101050001F964C911F9716966C91169714968D912A
:101060009C9115970E94E11FF82E811126C068EE11
:1010700073E080E090E00E94850EF801418D60E011
:10108000C8010E942320F82E811117C060E0C8011A
:101090000E94B81F8FE991E09A838983AE014F5F68
:1010A0005F4F60E070E0C8010E94761F81E0D801C8
:1010B00057968C9319C031EDF32ED801ED91FC9128
:1010C0000480F581E02DC8010995EF2C0DC029EDB4
:1010D000E22E0AC097EDE92E07C084EDE82E04C089
:1010E000F60191828082E9CF8E2DEB960FB6F894AF
:1010F000DEBF0FBECDBFDF91CF911F910F91FF904B
:10110000EF90DF90CF90BF90AF909F908F907F90A7
:101110006F905F904F903F900895CF93C82F60E0FD
:101120000E94FD0D61E08C2FCF910C94490E2A98FE
:1011300008952A9A0895CF93DF93FC01DA01828102
:10114000882319F08130D9F01FC03483238381E0D4
:10115000828315C02D913C911197232BA9F0019703
:1011600094838383EB018881998101969983888395
:101170008D919C911197019711969C938E938381E9
:101180009481009739F7128281E023813481232BE7
:1011900009F080E0DF91CF910895DC01AA5ABF4F9A
:1011A00020E030E04D915D91452B59F4255D3F4F96
:1011B000220F331FFC01E20FF31F7183608380E075
:1011C00008952F5F3F4F2031310561F783ED08957A
:1011D000CF93C82F60E00E94FD0D61E08C2FCF916E
:1011E0000C94490ECF93C82F60E00E94490E61E035
:1011F0008C2FCF910C94FD0D80916802813069F0A5
:1012000040F0823071F08330B1F487E00E94E8084A
:101210000FC087E00E94F2080BC087E00E94F2082E
:1012200003C087E00E94E80885E00E94E80803C048
:1012300085E00E94F2088BE891E00197F1F70895AC
:1012400080916902813069F040F0823071F0833022
:10125000B1F486E00E94E8080FC086E00E94F20820
:101260000BC086E00E94F20803C086E00E94E808F6
:1012700088E00E94E80803C088E00E94F2088BE83A
:1012800091E00197F1F708951F920F920FB60F9218
:1012900011248F9381E080930001E9988F910F9042
:1012A0000FBE0F901F901895CF93C82F60E00E943B
:1012B000490E61E08C2FCF910C94FD0D84E00E94CB
:1012C0008D0868E572E080E090E00E94850E84E081
:1012D0000C9454090F931F93CF93DF9300D0CDB795
:1012E000DEB78C0169834A83DC011C968D919C9149
:1012F0001D97009721F4EA81E933B9F411C0DC01AC
:10130000ED91FC910190F081E02D20E0AE014E5F67
:101310005F4FBE016F5F7F4F0995882361F315C052
:10132000D8011A968C9181FD10C0F0E0E75FFE4F66
:10133000808187FD03C080680E945D02F80183857B
:10134000882319F013860E945E090F900F90DF9199
:10135000CF911F910F910895AF92BF92CF92DF92DC
:10136000EF92FF920F931F93CF93DF935C01C42FF3
:1013700081E0E82E81E0F82E00E010E0CC24C39458
:10138000D12CD62FD4279601002E01C0220F0A940B
:10139000EAF78D2F822369F02C23F7018081222325
:1013A00019F087FD06C003C087FD03C080680E9456
:1013B0005D020F5F1F4FFFEFEF1AFF0A08301105A4
:1013C00011F7F5018385882319F013860E945E09C1
:1013D000C93811F0C83949F488E70E945D0288E7EE
:1013E0000E945D0281E0F5018387DF91CF911F911B
:1013F0000F91FF90EF90DF90CF90BF90AF90089546
:10140000CF93DF93C3E2D0E0CE010197F1F782E002
:101410000E948D08CE010197F1F782E00E945409E5
:101420002197F1F7DF91CF910895882321F083E090
:101430000E948D0803C083E00E9454090C94000AA6
:10144000CF93C82F83E00E945409C6FB882780F9F8
:101450000E94150AC5FB882780F90E94150AC4FB63
:10146000882780F90E94150AC3FB882780F90E940B
:10147000150AC2FB882780F90E94150AC1FB88273C
:1014800080F90E94150A8C2F81700E94150A8C2FFA
:10149000881F8827881F0E94150A83E00E9454092C
:1014A0008FE090E00197F1F70E94AB0E60937C0211
:1014B00070937D0280937E0290937F0210920001D0
:1014C000E99ACF91089508953FB7F89480918502E5
:1014D00090918602A0918702B091880226B5A89BC0
:1014E00005C02F3F19F00196A11DB11D3FBFBA2FB6
:1014F000A92F982F8827820F911DA11DB11DBC0116
:10150000CD0143E0660F771F881F991F4A95D1F7D9
:10151000089508952F923F924F925F926F927F921B
:101520008F929F92AF92BF92CF92DF92EF92FF92F3
:101530000F931F93CF93DF9300D000D0CDB7DEB7CA
:101540006C017C836B835A8349834C0180E1880E54
:10155000911C5601A7E0AA0EB11C33243394260136
:10156000BBE04B0E511C3601E2E16E0E711C83E0B4
:10157000282E12E08B819C81892B09F4D7C0D601DB
:1015800090968C91823061F128F4882341F081306B
:1015900079F0F0CF833041F18430D1F1EBCFF60117
:1015A000148385819681908787831287118730A263
:1015B000AE014D5F5F4FBE016F5F7F4FC5010E945F
:1015C0008D19882309F4B2C0D6011596ED91FC91CE
:1015D0001697808191968C939197818192968C93A6
:1015E000F6017682658220A2D60192968C9192971E
:1015F000843011F493961C92F60181A18250848369
:1016000025813681308727838287818784E080A384
:10161000D60192968C918430B1F0853009F442C0A5
:10162000823009F06BC0AE014D5F5F4FBE016F5F4E
:101630007F4FC5010E948D19882309F477C0F601F8
:10164000858984A36BC0AE014D5F5F4FBE016F5FA4
:101650007F4FC5010E948D19882309F467C0D60108
:1016600055968C915597833009F058C056968C91B9
:101670005697813009F052C098969C91989757964A
:101680008C91992321F0882309F448C003C083304A
:1016900009F044C0F60133A2928996A3938997A3D7
:1016A00085A33CC0AE014D5F5F4FBE016F5F7F4FB2
:1016B000C5010E948D198823C9F1D60193968C919A
:1016C0009397882359F112968D919C9113970097C7
:1016D00029F1DC01ED91FC910190F081E02D740184
:1016E000D60195960C91959797962C9197979696EB
:1016F0004C91969794966C91099510C0F60121A192
:1017000030E022503109AE014D5F5F4FBE016F5F87
:101710007F4FC2010E949B08882341F0D601169694
:101720009C928E92159790961C9224CF0F900F90BA
:101730000F900F90DF91CF911F910F91FF90EF903D
:10174000DF90CF90BF90AF909F908F907F906F90E1
:101750005F904F903F902F9008952F923F924F921D
:101760005F926F927F928F929F92AF92BF92CF9231
:10177000DF92EF92FF920F931F93CF93DF9300D0EE
:1017800000D0CDB7DEB76C017C836B835A8349836D
:101790004C0180E1880E911C5601A7E0AA0EB11CF5
:1017A000332433942601BBE04B0E511C3601E2E199
:1017B0006E0E711C83E0282E12E08B819C81892B98
:1017C00009F4D7C0D60190968C91823061F128F44B
:1017D000882341F0813079F0F0CF833041F18430BB
:1017E000D1F1EBCFF60114838581968190878783B1
:1017F0001287118730A2AE014D5F5F4FBE016F5F50
:101800007F4FC5010E948D19882309F4B2C0D6010B
:101810001596ED91FC911697808191968C939197F6
:10182000818192968C93F6017682658220A2D60100
:1018300092968C919297843011F493961C92F601B3
:1018400081A18250848325813681308727838287D6
:10185000818784E080A3D60192968C918430B1F088
:10186000853009F442C0823009F06BC0AE014D5F93
:101870005F4FBE016F5F7F4FC5010E948D198823A6
:1018800009F477C0F601858984A36BC0AE014D5F72
:101890005F4FBE016F5F7F4FC5010E948D19882386
:1018A00009F467C0D60155968C915597833009F09D
:1018B00058C056968C915697813009F052C0989630
:1018C0009C91989757968C91992321F0882309F43D
:1018D00048C003C0813009F044C0F60133A29289A8
:1018E00096A3938997A385A33CC0AE014D5F5F4F3C
:1018F000BE016F5F7F4FC5010E948D198823C9F11A
:10190000D60193968C919397882359F112968D91D5
:101910009C911397009729F1DC01ED91FC910190C6
:10192000F081E02D7401D60195960C9195979796CC
:101930002C91979796964C91969794966C910995C1
:1019400010C0F60121A130E022503109AE014D5FF7
:101950005F4FBE016F5F7F4FC2010E949B088823CB
:1019600041F0D60116969C928E92159790961C92F5
:1019700024CF0F900F900F900F90DF91CF911F9178
:101980000F91FF90EF90DF90CF90BF90AF909F901E
:101990008F907F906F905F904F903F902F90089521
:1019A0002F923F924F925F926F927F928F929F926F
:1019B000AF92BF92CF92DF92EF92FF920F931F935D
:1019C000CF93DF9300D000D0CDB7DEB76C017C831E
:1019D0006B835A8349834C0180E1880E911C560128
:1019E000A7E0AA0EB11C332433942601BBE04B0EB2
:1019F000511C3601E2E16E0E711C83E0282E12E0CC
:101A00008B819C81892B09F4D7C0D60190968C914B
:101A1000823061F128F4882341F0813079F0F0CFF1
:101A2000833041F18430D1F1EBCFF601148385810D
:101A30009681908787831287118730A2AE014D5F10
:101A40005F4FBE016F5F7F4FC5010E948D198823D4
:101A500009F4B2C0D6011596ED91FC9116978081DC
:101A600091968C939197818192968C93F6017682D0
:101A7000658220A2D60192968C919297843011F4BF
:101A800093961C92F60181A1825084832581368130
:101A9000308727838287818784E080A3D60192964E
:101AA0008C918430B1F0853009F442C0823009F065
:101AB0006BC0AE014D5F5F4FBE016F5F7F4FC501D1
:101AC0000E948D19882309F477C0F601858984A3C3
:101AD0006BC0AE014D5F5F4FBE016F5F7F4FC501B1
:101AE0000E948D19882309F467C0D60155968C9100
:101AF0005597833009F058C056968C91569781308F
:101B000009F052C098969C91989757968C9199237A
:101B100021F0882309F448C003C0823009F044C092
:101B2000F60133A2928996A3938997A385A33CC01B
:101B3000AE014D5F5F4FBE016F5F7F4FC5010E94D9
:101B40008D198823C9F1D60193968C919397882398
:101B500059F112968D919C911397009729F1DC0110
:101B6000ED91FC910190F081E02D7401D6019596E4
:101B70000C91959797962C91979796964C9196974E
:101B800094966C91099510C0F60121A130E0225085
:101B90003109AE014D5F5F4FBE016F5F7F4FC201E4
:101BA0000E949B08882341F0D60116969C928E9243
:101BB000159790961C9224CF0F900F900F900F9036
:101BC000DF91CF911F910F91FF90EF90DF90CF9019
:101BD000BF90AF909F908F907F906F905F904F904D
:101BE0003F902F900895EF92FF920F9302970E94DB
:101BF0009B000F91FF90EF90089590E0FC01E5535A
:101C0000FF4F3491FC01E954FF4F2491FC01ED5545
:101C1000FF4FE491EE2309F43BC0332339F1333015
:101C200091F038F43130A9F0323001F584B58F7D70
:101C300012C0363091F03730A1F03430B9F48091D1
:101C400080008F7D03C0809180008F77809380001B
:101C50000DC084B58F7784BD09C08091B0008F77A7
:101C600003C08091B0008F7D8093B000F0E0EE0F54
:101C7000FF1FE756FF4FA591B4918FB7F894EC91F1
:101C8000611103C020952E2301C02E2B2C938FBFF2
:101C90000895CF93DF9390E0FC01E954FF4F249126
:101CA000FC01ED55FF4F8491882361F190E0880F8E
:101CB000991FFC01E157FF4FC591D491FC01E756F4
:101CC000FF4FA591B491611109C09FB7F894888125
:101CD000209582238883EC912E230BC0623061F41F
:101CE0009FB7F8943881822F809583238883EC9165
:101CF0002E2B2C939FBF06C08FB7F894E8812E2B14
:101D000028838FBFDF91CF910895CF92DF92EF921A
:101D1000FF92CF93DF936B017C010E94640AEB0179
:101D2000C114D104E104F10479F00E94640A6C1B2F
:101D30007D0B683E7340A0F381E0C81AD108E1082A
:101D4000F108C851DC4FECCFDF91CF91FF90EF90BD
:101D5000DF90CF9008952FB7F89460918102709131
:101D6000820280918302909184022FBF08951F9276
:101D70000F920FB60F9211242F933F938F939F933F
:101D8000AF93BF938091810290918202A0918302D0
:101D9000B09184023091800226E0230F2D3720F489
:101DA0000296A11DB11D05C029E8230F0396A11DB0
:101DB000B11D209380028093810290938202A093B0
:101DC0008302B09384028091850290918602A09153
:101DD0008702B09188020196A11DB11D80938502F2
:101DE00090938602A0938702B0938802BF91AF912F
:101DF0009F918F913F912F910F900FBE0F901F9049
:101E00001895CF93DF9300D0CDB7DEB76A8389836F
:101E10000E949708898182608EBD6A810DB407FE99
:101E2000FDCF6EBD0DB407FEFDCF0F900F90DF917B
:101E3000CF910C949908CF93DF931F92CDB7DEB763
:101E400089830E94970889818EBD0DB407FEFDCF5E
:101E50001EBC0DB407FEFDCF0E9499088EB50F90F1
:101E6000DF91CF9108950F931F93CF93DF93FC01E0
:101E7000A685B7858D01005C1F4FE8018881998197
:101E800001968F739927AD014E5B5F4FEA01288160
:101E9000398182179307D1F3E80128813981A20F94
:101EA000B31F6C93A685B785A05CBF4F11969C931A
:101EB0008E93A689B7892C9181E090E0078C02C0AF
:101EC000880F991F0A94E2F7822B8C9381E081A3FB
:101ED0000488F589E02D80818064808381E090E032
:101EE000DF91CF911F910F910895FC0181A188236B
:101EF00029F0A489B5898C9186FFFBCF11A20895A2
:101F0000FC01A485B585FD01E05CFF4F2081318196
:101F10003296808191812817390779F080819181EB
:101F2000A80FB91F8C91208131812F5F3F4F2F73F4
:101F300033273183208390E008958FEF9FEF08953A
:101F4000DC011C96ED91FC911D97DF01A05CBF4F59
:101F50002D913C91119712968D919C911197281774
:101F6000390739F08D919C91E80FF91F808190E03D
:101F700008958FEF9FEF0895FC0124853585F901C1
:101F8000E05CFF4F80819181329620813181821BFC
:101F9000930B8F73992708958AE193E00C94BC0FFB
:101FA000CF92DF92EF92FF920F931F93CF93DF9325
:101FB0006C01EB017B01E40EF51E00E010E0CE1594
:101FC000DF0561F06991D601ED91FC910190F081FE
:101FD000E02DC6010995080F191FF1CFC801DF9147
:101FE000CF911F910F91FF90EF90DF90CF900895C8
:101FF000DF92EF92FF920F931F93CF93DF93EC0149
:10200000E62EF12C85E0689FB0011124FE01E60F59
:10201000F71F8085182F177086FF21C001E085E02B
:10202000D82E8FEF800F8F3008F001E0FE01D09E98
:10203000E00DF11D11248085869586958695877023
:10204000811305C0602FCE010E94F80FEACF0F5F09
:10205000003161F78D81811302C011501D8385E02D
:102060008E9DF0018F9DF00D1124EC0FFD1F108649
:1020700081E0818712862296D783C683DF91CF9134
:102080001F910F91FF90EF90DF900895FC01613454
:10209000C1F43F969C01265A3F4F61E0AC014E5F70
:1020A0005F4FDF0112971C9211966C931082139769
:1020B0004D935C933596E217F30799F7FC0115826F
:1020C00008953D9621E03081361303C0622F0C94B1
:1020D000F80F2F5F35962031B1F70895CF93DF9336
:1020E000FC01862F807809F051C0283008F04FC0DD
:1020F000442321F09581973009F449C0EF012D96D2
:10210000A0E0B0E011969881911103C0662331F0F0
:1021100021C02596AF30B105A9F739C085E08A9F67
:10212000E0018B9FD00D1124CE0FDF1F442331F02F
:1021300081E4888785818F5F858302C081E08887FD
:1021400025E02A9FC0012B9F900D1124E80FF91F55
:1021500080851DC06770660F660F660F442341F0CF
:10216000606485818F5F85838770687F682B03C07B
:102170002770687B622B25E02A9FC0012B9F900D62
:102180001124E80FF91F6087862F01C080E0DF91DE
:10219000CF910895611102C006960895FC013D9605
:1021A00021E03081361307C035E0239F800D911D5B
:1021B0001124069608952F5F3596203191F780E01F
:1021C00090E00895AF92BF92CF92DF92EF92FF928C
:1021D0000F931F93CF93DF9300D000D0CDB7DEB71E
:1021E0007C01690158011C821B821A8219828E01AE
:1021F0000F5F1F4F9E012D5F3F4F0E94881A811174
:1022000009C049815A816B817C8185019601C70192
:102210000E94C1190F900F900F900F90DF91CF91F6
:102220001F910F91FF90EF90DF90CF90BF90AF90F4
:1022300008958F929F92AF92BF92CF92DF92EF92CA
:102240000F93CF931F921F921F921F92812C912C5C
:10225000A12CB12CC12CD12CE12C062F25E040E083
:1022600060E00E94FE1AC82F6CE271E080E090E00E
:102270000E94850E0F900F900F900F908C2FCF9192
:102280000F91EF90DF90CF90BF90AF909F908F9085
:1022900008958F929F92AF92BF92CF92DF92EF926A
:1022A0000F931F921F923F932F934A015A01C12C03
:1022B000D12CEE24E39400E026E040E80E94FE1AD0
:1022C0000F900F900F900F900F91EF90DF90CF90A5
:1022D000BF90AF909F908F9008958F929F92AF92F2
:1022E000BF92CF92DF92EF920F931F931F921F9294
:1022F0001F930F934A015A01C12CD12C32E0E32ED7
:10230000022F26E040E80E94FE1A0F900F900F90D7
:102310000F901F910F91EF90DF90CF90BF90AF90F3
:102320009F908F9008955F926F927F928F929F926D
:10233000AF92BF92CF92DF92EF92FF920F931F93D3
:10234000CF93DF93CDB7DEB7C154D1090FB6F89460
:10235000DEBF0FBECDBF3C01F62E542EE22ECE01C5
:1023600001966C018C01242F49E050E0C3012296B4
:102370003FAF22970E946D1122963FAD22978111A7
:1023800018C0AB80BC803F93EF92DF92CF9280E485
:10239000882E912CC12CD12C92E0E92E052D26E01F
:1023A00040E86F2DC3010E94FE1A0F900F900F900E
:1023B0000F90CF5BDF4F0FB6F894DEBF0FBECDBFDF
:1023C000DF91CF911F910F91FF90EF90DF90CF9011
:1023D000BF90AF909F908F907F906F905F90089587
:1023E0008F929F92AF92BF92CF92DF92EF920F9314
:1023F000C42ED12C1F921F921F921F92812C912CC0
:10240000A12CB12CE12C062F21E043E2FC016285D6
:10241000828193810E94FE1A0F900F900F900F906F
:102420000F91EF90DF90CF90BF90AF909F908F90E3
:1024300008958F929F92AF92BF92CF92DF92EF92C8
:102440000F93C62ED12C1F921F925F934F9324E0BF
:10245000822E912C34E0A32EB12CE12C00E020E060
:1024600043EAFC016285828193810E94FE1A0F90EB
:102470000F900F900F900F91EF90DF90CF90BF9043
:10248000AF909F908F9008958F929F92AF92BF923E
:10249000CF92DF92EF920F93C42ED12C1F921F92F6
:1024A0001F921F92812C912CA12CB12CE12C062F74
:1024B00023E043E2FC016285828193810E94FE1A3F
:1024C0000F900F900F900F900F91EF90DF90CF90A3
:1024D000BF90AF909F908F9008951F920F920FB66C
:1024E0000F9211242F933F938F939F93EF93FF931A
:1024F0002091D2023091D3028091D4029091D502E2
:102500002817390731F48091C1008F7D8093C10075
:1025100014C0E091D402F091D502EE56FD4F208117
:102520008091D4029091D50201968F739927909350
:10253000D5028093D4022093C600FF91EF919F9122
:102540008F913F912F910F900FBE0F901F90189574
:102550001F920F920FB60F9211242F934F935F93F8
:102560008F939F93EF93FF938091C00082FD1CC0D7
:102570002091C600809116039091170301968F73E6
:10258000992740911803509119038417950771F00A
:10259000E0911603F0911703EA52FD4F20839093C8
:1025A00017038093160302C08091C600FF91EF913C
:1025B0009F918F915F914F912F910F900FBE0F9030
:1025C0001F9018950F931F93CF93DF9300D0CDB733
:1025D000DEB78A016A8389830E94970889818260B5
:1025E0008EBDF8016A81862F882339F00DB407FE6D
:1025F000FDCF91919EBD8150F7CF060F111D0DB4F7
:1026000007FEFDCF0E949908C8010F900F90DF913F
:10261000CF911F910F910895CF93DF9300D0CDB745
:10262000DEB76A8389830E949708898182608EBDA4
:102630006A810DB407FEFDCF6EBD0DB407FEFDCF60
:102640000F900F90DF91CF910C9499089F92AF92C9
:10265000BF92CF92DF92EF92FF920F931F93CF938F
:10266000DF937C01C42F122F992493946C01C60E22
:10267000D11CC60ED11C86E5C80ED11CA42EB12CCF
:10268000ABE2AA0EB11CAA0CBB1CAE0CBF1CF6011F
:1026900080819181DC01ED91FC910280F381E02D3C
:1026A000202F412F6C2F0995803EC9F4C1110BC01A
:1026B00061E088EE0E940C1366E670E080E090E036
:1026C0000E94850E16C0F50180819181DC01ED919B
:1026D000FC910284F385E02D612F09950AC08D30AD
:1026E00031F49FEF990D933008F040C016C081116E
:1026F0003DC0F60180819181DC01ED91FC9101905A
:10270000F081E02D202F412F6C2F0995D82F8D308F
:1027100061F48FEF890D833050F464E670E080E05F
:1027200090E00E94850E9394B2CF8823F1F0C111FE
:102730000BC061E088EE0E940C1366E670E080E05A
:1027400090E00E94850E11C0EC2FF0E0BB96EE0FDA
:10275000FF1FEE0DFF1D80819181DC01ED91FC9149
:102760000284F385E02D612F09958D2FDF91CF91A4
:102770001F910F91FF90EF90DF90CF90BF90AF909F
:102780009F900895CF93DF931F92CDB7DEB78983D3
:102790000E94970889818EBD0DB407FEFDCF1EBC37
:1027A0000DB407FEFDCF0E9499088EB50F90DF9102
:1027B000CF9108952F923F924F925F926F927F92A6
:1027C0008F929F92AF92BF92CF92DF92EF92FF9241
:1027D0000F931F93CF93DF93CDB7DEB766970FB6F6
:1027E000F894DEBF0FBECDBF1B8A38E03C8B3CE3C4
:1027F0003D8B8A3F3FEF930711F486EDEEC0122F19
:10280000442E562E7C01DC011696CD90DC90179755
:10281000CE01439617969C938E9316971A962C93F7
:102820009E012F5F3F4F42E150E060E0C7010E94F0
:102830004911F701D782C6828111CFC089849A8459
:102840006B847C843D813E8B2E80670186E5C80EBB
:10285000D11C5601312CD5018D919C91009789F1A5
:10286000DC01ED91FC910084F185E02D0995811149
:1028700028C0F50180819181DC01ED91FC910088F7
:10288000F189E02D622D09958823D9F0F501808129
:102890009181DC01ED91FC910484F585E02DA3018B
:1028A000B4010995811182C0F50180819181DC011B
:1028B000ED91FC910684F785E02D6E8909958111D3
:1028C00075C03394B2E0AB0EB11CE0E13E12C3CF51
:1028D000B12CD6018D919C91009799F1DC01ED917D
:1028E000FC910084F185E02D099581112AC0F60143
:1028F00080819181DC01ED91FC910088F189E02DCE
:10290000622D0995882309F45CC0F60180819181CC
:10291000DC01ED91FC910484F585E02DA301B40167
:10292000099581110EC0F60180819181DC01ED9144
:10293000FC910684F785E02D6E890995882309F4BA
:1029400040C0B394B2E0CB0ED11CE0E1BE12C1CFC7
:10295000D70116968D919C911797892B09F11A969C
:102960001C93242D40E0652DC7010E946E10D82EC7
:102970008823C1F0682FC7010E94CA10009709F48C
:102980003CCFFC0114836D2DC7010E941911182F33
:10299000882351F06D2DC7010E944610812F1DC064
:1029A00087ED1BC084ED19C080E017C0012F242DD6
:1029B000452D632DC7010E942613813D09F481CF67
:1029C0000CC0012F242D452D6B2DC7010E9426130D
:1029D000982F977F913D09F4B4CF66960FB6F8947F
:1029E000DEBF0FBECDBFDF91CF911F910F91FF9042
:1029F000EF90DF90CF90BF90AF909F908F907F909F
:102A00006F905F904F903F902F9008953F924F921C
:102A10005F926F927F928F929F92AF92BF92CF926E
:102A2000DF92EF92FF920F931F93CF93DF93D80122
:102A300012962C91213009F465C02B01EC016A81BA
:102A4000F8014081641731F0E881F9810480F58153
:102A5000E02D09954801F2E08F0E911C5E0184E0A3
:102A6000A80EB11C3E01AAE06A0E711C750164013A
:102A7000D6014C91F7019081D401F501312C80E011
:102A80002191421303C0413009F081E02D912913B7
:102A900004C0913011F033243394E615F70581F723
:102AA000811113C0E881F9810280F381E02DB20128
:102AB000CE010995E881F9810680F781E02DD601E4
:102AC0004C91D8016C91CE01099531100AC0E88172
:102AD000F9810084F185E02DD7014C916A81CE0106
:102AE0000995BFEFCB1ADB0AEFEFEE1AFE0AE614E8
:102AF000F70409F0BDCFF801229681918993C6159C
:102B0000D705D9F7DF91CF911F910F91FF90EF90EB
:102B1000DF90CF90BF90AF909F908F907F906F90FD
:102B20005F904F903F9008950F931F93CF93DF9343
:102B3000EC018A818170F8019081292F2170821720
:102B400071F0E881F98190FF04C00680F781E02DE3
:102B500003C00480F581E02DB801CE0109958A817A
:102B600086958170F801908191FB222720F98217C8
:102B700071F0E881F98191FF04C00284F385E02DB2
:102B800003C00084F185E02DB801CE0109958A814A
:102B900082FB882780F9F801908192FB222720F997
:102BA000821771F0E881F98192FF04C00684F785ED
:102BB000E02D03C00484F585E02DB801CE01099510
:102BC000F8018181811103C08281882341F0E8816D
:102BD000F9810280F381E02DB801CE010995F80159
:102BE00080818A83DF91CF911F910F91089508957D
:102BF00008950895089508950895089508950895ED
:102C00000895CF93DF93EC018A819B81DC01ED91E4
:102C1000FC910480F581E02D6A8509958A858134CF
:102C200039F4EA81FB81EA58FF4F80818460808318
:102C30001A861B861C861D861E861F86188A80E0C3
:102C4000DF91CF91089581E0693009F080E0089527
:102C5000FC0182850895CF92DF92EF92FF920F934D
:102C60001F93CF938C01C62F7A01FA018081918145
:102C7000A281B3818130F3E09F07F1E0AF07B10596
:102C8000E1F060F48115E1E09E07AE07B10569F15E
:102C900081309140A140B10581F08FC0833021E0A7
:102CA000920720E1A207B10509F468C08330934080
:102CB000A041B10509F462C080C0809190028111E9
:102CC0007CC04C2F61E1C8010E94F0114C2F60E1E3
:102CD000C8010E94F0114C2F64E0C8010E94441208
:102CE00081E08093900281EB69C0462F61E1C801C9
:102CF0000E94F0114C2F60E1C8010E94F011109267
:102D00009002D8011A968C911A978770C770880F15
:102D1000880F880FC82B1296ED90FC901397CC2348
:102D200009F44BC06701B6E5CB0ED11C00E010E002
:102D3000F601819191916F010097D1F0DC01ED9145
:102D4000FC910084F185E02D09958C1311C0055D7F
:102D50001F4F000F111FF701E00FF11F80819181BC
:102D6000DC01ED91FC910480F581E02D099525C0F1
:102D70000F5F1F4F00311105D9F61FC04C2F64E1C2
:102D8000C8010E94F0114C2F60E1C8010E94F011AF
:102D900064E170E080E090E00E94850EF8016285B9
:102DA000D70111962C912695217067704C2F828146
:102DB00093810E94DA131092900280E0CF911F91CC
:102DC0000F91FF90EF90DF90CF900895CF92DF9218
:102DD000FF920F931F93CF93DF9300D000D0CDB716
:102DE000DEB78C01F62E19821A821B821C82462FB6
:102DF00061E10E94F0114F2D60E1C8010E94F011C5
:102E00004F2D64E0C8010E94441283E0C82ED12CEB
:102E1000AE014F5F5F4F6F2DC8010E9419128823CA
:102E2000E1F04F2D64E1C8010E94F0114F2D60E1E7
:102E3000C8010E94F01164E170E080E090E00E941F
:102E4000850E0F900F900F900F90DF91CF911F91F3
:102E50000F91FF90DF90CF90089589819A81AB8187
:102E6000BC819D7F83309140A041B105D1F264E6E1
:102E700070E080E090E00E94850E81E0C81AD108E1
:102E800039F6CFCFDF92EF92FF920F931F93CF933C
:102E9000DF93CDB7DEB72E970FB6F894DEBF0FBE27
:102EA000CDBFFC012089211102C010E07FC07C0150
:102EB0000E94AB0EF7010485158526853785DC0158
:102EC000CB01801B910BA20BB30BB7FDEECF81E0C2
:102ED00090E09E878D878E010F5F1F4F9E01235FBD
:102EE0003F4F41E06285828193810E94E21081110F
:102EF0004FC001E082E0D82E89818D21C1F0198672
:102F00001A861B861C86AE01475F5F4F602FC70184
:102F10000E94191281110BC0AE01475F5F4F602FF5
:102F2000C7010E942B16813B89F1811131C0DD0C54
:102F30000F5F083009F701E0F7018385801730F152
:102F400019861A861B861C86AE01475F5F4F602F6D
:102F5000C7010E941912811117C089859A8587704F
:102F600091708130914081F48B859C8581609C8734
:102F70008B87AE01475F5F4F602FC7010E942B1602
:102F8000813B21F0811104C00F5FD6CF10E001C05A
:102F9000182F0E94AB0EDC01CB018C599F4FAF4F15
:102FA000BF4FF70184879587A687B787812F2E9615
:102FB0000FB6F894DEBF0FBECDBFDF91CF911F914A
:102FC0000F91FF90EF90DF9008958F929F92AF92B4
:102FD000BF92CF92DF92EF92FF920F931F93CF9306
:102FE000DF93862E942E59010E94AB0E6B017C015B
:102FF00028E8C20E23E1D21EE11CF11C00E010E023
:10300000D0E0C0E098280E94AB0EDC01CB018C1907
:103010009D09AE09BF09B7FF2DC0692D80EF0E9441
:103020000C130E94AB0EDC01CB018C199D09AE097B
:10303000BF09B7FF09C088EC0E94C21387FFF1CF18
:1030400060E888EC0E940C1388EF0E94C213C82F1E
:10305000CF70C43019F0CE3051F00CC00F5F1F4F4D
:10306000A114B10481F20A151B0569F603C0DF5FE4
:10307000D33049F68C2FDF91CF911F910F91FF90A4
:10308000EF90DF90CF90BF90AF909F908F9008957A
:103090003F924F925F926F927F928F929F92AF92E8
:1030A000BF92CF92DF92EF92FF920F931F93CF9335
:1030B000DF93CDB7DEB7E8970FB6F894DEBF0FBE4B
:1030C000CDBFDC011296AD90BC9013971A963C913F
:1030D0003111F7C0922E342E862E3C01D501ED9190
:1030E000FC910190F081E02D60E0C50109957C0123
:1030F000009709F4E9C0FC01C080D180C114D1045B
:1031000009F4E5C083010C5F1F4F11830083948293
:10311000CE0101962C019C0148E050E060E0D30113
:1031200012968D919C9113970E944911F701148278
:103130008111D6C099808D81893009F0CBC0D5012D
:10314000ED91FC910280F381E02D232D41E0682D6B
:10315000C5010995F3018287882309F4BEC09885CB
:103160009583682F828193810E941911882E88236C
:1031700091F0D701CD92DC92D501ED91FC910480C4
:10318000F581E02DD3011A966C91C5010995F301E3
:103190001286F82CA9C0492D413208F040E2D7012F
:1031A000CD92DC9241110BC0980142E0F30162859F
:1031B000828193810E940620811195C00FC050E04A
:1031C0009201D3011A966C911A9712968D919C9147
:1031D00013970E944911811186C0E6CF1F921F925A
:1031E0005F924F9258E0852E912C68E0A62EB12C6C
:1031F000C12CD12C79E2E72E00E026E040EAF30171
:103200006285828193810E94FE1AF82E0F900F90A2
:103210000F900F90811168C08B81D3011B968C9306
:103220001B97820120E048E050E01A966C911A97B3
:1032300012968D919C9113970E946D11811153C02C
:103240004B815C8120E0F3016285828193810E9441
:103250006D11811148C0498150E08E010F5D1F4FF3
:1032600020E0D3011A966C911A9712968D919C9139
:1032700013970E946D11811136C04E81F301628552
:10328000828193810E94E11F81112DC011E0D30141
:103290001B968C911B97811738F0412F68E0C30172
:1032A0000E9444121F5FF3CF1296ED91FC91139789
:1032B000EA58FF4F80818460808381E050968C9330
:1032C00013C049EDF42E10C036EDF32E0DC027EDDE
:1032D000F22E0AC091EDF92E07C084EDF82E04C03D
:1032E000F701D182C082F82E8F2DE8960FB6F894A0
:1032F000DEBF0FBECDBFDF91CF911F910F91FF9029
:10330000EF90DF90CF90BF90AF909F908F907F9085
:103310006F905F904F903F900895CF93DF93FC01A3
:10332000EA0180819181892B19F580E027C02881ED
:103330003981232BD1F3DB012D913C91D9019C9153
:10334000A381B0E0A81BB10920813181A20FB31F76
:103350009C9382818150828388819981019799838E
:103360008883DB018D919C91119701968D939C939D
:1033700082818111DCCF8381828381E0DF91CF91D3
:1033800008952F923F924F925F926F927F928F9209
:103390009F92AF92BF92CF92DF92EF92FF920F93E4
:1033A0001F93CF93DF9300D000D01F92CDB7DEB72D
:1033B0005C017D836C834A017901F901C080D18071
:1033C000FB014180F90111821082FB01828181FDA4
:1033D00002C060E101C060E288EE0E940C133C2C48
:1033E0009401EC81FD81408160E0C5010E94E517F8
:1033F000582EF6E08F1316C088EF0E94C2138295F4
:10340000817091E08927EC81FD81928180FB91F9A7
:10341000928391FD02C060E101C060E288EE0E94EB
:103420000C13DECF81115BC088EC0E94C21382FFB7
:1034300054C080E30E94C213282E282F30E0C21609
:10344000D30608F4232CF70120813181622C712CE2
:10345000A601421B530B57FF02C040E050E093010E
:10346000461557050CF49A0129833A832B830E9451
:103470009708F8E0FEBD8B813A8129810DB407FEE3
:10348000FDCFF801882341F01EBC81500DB407FE2A
:10349000FDCF4EB54193F6CF020F131F0E9499083E
:1034A00064E088EC0E940C13F70120813181620EE8
:1034B000731E71826082241420F06C147D0408F461
:1034C0008FCF88EF0E94C21382958170EC81FD81BD
:1034D000928180FB91F9928302C080EF582E852D56
:1034E0000F900F900F900F900F90DF91CF911F9141
:1034F0000F91FF90EF90DF90CF90BF90AF909F9093
:103500008F907F906F905F904F903F902F90089595
:103510008F929F92BF92CF92DF92EF92FF920F9382
:103520001F93CF93DF931F92CDB7DEB74C01B62E1A
:10353000690149830E94CA107C014981009709F4FE
:103540004BC0DC01ED91FC911197309709F446C016
:1035500013969C9180E0891731F02081241729F07F
:1035600033968F5FF8CFE0E0F0E0D601ED93FC9367
:103570003097B1F122812695269530E02031310532
:1035800014F02FE030E081E090E0A0E0B0E004C073
:10359000880F991FAA1FBB1F2A95D2F70197F80120
:1035A000918380836B2D80EE0E940C1388ED0E9426
:1035B000C213682FD70114968C91882339F0F40137
:1035C000EA58FF4F80818260682B01C0697F88EDD7
:1035D0000E940C1380E005C086ED03C087ED01C09A
:1035E0008BED0F90DF91CF911F910F91FF90EF9096
:1035F000DF90CF90BF909F908F9008952F923F9231
:103600004F925F926F927F928F929F92AF92BF92F2
:10361000CF92DF92EF92FF920F931F93CF93DF939E
:10362000CDB7DEB767970FB6F894DEBF0FBECDBF3C
:103630003C01542E422E302E2E2CECA4FDA4188AD0
:103640001F861E861D868E01035F1F4F9E01215F10
:103650003F4F40E00E94881A81115DC159824A8221
:103660003B822C82DE82CD82B886AF82AE014F5F74
:103670005F4F68E080E20E94E2122D853E8540E0C7
:1036800060E1C3010E94E517182F8111EDC0452CA0
:10369000441C4424441CE114F10409F4D6C0CF8432
:1036A000D888442009F455C0D60112968C911297FF
:1036B000826012968C93650155245394C114D104F1
:1036C00009F443C09C868B864D855E856F8578891D
:1036D00087019E01255F3F4FC3010E94C119182F2A
:1036E000863079F42F84388888EF0E94C21385FBD6
:1036F000882780F98525F101928180FB91F99283D9
:10370000DDCF8111B1C02EA53FA521153105A1F056
:10371000D901ED91FC9111970190F081E02DC50147
:103720008C199D099A8789876B857C859E01275F07
:103730003F4FA701CD0109958B859C85C81AD90AF1
:103740008815990508F0BACF80C0112309F482C00A
:103750008BC0F6018281816082832D853E853A8B04
:10376000298B21808FEF820D803408F07BC00E946E
:10377000AB0E9B01AC0128573C4E4F4F5F4F2B8B3C
:103780003C8B4D8B5E8BD60112968C9180FD02C0D6
:1037900060E401C060E888EE0E940C13312C8114B3
:1037A0009104D9F154012814390408F45101AF8A65
:1037B000A7016A2D80E10E94E2126A2D88E30E942F
:1037C0000C13F6016081606280EF0E940C1388EC9C
:1037D0000E94C21387FFFBCF60E888EC0E940C13A5
:1037E00088EF0E94C213182F1F70412C512C00E04B
:1037F000112371F00E94AB0EDC01CB012B893C89B7
:103800004D895E89821B930BA40BB50BB7FD2EC0AF
:103810008A189B08EA0CFB1CC2CF112321F060E040
:1038200088E30E940C1388EF0E94C21385FB88274F
:1038300080F9D60112969C91129780FB90F912960E
:103840009C93112309F463C00FC02D853E85411060
:1038500003C05FC02D853E8560EA40E0C3010E9441
:10386000E51759C08AED57C0812F55C01630D1F5E4
:1038700088EF0E94C21385FB882780F931E08327F7
:10388000D60112969C91129780FB90F912969C9308
:1038900090FD02C060E401C060E888EE0E940C1355
:1038A00060E088E30E940C13F701608180E10E94D0
:1038B0000C136F8988E30E940C13D6016C9160622F
:1038C00080EF0E940C1388EC0E94C21387FFFBCF8D
:1038D00060E888EC0E940C1388EF0E94C213182F36
:1038E0001F7086CF1E3021F40F5F0330C9F697CFCB
:1038F000143009F094CFFFEF4F1A5F0A29893A89F3
:103900002115310569F24216530651F688CF2D85EF
:103910003E8560E8A2CF67960FB6F894DEBF0FBE73
:10392000CDBFDF91CF911F910F91FF90EF90DF906E
:10393000CF90BF90AF909F908F907F906F905F904F
:103940004F903F902F9008958F929F92AF92BF9289
:10395000CF92DF92EF920F931F921F927F936F93FC
:1039600088248394912CAA24A394B12CC12CD12C0B
:1039700042E0E42E00E029E041E2FC01668184811E
:1039800095810E94FE1A0F900F900F900F900F914B
:10399000EF90DF90CF90BF90AF909F908F90089561
:1039A00088EF0E941B0F807C8034A1F018F48823DC
:1039B00001F10895803819F0803CB9F0089588ED40
:1039C0000E941B0F81FD0BC069EC88ED0E94010F66
:1039D00082E00CC088ED0E941B0F81FDF5CF6BECDF
:1039E00088ED0E94010F83E001C081E08093910285
:1039F000089561ED88ED0E94010F109291020895E3
:103A0000789484B5826084BD84B5816084BD85B5B9
:103A1000826085BD85B5816085BD80916E008160C5
:103A200080936E001092810080918100826080936B
:103A3000810080918100816080938100809180006D
:103A40008160809380008091B10084608093B10098
:103A50008091B00081608093B00080917A00846092
:103A600080937A0080917A00826080937A008091BE
:103A70007A00816080937A0080917A0080688093D8
:103A80007A001092C1000E9420090E94FC088EE07A
:103A90000E94F2088FE00E94F20882E00E9454091E
:103AA00083E00E945409809169008C6080936900D2
:103AB000E998E19A229A0E949908259A239A2498D3
:103AC000229A80E58CBD81E08DBD219868E188E86F
:103AD0000E94010F60E288E70E94010F60E088E722
:103AE0000E94010FC1E0D0E0209709F4E6C188E60A
:103AF0000E941B0F219680FFF7CF61EC88ED0E949A
:103B0000010F60E680ED0E94010F64E088EE0E94E4
:103B1000010F88EE0E941B0F82FFFBCF0E94D01C7A
:103B200060E288EC0E94010F61E080E80E94010FD2
:103B300068EC70E080E090E00E94850E25E433E0C0
:103B400030939803209397038DE393E090939A0327
:103B50008093990330937B0320937A0390936103BE
:103B60008093600383E1582E91E1692EFF24F39442
:103B700020E5E22E30E9D32E40EAC42E50E8B52EDF
:103B800061E5A62E70E4972EE0E38E2EF2E17F2E03
:103B900019990DC088EC0E94C21385FF04C00E94D1
:103BA000D01C60E201C060E088EC0E940C138091A0
:103BB0009102813041F050F0823081F0833041F544
:103BC000442443940CC050923C0322C080913C0397
:103BD000807F8031E9F060923C031AC0412C8091D3
:103BE0003C03807F8031A9F40E94AB0EDC01CB0145
:103BF00088539F4FAF4FBF4F80938A0290938B02A1
:103C0000A0938C02B0938D0280E280933C0301C0AC
:103C1000412CCCEFD3E08E01D8018D919D918D0187
:103C2000009739F0DC01ED91FC910680F781E02DE1
:103C30000995B4E00C311B0779F780913C0380347F
:103C400009F442C050F4803221F18033B1F1813166
:103C500009F087C010921C040AC0813509F45BC0CA
:103C6000803809F46CC0803509F07BC03DC0899173
:103C70009991009739F0DC01ED91FC910480F58178
:103C8000E02D0995B4E0CC31DB0789F770923C0355
:103C900068C00E94AB0E00918A0210918B022091A5
:103CA0008C0230918D02DC01CB01801B910BA20BA9
:103CB000B30BB7FD56C080923C0361E088EE0E94D2
:103CC0000C1390923C034DC088EE0E94C21380FDFD
:103CD00048C088ED0E94C213682F686088ED0E947A
:103CE0000C13E0923C033DC088EC0E94C21386FF97
:103CF00038C0A0923C030E94AB0EDC01CB0144967D
:103D0000A11DB11D80938A0290938B02A0938C0217
:103D1000B0938D0226C00E94AB0E00918A021091D2
:103D20008B0220918C0230918D02DC01CB01801B33
:103D3000910BA20BB30BB7FD14C0B0923C03242D22
:103D400040E060E086EA93E00E94DA13882339F0CD
:103D5000823D39F080938902C0923C0302C0D09228
:103D60003C03C0914303D0914203109144030D2FB3
:103D7000101654F480916902815083708093690217
:103D80000E9420090150F4CF8D2FD7FD80E0D81B71
:103D9000DD2351F0809169028F5F83708093690207
:103DA0000E942009DF5FF4CFDC2F1D1654F48091B0
:103DB00068028F5F8370809368020E94FC08D15074
:103DC000F4CF8C2FC7FD80E0C81BCC2351F080912D
:103DD000680281508370809368020E94FC08CF5F64
:103DE000F4CF8EE010FF03C00E94E80802C00E94DA
:103DF000F2088FE011FF03C00E94E80802C00E9491
:103E0000F208109242031092430380910001811145
:103E100024C00E94AB0E00917C0210917D02209183
:103E20007E0230917F02DC01CB01801B910BA20B43
:103E3000B30B80399105A105B10578F00E94000A05
:103E40000E94AB0E60937C0270937D0280937E0291
:103E500090937F02F0928F022DC080910001882301
:103E600049F180918F02813039F489EF0E94200A54
:103E700082E080938F021EC0823039F480918E02DE
:103E80000E94200A10928F0215C020917B0280911F
:103E90007A02281779F030E0F901E659FD4F808168
:103EA00080938E022F5F3F4F2F70332720937B022A
:103EB0000E94200A0E94CC0F6BCE61E08DE00E9430
:103EC000490E61E08DE00E94FD0D64EF71E080E03D
:103ED00090E00E94850E60E08DE00E94FD0D64EF91
:103EE00071E080E090E00E94850EEBCF8F929F9270
:103EF000AF92BF92CF92DF92EF920F93CF93DF9367
:103F0000CDB7DEB7C054D1090FB6F894DEBF0FBEEF
:103F1000CDBF5F934F939E012F5F3F4F3F932F93F2
:103F200020E4822E912C30E8A32EB12C6B0142E2CA
:103F3000E42E00E026E041E8FC0166818481958161
:103F40000E94FE1A0F900F900F900F90C05CDF4FF1
:103F50000FB6F894DEBF0FBECDBFDF91CF910F91AA
:103F6000EF90DF90CF90BF90AF909F908F9008958B
:103F70008F929F92AF92BF92CF92DF92EF920F9368
:103F8000C62ED12C1F921F921F921F92812C912C12
:103F9000A12CB12CE12C00E02AE041E2FC01668179
:103FA000848195810E94FE1A0F900F900F900F90C0
:103FB0000F91EF90DF90CF90BF90AF909F908F9038
:103FC00008958F929F92AF92BF92CF92DF92EF921D
:103FD0000F931F921F921F921F92812C912CA12C44
:103FE000B12CC12CD12CE12C042F29E040E00E94FF
:103FF000FE1A0F900F900F900F900F91EF90DF909F
:10400000CF90BF90AF909F908F9008950F931F9384
:10401000CF93DF932115310571F0E901042F162F9D
:104020000E94CA10FC01892B41F01283D183C08306
:10403000038380E003C088ED01C086EDDF91CF915E
:104040001F910F9108958F929F92AF92BF92CF923E
:10405000DF92EF920F93C62ED12C1F921F921F92C8
:104060001F92812C912CA12CB12CE12C042F2BE040
:1040700041E2FC016681848195810E94FE1A0F90C5
:104080000F900F900F900F91EF90DF90CF90BF9017
:10409000AF909F908F9008950F931F93CF93DF93CE
:1040A00010921D0310921C0388EE93E0A0E0B0E094
:1040B00080931E0390931F03A0932003B0932103CA
:1040C00085EA91E090931B0380931A0386ED92E0BA
:1040D000909327038093260382E992E0909329032B
:1040E0008093280385EC90E090932B0380932A0320
:1040F00084EC90E090932D0380932C0380EC90E06F
:1041000090932F0380932E0381EC90E090933103E2
:104110008093300382EC90E09093330380933203DA
:1041200086EC90E0909335038093340384E0809391
:10413000360383E08093370387E08093380385E07C
:104140008093390381E080933A0321E632E0309393
:10415000A7032093A6031092AB031092AE038093A3
:10416000AF031092B00388EA93E09093AD0380937D
:10417000AC031092A80388E08093A9038CE380939A
:10418000AA0380E090E041E028EA33E0FC01EA5530
:10419000FC4F1586D1E0468717863487238705961E
:1041A0008B34910599F706EA13E010921C0481E123
:1041B00080933C038BE492E090931E0480931D0453
:1041C0001093200400931F041092270410922804D7
:1041D0001092290410922A0410922B0410922C049D
:1041E00010922D0410922104C8E0C09322048CE3A5
:1041F00080932304D0932404C093250484E0809307
:1042000026046DE174E0C8010E94CD0810938C0370
:1042100000938B0387E292E0909388038093870357
:1042200085E492E090938A038093890310929F0320
:104230001092A0031092A1031092A2031092A30364
:104240001092A50310928E03C0938F038CE380938A
:104250009003109291031092920384E08093930351
:10426000109294031092950380939603D0939E032B
:1042700010929D0310929B03109298031092970343
:1042800010929A031092990367E873E0C8010E94A4
:10429000CD08109372030093710383E092E0909332
:1042A0006E0380936D0381E292E09093700380939C
:1042B0006F03109280031092810310928203109278
:1042C0008303109284031092860310927403C093A8
:1042D00075038CE380937603109277031092780332
:1042E00084E080937903D0937F0310927E03109231
:1042F0007C0310927B0310927A036DE673E0C80191
:104300000E94CD0810935803009357038FED91E05E
:1043100090935403809353038DEF91E09093560351
:1043200080935503109266031092670310926803FE
:104330001092690310926A0310926C0310925A0350
:10434000C0935B038CE380935C0310925D03109237
:104350005E0384E080935F03D0936503109264034F
:1043600010926203109261031092600363E573E0A0
:10437000C8010E94CD0810924F0389EC91E0909300
:1043800046038093450310925003109252031092FB
:104390005103EDE3F3E085E0DF011D928A95E9F733
:1043A00085EB91E090933E0380933D03109242038E
:1043B0001092430310924403DF91CF911F910F910C
:1043C0000895F8940C94EA21EE0FFF1F0590F491E4
:0843D000E02D0994F894FFCFE1
:1043D800016360646663616567FFFFFFFF20353333
:1043E80022122324251726272837361819101321B7
:1043F80014163411321531010203040506070809A1
:104408000A44454142400B0C1A1BFF0D292A00386B
:10441800393A62505152535455565758592B30FF18
:10442800FFFF5FFF5A46FF5B4E4F4D4CFF5C5D4AF6
:104438005E431D1E1F2D2E2F3D3E3F0F3C3067FF54
:10444800FFFFFFFFFFFFFFFFFFFFFFFFFFFFFFFF74
:10445800FFFFFFFFFFFFFFFFFF00000000D00C0081
:10446800000000AD0B000000008A0A00000000896F
:104478000A00000000330FD00FBC0F800FA00F758B
:104488000F000000009415430239023E022F023447
:104498000225022A020000000006152D04AC09724C
:1044A800026A095A025702540251020000000035FC
:1044B800072102D801BF03D5011A021802D001CB87
:1044C80001C301F301C0017D01FEFF0000B6010038
:1044D800000000CA052102620151035F011A021897
:1044E800025A0155014D01FC014A010701FEFF0076
:1044F8000040010000000064042102EC00BF02E952
:10450800001A021802E400DF00D7000502D4009B5D
:1045180000FEFF0000F30D00000000481821020112
:104528001642172816E61618022316140200000071
:0845380000CA106E10461000CD
:00000001FF
